{
	"contracts/VerifiableCredential.sol": {
		"VerifiableCredential": {
			"abi": [
				{
					"anonymous": false,
					"inputs": [
						{
							"indexed": true,
							"internalType": "string",
							"name": "credentialID",
							"type": "string"
						},
						{
							"indexed": false,
							"internalType": "string",
							"name": "issuer",
							"type": "string"
						},
						{
							"indexed": false,
							"internalType": "string",
							"name": "issuedTo",
							"type": "string"
						}
					],
					"name": "CredentialIssued",
					"type": "event"
				},
				{
					"anonymous": false,
					"inputs": [
						{
							"indexed": true,
							"internalType": "string",
							"name": "credentialID",
							"type": "string"
						}
					],
					"name": "CredentialRevoked",
					"type": "event"
				},
				{
					"inputs": [
						{
							"internalType": "string",
							"name": "_credentialID",
							"type": "string"
						}
					],
					"name": "getCredential",
					"outputs": [
						{
							"components": [
								{
									"internalType": "string",
									"name": "credentialID",
									"type": "string"
								},
								{
									"internalType": "string",
									"name": "issuer",
									"type": "string"
								},
								{
									"internalType": "string",
									"name": "issuedTo",
									"type": "string"
								},
								{
									"internalType": "string",
									"name": "metadata",
									"type": "string"
								},
								{
									"internalType": "bool",
									"name": "isValid",
									"type": "bool"
								}
							],
							"internalType": "struct VerifiableCredential.VerifiableCredential",
							"name": "",
							"type": "tuple"
						}
					],
					"stateMutability": "view",
					"type": "function"
				},
				{
					"inputs": [
						{
							"internalType": "string",
							"name": "_credentialID",
							"type": "string"
						},
						{
							"internalType": "string",
							"name": "_issuer",
							"type": "string"
						},
						{
							"internalType": "string",
							"name": "_issuedTo",
							"type": "string"
						},
						{
							"internalType": "string",
							"name": "_metadata",
							"type": "string"
						}
					],
					"name": "issueCredential",
					"outputs": [],
					"stateMutability": "nonpayable",
					"type": "function"
				},
				{
					"inputs": [
						{
							"internalType": "string",
							"name": "_credentialID",
							"type": "string"
						}
					],
					"name": "revokeCredential",
					"outputs": [],
					"stateMutability": "nonpayable",
					"type": "function"
				}
			],
			"devdoc": {
				"kind": "dev",
				"methods": {},
				"version": 1
			},
			"evm": {
				"assembly": "    /* \"contracts/VerifiableCredential.sol\":57:1606  contract VerifiableCredential {... */\n  mstore(0x40, 0x80)\n  callvalue\n  dup1\n  iszero\n  tag_1\n  jumpi\n  0x00\n  dup1\n  revert\ntag_1:\n  pop\n  dataSize(sub_0)\n  dup1\n  dataOffset(sub_0)\n  0x00\n  codecopy\n  0x00\n  return\nstop\n\nsub_0: assembly {\n        /* \"contracts/VerifiableCredential.sol\":57:1606  contract VerifiableCredential {... */\n      mstore(0x40, 0x80)\n      callvalue\n      dup1\n      iszero\n      tag_1\n      jumpi\n      0x00\n      dup1\n      revert\n    tag_1:\n      pop\n      jumpi(tag_2, lt(calldatasize, 0x04))\n      shr(0xe0, calldataload(0x00))\n      dup1\n      0x42179bd0\n      eq\n      tag_3\n      jumpi\n      dup1\n      0x5e9a2d28\n      eq\n      tag_4\n      jumpi\n      dup1\n      0xd091187f\n      eq\n      tag_5\n      jumpi\n    tag_2:\n      0x00\n      dup1\n      revert\n        /* \"contracts/VerifiableCredential.sol\":472:1076  function issueCredential(... */\n    tag_3:\n      tag_6\n      tag_7\n      calldatasize\n      0x04\n      tag_8\n      jump\t// in\n    tag_7:\n      tag_9\n      jump\t// in\n    tag_6:\n      stop\n        /* \"contracts/VerifiableCredential.sol\":1082:1357  function revokeCredential(string memory _credentialID) public {... */\n    tag_4:\n      tag_6\n      tag_11\n      calldatasize\n      0x04\n      tag_12\n      jump\t// in\n    tag_11:\n      tag_13\n      jump\t// in\n        /* \"contracts/VerifiableCredential.sol\":1363:1604  function getCredential(string memory _credentialID) public view returns (VerifiableCredential memory) {... */\n    tag_5:\n      tag_14\n      tag_15\n      calldatasize\n      0x04\n      tag_12\n      jump\t// in\n    tag_15:\n      tag_16\n      jump\t// in\n    tag_14:\n      mload(0x40)\n      tag_17\n      swap2\n      swap1\n      tag_18\n      jump\t// in\n    tag_17:\n      mload(0x40)\n      dup1\n      swap2\n      sub\n      swap1\n      return\n        /* \"contracts/VerifiableCredential.sol\":472:1076  function issueCredential(... */\n    tag_9:\n        /* \"contracts/VerifiableCredential.sol\":692:693  0 */\n      0x00\n        /* \"contracts/VerifiableCredential.sol\":668:681  _credentialID */\n      dup5\n        /* \"contracts/VerifiableCredential.sol\":662:689  bytes(_credentialID).length */\n      mload\n        /* \"contracts/VerifiableCredential.sol\":662:693  bytes(_credentialID).length > 0 */\n      gt\n        /* \"contracts/VerifiableCredential.sol\":654:728  require(bytes(_credentialID).length > 0, \"Credential ID cannot be empty.\") */\n      tag_20\n      jumpi\n      mload(0x40)\n      shl(0xe5, 0x461bcd)\n      dup2\n      mstore\n        /* \"#utility.yul\":3958:3960   */\n      0x20\n        /* \"contracts/VerifiableCredential.sol\":654:728  require(bytes(_credentialID).length > 0, \"Credential ID cannot be empty.\") */\n      0x04\n      dup3\n      add\n        /* \"#utility.yul\":3940:3961   */\n      mstore\n        /* \"#utility.yul\":3997:3999   */\n      0x1e\n        /* \"#utility.yul\":3977:3995   */\n      0x24\n      dup3\n      add\n        /* \"#utility.yul\":3970:4000   */\n      mstore\n        /* \"#utility.yul\":4036:4068   */\n      0x43726564656e7469616c2049442063616e6e6f7420626520656d7074792e0000\n        /* \"#utility.yul\":4016:4034   */\n      0x44\n      dup3\n      add\n        /* \"#utility.yul\":4009:4069   */\n      mstore\n        /* \"#utility.yul\":4086:4104   */\n      0x64\n      add\n        /* \"contracts/VerifiableCredential.sol\":654:728  require(bytes(_credentialID).length > 0, \"Credential ID cannot be empty.\") */\n    tag_21:\n      mload(0x40)\n      dup1\n      swap2\n      sub\n      swap1\n      revert\n    tag_20:\n        /* \"contracts/VerifiableCredential.sol\":746:757  credentials */\n      0x00\n        /* \"contracts/VerifiableCredential.sol\":758:771  _credentialID */\n      dup5\n        /* \"contracts/VerifiableCredential.sol\":746:772  credentials[_credentialID] */\n      mload(0x40)\n      tag_23\n      swap2\n      swap1\n      tag_24\n      jump\t// in\n    tag_23:\n      swap1\n      dup2\n      mstore\n      mload(0x40)\n      swap1\n      dup2\n      swap1\n      sub\n      0x20\n      add\n      swap1\n      keccak256\n        /* \"contracts/VerifiableCredential.sol\":746:780  credentials[_credentialID].isValid */\n      0x04\n      add\n      sload\n      0xff\n      and\n        /* \"contracts/VerifiableCredential.sol\":746:789  credentials[_credentialID].isValid == false */\n      iszero\n        /* \"contracts/VerifiableCredential.sol\":738:820  require(credentials[_credentialID].isValid == false, \"Credential already exists.\") */\n      tag_25\n      jumpi\n      mload(0x40)\n      shl(0xe5, 0x461bcd)\n      dup2\n      mstore\n        /* \"#utility.yul\":4611:4613   */\n      0x20\n        /* \"contracts/VerifiableCredential.sol\":738:820  require(credentials[_credentialID].isValid == false, \"Credential already exists.\") */\n      0x04\n      dup3\n      add\n        /* \"#utility.yul\":4593:4614   */\n      mstore\n        /* \"#utility.yul\":4650:4652   */\n      0x1a\n        /* \"#utility.yul\":4630:4648   */\n      0x24\n      dup3\n      add\n        /* \"#utility.yul\":4623:4653   */\n      mstore\n        /* \"#utility.yul\":4689:4717   */\n      0x43726564656e7469616c20616c7265616479206578697374732e000000000000\n        /* \"#utility.yul\":4669:4687   */\n      0x44\n      dup3\n      add\n        /* \"#utility.yul\":4662:4718   */\n      mstore\n        /* \"#utility.yul\":4735:4753   */\n      0x64\n      add\n        /* \"contracts/VerifiableCredential.sol\":738:820  require(credentials[_credentialID].isValid == false, \"Credential already exists.\") */\n      tag_21\n        /* \"#utility.yul\":4409:4759   */\n      jump\n        /* \"contracts/VerifiableCredential.sol\":738:820  require(credentials[_credentialID].isValid == false, \"Credential already exists.\") */\n    tag_25:\n        /* \"contracts/VerifiableCredential.sol\":860:1002  VerifiableCredential(... */\n      mload(0x40)\n      dup1\n      0xa0\n      add\n      0x40\n      mstore\n      dup1\n        /* \"contracts/VerifiableCredential.sol\":894:907  _credentialID */\n      dup6\n        /* \"contracts/VerifiableCredential.sol\":860:1002  VerifiableCredential(... */\n      dup2\n      mstore\n      0x20\n      add\n        /* \"contracts/VerifiableCredential.sol\":921:928  _issuer */\n      dup5\n        /* \"contracts/VerifiableCredential.sol\":860:1002  VerifiableCredential(... */\n      dup2\n      mstore\n      0x20\n      add\n        /* \"contracts/VerifiableCredential.sol\":942:951  _issuedTo */\n      dup4\n        /* \"contracts/VerifiableCredential.sol\":860:1002  VerifiableCredential(... */\n      dup2\n      mstore\n      0x20\n      add\n        /* \"contracts/VerifiableCredential.sol\":965:974  _metadata */\n      dup3\n        /* \"contracts/VerifiableCredential.sol\":860:1002  VerifiableCredential(... */\n      dup2\n      mstore\n      0x20\n      add\n        /* \"contracts/VerifiableCredential.sol\":988:992  true */\n      0x01\n        /* \"contracts/VerifiableCredential.sol\":860:1002  VerifiableCredential(... */\n      iszero\n      iszero\n      dup2\n      mstore\n      pop\n        /* \"contracts/VerifiableCredential.sol\":831:842  credentials */\n      0x00\n        /* \"contracts/VerifiableCredential.sol\":843:856  _credentialID */\n      dup6\n        /* \"contracts/VerifiableCredential.sol\":831:857  credentials[_credentialID] */\n      mload(0x40)\n      tag_28\n      swap2\n      swap1\n      tag_24\n      jump\t// in\n    tag_28:\n      swap1\n      dup2\n      mstore\n      mload(0x40)\n      swap1\n      dup2\n      swap1\n      sub\n      0x20\n      add\n      swap1\n      keccak256\n        /* \"contracts/VerifiableCredential.sol\":831:1002  credentials[_credentialID] = VerifiableCredential(... */\n      dup2\n      mload\n        /* \"contracts/VerifiableCredential.sol\":831:857  credentials[_credentialID] */\n      dup2\n      swap1\n        /* \"contracts/VerifiableCredential.sol\":831:1002  credentials[_credentialID] = VerifiableCredential(... */\n      tag_29\n      swap1\n        /* \"contracts/VerifiableCredential.sol\":831:857  credentials[_credentialID] */\n      dup3\n        /* \"contracts/VerifiableCredential.sol\":831:1002  credentials[_credentialID] = VerifiableCredential(... */\n      tag_30\n      jump\t// in\n    tag_29:\n      pop\n      0x20\n      dup3\n      add\n      mload\n      0x01\n      dup3\n      add\n      swap1\n      tag_31\n      swap1\n      dup3\n      tag_30\n      jump\t// in\n    tag_31:\n      pop\n      0x40\n      dup3\n      add\n      mload\n      0x02\n      dup3\n      add\n      swap1\n      tag_32\n      swap1\n      dup3\n      tag_30\n      jump\t// in\n    tag_32:\n      pop\n      0x60\n      dup3\n      add\n      mload\n      0x03\n      dup3\n      add\n      swap1\n      tag_33\n      swap1\n      dup3\n      tag_30\n      jump\t// in\n    tag_33:\n      pop\n      0x80\n      swap2\n      swap1\n      swap2\n      add\n      mload\n      0x04\n      swap1\n      swap2\n      add\n      dup1\n      sload\n      not(0xff)\n      and\n      swap2\n      iszero\n      iszero\n      swap2\n      swap1\n      swap2\n      or\n      swap1\n      sstore\n        /* \"contracts/VerifiableCredential.sol\":1018:1069  CredentialIssued(_credentialID, _issuer, _issuedTo) */\n      mload(0x40)\n      tag_34\n      swap1\n        /* \"contracts/VerifiableCredential.sol\":1035:1048  _credentialID */\n      dup6\n      swap1\n        /* \"contracts/VerifiableCredential.sol\":1018:1069  CredentialIssued(_credentialID, _issuer, _issuedTo) */\n      tag_24\n      jump\t// in\n    tag_34:\n      mload(0x40)\n      dup1\n      swap2\n      sub\n      swap1\n      keccak256\n      0x0e6a4bfdad0dec411057ff80cfe722c3cffed190a916432465a6e492ec802e49\n        /* \"contracts/VerifiableCredential.sol\":1050:1057  _issuer */\n      dup5\n        /* \"contracts/VerifiableCredential.sol\":1059:1068  _issuedTo */\n      dup5\n        /* \"contracts/VerifiableCredential.sol\":1018:1069  CredentialIssued(_credentialID, _issuer, _issuedTo) */\n      mload(0x40)\n      tag_35\n      swap3\n      swap2\n      swap1\n      tag_36\n      jump\t// in\n    tag_35:\n      mload(0x40)\n      dup1\n      swap2\n      sub\n      swap1\n      log2\n        /* \"contracts/VerifiableCredential.sol\":472:1076  function issueCredential(... */\n      pop\n      pop\n      pop\n      pop\n      jump\t// out\n        /* \"contracts/VerifiableCredential.sol\":1082:1357  function revokeCredential(string memory _credentialID) public {... */\n    tag_13:\n        /* \"contracts/VerifiableCredential.sol\":1162:1173  credentials */\n      0x00\n        /* \"contracts/VerifiableCredential.sol\":1174:1187  _credentialID */\n      dup2\n        /* \"contracts/VerifiableCredential.sol\":1162:1188  credentials[_credentialID] */\n      mload(0x40)\n      tag_38\n      swap2\n      swap1\n      tag_24\n      jump\t// in\n    tag_38:\n      swap1\n      dup2\n      mstore\n      mload(0x40)\n      swap1\n      dup2\n      swap1\n      sub\n      0x20\n      add\n      swap1\n      keccak256\n        /* \"contracts/VerifiableCredential.sol\":1162:1196  credentials[_credentialID].isValid */\n      0x04\n      add\n      sload\n      0xff\n      and\n        /* \"contracts/VerifiableCredential.sol\":1162:1204  credentials[_credentialID].isValid == true */\n      iszero\n      iszero\n        /* \"contracts/VerifiableCredential.sol\":1162:1196  credentials[_credentialID].isValid */\n      0x01\n        /* \"contracts/VerifiableCredential.sol\":1162:1204  credentials[_credentialID].isValid == true */\n      eq\n        /* \"contracts/VerifiableCredential.sol\":1154:1249  require(credentials[_credentialID].isValid == true, \"Credential does not exist or is invalid.\") */\n      tag_39\n      jumpi\n      mload(0x40)\n      shl(0xe5, 0x461bcd)\n      dup2\n      mstore\n        /* \"#utility.yul\":7863:7865   */\n      0x20\n        /* \"contracts/VerifiableCredential.sol\":1154:1249  require(credentials[_credentialID].isValid == true, \"Credential does not exist or is invalid.\") */\n      0x04\n      dup3\n      add\n        /* \"#utility.yul\":7845:7866   */\n      mstore\n        /* \"#utility.yul\":7902:7904   */\n      0x28\n        /* \"#utility.yul\":7882:7900   */\n      0x24\n      dup3\n      add\n        /* \"#utility.yul\":7875:7905   */\n      mstore\n        /* \"#utility.yul\":7941:7975   */\n      0x43726564656e7469616c20646f6573206e6f74206578697374206f7220697320\n        /* \"#utility.yul\":7921:7939   */\n      0x44\n      dup3\n      add\n        /* \"#utility.yul\":7914:7976   */\n      mstore\n      shl(0xc1, 0x34b73b30b634b217)\n        /* \"#utility.yul\":7992:8010   */\n      0x64\n      dup3\n      add\n        /* \"#utility.yul\":7985:8023   */\n      mstore\n        /* \"#utility.yul\":8040:8059   */\n      0x84\n      add\n        /* \"contracts/VerifiableCredential.sol\":1154:1249  require(credentials[_credentialID].isValid == true, \"Credential does not exist or is invalid.\") */\n      tag_21\n        /* \"#utility.yul\":7661:8065   */\n      jump\n        /* \"contracts/VerifiableCredential.sol\":1154:1249  require(credentials[_credentialID].isValid == true, \"Credential does not exist or is invalid.\") */\n    tag_39:\n        /* \"contracts/VerifiableCredential.sol\":1297:1302  false */\n      0x00\n        /* \"contracts/VerifiableCredential.sol\":1260:1271  credentials */\n      dup1\n        /* \"contracts/VerifiableCredential.sol\":1272:1285  _credentialID */\n      dup3\n        /* \"contracts/VerifiableCredential.sol\":1260:1286  credentials[_credentialID] */\n      mload(0x40)\n      tag_42\n      swap2\n      swap1\n      tag_24\n      jump\t// in\n    tag_42:\n      swap1\n      dup2\n      mstore\n      mload(0x40)\n      swap1\n      dup2\n      swap1\n      sub\n      0x20\n      add\n      dup2\n      keccak256\n        /* \"contracts/VerifiableCredential.sol\":1260:1294  credentials[_credentialID].isValid */\n      0x04\n      add\n        /* \"contracts/VerifiableCredential.sol\":1260:1302  credentials[_credentialID].isValid = false */\n      dup1\n      sload\n      swap3\n      iszero\n      iszero\n      not(0xff)\n      swap1\n      swap4\n      and\n      swap3\n      swap1\n      swap3\n      or\n      swap1\n      swap2\n      sstore\n        /* \"contracts/VerifiableCredential.sol\":1318:1350  CredentialRevoked(_credentialID) */\n      tag_43\n      swap1\n        /* \"contracts/VerifiableCredential.sol\":1336:1349  _credentialID */\n      dup3\n      swap1\n        /* \"contracts/VerifiableCredential.sol\":1318:1350  CredentialRevoked(_credentialID) */\n      tag_24\n      jump\t// in\n    tag_43:\n      mload(0x40)\n      swap1\n      dup2\n      swap1\n      sub\n      dup2\n      keccak256\n      swap1\n      0x19d981dae71c0e172d789c8bef41062792bc14fa2e555bba0bae3c104d2b2a41\n      swap1\n      0x00\n      swap1\n      log2\n        /* \"contracts/VerifiableCredential.sol\":1082:1357  function revokeCredential(string memory _credentialID) public {... */\n      pop\n      jump\t// out\n        /* \"contracts/VerifiableCredential.sol\":1363:1604  function getCredential(string memory _credentialID) public view returns (VerifiableCredential memory) {... */\n    tag_16:\n        /* \"contracts/VerifiableCredential.sol\":1436:1463  VerifiableCredential memory */\n      tag_44\n      mload(0x40)\n      dup1\n      0xa0\n      add\n      0x40\n      mstore\n      dup1\n      0x60\n      dup2\n      mstore\n      0x20\n      add\n      0x60\n      dup2\n      mstore\n      0x20\n      add\n      0x60\n      dup2\n      mstore\n      0x20\n      add\n      0x60\n      dup2\n      mstore\n      0x20\n      add\n      iszero(iszero(0x00))\n      dup2\n      mstore\n      pop\n      swap1\n      jump\n    tag_44:\n        /* \"contracts/VerifiableCredential.sol\":1483:1494  credentials */\n      0x00\n        /* \"contracts/VerifiableCredential.sol\":1495:1508  _credentialID */\n      dup3\n        /* \"contracts/VerifiableCredential.sol\":1483:1509  credentials[_credentialID] */\n      mload(0x40)\n      tag_47\n      swap2\n      swap1\n      tag_24\n      jump\t// in\n    tag_47:\n      swap1\n      dup2\n      mstore\n      mload(0x40)\n      swap1\n      dup2\n      swap1\n      sub\n      0x20\n      add\n      swap1\n      keccak256\n        /* \"contracts/VerifiableCredential.sol\":1483:1517  credentials[_credentialID].isValid */\n      0x04\n      add\n      sload\n      0xff\n      and\n        /* \"contracts/VerifiableCredential.sol\":1483:1525  credentials[_credentialID].isValid == true */\n      iszero\n      iszero\n        /* \"contracts/VerifiableCredential.sol\":1483:1517  credentials[_credentialID].isValid */\n      0x01\n        /* \"contracts/VerifiableCredential.sol\":1483:1525  credentials[_credentialID].isValid == true */\n      eq\n        /* \"contracts/VerifiableCredential.sol\":1475:1554  require(credentials[_credentialID].isValid == true, \"Credential is not valid.\") */\n      tag_48\n      jumpi\n      mload(0x40)\n      shl(0xe5, 0x461bcd)\n      dup2\n      mstore\n        /* \"#utility.yul\":8272:8274   */\n      0x20\n        /* \"contracts/VerifiableCredential.sol\":1475:1554  require(credentials[_credentialID].isValid == true, \"Credential is not valid.\") */\n      0x04\n      dup3\n      add\n        /* \"#utility.yul\":8254:8275   */\n      mstore\n        /* \"#utility.yul\":8311:8313   */\n      0x18\n        /* \"#utility.yul\":8291:8309   */\n      0x24\n      dup3\n      add\n        /* \"#utility.yul\":8284:8314   */\n      mstore\n        /* \"#utility.yul\":8350:8376   */\n      0x43726564656e7469616c206973206e6f742076616c69642e0000000000000000\n        /* \"#utility.yul\":8330:8348   */\n      0x44\n      dup3\n      add\n        /* \"#utility.yul\":8323:8377   */\n      mstore\n        /* \"#utility.yul\":8394:8412   */\n      0x64\n      add\n        /* \"contracts/VerifiableCredential.sol\":1475:1554  require(credentials[_credentialID].isValid == true, \"Credential is not valid.\") */\n      tag_21\n        /* \"#utility.yul\":8070:8418   */\n      jump\n        /* \"contracts/VerifiableCredential.sol\":1475:1554  require(credentials[_credentialID].isValid == true, \"Credential is not valid.\") */\n    tag_48:\n        /* \"contracts/VerifiableCredential.sol\":1571:1582  credentials */\n      0x00\n        /* \"contracts/VerifiableCredential.sol\":1583:1596  _credentialID */\n      dup3\n        /* \"contracts/VerifiableCredential.sol\":1571:1597  credentials[_credentialID] */\n      mload(0x40)\n      tag_51\n      swap2\n      swap1\n      tag_24\n      jump\t// in\n    tag_51:\n      swap1\n      dup2\n      mstore\n      0x20\n      add\n      mload(0x40)\n      dup1\n      swap2\n      sub\n      swap1\n      keccak256\n        /* \"contracts/VerifiableCredential.sol\":1564:1597  return credentials[_credentialID] */\n      mload(0x40)\n      dup1\n      0xa0\n      add\n      0x40\n      mstore\n      swap1\n      dup2\n      0x00\n      dup3\n      add\n      dup1\n      sload\n      tag_52\n      swap1\n      tag_53\n      jump\t// in\n    tag_52:\n      dup1\n      0x1f\n      add\n      0x20\n      dup1\n      swap2\n      div\n      mul\n      0x20\n      add\n      mload(0x40)\n      swap1\n      dup2\n      add\n      0x40\n      mstore\n      dup1\n      swap3\n      swap2\n      swap1\n      dup2\n      dup2\n      mstore\n      0x20\n      add\n      dup3\n      dup1\n      sload\n      tag_54\n      swap1\n      tag_53\n      jump\t// in\n    tag_54:\n      dup1\n      iszero\n      tag_55\n      jumpi\n      dup1\n      0x1f\n      lt\n      tag_56\n      jumpi\n      0x0100\n      dup1\n      dup4\n      sload\n      div\n      mul\n      dup4\n      mstore\n      swap2\n      0x20\n      add\n      swap2\n      jump(tag_55)\n    tag_56:\n      dup3\n      add\n      swap2\n      swap1\n      0x00\n      mstore\n      keccak256(0x00, 0x20)\n      swap1\n    tag_57:\n      dup2\n      sload\n      dup2\n      mstore\n      swap1\n      0x01\n      add\n      swap1\n      0x20\n      add\n      dup1\n      dup4\n      gt\n      tag_57\n      jumpi\n      dup3\n      swap1\n      sub\n      0x1f\n      and\n      dup3\n      add\n      swap2\n    tag_55:\n      pop\n      pop\n      pop\n      pop\n      pop\n      dup2\n      mstore\n      0x20\n      add\n      0x01\n      dup3\n      add\n      dup1\n      sload\n      tag_58\n      swap1\n      tag_53\n      jump\t// in\n    tag_58:\n      dup1\n      0x1f\n      add\n      0x20\n      dup1\n      swap2\n      div\n      mul\n      0x20\n      add\n      mload(0x40)\n      swap1\n      dup2\n      add\n      0x40\n      mstore\n      dup1\n      swap3\n      swap2\n      swap1\n      dup2\n      dup2\n      mstore\n      0x20\n      add\n      dup3\n      dup1\n      sload\n      tag_59\n      swap1\n      tag_53\n      jump\t// in\n    tag_59:\n      dup1\n      iszero\n      tag_60\n      jumpi\n      dup1\n      0x1f\n      lt\n      tag_61\n      jumpi\n      0x0100\n      dup1\n      dup4\n      sload\n      div\n      mul\n      dup4\n      mstore\n      swap2\n      0x20\n      add\n      swap2\n      jump(tag_60)\n    tag_61:\n      dup3\n      add\n      swap2\n      swap1\n      0x00\n      mstore\n      keccak256(0x00, 0x20)\n      swap1\n    tag_62:\n      dup2\n      sload\n      dup2\n      mstore\n      swap1\n      0x01\n      add\n      swap1\n      0x20\n      add\n      dup1\n      dup4\n      gt\n      tag_62\n      jumpi\n      dup3\n      swap1\n      sub\n      0x1f\n      and\n      dup3\n      add\n      swap2\n    tag_60:\n      pop\n      pop\n      pop\n      pop\n      pop\n      dup2\n      mstore\n      0x20\n      add\n      0x02\n      dup3\n      add\n      dup1\n      sload\n      tag_63\n      swap1\n      tag_53\n      jump\t// in\n    tag_63:\n      dup1\n      0x1f\n      add\n      0x20\n      dup1\n      swap2\n      div\n      mul\n      0x20\n      add\n      mload(0x40)\n      swap1\n      dup2\n      add\n      0x40\n      mstore\n      dup1\n      swap3\n      swap2\n      swap1\n      dup2\n      dup2\n      mstore\n      0x20\n      add\n      dup3\n      dup1\n      sload\n      tag_64\n      swap1\n      tag_53\n      jump\t// in\n    tag_64:\n      dup1\n      iszero\n      tag_65\n      jumpi\n      dup1\n      0x1f\n      lt\n      tag_66\n      jumpi\n      0x0100\n      dup1\n      dup4\n      sload\n      div\n      mul\n      dup4\n      mstore\n      swap2\n      0x20\n      add\n      swap2\n      jump(tag_65)\n    tag_66:\n      dup3\n      add\n      swap2\n      swap1\n      0x00\n      mstore\n      keccak256(0x00, 0x20)\n      swap1\n    tag_67:\n      dup2\n      sload\n      dup2\n      mstore\n      swap1\n      0x01\n      add\n      swap1\n      0x20\n      add\n      dup1\n      dup4\n      gt\n      tag_67\n      jumpi\n      dup3\n      swap1\n      sub\n      0x1f\n      and\n      dup3\n      add\n      swap2\n    tag_65:\n      pop\n      pop\n      pop\n      pop\n      pop\n      dup2\n      mstore\n      0x20\n      add\n      0x03\n      dup3\n      add\n      dup1\n      sload\n      tag_68\n      swap1\n      tag_53\n      jump\t// in\n    tag_68:\n      dup1\n      0x1f\n      add\n      0x20\n      dup1\n      swap2\n      div\n      mul\n      0x20\n      add\n      mload(0x40)\n      swap1\n      dup2\n      add\n      0x40\n      mstore\n      dup1\n      swap3\n      swap2\n      swap1\n      dup2\n      dup2\n      mstore\n      0x20\n      add\n      dup3\n      dup1\n      sload\n      tag_69\n      swap1\n      tag_53\n      jump\t// in\n    tag_69:\n      dup1\n      iszero\n      tag_70\n      jumpi\n      dup1\n      0x1f\n      lt\n      tag_71\n      jumpi\n      0x0100\n      dup1\n      dup4\n      sload\n      div\n      mul\n      dup4\n      mstore\n      swap2\n      0x20\n      add\n      swap2\n      jump(tag_70)\n    tag_71:\n      dup3\n      add\n      swap2\n      swap1\n      0x00\n      mstore\n      keccak256(0x00, 0x20)\n      swap1\n    tag_72:\n      dup2\n      sload\n      dup2\n      mstore\n      swap1\n      0x01\n      add\n      swap1\n      0x20\n      add\n      dup1\n      dup4\n      gt\n      tag_72\n      jumpi\n      dup3\n      swap1\n      sub\n      0x1f\n      and\n      dup3\n      add\n      swap2\n    tag_70:\n      pop\n      pop\n      pop\n      swap2\n      dup4\n      mstore\n      pop\n      pop\n      0x04\n      swap2\n      swap1\n      swap2\n      add\n      sload\n      0xff\n      and\n      iszero\n      iszero\n      0x20\n      swap1\n      swap2\n      add\n      mstore\n      swap3\n        /* \"contracts/VerifiableCredential.sol\":1363:1604  function getCredential(string memory _credentialID) public view returns (VerifiableCredential memory) {... */\n      swap2\n      pop\n      pop\n      jump\t// out\n        /* \"#utility.yul\":14:141   */\n    tag_73:\n        /* \"#utility.yul\":75:85   */\n      0x4e487b71\n        /* \"#utility.yul\":70:73   */\n      0xe0\n        /* \"#utility.yul\":66:86   */\n      shl\n        /* \"#utility.yul\":63:64   */\n      0x00\n        /* \"#utility.yul\":56:87   */\n      mstore\n        /* \"#utility.yul\":106:110   */\n      0x41\n        /* \"#utility.yul\":103:104   */\n      0x04\n        /* \"#utility.yul\":96:111   */\n      mstore\n        /* \"#utility.yul\":130:134   */\n      0x24\n        /* \"#utility.yul\":127:128   */\n      0x00\n        /* \"#utility.yul\":120:135   */\n      revert\n        /* \"#utility.yul\":146:872   */\n    tag_74:\n        /* \"#utility.yul\":189:194   */\n      0x00\n        /* \"#utility.yul\":242:245   */\n      dup3\n        /* \"#utility.yul\":235:239   */\n      0x1f\n        /* \"#utility.yul\":227:233   */\n      dup4\n        /* \"#utility.yul\":223:240   */\n      add\n        /* \"#utility.yul\":219:246   */\n      slt\n        /* \"#utility.yul\":209:264   */\n      tag_83\n      jumpi\n        /* \"#utility.yul\":260:261   */\n      0x00\n        /* \"#utility.yul\":257:258   */\n      dup1\n        /* \"#utility.yul\":250:262   */\n      revert\n        /* \"#utility.yul\":209:264   */\n    tag_83:\n        /* \"#utility.yul\":300:306   */\n      dup2\n        /* \"#utility.yul\":287:307   */\n      calldataload\n        /* \"#utility.yul\":330:348   */\n      0xffffffffffffffff\n        /* \"#utility.yul\":322:328   */\n      dup2\n        /* \"#utility.yul\":319:349   */\n      gt\n        /* \"#utility.yul\":316:372   */\n      iszero\n      tag_85\n      jumpi\n        /* \"#utility.yul\":352:370   */\n      tag_85\n      tag_73\n      jump\t// in\n    tag_85:\n        /* \"#utility.yul\":401:403   */\n      0x40\n        /* \"#utility.yul\":395:404   */\n      mload\n        /* \"#utility.yul\":493:495   */\n      0x1f\n        /* \"#utility.yul\":455:472   */\n      dup3\n      add\n      not(0x1f)\n        /* \"#utility.yul\":451:482   */\n      swap1\n      dup2\n      and\n        /* \"#utility.yul\":484:486   */\n      0x3f\n        /* \"#utility.yul\":447:487   */\n      add\n        /* \"#utility.yul\":443:497   */\n      and\n        /* \"#utility.yul\":431:498   */\n      dup2\n      add\n        /* \"#utility.yul\":528:546   */\n      0xffffffffffffffff\n        /* \"#utility.yul\":513:547   */\n      dup2\n      gt\n        /* \"#utility.yul\":549:571   */\n      dup3\n      dup3\n      lt\n        /* \"#utility.yul\":510:572   */\n      or\n        /* \"#utility.yul\":507:595   */\n      iszero\n      tag_87\n      jumpi\n        /* \"#utility.yul\":575:593   */\n      tag_87\n      tag_73\n      jump\t// in\n    tag_87:\n        /* \"#utility.yul\":611:613   */\n      0x40\n        /* \"#utility.yul\":604:626   */\n      mstore\n        /* \"#utility.yul\":635:657   */\n      dup2\n      dup2\n      mstore\n        /* \"#utility.yul\":676:695   */\n      dup4\n      dup3\n      add\n        /* \"#utility.yul\":697:701   */\n      0x20\n        /* \"#utility.yul\":672:702   */\n      add\n        /* \"#utility.yul\":669:708   */\n      dup6\n      lt\n        /* \"#utility.yul\":666:725   */\n      iszero\n      tag_88\n      jumpi\n        /* \"#utility.yul\":721:722   */\n      0x00\n        /* \"#utility.yul\":718:719   */\n      dup1\n        /* \"#utility.yul\":711:723   */\n      revert\n        /* \"#utility.yul\":666:725   */\n    tag_88:\n        /* \"#utility.yul\":785:791   */\n      dup2\n        /* \"#utility.yul\":778:782   */\n      0x20\n        /* \"#utility.yul\":770:776   */\n      dup6\n        /* \"#utility.yul\":766:783   */\n      add\n        /* \"#utility.yul\":759:763   */\n      0x20\n        /* \"#utility.yul\":751:757   */\n      dup4\n        /* \"#utility.yul\":747:764   */\n      add\n        /* \"#utility.yul\":734:792   */\n      calldatacopy\n        /* \"#utility.yul\":840:841   */\n      0x00\n        /* \"#utility.yul\":812:831   */\n      swap2\n      dup2\n      add\n        /* \"#utility.yul\":833:837   */\n      0x20\n        /* \"#utility.yul\":808:838   */\n      add\n        /* \"#utility.yul\":801:842   */\n      swap2\n      swap1\n      swap2\n      mstore\n        /* \"#utility.yul\":816:822   */\n      swap4\n        /* \"#utility.yul\":146:872   */\n      swap3\n      pop\n      pop\n      pop\n      jump\t// out\n        /* \"#utility.yul\":877:1848   */\n    tag_8:\n        /* \"#utility.yul\":1003:1009   */\n      0x00\n        /* \"#utility.yul\":1011:1017   */\n      dup1\n        /* \"#utility.yul\":1019:1025   */\n      0x00\n        /* \"#utility.yul\":1027:1033   */\n      dup1\n        /* \"#utility.yul\":1080:1083   */\n      0x80\n        /* \"#utility.yul\":1068:1077   */\n      dup6\n        /* \"#utility.yul\":1059:1066   */\n      dup8\n        /* \"#utility.yul\":1055:1078   */\n      sub\n        /* \"#utility.yul\":1051:1084   */\n      slt\n        /* \"#utility.yul\":1048:1101   */\n      iszero\n      tag_90\n      jumpi\n        /* \"#utility.yul\":1097:1098   */\n      0x00\n        /* \"#utility.yul\":1094:1095   */\n      dup1\n        /* \"#utility.yul\":1087:1099   */\n      revert\n        /* \"#utility.yul\":1048:1101   */\n    tag_90:\n        /* \"#utility.yul\":1137:1146   */\n      dup5\n        /* \"#utility.yul\":1124:1147   */\n      calldataload\n        /* \"#utility.yul\":1170:1188   */\n      0xffffffffffffffff\n        /* \"#utility.yul\":1162:1168   */\n      dup2\n        /* \"#utility.yul\":1159:1189   */\n      gt\n        /* \"#utility.yul\":1156:1206   */\n      iszero\n      tag_91\n      jumpi\n        /* \"#utility.yul\":1202:1203   */\n      0x00\n        /* \"#utility.yul\":1199:1200   */\n      dup1\n        /* \"#utility.yul\":1192:1204   */\n      revert\n        /* \"#utility.yul\":1156:1206   */\n    tag_91:\n        /* \"#utility.yul\":1225:1275   */\n      tag_92\n        /* \"#utility.yul\":1267:1274   */\n      dup8\n        /* \"#utility.yul\":1258:1264   */\n      dup3\n        /* \"#utility.yul\":1247:1256   */\n      dup9\n        /* \"#utility.yul\":1243:1265   */\n      add\n        /* \"#utility.yul\":1225:1275   */\n      tag_74\n      jump\t// in\n    tag_92:\n        /* \"#utility.yul\":1215:1275   */\n      swap5\n      pop\n      pop\n        /* \"#utility.yul\":1328:1330   */\n      0x20\n        /* \"#utility.yul\":1317:1326   */\n      dup6\n        /* \"#utility.yul\":1313:1331   */\n      add\n        /* \"#utility.yul\":1300:1332   */\n      calldataload\n        /* \"#utility.yul\":1357:1375   */\n      0xffffffffffffffff\n        /* \"#utility.yul\":1347:1355   */\n      dup2\n        /* \"#utility.yul\":1344:1376   */\n      gt\n        /* \"#utility.yul\":1341:1393   */\n      iszero\n      tag_93\n      jumpi\n        /* \"#utility.yul\":1389:1390   */\n      0x00\n        /* \"#utility.yul\":1386:1387   */\n      dup1\n        /* \"#utility.yul\":1379:1391   */\n      revert\n        /* \"#utility.yul\":1341:1393   */\n    tag_93:\n        /* \"#utility.yul\":1412:1464   */\n      tag_94\n        /* \"#utility.yul\":1456:1463   */\n      dup8\n        /* \"#utility.yul\":1445:1453   */\n      dup3\n        /* \"#utility.yul\":1434:1443   */\n      dup9\n        /* \"#utility.yul\":1430:1454   */\n      add\n        /* \"#utility.yul\":1412:1464   */\n      tag_74\n      jump\t// in\n    tag_94:\n        /* \"#utility.yul\":1402:1464   */\n      swap4\n      pop\n      pop\n        /* \"#utility.yul\":1517:1519   */\n      0x40\n        /* \"#utility.yul\":1506:1515   */\n      dup6\n        /* \"#utility.yul\":1502:1520   */\n      add\n        /* \"#utility.yul\":1489:1521   */\n      calldataload\n        /* \"#utility.yul\":1546:1564   */\n      0xffffffffffffffff\n        /* \"#utility.yul\":1536:1544   */\n      dup2\n        /* \"#utility.yul\":1533:1565   */\n      gt\n        /* \"#utility.yul\":1530:1582   */\n      iszero\n      tag_95\n      jumpi\n        /* \"#utility.yul\":1578:1579   */\n      0x00\n        /* \"#utility.yul\":1575:1576   */\n      dup1\n        /* \"#utility.yul\":1568:1580   */\n      revert\n        /* \"#utility.yul\":1530:1582   */\n    tag_95:\n        /* \"#utility.yul\":1601:1653   */\n      tag_96\n        /* \"#utility.yul\":1645:1652   */\n      dup8\n        /* \"#utility.yul\":1634:1642   */\n      dup3\n        /* \"#utility.yul\":1623:1632   */\n      dup9\n        /* \"#utility.yul\":1619:1643   */\n      add\n        /* \"#utility.yul\":1601:1653   */\n      tag_74\n      jump\t// in\n    tag_96:\n        /* \"#utility.yul\":1591:1653   */\n      swap3\n      pop\n      pop\n        /* \"#utility.yul\":1706:1708   */\n      0x60\n        /* \"#utility.yul\":1695:1704   */\n      dup6\n        /* \"#utility.yul\":1691:1709   */\n      add\n        /* \"#utility.yul\":1678:1710   */\n      calldataload\n        /* \"#utility.yul\":1735:1753   */\n      0xffffffffffffffff\n        /* \"#utility.yul\":1725:1733   */\n      dup2\n        /* \"#utility.yul\":1722:1754   */\n      gt\n        /* \"#utility.yul\":1719:1771   */\n      iszero\n      tag_97\n      jumpi\n        /* \"#utility.yul\":1767:1768   */\n      0x00\n        /* \"#utility.yul\":1764:1765   */\n      dup1\n        /* \"#utility.yul\":1757:1769   */\n      revert\n        /* \"#utility.yul\":1719:1771   */\n    tag_97:\n        /* \"#utility.yul\":1790:1842   */\n      tag_98\n        /* \"#utility.yul\":1834:1841   */\n      dup8\n        /* \"#utility.yul\":1823:1831   */\n      dup3\n        /* \"#utility.yul\":1812:1821   */\n      dup9\n        /* \"#utility.yul\":1808:1832   */\n      add\n        /* \"#utility.yul\":1790:1842   */\n      tag_74\n      jump\t// in\n    tag_98:\n        /* \"#utility.yul\":1780:1842   */\n      swap2\n      pop\n      pop\n        /* \"#utility.yul\":877:1848   */\n      swap3\n      swap6\n      swap2\n      swap5\n      pop\n      swap3\n      pop\n      jump\t// out\n        /* \"#utility.yul\":1853:2175   */\n    tag_12:\n        /* \"#utility.yul\":1922:1928   */\n      0x00\n        /* \"#utility.yul\":1975:1977   */\n      0x20\n        /* \"#utility.yul\":1963:1972   */\n      dup3\n        /* \"#utility.yul\":1954:1961   */\n      dup5\n        /* \"#utility.yul\":1950:1973   */\n      sub\n        /* \"#utility.yul\":1946:1978   */\n      slt\n        /* \"#utility.yul\":1943:1995   */\n      iszero\n      tag_100\n      jumpi\n        /* \"#utility.yul\":1991:1992   */\n      0x00\n        /* \"#utility.yul\":1988:1989   */\n      dup1\n        /* \"#utility.yul\":1981:1993   */\n      revert\n        /* \"#utility.yul\":1943:1995   */\n    tag_100:\n        /* \"#utility.yul\":2031:2040   */\n      dup2\n        /* \"#utility.yul\":2018:2041   */\n      calldataload\n        /* \"#utility.yul\":2064:2082   */\n      0xffffffffffffffff\n        /* \"#utility.yul\":2056:2062   */\n      dup2\n        /* \"#utility.yul\":2053:2083   */\n      gt\n        /* \"#utility.yul\":2050:2100   */\n      iszero\n      tag_101\n      jumpi\n        /* \"#utility.yul\":2096:2097   */\n      0x00\n        /* \"#utility.yul\":2093:2094   */\n      dup1\n        /* \"#utility.yul\":2086:2098   */\n      revert\n        /* \"#utility.yul\":2050:2100   */\n    tag_101:\n        /* \"#utility.yul\":2119:2169   */\n      tag_102\n        /* \"#utility.yul\":2161:2168   */\n      dup5\n        /* \"#utility.yul\":2152:2158   */\n      dup3\n        /* \"#utility.yul\":2141:2150   */\n      dup6\n        /* \"#utility.yul\":2137:2159   */\n      add\n        /* \"#utility.yul\":2119:2169   */\n      tag_74\n      jump\t// in\n    tag_102:\n        /* \"#utility.yul\":2109:2169   */\n      swap5\n        /* \"#utility.yul\":1853:2175   */\n      swap4\n      pop\n      pop\n      pop\n      pop\n      jump\t// out\n        /* \"#utility.yul\":2180:2430   */\n    tag_75:\n        /* \"#utility.yul\":2265:2266   */\n      0x00\n        /* \"#utility.yul\":2275:2388   */\n    tag_104:\n        /* \"#utility.yul\":2289:2295   */\n      dup4\n        /* \"#utility.yul\":2286:2287   */\n      dup2\n        /* \"#utility.yul\":2283:2296   */\n      lt\n        /* \"#utility.yul\":2275:2388   */\n      iszero\n      tag_106\n      jumpi\n        /* \"#utility.yul\":2365:2376   */\n      dup2\n      dup2\n      add\n        /* \"#utility.yul\":2359:2377   */\n      mload\n        /* \"#utility.yul\":2346:2357   */\n      dup4\n      dup3\n      add\n        /* \"#utility.yul\":2339:2378   */\n      mstore\n        /* \"#utility.yul\":2311:2313   */\n      0x20\n        /* \"#utility.yul\":2304:2314   */\n      add\n        /* \"#utility.yul\":2275:2388   */\n      jump(tag_104)\n    tag_106:\n      pop\n      pop\n        /* \"#utility.yul\":2422:2423   */\n      0x00\n        /* \"#utility.yul\":2404:2420   */\n      swap2\n      add\n        /* \"#utility.yul\":2397:2424   */\n      mstore\n        /* \"#utility.yul\":2180:2430   */\n      jump\t// out\n        /* \"#utility.yul\":2435:2706   */\n    tag_76:\n        /* \"#utility.yul\":2477:2480   */\n      0x00\n        /* \"#utility.yul\":2515:2520   */\n      dup2\n        /* \"#utility.yul\":2509:2521   */\n      mload\n        /* \"#utility.yul\":2542:2548   */\n      dup1\n        /* \"#utility.yul\":2537:2540   */\n      dup5\n        /* \"#utility.yul\":2530:2549   */\n      mstore\n        /* \"#utility.yul\":2558:2634   */\n      tag_108\n        /* \"#utility.yul\":2627:2633   */\n      dup2\n        /* \"#utility.yul\":2620:2624   */\n      0x20\n        /* \"#utility.yul\":2615:2618   */\n      dup7\n        /* \"#utility.yul\":2611:2625   */\n      add\n        /* \"#utility.yul\":2604:2608   */\n      0x20\n        /* \"#utility.yul\":2597:2602   */\n      dup7\n        /* \"#utility.yul\":2593:2609   */\n      add\n        /* \"#utility.yul\":2558:2634   */\n      tag_75\n      jump\t// in\n    tag_108:\n        /* \"#utility.yul\":2688:2690   */\n      0x1f\n        /* \"#utility.yul\":2667:2682   */\n      add\n      not(0x1f)\n        /* \"#utility.yul\":2663:2692   */\n      and\n        /* \"#utility.yul\":2654:2693   */\n      swap3\n      swap1\n      swap3\n      add\n        /* \"#utility.yul\":2695:2699   */\n      0x20\n        /* \"#utility.yul\":2650:2700   */\n      add\n      swap3\n        /* \"#utility.yul\":2435:2706   */\n      swap2\n      pop\n      pop\n      jump\t// out\n        /* \"#utility.yul\":2711:3751   */\n    tag_18:\n        /* \"#utility.yul\":2912:2914   */\n      0x20\n        /* \"#utility.yul\":2901:2910   */\n      dup2\n        /* \"#utility.yul\":2894:2915   */\n      mstore\n        /* \"#utility.yul\":2875:2879   */\n      0x00\n        /* \"#utility.yul\":2950:2956   */\n      dup3\n        /* \"#utility.yul\":2944:2957   */\n      mload\n        /* \"#utility.yul\":2993:2997   */\n      0xa0\n        /* \"#utility.yul\":2988:2990   */\n      0x20\n        /* \"#utility.yul\":2977:2986   */\n      dup5\n        /* \"#utility.yul\":2973:2991   */\n      add\n        /* \"#utility.yul\":2966:2998   */\n      mstore\n        /* \"#utility.yul\":3021:3073   */\n      tag_110\n        /* \"#utility.yul\":3068:3071   */\n      0xc0\n        /* \"#utility.yul\":3057:3066   */\n      dup5\n        /* \"#utility.yul\":3053:3072   */\n      add\n        /* \"#utility.yul\":3039:3051   */\n      dup3\n        /* \"#utility.yul\":3021:3073   */\n      tag_76\n      jump\t// in\n    tag_110:\n        /* \"#utility.yul\":3007:3073   */\n      swap1\n      pop\n        /* \"#utility.yul\":3122:3124   */\n      0x20\n        /* \"#utility.yul\":3114:3120   */\n      dup5\n        /* \"#utility.yul\":3110:3125   */\n      add\n        /* \"#utility.yul\":3104:3126   */\n      mload\n        /* \"#utility.yul\":3194:3196   */\n      0x1f\n        /* \"#utility.yul\":3190:3197   */\n      not\n        /* \"#utility.yul\":3178:3187   */\n      dup5\n        /* \"#utility.yul\":3170:3176   */\n      dup4\n        /* \"#utility.yul\":3166:3188   */\n      sub\n        /* \"#utility.yul\":3162:3198   */\n      add\n        /* \"#utility.yul\":3157:3159   */\n      0x40\n        /* \"#utility.yul\":3146:3155   */\n      dup6\n        /* \"#utility.yul\":3142:3160   */\n      add\n        /* \"#utility.yul\":3135:3199   */\n      mstore\n        /* \"#utility.yul\":3222:3263   */\n      tag_111\n        /* \"#utility.yul\":3256:3262   */\n      dup3\n        /* \"#utility.yul\":3240:3254   */\n      dup3\n        /* \"#utility.yul\":3222:3263   */\n      tag_76\n      jump\t// in\n    tag_111:\n        /* \"#utility.yul\":3208:3263   */\n      swap2\n      pop\n      pop\n        /* \"#utility.yul\":3312:3314   */\n      0x40\n        /* \"#utility.yul\":3304:3310   */\n      dup5\n        /* \"#utility.yul\":3300:3315   */\n      add\n        /* \"#utility.yul\":3294:3316   */\n      mload\n        /* \"#utility.yul\":3384:3386   */\n      0x1f\n        /* \"#utility.yul\":3380:3387   */\n      not\n        /* \"#utility.yul\":3368:3377   */\n      dup5\n        /* \"#utility.yul\":3360:3366   */\n      dup4\n        /* \"#utility.yul\":3356:3378   */\n      sub\n        /* \"#utility.yul\":3352:3388   */\n      add\n        /* \"#utility.yul\":3347:3349   */\n      0x60\n        /* \"#utility.yul\":3336:3345   */\n      dup6\n        /* \"#utility.yul\":3332:3350   */\n      add\n        /* \"#utility.yul\":3325:3389   */\n      mstore\n        /* \"#utility.yul\":3412:3453   */\n      tag_112\n        /* \"#utility.yul\":3446:3452   */\n      dup3\n        /* \"#utility.yul\":3430:3444   */\n      dup3\n        /* \"#utility.yul\":3412:3453   */\n      tag_76\n      jump\t// in\n    tag_112:\n        /* \"#utility.yul\":3398:3453   */\n      swap2\n      pop\n      pop\n        /* \"#utility.yul\":3502:3504   */\n      0x60\n        /* \"#utility.yul\":3494:3500   */\n      dup5\n        /* \"#utility.yul\":3490:3505   */\n      add\n        /* \"#utility.yul\":3484:3506   */\n      mload\n        /* \"#utility.yul\":3575:3577   */\n      0x1f\n        /* \"#utility.yul\":3571:3578   */\n      not\n        /* \"#utility.yul\":3559:3568   */\n      dup5\n        /* \"#utility.yul\":3551:3557   */\n      dup4\n        /* \"#utility.yul\":3547:3569   */\n      sub\n        /* \"#utility.yul\":3543:3579   */\n      add\n        /* \"#utility.yul\":3537:3540   */\n      0x80\n        /* \"#utility.yul\":3526:3535   */\n      dup6\n        /* \"#utility.yul\":3522:3541   */\n      add\n        /* \"#utility.yul\":3515:3580   */\n      mstore\n        /* \"#utility.yul\":3603:3644   */\n      tag_113\n        /* \"#utility.yul\":3637:3643   */\n      dup3\n        /* \"#utility.yul\":3621:3635   */\n      dup3\n        /* \"#utility.yul\":3603:3644   */\n      tag_76\n      jump\t// in\n    tag_113:\n        /* \"#utility.yul\":3589:3644   */\n      swap2\n      pop\n      pop\n        /* \"#utility.yul\":3714:3717   */\n      0x80\n        /* \"#utility.yul\":3706:3712   */\n      dup5\n        /* \"#utility.yul\":3702:3718   */\n      add\n        /* \"#utility.yul\":3696:3719   */\n      mload\n        /* \"#utility.yul\":3689:3720   */\n      iszero\n        /* \"#utility.yul\":3682:3721   */\n      iszero\n        /* \"#utility.yul\":3675:3679   */\n      0xa0\n        /* \"#utility.yul\":3664:3673   */\n      dup5\n        /* \"#utility.yul\":3660:3680   */\n      add\n        /* \"#utility.yul\":3653:3722   */\n      mstore\n        /* \"#utility.yul\":3739:3745   */\n      dup1\n        /* \"#utility.yul\":3731:3745   */\n      swap2\n      pop\n      pop\n        /* \"#utility.yul\":2711:3751   */\n      swap3\n      swap2\n      pop\n      pop\n      jump\t// out\n        /* \"#utility.yul\":4115:4404   */\n    tag_24:\n        /* \"#utility.yul\":4246:4249   */\n      0x00\n        /* \"#utility.yul\":4284:4290   */\n      dup3\n        /* \"#utility.yul\":4278:4291   */\n      mload\n        /* \"#utility.yul\":4300:4366   */\n      tag_116\n        /* \"#utility.yul\":4359:4365   */\n      dup2\n        /* \"#utility.yul\":4354:4357   */\n      dup5\n        /* \"#utility.yul\":4347:4351   */\n      0x20\n        /* \"#utility.yul\":4339:4345   */\n      dup8\n        /* \"#utility.yul\":4335:4352   */\n      add\n        /* \"#utility.yul\":4300:4366   */\n      tag_75\n      jump\t// in\n    tag_116:\n        /* \"#utility.yul\":4382:4398   */\n      swap2\n      swap1\n      swap2\n      add\n      swap3\n        /* \"#utility.yul\":4115:4404   */\n      swap2\n      pop\n      pop\n      jump\t// out\n        /* \"#utility.yul\":4764:5144   */\n    tag_53:\n        /* \"#utility.yul\":4843:4844   */\n      0x01\n        /* \"#utility.yul\":4839:4851   */\n      dup2\n      dup2\n      shr\n      swap1\n        /* \"#utility.yul\":4886:4898   */\n      dup3\n      and\n      dup1\n        /* \"#utility.yul\":4907:4968   */\n      tag_119\n      jumpi\n        /* \"#utility.yul\":4961:4965   */\n      0x7f\n        /* \"#utility.yul\":4953:4959   */\n      dup3\n        /* \"#utility.yul\":4949:4966   */\n      and\n        /* \"#utility.yul\":4939:4966   */\n      swap2\n      pop\n        /* \"#utility.yul\":4907:4968   */\n    tag_119:\n        /* \"#utility.yul\":5014:5016   */\n      0x20\n        /* \"#utility.yul\":5006:5012   */\n      dup3\n        /* \"#utility.yul\":5003:5017   */\n      lt\n        /* \"#utility.yul\":4983:5001   */\n      dup2\n        /* \"#utility.yul\":4980:5018   */\n      sub\n        /* \"#utility.yul\":4977:5138   */\n      tag_120\n      jumpi\n        /* \"#utility.yul\":5060:5070   */\n      0x4e487b71\n        /* \"#utility.yul\":5055:5058   */\n      0xe0\n        /* \"#utility.yul\":5051:5071   */\n      shl\n        /* \"#utility.yul\":5048:5049   */\n      0x00\n        /* \"#utility.yul\":5041:5072   */\n      mstore\n        /* \"#utility.yul\":5095:5099   */\n      0x22\n        /* \"#utility.yul\":5092:5093   */\n      0x04\n        /* \"#utility.yul\":5085:5100   */\n      mstore\n        /* \"#utility.yul\":5123:5127   */\n      0x24\n        /* \"#utility.yul\":5120:5121   */\n      0x00\n        /* \"#utility.yul\":5113:5128   */\n      revert\n        /* \"#utility.yul\":4977:5138   */\n    tag_120:\n      pop\n        /* \"#utility.yul\":4764:5144   */\n      swap2\n      swap1\n      pop\n      jump\t// out\n        /* \"#utility.yul\":5275:5793   */\n    tag_78:\n        /* \"#utility.yul\":5377:5379   */\n      0x1f\n        /* \"#utility.yul\":5372:5375   */\n      dup3\n        /* \"#utility.yul\":5369:5380   */\n      gt\n        /* \"#utility.yul\":5366:5787   */\n      iszero\n      tag_123\n      jumpi\n        /* \"#utility.yul\":5413:5418   */\n      dup1\n        /* \"#utility.yul\":5410:5411   */\n      0x00\n        /* \"#utility.yul\":5403:5419   */\n      mstore\n        /* \"#utility.yul\":5457:5461   */\n      0x20\n        /* \"#utility.yul\":5454:5455   */\n      0x00\n        /* \"#utility.yul\":5444:5462   */\n      keccak256\n        /* \"#utility.yul\":5527:5529   */\n      0x1f\n        /* \"#utility.yul\":5515:5525   */\n      dup5\n        /* \"#utility.yul\":5511:5530   */\n      add\n        /* \"#utility.yul\":5508:5509   */\n      0x05\n        /* \"#utility.yul\":5504:5531   */\n      shr\n        /* \"#utility.yul\":5498:5502   */\n      dup2\n        /* \"#utility.yul\":5494:5532   */\n      add\n        /* \"#utility.yul\":5563:5567   */\n      0x20\n        /* \"#utility.yul\":5551:5561   */\n      dup6\n        /* \"#utility.yul\":5548:5568   */\n      lt\n        /* \"#utility.yul\":5545:5592   */\n      iszero\n      tag_124\n      jumpi\n      pop\n        /* \"#utility.yul\":5586:5590   */\n      dup1\n        /* \"#utility.yul\":5545:5592   */\n    tag_124:\n        /* \"#utility.yul\":5641:5643   */\n      0x1f\n        /* \"#utility.yul\":5636:5639   */\n      dup5\n        /* \"#utility.yul\":5632:5644   */\n      add\n        /* \"#utility.yul\":5629:5630   */\n      0x05\n        /* \"#utility.yul\":5625:5645   */\n      shr\n        /* \"#utility.yul\":5619:5623   */\n      dup3\n        /* \"#utility.yul\":5615:5646   */\n      add\n        /* \"#utility.yul\":5605:5646   */\n      swap2\n      pop\n        /* \"#utility.yul\":5696:5777   */\n    tag_125:\n        /* \"#utility.yul\":5714:5716   */\n      dup2\n        /* \"#utility.yul\":5707:5712   */\n      dup2\n        /* \"#utility.yul\":5704:5717   */\n      lt\n        /* \"#utility.yul\":5696:5777   */\n      iszero\n      tag_127\n      jumpi\n        /* \"#utility.yul\":5773:5774   */\n      0x00\n        /* \"#utility.yul\":5759:5775   */\n      dup2\n      sstore\n        /* \"#utility.yul\":5740:5741   */\n      0x01\n        /* \"#utility.yul\":5729:5742   */\n      add\n        /* \"#utility.yul\":5696:5777   */\n      jump(tag_125)\n    tag_127:\n        /* \"#utility.yul\":5700:5703   */\n      pop\n      pop\n        /* \"#utility.yul\":5366:5787   */\n    tag_123:\n        /* \"#utility.yul\":5275:5793   */\n      pop\n      pop\n      pop\n      jump\t// out\n        /* \"#utility.yul\":5969:7268   */\n    tag_30:\n        /* \"#utility.yul\":6095:6098   */\n      dup2\n        /* \"#utility.yul\":6089:6099   */\n      mload\n        /* \"#utility.yul\":6122:6140   */\n      0xffffffffffffffff\n        /* \"#utility.yul\":6114:6120   */\n      dup2\n        /* \"#utility.yul\":6111:6141   */\n      gt\n        /* \"#utility.yul\":6108:6164   */\n      iszero\n      tag_131\n      jumpi\n        /* \"#utility.yul\":6144:6162   */\n      tag_131\n      tag_73\n      jump\t// in\n    tag_131:\n        /* \"#utility.yul\":6173:6270   */\n      tag_132\n        /* \"#utility.yul\":6263:6269   */\n      dup2\n        /* \"#utility.yul\":6223:6261   */\n      tag_133\n        /* \"#utility.yul\":6255:6259   */\n      dup5\n        /* \"#utility.yul\":6249:6260   */\n      sload\n        /* \"#utility.yul\":6223:6261   */\n      tag_53\n      jump\t// in\n    tag_133:\n        /* \"#utility.yul\":6217:6221   */\n      dup5\n        /* \"#utility.yul\":6173:6270   */\n      tag_78\n      jump\t// in\n    tag_132:\n        /* \"#utility.yul\":6319:6323   */\n      0x20\n        /* \"#utility.yul\":6350:6352   */\n      0x1f\n        /* \"#utility.yul\":6339:6353   */\n      dup3\n      gt\n        /* \"#utility.yul\":6367:6368   */\n      0x01\n        /* \"#utility.yul\":6362:7011   */\n      dup2\n      eq\n      tag_135\n      jumpi\n        /* \"#utility.yul\":7055:7056   */\n      0x00\n        /* \"#utility.yul\":7072:7078   */\n      dup4\n        /* \"#utility.yul\":7069:7158   */\n      iszero\n      tag_136\n      jumpi\n      pop\n        /* \"#utility.yul\":7124:7143   */\n      dup5\n      dup3\n      add\n        /* \"#utility.yul\":7118:7144   */\n      mload\n        /* \"#utility.yul\":7069:7158   */\n    tag_136:\n      not(0x00)\n        /* \"#utility.yul\":5926:5927   */\n      0x03\n        /* \"#utility.yul\":5922:5933   */\n      dup6\n      swap1\n      shl\n        /* \"#utility.yul\":5918:5942   */\n      shr\n        /* \"#utility.yul\":5914:5943   */\n      not\n        /* \"#utility.yul\":5904:5944   */\n      and\n        /* \"#utility.yul\":5950:5951   */\n      0x01\n        /* \"#utility.yul\":5946:5957   */\n      dup5\n      swap1\n      shl\n        /* \"#utility.yul\":5901:5958   */\n      or\n        /* \"#utility.yul\":7171:7252   */\n      dup5\n      sstore\n        /* \"#utility.yul\":6332:7262   */\n      jump(tag_127)\n        /* \"#utility.yul\":6362:7011   */\n    tag_135:\n        /* \"#utility.yul\":5222:5223   */\n      0x00\n        /* \"#utility.yul\":5215:5229   */\n      dup5\n      dup2\n      mstore\n        /* \"#utility.yul\":5259:5263   */\n      0x20\n        /* \"#utility.yul\":5246:5264   */\n      dup2\n      keccak256\n      not(0x1f)\n        /* \"#utility.yul\":6398:6418   */\n      dup6\n      and\n      swap2\n        /* \"#utility.yul\":6516:6738   */\n    tag_139:\n        /* \"#utility.yul\":6530:6537   */\n      dup3\n        /* \"#utility.yul\":6527:6528   */\n      dup2\n        /* \"#utility.yul\":6524:6538   */\n      lt\n        /* \"#utility.yul\":6516:6738   */\n      iszero\n      tag_141\n      jumpi\n        /* \"#utility.yul\":6612:6631   */\n      dup8\n      dup6\n      add\n        /* \"#utility.yul\":6606:6632   */\n      mload\n        /* \"#utility.yul\":6591:6633   */\n      dup3\n      sstore\n        /* \"#utility.yul\":6719:6723   */\n      0x20\n        /* \"#utility.yul\":6704:6724   */\n      swap5\n      dup6\n      add\n      swap5\n        /* \"#utility.yul\":6672:6673   */\n      0x01\n        /* \"#utility.yul\":6660:6674   */\n      swap1\n      swap3\n      add\n      swap2\n        /* \"#utility.yul\":6546:6558   */\n      add\n        /* \"#utility.yul\":6516:6738   */\n      jump(tag_139)\n    tag_141:\n        /* \"#utility.yul\":6520:6523   */\n      pop\n        /* \"#utility.yul\":6766:6772   */\n      dup5\n        /* \"#utility.yul\":6757:6764   */\n      dup3\n        /* \"#utility.yul\":6754:6773   */\n      lt\n        /* \"#utility.yul\":6751:6952   */\n      iszero\n      tag_142\n      jumpi\n        /* \"#utility.yul\":6827:6846   */\n      dup7\n      dup5\n      add\n        /* \"#utility.yul\":6821:6847   */\n      mload\n      not(0x00)\n        /* \"#utility.yul\":6910:6911   */\n      0x03\n        /* \"#utility.yul\":6906:6920   */\n      dup8\n      swap1\n      shl\n        /* \"#utility.yul\":6922:6925   */\n      0xf8\n        /* \"#utility.yul\":6902:6926   */\n      and\n        /* \"#utility.yul\":6898:6935   */\n      shr\n        /* \"#utility.yul\":6894:6936   */\n      not\n        /* \"#utility.yul\":6879:6937   */\n      and\n        /* \"#utility.yul\":6864:6938   */\n      dup2\n      sstore\n        /* \"#utility.yul\":6751:6952   */\n    tag_142:\n      pop\n      pop\n      pop\n      pop\n        /* \"#utility.yul\":6998:6999   */\n      0x01\n        /* \"#utility.yul\":6982:6996   */\n      swap1\n      dup2\n      shl\n        /* \"#utility.yul\":6978:7000   */\n      add\n        /* \"#utility.yul\":6965:7001   */\n      swap1\n      sstore\n      pop\n        /* \"#utility.yul\":5969:7268   */\n      jump\t// out\n        /* \"#utility.yul\":7273:7656   */\n    tag_36:\n        /* \"#utility.yul\":7470:7472   */\n      0x40\n        /* \"#utility.yul\":7459:7468   */\n      dup2\n        /* \"#utility.yul\":7452:7473   */\n      mstore\n        /* \"#utility.yul\":7433:7437   */\n      0x00\n        /* \"#utility.yul\":7496:7541   */\n      tag_144\n        /* \"#utility.yul\":7537:7539   */\n      0x40\n        /* \"#utility.yul\":7526:7535   */\n      dup4\n        /* \"#utility.yul\":7522:7540   */\n      add\n        /* \"#utility.yul\":7514:7520   */\n      dup6\n        /* \"#utility.yul\":7496:7541   */\n      tag_76\n      jump\t// in\n    tag_144:\n        /* \"#utility.yul\":7589:7598   */\n      dup3\n        /* \"#utility.yul\":7581:7587   */\n      dup2\n        /* \"#utility.yul\":7577:7599   */\n      sub\n        /* \"#utility.yul\":7572:7574   */\n      0x20\n        /* \"#utility.yul\":7561:7570   */\n      dup5\n        /* \"#utility.yul\":7557:7575   */\n      add\n        /* \"#utility.yul\":7550:7600   */\n      mstore\n        /* \"#utility.yul\":7617:7650   */\n      tag_145\n        /* \"#utility.yul\":7643:7649   */\n      dup2\n        /* \"#utility.yul\":7635:7641   */\n      dup6\n        /* \"#utility.yul\":7617:7650   */\n      tag_76\n      jump\t// in\n    tag_145:\n        /* \"#utility.yul\":7609:7650   */\n      swap6\n        /* \"#utility.yul\":7273:7656   */\n      swap5\n      pop\n      pop\n      pop\n      pop\n      pop\n      jump\t// out\n\n    auxdata: 0xa2646970667358221220e65964fb3438693509dd05a7c3c31921da029e78e5675f102d49ebd97357ea9364736f6c634300081a0033\n}\n",
				"bytecode": {
					"linkReferences": {},
					"object": "6080604052348015600f57600080fd5b50610add8061001f6000396000f3fe608060405234801561001057600080fd5b50600436106100415760003560e01c806342179bd0146100465780635e9a2d281461005b578063d091187f1461006e575b600080fd5b61005961005436600461073a565b610097565b005b6100596100693660046107fa565b610267565b61008161007c3660046107fa565b610362565b60405161008e9190610887565b60405180910390f35b60008451116100ed5760405162461bcd60e51b815260206004820152601e60248201527f43726564656e7469616c2049442063616e6e6f7420626520656d7074792e000060448201526064015b60405180910390fd5b6000846040516100fd9190610915565b9081526040519081900360200190206004015460ff16156101605760405162461bcd60e51b815260206004820152601a60248201527f43726564656e7469616c20616c7265616479206578697374732e00000000000060448201526064016100e4565b6040518060a001604052808581526020018481526020018381526020018281526020016001151581525060008560405161019a9190610915565b908152604051908190036020019020815181906101b790826109ba565b50602082015160018201906101cc90826109ba565b50604082015160028201906101e190826109ba565b50606082015160038201906101f690826109ba565b50608091909101516004909101805460ff1916911515919091179055604051610220908590610915565b60405180910390207f0e6a4bfdad0dec411057ff80cfe722c3cffed190a916432465a6e492ec802e498484604051610259929190610a79565b60405180910390a250505050565b6000816040516102779190610915565b9081526040519081900360200190206004015460ff1615156001146102ef5760405162461bcd60e51b815260206004820152602860248201527f43726564656e7469616c20646f6573206e6f74206578697374206f722069732060448201526734b73b30b634b21760c11b60648201526084016100e4565b600080826040516103009190610915565b908152604051908190036020018120600401805492151560ff199093169290921790915561032f908290610915565b604051908190038120907f19d981dae71c0e172d789c8bef41062792bc14fa2e555bba0bae3c104d2b2a4190600090a250565b6103966040518060a00160405280606081526020016060815260200160608152602001606081526020016000151581525090565b6000826040516103a69190610915565b9081526040519081900360200190206004015460ff16151560011461040d5760405162461bcd60e51b815260206004820152601860248201527f43726564656e7469616c206973206e6f742076616c69642e000000000000000060448201526064016100e4565b60008260405161041d9190610915565b90815260200160405180910390206040518060a001604052908160008201805461044690610931565b80601f016020809104026020016040519081016040528092919081815260200182805461047290610931565b80156104bf5780601f10610494576101008083540402835291602001916104bf565b820191906000526020600020905b8154815290600101906020018083116104a257829003601f168201915b505050505081526020016001820180546104d890610931565b80601f016020809104026020016040519081016040528092919081815260200182805461050490610931565b80156105515780601f1061052657610100808354040283529160200191610551565b820191906000526020600020905b81548152906001019060200180831161053457829003601f168201915b5050505050815260200160028201805461056a90610931565b80601f016020809104026020016040519081016040528092919081815260200182805461059690610931565b80156105e35780601f106105b8576101008083540402835291602001916105e3565b820191906000526020600020905b8154815290600101906020018083116105c657829003601f168201915b505050505081526020016003820180546105fc90610931565b80601f016020809104026020016040519081016040528092919081815260200182805461062890610931565b80156106755780601f1061064a57610100808354040283529160200191610675565b820191906000526020600020905b81548152906001019060200180831161065857829003601f168201915b50505091835250506004919091015460ff16151560209091015292915050565b634e487b7160e01b600052604160045260246000fd5b600082601f8301126106bc57600080fd5b813567ffffffffffffffff8111156106d6576106d6610695565b604051601f8201601f19908116603f0116810167ffffffffffffffff8111828210171561070557610705610695565b60405281815283820160200185101561071d57600080fd5b816020850160208301376000918101602001919091529392505050565b6000806000806080858703121561075057600080fd5b843567ffffffffffffffff81111561076757600080fd5b610773878288016106ab565b945050602085013567ffffffffffffffff81111561079057600080fd5b61079c878288016106ab565b935050604085013567ffffffffffffffff8111156107b957600080fd5b6107c5878288016106ab565b925050606085013567ffffffffffffffff8111156107e257600080fd5b6107ee878288016106ab565b91505092959194509250565b60006020828403121561080c57600080fd5b813567ffffffffffffffff81111561082357600080fd5b61082f848285016106ab565b949350505050565b60005b8381101561085257818101518382015260200161083a565b50506000910152565b60008151808452610873816020860160208601610837565b601f01601f19169290920160200192915050565b602081526000825160a060208401526108a360c084018261085b565b90506020840151601f198483030160408501526108c0828261085b565b9150506040840151601f198483030160608501526108de828261085b565b9150506060840151601f198483030160808501526108fc828261085b565b9150506080840151151560a08401528091505092915050565b60008251610927818460208701610837565b9190910192915050565b600181811c9082168061094557607f821691505b60208210810361096557634e487b7160e01b600052602260045260246000fd5b50919050565b601f8211156109b557806000526020600020601f840160051c810160208510156109925750805b601f840160051c820191505b818110156109b2576000815560010161099e565b50505b505050565b815167ffffffffffffffff8111156109d4576109d4610695565b6109e8816109e28454610931565b8461096b565b6020601f821160018114610a1c5760008315610a045750848201515b600019600385901b1c1916600184901b1784556109b2565b600084815260208120601f198516915b82811015610a4c5787850151825560209485019460019092019101610a2c565b5084821015610a6a5786840151600019600387901b60f8161c191681555b50505050600190811b01905550565b604081526000610a8c604083018561085b565b8281036020840152610a9e818561085b565b9594505050505056fea2646970667358221220e65964fb3438693509dd05a7c3c31921da029e78e5675f102d49ebd97357ea9364736f6c634300081a0033",
					"opcodes": "PUSH1 0x80 PUSH1 0x40 MSTORE CALLVALUE DUP1 ISZERO PUSH1 0xF JUMPI PUSH1 0x0 DUP1 REVERT JUMPDEST POP PUSH2 0xADD DUP1 PUSH2 0x1F PUSH1 0x0 CODECOPY PUSH1 0x0 RETURN INVALID PUSH1 0x80 PUSH1 0x40 MSTORE CALLVALUE DUP1 ISZERO PUSH2 0x10 JUMPI PUSH1 0x0 DUP1 REVERT JUMPDEST POP PUSH1 0x4 CALLDATASIZE LT PUSH2 0x41 JUMPI PUSH1 0x0 CALLDATALOAD PUSH1 0xE0 SHR DUP1 PUSH4 0x42179BD0 EQ PUSH2 0x46 JUMPI DUP1 PUSH4 0x5E9A2D28 EQ PUSH2 0x5B JUMPI DUP1 PUSH4 0xD091187F EQ PUSH2 0x6E JUMPI JUMPDEST PUSH1 0x0 DUP1 REVERT JUMPDEST PUSH2 0x59 PUSH2 0x54 CALLDATASIZE PUSH1 0x4 PUSH2 0x73A JUMP JUMPDEST PUSH2 0x97 JUMP JUMPDEST STOP JUMPDEST PUSH2 0x59 PUSH2 0x69 CALLDATASIZE PUSH1 0x4 PUSH2 0x7FA JUMP JUMPDEST PUSH2 0x267 JUMP JUMPDEST PUSH2 0x81 PUSH2 0x7C CALLDATASIZE PUSH1 0x4 PUSH2 0x7FA JUMP JUMPDEST PUSH2 0x362 JUMP JUMPDEST PUSH1 0x40 MLOAD PUSH2 0x8E SWAP2 SWAP1 PUSH2 0x887 JUMP JUMPDEST PUSH1 0x40 MLOAD DUP1 SWAP2 SUB SWAP1 RETURN JUMPDEST PUSH1 0x0 DUP5 MLOAD GT PUSH2 0xED JUMPI PUSH1 0x40 MLOAD PUSH3 0x461BCD PUSH1 0xE5 SHL DUP2 MSTORE PUSH1 0x20 PUSH1 0x4 DUP3 ADD MSTORE PUSH1 0x1E PUSH1 0x24 DUP3 ADD MSTORE PUSH32 0x43726564656E7469616C2049442063616E6E6F7420626520656D7074792E0000 PUSH1 0x44 DUP3 ADD MSTORE PUSH1 0x64 ADD JUMPDEST PUSH1 0x40 MLOAD DUP1 SWAP2 SUB SWAP1 REVERT JUMPDEST PUSH1 0x0 DUP5 PUSH1 0x40 MLOAD PUSH2 0xFD SWAP2 SWAP1 PUSH2 0x915 JUMP JUMPDEST SWAP1 DUP2 MSTORE PUSH1 0x40 MLOAD SWAP1 DUP2 SWAP1 SUB PUSH1 0x20 ADD SWAP1 KECCAK256 PUSH1 0x4 ADD SLOAD PUSH1 0xFF AND ISZERO PUSH2 0x160 JUMPI PUSH1 0x40 MLOAD PUSH3 0x461BCD PUSH1 0xE5 SHL DUP2 MSTORE PUSH1 0x20 PUSH1 0x4 DUP3 ADD MSTORE PUSH1 0x1A PUSH1 0x24 DUP3 ADD MSTORE PUSH32 0x43726564656E7469616C20616C7265616479206578697374732E000000000000 PUSH1 0x44 DUP3 ADD MSTORE PUSH1 0x64 ADD PUSH2 0xE4 JUMP JUMPDEST PUSH1 0x40 MLOAD DUP1 PUSH1 0xA0 ADD PUSH1 0x40 MSTORE DUP1 DUP6 DUP2 MSTORE PUSH1 0x20 ADD DUP5 DUP2 MSTORE PUSH1 0x20 ADD DUP4 DUP2 MSTORE PUSH1 0x20 ADD DUP3 DUP2 MSTORE PUSH1 0x20 ADD PUSH1 0x1 ISZERO ISZERO DUP2 MSTORE POP PUSH1 0x0 DUP6 PUSH1 0x40 MLOAD PUSH2 0x19A SWAP2 SWAP1 PUSH2 0x915 JUMP JUMPDEST SWAP1 DUP2 MSTORE PUSH1 0x40 MLOAD SWAP1 DUP2 SWAP1 SUB PUSH1 0x20 ADD SWAP1 KECCAK256 DUP2 MLOAD DUP2 SWAP1 PUSH2 0x1B7 SWAP1 DUP3 PUSH2 0x9BA JUMP JUMPDEST POP PUSH1 0x20 DUP3 ADD MLOAD PUSH1 0x1 DUP3 ADD SWAP1 PUSH2 0x1CC SWAP1 DUP3 PUSH2 0x9BA JUMP JUMPDEST POP PUSH1 0x40 DUP3 ADD MLOAD PUSH1 0x2 DUP3 ADD SWAP1 PUSH2 0x1E1 SWAP1 DUP3 PUSH2 0x9BA JUMP JUMPDEST POP PUSH1 0x60 DUP3 ADD MLOAD PUSH1 0x3 DUP3 ADD SWAP1 PUSH2 0x1F6 SWAP1 DUP3 PUSH2 0x9BA JUMP JUMPDEST POP PUSH1 0x80 SWAP2 SWAP1 SWAP2 ADD MLOAD PUSH1 0x4 SWAP1 SWAP2 ADD DUP1 SLOAD PUSH1 0xFF NOT AND SWAP2 ISZERO ISZERO SWAP2 SWAP1 SWAP2 OR SWAP1 SSTORE PUSH1 0x40 MLOAD PUSH2 0x220 SWAP1 DUP6 SWAP1 PUSH2 0x915 JUMP JUMPDEST PUSH1 0x40 MLOAD DUP1 SWAP2 SUB SWAP1 KECCAK256 PUSH32 0xE6A4BFDAD0DEC411057FF80CFE722C3CFFED190A916432465A6E492EC802E49 DUP5 DUP5 PUSH1 0x40 MLOAD PUSH2 0x259 SWAP3 SWAP2 SWAP1 PUSH2 0xA79 JUMP JUMPDEST PUSH1 0x40 MLOAD DUP1 SWAP2 SUB SWAP1 LOG2 POP POP POP POP JUMP JUMPDEST PUSH1 0x0 DUP2 PUSH1 0x40 MLOAD PUSH2 0x277 SWAP2 SWAP1 PUSH2 0x915 JUMP JUMPDEST SWAP1 DUP2 MSTORE PUSH1 0x40 MLOAD SWAP1 DUP2 SWAP1 SUB PUSH1 0x20 ADD SWAP1 KECCAK256 PUSH1 0x4 ADD SLOAD PUSH1 0xFF AND ISZERO ISZERO PUSH1 0x1 EQ PUSH2 0x2EF JUMPI PUSH1 0x40 MLOAD PUSH3 0x461BCD PUSH1 0xE5 SHL DUP2 MSTORE PUSH1 0x20 PUSH1 0x4 DUP3 ADD MSTORE PUSH1 0x28 PUSH1 0x24 DUP3 ADD MSTORE PUSH32 0x43726564656E7469616C20646F6573206E6F74206578697374206F7220697320 PUSH1 0x44 DUP3 ADD MSTORE PUSH8 0x34B73B30B634B217 PUSH1 0xC1 SHL PUSH1 0x64 DUP3 ADD MSTORE PUSH1 0x84 ADD PUSH2 0xE4 JUMP JUMPDEST PUSH1 0x0 DUP1 DUP3 PUSH1 0x40 MLOAD PUSH2 0x300 SWAP2 SWAP1 PUSH2 0x915 JUMP JUMPDEST SWAP1 DUP2 MSTORE PUSH1 0x40 MLOAD SWAP1 DUP2 SWAP1 SUB PUSH1 0x20 ADD DUP2 KECCAK256 PUSH1 0x4 ADD DUP1 SLOAD SWAP3 ISZERO ISZERO PUSH1 0xFF NOT SWAP1 SWAP4 AND SWAP3 SWAP1 SWAP3 OR SWAP1 SWAP2 SSTORE PUSH2 0x32F SWAP1 DUP3 SWAP1 PUSH2 0x915 JUMP JUMPDEST PUSH1 0x40 MLOAD SWAP1 DUP2 SWAP1 SUB DUP2 KECCAK256 SWAP1 PUSH32 0x19D981DAE71C0E172D789C8BEF41062792BC14FA2E555BBA0BAE3C104D2B2A41 SWAP1 PUSH1 0x0 SWAP1 LOG2 POP JUMP JUMPDEST PUSH2 0x396 PUSH1 0x40 MLOAD DUP1 PUSH1 0xA0 ADD PUSH1 0x40 MSTORE DUP1 PUSH1 0x60 DUP2 MSTORE PUSH1 0x20 ADD PUSH1 0x60 DUP2 MSTORE PUSH1 0x20 ADD PUSH1 0x60 DUP2 MSTORE PUSH1 0x20 ADD PUSH1 0x60 DUP2 MSTORE PUSH1 0x20 ADD PUSH1 0x0 ISZERO ISZERO DUP2 MSTORE POP SWAP1 JUMP JUMPDEST PUSH1 0x0 DUP3 PUSH1 0x40 MLOAD PUSH2 0x3A6 SWAP2 SWAP1 PUSH2 0x915 JUMP JUMPDEST SWAP1 DUP2 MSTORE PUSH1 0x40 MLOAD SWAP1 DUP2 SWAP1 SUB PUSH1 0x20 ADD SWAP1 KECCAK256 PUSH1 0x4 ADD SLOAD PUSH1 0xFF AND ISZERO ISZERO PUSH1 0x1 EQ PUSH2 0x40D JUMPI PUSH1 0x40 MLOAD PUSH3 0x461BCD PUSH1 0xE5 SHL DUP2 MSTORE PUSH1 0x20 PUSH1 0x4 DUP3 ADD MSTORE PUSH1 0x18 PUSH1 0x24 DUP3 ADD MSTORE PUSH32 0x43726564656E7469616C206973206E6F742076616C69642E0000000000000000 PUSH1 0x44 DUP3 ADD MSTORE PUSH1 0x64 ADD PUSH2 0xE4 JUMP JUMPDEST PUSH1 0x0 DUP3 PUSH1 0x40 MLOAD PUSH2 0x41D SWAP2 SWAP1 PUSH2 0x915 JUMP JUMPDEST SWAP1 DUP2 MSTORE PUSH1 0x20 ADD PUSH1 0x40 MLOAD DUP1 SWAP2 SUB SWAP1 KECCAK256 PUSH1 0x40 MLOAD DUP1 PUSH1 0xA0 ADD PUSH1 0x40 MSTORE SWAP1 DUP2 PUSH1 0x0 DUP3 ADD DUP1 SLOAD PUSH2 0x446 SWAP1 PUSH2 0x931 JUMP JUMPDEST DUP1 PUSH1 0x1F ADD PUSH1 0x20 DUP1 SWAP2 DIV MUL PUSH1 0x20 ADD PUSH1 0x40 MLOAD SWAP1 DUP2 ADD PUSH1 0x40 MSTORE DUP1 SWAP3 SWAP2 SWAP1 DUP2 DUP2 MSTORE PUSH1 0x20 ADD DUP3 DUP1 SLOAD PUSH2 0x472 SWAP1 PUSH2 0x931 JUMP JUMPDEST DUP1 ISZERO PUSH2 0x4BF JUMPI DUP1 PUSH1 0x1F LT PUSH2 0x494 JUMPI PUSH2 0x100 DUP1 DUP4 SLOAD DIV MUL DUP4 MSTORE SWAP2 PUSH1 0x20 ADD SWAP2 PUSH2 0x4BF JUMP JUMPDEST DUP3 ADD SWAP2 SWAP1 PUSH1 0x0 MSTORE PUSH1 0x20 PUSH1 0x0 KECCAK256 SWAP1 JUMPDEST DUP2 SLOAD DUP2 MSTORE SWAP1 PUSH1 0x1 ADD SWAP1 PUSH1 0x20 ADD DUP1 DUP4 GT PUSH2 0x4A2 JUMPI DUP3 SWAP1 SUB PUSH1 0x1F AND DUP3 ADD SWAP2 JUMPDEST POP POP POP POP POP DUP2 MSTORE PUSH1 0x20 ADD PUSH1 0x1 DUP3 ADD DUP1 SLOAD PUSH2 0x4D8 SWAP1 PUSH2 0x931 JUMP JUMPDEST DUP1 PUSH1 0x1F ADD PUSH1 0x20 DUP1 SWAP2 DIV MUL PUSH1 0x20 ADD PUSH1 0x40 MLOAD SWAP1 DUP2 ADD PUSH1 0x40 MSTORE DUP1 SWAP3 SWAP2 SWAP1 DUP2 DUP2 MSTORE PUSH1 0x20 ADD DUP3 DUP1 SLOAD PUSH2 0x504 SWAP1 PUSH2 0x931 JUMP JUMPDEST DUP1 ISZERO PUSH2 0x551 JUMPI DUP1 PUSH1 0x1F LT PUSH2 0x526 JUMPI PUSH2 0x100 DUP1 DUP4 SLOAD DIV MUL DUP4 MSTORE SWAP2 PUSH1 0x20 ADD SWAP2 PUSH2 0x551 JUMP JUMPDEST DUP3 ADD SWAP2 SWAP1 PUSH1 0x0 MSTORE PUSH1 0x20 PUSH1 0x0 KECCAK256 SWAP1 JUMPDEST DUP2 SLOAD DUP2 MSTORE SWAP1 PUSH1 0x1 ADD SWAP1 PUSH1 0x20 ADD DUP1 DUP4 GT PUSH2 0x534 JUMPI DUP3 SWAP1 SUB PUSH1 0x1F AND DUP3 ADD SWAP2 JUMPDEST POP POP POP POP POP DUP2 MSTORE PUSH1 0x20 ADD PUSH1 0x2 DUP3 ADD DUP1 SLOAD PUSH2 0x56A SWAP1 PUSH2 0x931 JUMP JUMPDEST DUP1 PUSH1 0x1F ADD PUSH1 0x20 DUP1 SWAP2 DIV MUL PUSH1 0x20 ADD PUSH1 0x40 MLOAD SWAP1 DUP2 ADD PUSH1 0x40 MSTORE DUP1 SWAP3 SWAP2 SWAP1 DUP2 DUP2 MSTORE PUSH1 0x20 ADD DUP3 DUP1 SLOAD PUSH2 0x596 SWAP1 PUSH2 0x931 JUMP JUMPDEST DUP1 ISZERO PUSH2 0x5E3 JUMPI DUP1 PUSH1 0x1F LT PUSH2 0x5B8 JUMPI PUSH2 0x100 DUP1 DUP4 SLOAD DIV MUL DUP4 MSTORE SWAP2 PUSH1 0x20 ADD SWAP2 PUSH2 0x5E3 JUMP JUMPDEST DUP3 ADD SWAP2 SWAP1 PUSH1 0x0 MSTORE PUSH1 0x20 PUSH1 0x0 KECCAK256 SWAP1 JUMPDEST DUP2 SLOAD DUP2 MSTORE SWAP1 PUSH1 0x1 ADD SWAP1 PUSH1 0x20 ADD DUP1 DUP4 GT PUSH2 0x5C6 JUMPI DUP3 SWAP1 SUB PUSH1 0x1F AND DUP3 ADD SWAP2 JUMPDEST POP POP POP POP POP DUP2 MSTORE PUSH1 0x20 ADD PUSH1 0x3 DUP3 ADD DUP1 SLOAD PUSH2 0x5FC SWAP1 PUSH2 0x931 JUMP JUMPDEST DUP1 PUSH1 0x1F ADD PUSH1 0x20 DUP1 SWAP2 DIV MUL PUSH1 0x20 ADD PUSH1 0x40 MLOAD SWAP1 DUP2 ADD PUSH1 0x40 MSTORE DUP1 SWAP3 SWAP2 SWAP1 DUP2 DUP2 MSTORE PUSH1 0x20 ADD DUP3 DUP1 SLOAD PUSH2 0x628 SWAP1 PUSH2 0x931 JUMP JUMPDEST DUP1 ISZERO PUSH2 0x675 JUMPI DUP1 PUSH1 0x1F LT PUSH2 0x64A JUMPI PUSH2 0x100 DUP1 DUP4 SLOAD DIV MUL DUP4 MSTORE SWAP2 PUSH1 0x20 ADD SWAP2 PUSH2 0x675 JUMP JUMPDEST DUP3 ADD SWAP2 SWAP1 PUSH1 0x0 MSTORE PUSH1 0x20 PUSH1 0x0 KECCAK256 SWAP1 JUMPDEST DUP2 SLOAD DUP2 MSTORE SWAP1 PUSH1 0x1 ADD SWAP1 PUSH1 0x20 ADD DUP1 DUP4 GT PUSH2 0x658 JUMPI DUP3 SWAP1 SUB PUSH1 0x1F AND DUP3 ADD SWAP2 JUMPDEST POP POP POP SWAP2 DUP4 MSTORE POP POP PUSH1 0x4 SWAP2 SWAP1 SWAP2 ADD SLOAD PUSH1 0xFF AND ISZERO ISZERO PUSH1 0x20 SWAP1 SWAP2 ADD MSTORE SWAP3 SWAP2 POP POP JUMP JUMPDEST PUSH4 0x4E487B71 PUSH1 0xE0 SHL PUSH1 0x0 MSTORE PUSH1 0x41 PUSH1 0x4 MSTORE PUSH1 0x24 PUSH1 0x0 REVERT JUMPDEST PUSH1 0x0 DUP3 PUSH1 0x1F DUP4 ADD SLT PUSH2 0x6BC JUMPI PUSH1 0x0 DUP1 REVERT JUMPDEST DUP2 CALLDATALOAD PUSH8 0xFFFFFFFFFFFFFFFF DUP2 GT ISZERO PUSH2 0x6D6 JUMPI PUSH2 0x6D6 PUSH2 0x695 JUMP JUMPDEST PUSH1 0x40 MLOAD PUSH1 0x1F DUP3 ADD PUSH1 0x1F NOT SWAP1 DUP2 AND PUSH1 0x3F ADD AND DUP2 ADD PUSH8 0xFFFFFFFFFFFFFFFF DUP2 GT DUP3 DUP3 LT OR ISZERO PUSH2 0x705 JUMPI PUSH2 0x705 PUSH2 0x695 JUMP JUMPDEST PUSH1 0x40 MSTORE DUP2 DUP2 MSTORE DUP4 DUP3 ADD PUSH1 0x20 ADD DUP6 LT ISZERO PUSH2 0x71D JUMPI PUSH1 0x0 DUP1 REVERT JUMPDEST DUP2 PUSH1 0x20 DUP6 ADD PUSH1 0x20 DUP4 ADD CALLDATACOPY PUSH1 0x0 SWAP2 DUP2 ADD PUSH1 0x20 ADD SWAP2 SWAP1 SWAP2 MSTORE SWAP4 SWAP3 POP POP POP JUMP JUMPDEST PUSH1 0x0 DUP1 PUSH1 0x0 DUP1 PUSH1 0x80 DUP6 DUP8 SUB SLT ISZERO PUSH2 0x750 JUMPI PUSH1 0x0 DUP1 REVERT JUMPDEST DUP5 CALLDATALOAD PUSH8 0xFFFFFFFFFFFFFFFF DUP2 GT ISZERO PUSH2 0x767 JUMPI PUSH1 0x0 DUP1 REVERT JUMPDEST PUSH2 0x773 DUP8 DUP3 DUP9 ADD PUSH2 0x6AB JUMP JUMPDEST SWAP5 POP POP PUSH1 0x20 DUP6 ADD CALLDATALOAD PUSH8 0xFFFFFFFFFFFFFFFF DUP2 GT ISZERO PUSH2 0x790 JUMPI PUSH1 0x0 DUP1 REVERT JUMPDEST PUSH2 0x79C DUP8 DUP3 DUP9 ADD PUSH2 0x6AB JUMP JUMPDEST SWAP4 POP POP PUSH1 0x40 DUP6 ADD CALLDATALOAD PUSH8 0xFFFFFFFFFFFFFFFF DUP2 GT ISZERO PUSH2 0x7B9 JUMPI PUSH1 0x0 DUP1 REVERT JUMPDEST PUSH2 0x7C5 DUP8 DUP3 DUP9 ADD PUSH2 0x6AB JUMP JUMPDEST SWAP3 POP POP PUSH1 0x60 DUP6 ADD CALLDATALOAD PUSH8 0xFFFFFFFFFFFFFFFF DUP2 GT ISZERO PUSH2 0x7E2 JUMPI PUSH1 0x0 DUP1 REVERT JUMPDEST PUSH2 0x7EE DUP8 DUP3 DUP9 ADD PUSH2 0x6AB JUMP JUMPDEST SWAP2 POP POP SWAP3 SWAP6 SWAP2 SWAP5 POP SWAP3 POP JUMP JUMPDEST PUSH1 0x0 PUSH1 0x20 DUP3 DUP5 SUB SLT ISZERO PUSH2 0x80C JUMPI PUSH1 0x0 DUP1 REVERT JUMPDEST DUP2 CALLDATALOAD PUSH8 0xFFFFFFFFFFFFFFFF DUP2 GT ISZERO PUSH2 0x823 JUMPI PUSH1 0x0 DUP1 REVERT JUMPDEST PUSH2 0x82F DUP5 DUP3 DUP6 ADD PUSH2 0x6AB JUMP JUMPDEST SWAP5 SWAP4 POP POP POP POP JUMP JUMPDEST PUSH1 0x0 JUMPDEST DUP4 DUP2 LT ISZERO PUSH2 0x852 JUMPI DUP2 DUP2 ADD MLOAD DUP4 DUP3 ADD MSTORE PUSH1 0x20 ADD PUSH2 0x83A JUMP JUMPDEST POP POP PUSH1 0x0 SWAP2 ADD MSTORE JUMP JUMPDEST PUSH1 0x0 DUP2 MLOAD DUP1 DUP5 MSTORE PUSH2 0x873 DUP2 PUSH1 0x20 DUP7 ADD PUSH1 0x20 DUP7 ADD PUSH2 0x837 JUMP JUMPDEST PUSH1 0x1F ADD PUSH1 0x1F NOT AND SWAP3 SWAP1 SWAP3 ADD PUSH1 0x20 ADD SWAP3 SWAP2 POP POP JUMP JUMPDEST PUSH1 0x20 DUP2 MSTORE PUSH1 0x0 DUP3 MLOAD PUSH1 0xA0 PUSH1 0x20 DUP5 ADD MSTORE PUSH2 0x8A3 PUSH1 0xC0 DUP5 ADD DUP3 PUSH2 0x85B JUMP JUMPDEST SWAP1 POP PUSH1 0x20 DUP5 ADD MLOAD PUSH1 0x1F NOT DUP5 DUP4 SUB ADD PUSH1 0x40 DUP6 ADD MSTORE PUSH2 0x8C0 DUP3 DUP3 PUSH2 0x85B JUMP JUMPDEST SWAP2 POP POP PUSH1 0x40 DUP5 ADD MLOAD PUSH1 0x1F NOT DUP5 DUP4 SUB ADD PUSH1 0x60 DUP6 ADD MSTORE PUSH2 0x8DE DUP3 DUP3 PUSH2 0x85B JUMP JUMPDEST SWAP2 POP POP PUSH1 0x60 DUP5 ADD MLOAD PUSH1 0x1F NOT DUP5 DUP4 SUB ADD PUSH1 0x80 DUP6 ADD MSTORE PUSH2 0x8FC DUP3 DUP3 PUSH2 0x85B JUMP JUMPDEST SWAP2 POP POP PUSH1 0x80 DUP5 ADD MLOAD ISZERO ISZERO PUSH1 0xA0 DUP5 ADD MSTORE DUP1 SWAP2 POP POP SWAP3 SWAP2 POP POP JUMP JUMPDEST PUSH1 0x0 DUP3 MLOAD PUSH2 0x927 DUP2 DUP5 PUSH1 0x20 DUP8 ADD PUSH2 0x837 JUMP JUMPDEST SWAP2 SWAP1 SWAP2 ADD SWAP3 SWAP2 POP POP JUMP JUMPDEST PUSH1 0x1 DUP2 DUP2 SHR SWAP1 DUP3 AND DUP1 PUSH2 0x945 JUMPI PUSH1 0x7F DUP3 AND SWAP2 POP JUMPDEST PUSH1 0x20 DUP3 LT DUP2 SUB PUSH2 0x965 JUMPI PUSH4 0x4E487B71 PUSH1 0xE0 SHL PUSH1 0x0 MSTORE PUSH1 0x22 PUSH1 0x4 MSTORE PUSH1 0x24 PUSH1 0x0 REVERT JUMPDEST POP SWAP2 SWAP1 POP JUMP JUMPDEST PUSH1 0x1F DUP3 GT ISZERO PUSH2 0x9B5 JUMPI DUP1 PUSH1 0x0 MSTORE PUSH1 0x20 PUSH1 0x0 KECCAK256 PUSH1 0x1F DUP5 ADD PUSH1 0x5 SHR DUP2 ADD PUSH1 0x20 DUP6 LT ISZERO PUSH2 0x992 JUMPI POP DUP1 JUMPDEST PUSH1 0x1F DUP5 ADD PUSH1 0x5 SHR DUP3 ADD SWAP2 POP JUMPDEST DUP2 DUP2 LT ISZERO PUSH2 0x9B2 JUMPI PUSH1 0x0 DUP2 SSTORE PUSH1 0x1 ADD PUSH2 0x99E JUMP JUMPDEST POP POP JUMPDEST POP POP POP JUMP JUMPDEST DUP2 MLOAD PUSH8 0xFFFFFFFFFFFFFFFF DUP2 GT ISZERO PUSH2 0x9D4 JUMPI PUSH2 0x9D4 PUSH2 0x695 JUMP JUMPDEST PUSH2 0x9E8 DUP2 PUSH2 0x9E2 DUP5 SLOAD PUSH2 0x931 JUMP JUMPDEST DUP5 PUSH2 0x96B JUMP JUMPDEST PUSH1 0x20 PUSH1 0x1F DUP3 GT PUSH1 0x1 DUP2 EQ PUSH2 0xA1C JUMPI PUSH1 0x0 DUP4 ISZERO PUSH2 0xA04 JUMPI POP DUP5 DUP3 ADD MLOAD JUMPDEST PUSH1 0x0 NOT PUSH1 0x3 DUP6 SWAP1 SHL SHR NOT AND PUSH1 0x1 DUP5 SWAP1 SHL OR DUP5 SSTORE PUSH2 0x9B2 JUMP JUMPDEST PUSH1 0x0 DUP5 DUP2 MSTORE PUSH1 0x20 DUP2 KECCAK256 PUSH1 0x1F NOT DUP6 AND SWAP2 JUMPDEST DUP3 DUP2 LT ISZERO PUSH2 0xA4C JUMPI DUP8 DUP6 ADD MLOAD DUP3 SSTORE PUSH1 0x20 SWAP5 DUP6 ADD SWAP5 PUSH1 0x1 SWAP1 SWAP3 ADD SWAP2 ADD PUSH2 0xA2C JUMP JUMPDEST POP DUP5 DUP3 LT ISZERO PUSH2 0xA6A JUMPI DUP7 DUP5 ADD MLOAD PUSH1 0x0 NOT PUSH1 0x3 DUP8 SWAP1 SHL PUSH1 0xF8 AND SHR NOT AND DUP2 SSTORE JUMPDEST POP POP POP POP PUSH1 0x1 SWAP1 DUP2 SHL ADD SWAP1 SSTORE POP JUMP JUMPDEST PUSH1 0x40 DUP2 MSTORE PUSH1 0x0 PUSH2 0xA8C PUSH1 0x40 DUP4 ADD DUP6 PUSH2 0x85B JUMP JUMPDEST DUP3 DUP2 SUB PUSH1 0x20 DUP5 ADD MSTORE PUSH2 0xA9E DUP2 DUP6 PUSH2 0x85B JUMP JUMPDEST SWAP6 SWAP5 POP POP POP POP POP JUMP INVALID LOG2 PUSH5 0x6970667358 0x22 SLT KECCAK256 0xE6 MSIZE PUSH5 0xFB34386935 MULMOD 0xDD SDIV 0xA7 0xC3 0xC3 NOT 0x21 0xDA MUL SWAP15 PUSH25 0xE5675F102D49EBD97357EA9364736F6C634300081A00330000 "
				},
				"gasEstimates": {
					"creation": {
						"codeDepositCost": "556200",
						"executionCost": "587",
						"totalCost": "556787"
					},
					"external": {
						"getCredential(string)": "infinite",
						"issueCredential(string,string,string,string)": "infinite",
						"revokeCredential(string)": "infinite"
					}
				},
				"methodIdentifiers": {
					"getCredential(string)": "d091187f",
					"issueCredential(string,string,string,string)": "42179bd0",
					"revokeCredential(string)": "5e9a2d28"
				}
			},
			"storageLayout": {
				"storage": [
					{
						"astId": 17,
						"contract": "contracts/VerifiableCredential.sol:VerifiableCredential",
						"label": "credentials",
						"offset": 0,
						"slot": "0",
						"type": "t_mapping(t_string_memory_ptr,t_struct(VerifiableCredential)12_storage)"
					}
				],
				"types": {
					"t_bool": {
						"encoding": "inplace",
						"label": "bool",
						"numberOfBytes": "1"
					},
					"t_mapping(t_string_memory_ptr,t_struct(VerifiableCredential)12_storage)": {
						"encoding": "mapping",
						"key": "t_string_memory_ptr",
						"label": "mapping(string => struct VerifiableCredential.VerifiableCredential)",
						"numberOfBytes": "32",
						"value": "t_struct(VerifiableCredential)12_storage"
					},
					"t_string_memory_ptr": {
						"encoding": "bytes",
						"label": "string",
						"numberOfBytes": "32"
					},
					"t_string_storage": {
						"encoding": "bytes",
						"label": "string",
						"numberOfBytes": "32"
					},
					"t_struct(VerifiableCredential)12_storage": {
						"encoding": "inplace",
						"label": "struct VerifiableCredential.VerifiableCredential",
						"members": [
							{
								"astId": 3,
								"contract": "contracts/VerifiableCredential.sol:VerifiableCredential",
								"label": "credentialID",
								"offset": 0,
								"slot": "0",
								"type": "t_string_storage"
							},
							{
								"astId": 5,
								"contract": "contracts/VerifiableCredential.sol:VerifiableCredential",
								"label": "issuer",
								"offset": 0,
								"slot": "1",
								"type": "t_string_storage"
							},
							{
								"astId": 7,
								"contract": "contracts/VerifiableCredential.sol:VerifiableCredential",
								"label": "issuedTo",
								"offset": 0,
								"slot": "2",
								"type": "t_string_storage"
							},
							{
								"astId": 9,
								"contract": "contracts/VerifiableCredential.sol:VerifiableCredential",
								"label": "metadata",
								"offset": 0,
								"slot": "3",
								"type": "t_string_storage"
							},
							{
								"astId": 11,
								"contract": "contracts/VerifiableCredential.sol:VerifiableCredential",
								"label": "isValid",
								"offset": 0,
								"slot": "4",
								"type": "t_bool"
							}
						],
						"numberOfBytes": "160"
					}
				}
			},
			"userdoc": {
				"kind": "user",
				"methods": {},
				"version": 1
			}
		}
	}
}