{
	"contracts/PublicKeyManager.sol": {
		"PublicKeyManager": {
			"abi": [
				{
					"anonymous": false,
					"inputs": [
						{
							"indexed": true,
							"internalType": "address",
							"name": "owner",
							"type": "address"
						},
						{
							"indexed": false,
							"internalType": "string",
							"name": "publicKey",
							"type": "string"
						}
					],
					"name": "PublicKeyAdded",
					"type": "event"
				},
				{
					"inputs": [
						{
							"internalType": "string",
							"name": "_publicKey",
							"type": "string"
						}
					],
					"name": "addPublicKey",
					"outputs": [],
					"stateMutability": "nonpayable",
					"type": "function"
				},
				{
					"inputs": [
						{
							"internalType": "address",
							"name": "_owner",
							"type": "address"
						}
					],
					"name": "getPublicKey",
					"outputs": [
						{
							"internalType": "string",
							"name": "",
							"type": "string"
						}
					],
					"stateMutability": "view",
					"type": "function"
				}
			],
			"devdoc": {
				"kind": "dev",
				"methods": {},
				"version": 1
			},
			"evm": {
				"assembly": "    /* \"contracts/PublicKeyManager.sol\":57:759  contract PublicKeyManager {... */\n  mstore(0x40, 0x80)\n  callvalue\n  dup1\n  iszero\n  tag_1\n  jumpi\n  0x00\n  dup1\n  revert\ntag_1:\n  pop\n  dataSize(sub_0)\n  dup1\n  dataOffset(sub_0)\n  0x00\n  codecopy\n  0x00\n  return\nstop\n\nsub_0: assembly {\n        /* \"contracts/PublicKeyManager.sol\":57:759  contract PublicKeyManager {... */\n      mstore(0x40, 0x80)\n      callvalue\n      dup1\n      iszero\n      tag_1\n      jumpi\n      0x00\n      dup1\n      revert\n    tag_1:\n      pop\n      jumpi(tag_2, lt(calldatasize, 0x04))\n      shr(0xe0, calldataload(0x00))\n      dup1\n      0x857cdbb8\n      eq\n      tag_3\n      jumpi\n      dup1\n      0xce09197e\n      eq\n      tag_4\n      jumpi\n    tag_2:\n      0x00\n      dup1\n      revert\n        /* \"contracts/PublicKeyManager.sol\":545:757  function getPublicKey(address _owner) public view returns (string memory) {... */\n    tag_3:\n      tag_5\n      tag_6\n      calldatasize\n      0x04\n      tag_7\n      jump\t// in\n    tag_6:\n      tag_8\n      jump\t// in\n    tag_5:\n      mload(0x40)\n      tag_9\n      swap2\n      swap1\n      tag_10\n      jump\t// in\n    tag_9:\n      mload(0x40)\n      dup1\n      swap2\n      sub\n      swap1\n      return\n        /* \"contracts/PublicKeyManager.sol\":209:539  function addPublicKey(string memory _publicKey) public {... */\n    tag_4:\n      tag_11\n      tag_12\n      calldatasize\n      0x04\n      tag_13\n      jump\t// in\n    tag_12:\n      tag_14\n      jump\t// in\n    tag_11:\n      stop\n        /* \"contracts/PublicKeyManager.sol\":545:757  function getPublicKey(address _owner) public view returns (string memory) {... */\n    tag_8:\n      sub(shl(0xa0, 0x01), 0x01)\n        /* \"contracts/PublicKeyManager.sol\":643:661  publicKeys[_owner] */\n      dup2\n      and\n        /* \"contracts/PublicKeyManager.sol\":672:673  0 */\n      0x00\n        /* \"contracts/PublicKeyManager.sol\":643:661  publicKeys[_owner] */\n      swap1\n      dup2\n      mstore\n      0x20\n      dup2\n      swap1\n      mstore\n      0x40\n      dup2\n      keccak256\n        /* \"contracts/PublicKeyManager.sol\":637:669  bytes(publicKeys[_owner]).length */\n      dup1\n      sload\n        /* \"contracts/PublicKeyManager.sol\":604:617  string memory */\n      0x60\n      swap3\n        /* \"contracts/PublicKeyManager.sol\":672:673  0 */\n      swap2\n        /* \"contracts/PublicKeyManager.sol\":643:661  publicKeys[_owner] */\n      swap1\n        /* \"contracts/PublicKeyManager.sol\":637:669  bytes(publicKeys[_owner]).length */\n      tag_16\n      swap1\n      tag_17\n      jump\t// in\n    tag_16:\n      swap1\n      pop\n        /* \"contracts/PublicKeyManager.sol\":637:673  bytes(publicKeys[_owner]).length > 0 */\n      gt\n        /* \"contracts/PublicKeyManager.sol\":629:715  require(bytes(publicKeys[_owner]).length > 0, \"No public key found for this address.\") */\n      tag_18\n      jumpi\n      mload(0x40)\n      shl(0xe5, 0x461bcd)\n      dup2\n      mstore\n        /* \"#utility.yul\":2529:2531   */\n      0x20\n        /* \"contracts/PublicKeyManager.sol\":629:715  require(bytes(publicKeys[_owner]).length > 0, \"No public key found for this address.\") */\n      0x04\n      dup3\n      add\n        /* \"#utility.yul\":2511:2532   */\n      mstore\n        /* \"#utility.yul\":2568:2570   */\n      0x25\n        /* \"#utility.yul\":2548:2566   */\n      0x24\n      dup3\n      add\n        /* \"#utility.yul\":2541:2571   */\n      mstore\n        /* \"#utility.yul\":2607:2641   */\n      0x4e6f207075626c6963206b657920666f756e6420666f72207468697320616464\n        /* \"#utility.yul\":2587:2605   */\n      0x44\n      dup3\n      add\n        /* \"#utility.yul\":2580:2642   */\n      mstore\n      shl(0xd9, 0x3932b9b997)\n        /* \"#utility.yul\":2658:2676   */\n      0x64\n      dup3\n      add\n        /* \"#utility.yul\":2651:2686   */\n      mstore\n        /* \"#utility.yul\":2703:2722   */\n      0x84\n      add\n        /* \"contracts/PublicKeyManager.sol\":629:715  require(bytes(publicKeys[_owner]).length > 0, \"No public key found for this address.\") */\n    tag_19:\n      mload(0x40)\n      dup1\n      swap2\n      sub\n      swap1\n      revert\n    tag_18:\n      sub(shl(0xa0, 0x01), 0x01)\n        /* \"contracts/PublicKeyManager.sol\":732:750  publicKeys[_owner] */\n      dup3\n      and\n        /* \"contracts/PublicKeyManager.sol\":732:742  publicKeys */\n      0x00\n        /* \"contracts/PublicKeyManager.sol\":732:750  publicKeys[_owner] */\n      swap1\n      dup2\n      mstore\n      0x20\n      dup2\n      swap1\n      mstore\n      0x40\n      swap1\n      keccak256\n        /* \"contracts/PublicKeyManager.sol\":725:750  return publicKeys[_owner] */\n      dup1\n      sload\n      tag_21\n      swap1\n      tag_17\n      jump\t// in\n    tag_21:\n      dup1\n      0x1f\n      add\n      0x20\n      dup1\n      swap2\n      div\n      mul\n      0x20\n      add\n      mload(0x40)\n      swap1\n      dup2\n      add\n      0x40\n      mstore\n      dup1\n      swap3\n      swap2\n      swap1\n      dup2\n      dup2\n      mstore\n      0x20\n      add\n      dup3\n      dup1\n      sload\n      tag_22\n      swap1\n      tag_17\n      jump\t// in\n    tag_22:\n      dup1\n      iszero\n      tag_23\n      jumpi\n      dup1\n      0x1f\n      lt\n      tag_24\n      jumpi\n      0x0100\n      dup1\n      dup4\n      sload\n      div\n      mul\n      dup4\n      mstore\n      swap2\n      0x20\n      add\n      swap2\n      jump(tag_23)\n    tag_24:\n      dup3\n      add\n      swap2\n      swap1\n      0x00\n      mstore\n      keccak256(0x00, 0x20)\n      swap1\n    tag_25:\n      dup2\n      sload\n      dup2\n      mstore\n      swap1\n      0x01\n      add\n      swap1\n      0x20\n      add\n      dup1\n      dup4\n      gt\n      tag_25\n      jumpi\n      dup3\n      swap1\n      sub\n      0x1f\n      and\n      dup3\n      add\n      swap2\n    tag_23:\n      pop\n      pop\n      pop\n      pop\n      pop\n      swap1\n      pop\n        /* \"contracts/PublicKeyManager.sol\":545:757  function getPublicKey(address _owner) public view returns (string memory) {... */\n      swap2\n      swap1\n      pop\n      jump\t// out\n        /* \"contracts/PublicKeyManager.sol\":209:539  function addPublicKey(string memory _publicKey) public {... */\n    tag_14:\n        /* \"contracts/PublicKeyManager.sol\":309:310  0 */\n      0x00\n        /* \"contracts/PublicKeyManager.sol\":288:298  _publicKey */\n      dup2\n        /* \"contracts/PublicKeyManager.sol\":282:306  bytes(_publicKey).length */\n      mload\n        /* \"contracts/PublicKeyManager.sol\":282:310  bytes(_publicKey).length > 0 */\n      gt\n        /* \"contracts/PublicKeyManager.sol\":274:342  require(bytes(_publicKey).length > 0, \"Public key cannot be empty.\") */\n      tag_27\n      jumpi\n      mload(0x40)\n      shl(0xe5, 0x461bcd)\n      dup2\n      mstore\n        /* \"#utility.yul\":2935:2937   */\n      0x20\n        /* \"contracts/PublicKeyManager.sol\":274:342  require(bytes(_publicKey).length > 0, \"Public key cannot be empty.\") */\n      0x04\n      dup3\n      add\n        /* \"#utility.yul\":2917:2938   */\n      mstore\n        /* \"#utility.yul\":2974:2976   */\n      0x1b\n        /* \"#utility.yul\":2954:2972   */\n      0x24\n      dup3\n      add\n        /* \"#utility.yul\":2947:2977   */\n      mstore\n        /* \"#utility.yul\":3013:3042   */\n      0x5075626c6963206b65792063616e6e6f7420626520656d7074792e0000000000\n        /* \"#utility.yul\":2993:3011   */\n      0x44\n      dup3\n      add\n        /* \"#utility.yul\":2986:3043   */\n      mstore\n        /* \"#utility.yul\":3060:3078   */\n      0x64\n      add\n        /* \"contracts/PublicKeyManager.sol\":274:342  require(bytes(_publicKey).length > 0, \"Public key cannot be empty.\") */\n      tag_19\n        /* \"#utility.yul\":2733:3084   */\n      jump\n        /* \"contracts/PublicKeyManager.sol\":274:342  require(bytes(_publicKey).length > 0, \"Public key cannot be empty.\") */\n    tag_27:\n        /* \"contracts/PublicKeyManager.sol\":377:387  msg.sender */\n      caller\n        /* \"contracts/PublicKeyManager.sol\":366:376  publicKeys */\n      0x00\n        /* \"contracts/PublicKeyManager.sol\":366:388  publicKeys[msg.sender] */\n      swap1\n      dup2\n      mstore\n      0x20\n      dup2\n      swap1\n      mstore\n      0x40\n      swap1\n      keccak256\n        /* \"contracts/PublicKeyManager.sol\":360:396  bytes(publicKeys[msg.sender]).length */\n      dup1\n      sload\n      tag_30\n      swap1\n      tag_17\n      jump\t// in\n    tag_30:\n        /* \"contracts/PublicKeyManager.sol\":360:401  bytes(publicKeys[msg.sender]).length == 0 */\n      iszero\n      swap1\n      pop\n        /* \"contracts/PublicKeyManager.sol\":352:432  require(bytes(publicKeys[msg.sender]).length == 0, \"Public key already exists.\") */\n      tag_31\n      jumpi\n      mload(0x40)\n      shl(0xe5, 0x461bcd)\n      dup2\n      mstore\n        /* \"#utility.yul\":3291:3293   */\n      0x20\n        /* \"contracts/PublicKeyManager.sol\":352:432  require(bytes(publicKeys[msg.sender]).length == 0, \"Public key already exists.\") */\n      0x04\n      dup3\n      add\n        /* \"#utility.yul\":3273:3294   */\n      mstore\n        /* \"#utility.yul\":3330:3332   */\n      0x1a\n        /* \"#utility.yul\":3310:3328   */\n      0x24\n      dup3\n      add\n        /* \"#utility.yul\":3303:3333   */\n      mstore\n        /* \"#utility.yul\":3369:3397   */\n      0x5075626c6963206b657920616c7265616479206578697374732e000000000000\n        /* \"#utility.yul\":3349:3367   */\n      0x44\n      dup3\n      add\n        /* \"#utility.yul\":3342:3398   */\n      mstore\n        /* \"#utility.yul\":3415:3433   */\n      0x64\n      add\n        /* \"contracts/PublicKeyManager.sol\":352:432  require(bytes(publicKeys[msg.sender]).length == 0, \"Public key already exists.\") */\n      tag_19\n        /* \"#utility.yul\":3089:3439   */\n      jump\n        /* \"contracts/PublicKeyManager.sol\":352:432  require(bytes(publicKeys[msg.sender]).length == 0, \"Public key already exists.\") */\n    tag_31:\n        /* \"contracts/PublicKeyManager.sol\":454:464  msg.sender */\n      caller\n        /* \"contracts/PublicKeyManager.sol\":443:453  publicKeys */\n      0x00\n        /* \"contracts/PublicKeyManager.sol\":443:465  publicKeys[msg.sender] */\n      swap1\n      dup2\n      mstore\n      0x20\n      dup2\n      swap1\n      mstore\n      0x40\n      swap1\n      keccak256\n        /* \"contracts/PublicKeyManager.sol\":443:478  publicKeys[msg.sender] = _publicKey */\n      tag_34\n        /* \"contracts/PublicKeyManager.sol\":468:478  _publicKey */\n      dup3\n        /* \"contracts/PublicKeyManager.sol\":443:465  publicKeys[msg.sender] */\n      dup3\n        /* \"contracts/PublicKeyManager.sol\":443:478  publicKeys[msg.sender] = _publicKey */\n      tag_35\n      jump\t// in\n    tag_34:\n      pop\n        /* \"contracts/PublicKeyManager.sol\":509:519  msg.sender */\n      caller\n      sub(shl(0xa0, 0x01), 0x01)\n        /* \"contracts/PublicKeyManager.sol\":494:532  PublicKeyAdded(msg.sender, _publicKey) */\n      and\n      0xae3c25feee9ffe53f654a0494566502413eea9041dd7db07da82a2c6bb8ca34e\n        /* \"contracts/PublicKeyManager.sol\":521:531  _publicKey */\n      dup3\n        /* \"contracts/PublicKeyManager.sol\":494:532  PublicKeyAdded(msg.sender, _publicKey) */\n      mload(0x40)\n      tag_36\n      swap2\n      swap1\n      tag_10\n      jump\t// in\n    tag_36:\n      mload(0x40)\n      dup1\n      swap2\n      sub\n      swap1\n      log2\n        /* \"contracts/PublicKeyManager.sol\":209:539  function addPublicKey(string memory _publicKey) public {... */\n      pop\n      jump\t// out\n        /* \"#utility.yul\":14:323   */\n    tag_7:\n        /* \"#utility.yul\":73:79   */\n      0x00\n        /* \"#utility.yul\":126:128   */\n      0x20\n        /* \"#utility.yul\":114:123   */\n      dup3\n        /* \"#utility.yul\":105:112   */\n      dup5\n        /* \"#utility.yul\":101:124   */\n      sub\n        /* \"#utility.yul\":97:129   */\n      slt\n        /* \"#utility.yul\":94:146   */\n      iszero\n      tag_43\n      jumpi\n        /* \"#utility.yul\":142:143   */\n      0x00\n        /* \"#utility.yul\":139:140   */\n      dup1\n        /* \"#utility.yul\":132:144   */\n      revert\n        /* \"#utility.yul\":94:146   */\n    tag_43:\n        /* \"#utility.yul\":181:190   */\n      dup2\n        /* \"#utility.yul\":168:191   */\n      calldataload\n      sub(shl(0xa0, 0x01), 0x01)\n        /* \"#utility.yul\":224:229   */\n      dup2\n        /* \"#utility.yul\":220:274   */\n      and\n        /* \"#utility.yul\":213:218   */\n      dup2\n        /* \"#utility.yul\":210:275   */\n      eq\n        /* \"#utility.yul\":200:293   */\n      tag_44\n      jumpi\n        /* \"#utility.yul\":289:290   */\n      0x00\n        /* \"#utility.yul\":286:287   */\n      dup1\n        /* \"#utility.yul\":279:291   */\n      revert\n        /* \"#utility.yul\":200:293   */\n    tag_44:\n        /* \"#utility.yul\":312:317   */\n      swap4\n        /* \"#utility.yul\":14:323   */\n      swap3\n      pop\n      pop\n      pop\n      jump\t// out\n        /* \"#utility.yul\":328:855   */\n    tag_10:\n        /* \"#utility.yul\":477:479   */\n      0x20\n        /* \"#utility.yul\":466:475   */\n      dup2\n        /* \"#utility.yul\":459:480   */\n      mstore\n        /* \"#utility.yul\":440:444   */\n      0x00\n        /* \"#utility.yul\":509:515   */\n      dup3\n        /* \"#utility.yul\":503:516   */\n      mload\n        /* \"#utility.yul\":552:558   */\n      dup1\n        /* \"#utility.yul\":547:549   */\n      0x20\n        /* \"#utility.yul\":536:545   */\n      dup5\n        /* \"#utility.yul\":532:550   */\n      add\n        /* \"#utility.yul\":525:559   */\n      mstore\n        /* \"#utility.yul\":577:578   */\n      0x00\n        /* \"#utility.yul\":587:727   */\n    tag_46:\n        /* \"#utility.yul\":601:607   */\n      dup2\n        /* \"#utility.yul\":598:599   */\n      dup2\n        /* \"#utility.yul\":595:608   */\n      lt\n        /* \"#utility.yul\":587:727   */\n      iszero\n      tag_48\n      jumpi\n        /* \"#utility.yul\":712:714   */\n      0x20\n        /* \"#utility.yul\":696:710   */\n      dup2\n      dup7\n      add\n        /* \"#utility.yul\":692:715   */\n      dup2\n      add\n        /* \"#utility.yul\":686:716   */\n      mload\n        /* \"#utility.yul\":681:683   */\n      0x40\n        /* \"#utility.yul\":662:679   */\n      dup7\n      dup5\n      add\n        /* \"#utility.yul\":658:684   */\n      add\n        /* \"#utility.yul\":651:717   */\n      mstore\n        /* \"#utility.yul\":616:626   */\n      add\n        /* \"#utility.yul\":587:727   */\n      jump(tag_46)\n    tag_48:\n        /* \"#utility.yul\":591:594   */\n      pop\n        /* \"#utility.yul\":776:777   */\n      0x00\n        /* \"#utility.yul\":771:773   */\n      0x40\n        /* \"#utility.yul\":762:768   */\n      dup3\n        /* \"#utility.yul\":751:760   */\n      dup6\n        /* \"#utility.yul\":747:769   */\n      add\n        /* \"#utility.yul\":743:774   */\n      add\n        /* \"#utility.yul\":736:778   */\n      mstore\n        /* \"#utility.yul\":846:848   */\n      0x40\n        /* \"#utility.yul\":839:841   */\n      0x1f\n        /* \"#utility.yul\":835:842   */\n      not\n        /* \"#utility.yul\":830:832   */\n      0x1f\n        /* \"#utility.yul\":822:828   */\n      dup4\n        /* \"#utility.yul\":818:833   */\n      add\n        /* \"#utility.yul\":814:843   */\n      and\n        /* \"#utility.yul\":803:812   */\n      dup5\n        /* \"#utility.yul\":799:844   */\n      add\n        /* \"#utility.yul\":795:849   */\n      add\n        /* \"#utility.yul\":787:849   */\n      swap2\n      pop\n      pop\n        /* \"#utility.yul\":328:855   */\n      swap3\n      swap2\n      pop\n      pop\n      jump\t// out\n        /* \"#utility.yul\":860:987   */\n    tag_37:\n        /* \"#utility.yul\":921:931   */\n      0x4e487b71\n        /* \"#utility.yul\":916:919   */\n      0xe0\n        /* \"#utility.yul\":912:932   */\n      shl\n        /* \"#utility.yul\":909:910   */\n      0x00\n        /* \"#utility.yul\":902:933   */\n      mstore\n        /* \"#utility.yul\":952:956   */\n      0x41\n        /* \"#utility.yul\":949:950   */\n      0x04\n        /* \"#utility.yul\":942:957   */\n      mstore\n        /* \"#utility.yul\":976:980   */\n      0x24\n        /* \"#utility.yul\":973:974   */\n      0x00\n        /* \"#utility.yul\":966:981   */\n      revert\n        /* \"#utility.yul\":992:1937   */\n    tag_13:\n        /* \"#utility.yul\":1061:1067   */\n      0x00\n        /* \"#utility.yul\":1114:1116   */\n      0x20\n        /* \"#utility.yul\":1102:1111   */\n      dup3\n        /* \"#utility.yul\":1093:1100   */\n      dup5\n        /* \"#utility.yul\":1089:1112   */\n      sub\n        /* \"#utility.yul\":1085:1117   */\n      slt\n        /* \"#utility.yul\":1082:1134   */\n      iszero\n      tag_51\n      jumpi\n        /* \"#utility.yul\":1130:1131   */\n      0x00\n        /* \"#utility.yul\":1127:1128   */\n      dup1\n        /* \"#utility.yul\":1120:1132   */\n      revert\n        /* \"#utility.yul\":1082:1134   */\n    tag_51:\n        /* \"#utility.yul\":1170:1179   */\n      dup2\n        /* \"#utility.yul\":1157:1180   */\n      calldataload\n        /* \"#utility.yul\":1203:1221   */\n      0xffffffffffffffff\n        /* \"#utility.yul\":1195:1201   */\n      dup2\n        /* \"#utility.yul\":1192:1222   */\n      gt\n        /* \"#utility.yul\":1189:1239   */\n      iszero\n      tag_52\n      jumpi\n        /* \"#utility.yul\":1235:1236   */\n      0x00\n        /* \"#utility.yul\":1232:1233   */\n      dup1\n        /* \"#utility.yul\":1225:1237   */\n      revert\n        /* \"#utility.yul\":1189:1239   */\n    tag_52:\n        /* \"#utility.yul\":1258:1280   */\n      dup3\n      add\n        /* \"#utility.yul\":1311:1315   */\n      0x1f\n        /* \"#utility.yul\":1303:1316   */\n      dup2\n      add\n        /* \"#utility.yul\":1299:1326   */\n      dup5\n      sgt\n        /* \"#utility.yul\":1289:1344   */\n      tag_53\n      jumpi\n        /* \"#utility.yul\":1340:1341   */\n      0x00\n        /* \"#utility.yul\":1337:1338   */\n      dup1\n        /* \"#utility.yul\":1330:1342   */\n      revert\n        /* \"#utility.yul\":1289:1344   */\n    tag_53:\n        /* \"#utility.yul\":1380:1382   */\n      dup1\n        /* \"#utility.yul\":1367:1383   */\n      calldataload\n        /* \"#utility.yul\":1406:1424   */\n      0xffffffffffffffff\n        /* \"#utility.yul\":1398:1404   */\n      dup2\n        /* \"#utility.yul\":1395:1425   */\n      gt\n        /* \"#utility.yul\":1392:1448   */\n      iszero\n      tag_55\n      jumpi\n        /* \"#utility.yul\":1428:1446   */\n      tag_55\n      tag_37\n      jump\t// in\n    tag_55:\n        /* \"#utility.yul\":1477:1479   */\n      0x40\n        /* \"#utility.yul\":1471:1480   */\n      mload\n        /* \"#utility.yul\":1569:1571   */\n      0x1f\n        /* \"#utility.yul\":1531:1548   */\n      dup3\n      add\n      not(0x1f)\n        /* \"#utility.yul\":1527:1558   */\n      swap1\n      dup2\n      and\n        /* \"#utility.yul\":1560:1562   */\n      0x3f\n        /* \"#utility.yul\":1523:1563   */\n      add\n        /* \"#utility.yul\":1519:1573   */\n      and\n        /* \"#utility.yul\":1507:1574   */\n      dup2\n      add\n        /* \"#utility.yul\":1604:1622   */\n      0xffffffffffffffff\n        /* \"#utility.yul\":1589:1623   */\n      dup2\n      gt\n        /* \"#utility.yul\":1625:1647   */\n      dup3\n      dup3\n      lt\n        /* \"#utility.yul\":1586:1648   */\n      or\n        /* \"#utility.yul\":1583:1671   */\n      iszero\n      tag_57\n      jumpi\n        /* \"#utility.yul\":1651:1669   */\n      tag_57\n      tag_37\n      jump\t// in\n    tag_57:\n        /* \"#utility.yul\":1687:1689   */\n      0x40\n        /* \"#utility.yul\":1680:1702   */\n      mstore\n        /* \"#utility.yul\":1711:1733   */\n      dup2\n      dup2\n      mstore\n        /* \"#utility.yul\":1752:1767   */\n      dup3\n      dup3\n      add\n        /* \"#utility.yul\":1769:1771   */\n      0x20\n        /* \"#utility.yul\":1748:1772   */\n      add\n        /* \"#utility.yul\":1745:1782   */\n      dup7\n      lt\n        /* \"#utility.yul\":1742:1799   */\n      iszero\n      tag_58\n      jumpi\n        /* \"#utility.yul\":1795:1796   */\n      0x00\n        /* \"#utility.yul\":1792:1793   */\n      dup1\n        /* \"#utility.yul\":1785:1797   */\n      revert\n        /* \"#utility.yul\":1742:1799   */\n    tag_58:\n        /* \"#utility.yul\":1851:1857   */\n      dup2\n        /* \"#utility.yul\":1846:1848   */\n      0x20\n        /* \"#utility.yul\":1842:1844   */\n      dup5\n        /* \"#utility.yul\":1838:1849   */\n      add\n        /* \"#utility.yul\":1833:1835   */\n      0x20\n        /* \"#utility.yul\":1825:1831   */\n      dup4\n        /* \"#utility.yul\":1821:1836   */\n      add\n        /* \"#utility.yul\":1808:1858   */\n      calldatacopy\n        /* \"#utility.yul\":1904:1905   */\n      0x00\n        /* \"#utility.yul\":1878:1897   */\n      swap2\n      dup2\n      add\n        /* \"#utility.yul\":1899:1901   */\n      0x20\n        /* \"#utility.yul\":1874:1902   */\n      add\n        /* \"#utility.yul\":1867:1906   */\n      swap2\n      swap1\n      swap2\n      mstore\n        /* \"#utility.yul\":1882:1888   */\n      swap5\n        /* \"#utility.yul\":992:1937   */\n      swap4\n      pop\n      pop\n      pop\n      pop\n      jump\t// out\n        /* \"#utility.yul\":1942:2322   */\n    tag_17:\n        /* \"#utility.yul\":2021:2022   */\n      0x01\n        /* \"#utility.yul\":2017:2029   */\n      dup2\n      dup2\n      shr\n      swap1\n        /* \"#utility.yul\":2064:2076   */\n      dup3\n      and\n      dup1\n        /* \"#utility.yul\":2085:2146   */\n      tag_60\n      jumpi\n        /* \"#utility.yul\":2139:2143   */\n      0x7f\n        /* \"#utility.yul\":2131:2137   */\n      dup3\n        /* \"#utility.yul\":2127:2144   */\n      and\n        /* \"#utility.yul\":2117:2144   */\n      swap2\n      pop\n        /* \"#utility.yul\":2085:2146   */\n    tag_60:\n        /* \"#utility.yul\":2192:2194   */\n      0x20\n        /* \"#utility.yul\":2184:2190   */\n      dup3\n        /* \"#utility.yul\":2181:2195   */\n      lt\n        /* \"#utility.yul\":2161:2179   */\n      dup2\n        /* \"#utility.yul\":2158:2196   */\n      sub\n        /* \"#utility.yul\":2155:2316   */\n      tag_61\n      jumpi\n        /* \"#utility.yul\":2238:2248   */\n      0x4e487b71\n        /* \"#utility.yul\":2233:2236   */\n      0xe0\n        /* \"#utility.yul\":2229:2249   */\n      shl\n        /* \"#utility.yul\":2226:2227   */\n      0x00\n        /* \"#utility.yul\":2219:2250   */\n      mstore\n        /* \"#utility.yul\":2273:2277   */\n      0x22\n        /* \"#utility.yul\":2270:2271   */\n      0x04\n        /* \"#utility.yul\":2263:2278   */\n      mstore\n        /* \"#utility.yul\":2301:2305   */\n      0x24\n        /* \"#utility.yul\":2298:2299   */\n      0x00\n        /* \"#utility.yul\":2291:2306   */\n      revert\n        /* \"#utility.yul\":2155:2316   */\n    tag_61:\n      pop\n        /* \"#utility.yul\":1942:2322   */\n      swap2\n      swap1\n      pop\n      jump\t// out\n        /* \"#utility.yul\":3570:4088   */\n    tag_39:\n        /* \"#utility.yul\":3672:3674   */\n      0x1f\n        /* \"#utility.yul\":3667:3670   */\n      dup3\n        /* \"#utility.yul\":3664:3675   */\n      gt\n        /* \"#utility.yul\":3661:4082   */\n      iszero\n      tag_67\n      jumpi\n        /* \"#utility.yul\":3708:3713   */\n      dup1\n        /* \"#utility.yul\":3705:3706   */\n      0x00\n        /* \"#utility.yul\":3698:3714   */\n      mstore\n        /* \"#utility.yul\":3752:3756   */\n      0x20\n        /* \"#utility.yul\":3749:3750   */\n      0x00\n        /* \"#utility.yul\":3739:3757   */\n      keccak256\n        /* \"#utility.yul\":3822:3824   */\n      0x1f\n        /* \"#utility.yul\":3810:3820   */\n      dup5\n        /* \"#utility.yul\":3806:3825   */\n      add\n        /* \"#utility.yul\":3803:3804   */\n      0x05\n        /* \"#utility.yul\":3799:3826   */\n      shr\n        /* \"#utility.yul\":3793:3797   */\n      dup2\n        /* \"#utility.yul\":3789:3827   */\n      add\n        /* \"#utility.yul\":3858:3862   */\n      0x20\n        /* \"#utility.yul\":3846:3856   */\n      dup6\n        /* \"#utility.yul\":3843:3863   */\n      lt\n        /* \"#utility.yul\":3840:3887   */\n      iszero\n      tag_68\n      jumpi\n      pop\n        /* \"#utility.yul\":3881:3885   */\n      dup1\n        /* \"#utility.yul\":3840:3887   */\n    tag_68:\n        /* \"#utility.yul\":3936:3938   */\n      0x1f\n        /* \"#utility.yul\":3931:3934   */\n      dup5\n        /* \"#utility.yul\":3927:3939   */\n      add\n        /* \"#utility.yul\":3924:3925   */\n      0x05\n        /* \"#utility.yul\":3920:3940   */\n      shr\n        /* \"#utility.yul\":3914:3918   */\n      dup3\n        /* \"#utility.yul\":3910:3941   */\n      add\n        /* \"#utility.yul\":3900:3941   */\n      swap2\n      pop\n        /* \"#utility.yul\":3991:4072   */\n    tag_69:\n        /* \"#utility.yul\":4009:4011   */\n      dup2\n        /* \"#utility.yul\":4002:4007   */\n      dup2\n        /* \"#utility.yul\":3999:4012   */\n      lt\n        /* \"#utility.yul\":3991:4072   */\n      iszero\n      tag_71\n      jumpi\n        /* \"#utility.yul\":4068:4069   */\n      0x00\n        /* \"#utility.yul\":4054:4070   */\n      dup2\n      sstore\n        /* \"#utility.yul\":4035:4036   */\n      0x01\n        /* \"#utility.yul\":4024:4037   */\n      add\n        /* \"#utility.yul\":3991:4072   */\n      jump(tag_69)\n    tag_71:\n        /* \"#utility.yul\":3995:3998   */\n      pop\n      pop\n        /* \"#utility.yul\":3661:4082   */\n    tag_67:\n        /* \"#utility.yul\":3570:4088   */\n      pop\n      pop\n      pop\n      jump\t// out\n        /* \"#utility.yul\":4264:5563   */\n    tag_35:\n        /* \"#utility.yul\":4390:4393   */\n      dup2\n        /* \"#utility.yul\":4384:4394   */\n      mload\n        /* \"#utility.yul\":4417:4435   */\n      0xffffffffffffffff\n        /* \"#utility.yul\":4409:4415   */\n      dup2\n        /* \"#utility.yul\":4406:4436   */\n      gt\n        /* \"#utility.yul\":4403:4459   */\n      iszero\n      tag_75\n      jumpi\n        /* \"#utility.yul\":4439:4457   */\n      tag_75\n      tag_37\n      jump\t// in\n    tag_75:\n        /* \"#utility.yul\":4468:4565   */\n      tag_76\n        /* \"#utility.yul\":4558:4564   */\n      dup2\n        /* \"#utility.yul\":4518:4556   */\n      tag_77\n        /* \"#utility.yul\":4550:4554   */\n      dup5\n        /* \"#utility.yul\":4544:4555   */\n      sload\n        /* \"#utility.yul\":4518:4556   */\n      tag_17\n      jump\t// in\n    tag_77:\n        /* \"#utility.yul\":4512:4516   */\n      dup5\n        /* \"#utility.yul\":4468:4565   */\n      tag_39\n      jump\t// in\n    tag_76:\n        /* \"#utility.yul\":4614:4618   */\n      0x20\n        /* \"#utility.yul\":4645:4647   */\n      0x1f\n        /* \"#utility.yul\":4634:4648   */\n      dup3\n      gt\n        /* \"#utility.yul\":4662:4663   */\n      0x01\n        /* \"#utility.yul\":4657:5306   */\n      dup2\n      eq\n      tag_79\n      jumpi\n        /* \"#utility.yul\":5350:5351   */\n      0x00\n        /* \"#utility.yul\":5367:5373   */\n      dup4\n        /* \"#utility.yul\":5364:5453   */\n      iszero\n      tag_80\n      jumpi\n      pop\n        /* \"#utility.yul\":5419:5438   */\n      dup5\n      dup3\n      add\n        /* \"#utility.yul\":5413:5439   */\n      mload\n        /* \"#utility.yul\":5364:5453   */\n    tag_80:\n      not(0x00)\n        /* \"#utility.yul\":4221:4222   */\n      0x03\n        /* \"#utility.yul\":4217:4228   */\n      dup6\n      swap1\n      shl\n        /* \"#utility.yul\":4213:4237   */\n      shr\n        /* \"#utility.yul\":4209:4238   */\n      not\n        /* \"#utility.yul\":4199:4239   */\n      and\n        /* \"#utility.yul\":4245:4246   */\n      0x01\n        /* \"#utility.yul\":4241:4252   */\n      dup5\n      swap1\n      shl\n        /* \"#utility.yul\":4196:4253   */\n      or\n        /* \"#utility.yul\":5466:5547   */\n      dup5\n      sstore\n        /* \"#utility.yul\":4627:5557   */\n      jump(tag_71)\n        /* \"#utility.yul\":4657:5306   */\n    tag_79:\n        /* \"#utility.yul\":3517:3518   */\n      0x00\n        /* \"#utility.yul\":3510:3524   */\n      dup5\n      dup2\n      mstore\n        /* \"#utility.yul\":3554:3558   */\n      0x20\n        /* \"#utility.yul\":3541:3559   */\n      dup2\n      keccak256\n      not(0x1f)\n        /* \"#utility.yul\":4693:4713   */\n      dup6\n      and\n      swap2\n        /* \"#utility.yul\":4811:5033   */\n    tag_83:\n        /* \"#utility.yul\":4825:4832   */\n      dup3\n        /* \"#utility.yul\":4822:4823   */\n      dup2\n        /* \"#utility.yul\":4819:4833   */\n      lt\n        /* \"#utility.yul\":4811:5033   */\n      iszero\n      tag_85\n      jumpi\n        /* \"#utility.yul\":4907:4926   */\n      dup8\n      dup6\n      add\n        /* \"#utility.yul\":4901:4927   */\n      mload\n        /* \"#utility.yul\":4886:4928   */\n      dup3\n      sstore\n        /* \"#utility.yul\":5014:5018   */\n      0x20\n        /* \"#utility.yul\":4999:5019   */\n      swap5\n      dup6\n      add\n      swap5\n        /* \"#utility.yul\":4967:4968   */\n      0x01\n        /* \"#utility.yul\":4955:4969   */\n      swap1\n      swap3\n      add\n      swap2\n        /* \"#utility.yul\":4841:4853   */\n      add\n        /* \"#utility.yul\":4811:5033   */\n      jump(tag_83)\n    tag_85:\n        /* \"#utility.yul\":4815:4818   */\n      pop\n        /* \"#utility.yul\":5061:5067   */\n      dup5\n        /* \"#utility.yul\":5052:5059   */\n      dup3\n        /* \"#utility.yul\":5049:5068   */\n      lt\n        /* \"#utility.yul\":5046:5247   */\n      iszero\n      tag_86\n      jumpi\n        /* \"#utility.yul\":5122:5141   */\n      dup7\n      dup5\n      add\n        /* \"#utility.yul\":5116:5142   */\n      mload\n      not(0x00)\n        /* \"#utility.yul\":5205:5206   */\n      0x03\n        /* \"#utility.yul\":5201:5215   */\n      dup8\n      swap1\n      shl\n        /* \"#utility.yul\":5217:5220   */\n      0xf8\n        /* \"#utility.yul\":5197:5221   */\n      and\n        /* \"#utility.yul\":5193:5230   */\n      shr\n        /* \"#utility.yul\":5189:5231   */\n      not\n        /* \"#utility.yul\":5174:5232   */\n      and\n        /* \"#utility.yul\":5159:5233   */\n      dup2\n      sstore\n        /* \"#utility.yul\":5046:5247   */\n    tag_86:\n      pop\n      pop\n      pop\n      pop\n        /* \"#utility.yul\":5293:5294   */\n      0x01\n        /* \"#utility.yul\":5277:5291   */\n      swap1\n      dup2\n      shl\n        /* \"#utility.yul\":5273:5295   */\n      add\n        /* \"#utility.yul\":5260:5296   */\n      swap1\n      sstore\n      pop\n        /* \"#utility.yul\":4264:5563   */\n      jump\t// out\n\n    auxdata: 0xa26469706673582212202656ccddb1a86e5151c2e84c75073e897dd4d014b5200cb9d6344c8fe5bcb95664736f6c634300081a0033\n}\n",
				"bytecode": {
					"linkReferences": {},
					"object": "6080604052348015600f57600080fd5b5061058e8061001f6000396000f3fe608060405234801561001057600080fd5b50600436106100365760003560e01c8063857cdbb81461003b578063ce09197e14610064575b600080fd5b61004e6100493660046102c3565b610079565b60405161005b91906102f3565b60405180910390f35b610077610072366004610357565b6101ab565b005b6001600160a01b0381166000908152602081905260408120805460609291906100a190610410565b9050116101035760405162461bcd60e51b815260206004820152602560248201527f4e6f207075626c6963206b657920666f756e6420666f722074686973206164646044820152643932b9b99760d91b60648201526084015b60405180910390fd5b6001600160a01b0382166000908152602081905260409020805461012690610410565b80601f016020809104026020016040519081016040528092919081815260200182805461015290610410565b801561019f5780601f106101745761010080835404028352916020019161019f565b820191906000526020600020905b81548152906001019060200180831161018257829003601f168201915b50505050509050919050565b60008151116101fc5760405162461bcd60e51b815260206004820152601b60248201527f5075626c6963206b65792063616e6e6f7420626520656d7074792e000000000060448201526064016100fa565b336000908152602081905260409020805461021690610410565b1590506102655760405162461bcd60e51b815260206004820152601a60248201527f5075626c6963206b657920616c7265616479206578697374732e00000000000060448201526064016100fa565b33600090815260208190526040902061027e8282610499565b50336001600160a01b03167fae3c25feee9ffe53f654a0494566502413eea9041dd7db07da82a2c6bb8ca34e826040516102b891906102f3565b60405180910390a250565b6000602082840312156102d557600080fd5b81356001600160a01b03811681146102ec57600080fd5b9392505050565b602081526000825180602084015260005b818110156103215760208186018101516040868401015201610304565b506000604082850101526040601f19601f83011684010191505092915050565b634e487b7160e01b600052604160045260246000fd5b60006020828403121561036957600080fd5b813567ffffffffffffffff81111561038057600080fd5b8201601f8101841361039157600080fd5b803567ffffffffffffffff8111156103ab576103ab610341565b604051601f8201601f19908116603f0116810167ffffffffffffffff811182821017156103da576103da610341565b6040528181528282016020018610156103f257600080fd5b81602084016020830137600091810160200191909152949350505050565b600181811c9082168061042457607f821691505b60208210810361044457634e487b7160e01b600052602260045260246000fd5b50919050565b601f82111561049457806000526020600020601f840160051c810160208510156104715750805b601f840160051c820191505b81811015610491576000815560010161047d565b50505b505050565b815167ffffffffffffffff8111156104b3576104b3610341565b6104c7816104c18454610410565b8461044a565b6020601f8211600181146104fb57600083156104e35750848201515b600019600385901b1c1916600184901b178455610491565b600084815260208120601f198516915b8281101561052b578785015182556020948501946001909201910161050b565b50848210156105495786840151600019600387901b60f8161c191681555b50505050600190811b0190555056fea26469706673582212202656ccddb1a86e5151c2e84c75073e897dd4d014b5200cb9d6344c8fe5bcb95664736f6c634300081a0033",
					"opcodes": "PUSH1 0x80 PUSH1 0x40 MSTORE CALLVALUE DUP1 ISZERO PUSH1 0xF JUMPI PUSH1 0x0 DUP1 REVERT JUMPDEST POP PUSH2 0x58E DUP1 PUSH2 0x1F PUSH1 0x0 CODECOPY PUSH1 0x0 RETURN INVALID PUSH1 0x80 PUSH1 0x40 MSTORE CALLVALUE DUP1 ISZERO PUSH2 0x10 JUMPI PUSH1 0x0 DUP1 REVERT JUMPDEST POP PUSH1 0x4 CALLDATASIZE LT PUSH2 0x36 JUMPI PUSH1 0x0 CALLDATALOAD PUSH1 0xE0 SHR DUP1 PUSH4 0x857CDBB8 EQ PUSH2 0x3B JUMPI DUP1 PUSH4 0xCE09197E EQ PUSH2 0x64 JUMPI JUMPDEST PUSH1 0x0 DUP1 REVERT JUMPDEST PUSH2 0x4E PUSH2 0x49 CALLDATASIZE PUSH1 0x4 PUSH2 0x2C3 JUMP JUMPDEST PUSH2 0x79 JUMP JUMPDEST PUSH1 0x40 MLOAD PUSH2 0x5B SWAP2 SWAP1 PUSH2 0x2F3 JUMP JUMPDEST PUSH1 0x40 MLOAD DUP1 SWAP2 SUB SWAP1 RETURN JUMPDEST PUSH2 0x77 PUSH2 0x72 CALLDATASIZE PUSH1 0x4 PUSH2 0x357 JUMP JUMPDEST PUSH2 0x1AB JUMP JUMPDEST STOP JUMPDEST PUSH1 0x1 PUSH1 0x1 PUSH1 0xA0 SHL SUB DUP2 AND PUSH1 0x0 SWAP1 DUP2 MSTORE PUSH1 0x20 DUP2 SWAP1 MSTORE PUSH1 0x40 DUP2 KECCAK256 DUP1 SLOAD PUSH1 0x60 SWAP3 SWAP2 SWAP1 PUSH2 0xA1 SWAP1 PUSH2 0x410 JUMP JUMPDEST SWAP1 POP GT PUSH2 0x103 JUMPI PUSH1 0x40 MLOAD PUSH3 0x461BCD PUSH1 0xE5 SHL DUP2 MSTORE PUSH1 0x20 PUSH1 0x4 DUP3 ADD MSTORE PUSH1 0x25 PUSH1 0x24 DUP3 ADD MSTORE PUSH32 0x4E6F207075626C6963206B657920666F756E6420666F72207468697320616464 PUSH1 0x44 DUP3 ADD MSTORE PUSH5 0x3932B9B997 PUSH1 0xD9 SHL PUSH1 0x64 DUP3 ADD MSTORE PUSH1 0x84 ADD JUMPDEST PUSH1 0x40 MLOAD DUP1 SWAP2 SUB SWAP1 REVERT JUMPDEST PUSH1 0x1 PUSH1 0x1 PUSH1 0xA0 SHL SUB DUP3 AND PUSH1 0x0 SWAP1 DUP2 MSTORE PUSH1 0x20 DUP2 SWAP1 MSTORE PUSH1 0x40 SWAP1 KECCAK256 DUP1 SLOAD PUSH2 0x126 SWAP1 PUSH2 0x410 JUMP JUMPDEST DUP1 PUSH1 0x1F ADD PUSH1 0x20 DUP1 SWAP2 DIV MUL PUSH1 0x20 ADD PUSH1 0x40 MLOAD SWAP1 DUP2 ADD PUSH1 0x40 MSTORE DUP1 SWAP3 SWAP2 SWAP1 DUP2 DUP2 MSTORE PUSH1 0x20 ADD DUP3 DUP1 SLOAD PUSH2 0x152 SWAP1 PUSH2 0x410 JUMP JUMPDEST DUP1 ISZERO PUSH2 0x19F JUMPI DUP1 PUSH1 0x1F LT PUSH2 0x174 JUMPI PUSH2 0x100 DUP1 DUP4 SLOAD DIV MUL DUP4 MSTORE SWAP2 PUSH1 0x20 ADD SWAP2 PUSH2 0x19F JUMP JUMPDEST DUP3 ADD SWAP2 SWAP1 PUSH1 0x0 MSTORE PUSH1 0x20 PUSH1 0x0 KECCAK256 SWAP1 JUMPDEST DUP2 SLOAD DUP2 MSTORE SWAP1 PUSH1 0x1 ADD SWAP1 PUSH1 0x20 ADD DUP1 DUP4 GT PUSH2 0x182 JUMPI DUP3 SWAP1 SUB PUSH1 0x1F AND DUP3 ADD SWAP2 JUMPDEST POP POP POP POP POP SWAP1 POP SWAP2 SWAP1 POP JUMP JUMPDEST PUSH1 0x0 DUP2 MLOAD GT PUSH2 0x1FC JUMPI PUSH1 0x40 MLOAD PUSH3 0x461BCD PUSH1 0xE5 SHL DUP2 MSTORE PUSH1 0x20 PUSH1 0x4 DUP3 ADD MSTORE PUSH1 0x1B PUSH1 0x24 DUP3 ADD MSTORE PUSH32 0x5075626C6963206B65792063616E6E6F7420626520656D7074792E0000000000 PUSH1 0x44 DUP3 ADD MSTORE PUSH1 0x64 ADD PUSH2 0xFA JUMP JUMPDEST CALLER PUSH1 0x0 SWAP1 DUP2 MSTORE PUSH1 0x20 DUP2 SWAP1 MSTORE PUSH1 0x40 SWAP1 KECCAK256 DUP1 SLOAD PUSH2 0x216 SWAP1 PUSH2 0x410 JUMP JUMPDEST ISZERO SWAP1 POP PUSH2 0x265 JUMPI PUSH1 0x40 MLOAD PUSH3 0x461BCD PUSH1 0xE5 SHL DUP2 MSTORE PUSH1 0x20 PUSH1 0x4 DUP3 ADD MSTORE PUSH1 0x1A PUSH1 0x24 DUP3 ADD MSTORE PUSH32 0x5075626C6963206B657920616C7265616479206578697374732E000000000000 PUSH1 0x44 DUP3 ADD MSTORE PUSH1 0x64 ADD PUSH2 0xFA JUMP JUMPDEST CALLER PUSH1 0x0 SWAP1 DUP2 MSTORE PUSH1 0x20 DUP2 SWAP1 MSTORE PUSH1 0x40 SWAP1 KECCAK256 PUSH2 0x27E DUP3 DUP3 PUSH2 0x499 JUMP JUMPDEST POP CALLER PUSH1 0x1 PUSH1 0x1 PUSH1 0xA0 SHL SUB AND PUSH32 0xAE3C25FEEE9FFE53F654A0494566502413EEA9041DD7DB07DA82A2C6BB8CA34E DUP3 PUSH1 0x40 MLOAD PUSH2 0x2B8 SWAP2 SWAP1 PUSH2 0x2F3 JUMP JUMPDEST PUSH1 0x40 MLOAD DUP1 SWAP2 SUB SWAP1 LOG2 POP JUMP JUMPDEST PUSH1 0x0 PUSH1 0x20 DUP3 DUP5 SUB SLT ISZERO PUSH2 0x2D5 JUMPI PUSH1 0x0 DUP1 REVERT JUMPDEST DUP2 CALLDATALOAD PUSH1 0x1 PUSH1 0x1 PUSH1 0xA0 SHL SUB DUP2 AND DUP2 EQ PUSH2 0x2EC JUMPI PUSH1 0x0 DUP1 REVERT JUMPDEST SWAP4 SWAP3 POP POP POP JUMP JUMPDEST PUSH1 0x20 DUP2 MSTORE PUSH1 0x0 DUP3 MLOAD DUP1 PUSH1 0x20 DUP5 ADD MSTORE PUSH1 0x0 JUMPDEST DUP2 DUP2 LT ISZERO PUSH2 0x321 JUMPI PUSH1 0x20 DUP2 DUP7 ADD DUP2 ADD MLOAD PUSH1 0x40 DUP7 DUP5 ADD ADD MSTORE ADD PUSH2 0x304 JUMP JUMPDEST POP PUSH1 0x0 PUSH1 0x40 DUP3 DUP6 ADD ADD MSTORE PUSH1 0x40 PUSH1 0x1F NOT PUSH1 0x1F DUP4 ADD AND DUP5 ADD ADD SWAP2 POP POP SWAP3 SWAP2 POP POP JUMP JUMPDEST PUSH4 0x4E487B71 PUSH1 0xE0 SHL PUSH1 0x0 MSTORE PUSH1 0x41 PUSH1 0x4 MSTORE PUSH1 0x24 PUSH1 0x0 REVERT JUMPDEST PUSH1 0x0 PUSH1 0x20 DUP3 DUP5 SUB SLT ISZERO PUSH2 0x369 JUMPI PUSH1 0x0 DUP1 REVERT JUMPDEST DUP2 CALLDATALOAD PUSH8 0xFFFFFFFFFFFFFFFF DUP2 GT ISZERO PUSH2 0x380 JUMPI PUSH1 0x0 DUP1 REVERT JUMPDEST DUP3 ADD PUSH1 0x1F DUP2 ADD DUP5 SGT PUSH2 0x391 JUMPI PUSH1 0x0 DUP1 REVERT JUMPDEST DUP1 CALLDATALOAD PUSH8 0xFFFFFFFFFFFFFFFF DUP2 GT ISZERO PUSH2 0x3AB JUMPI PUSH2 0x3AB PUSH2 0x341 JUMP JUMPDEST PUSH1 0x40 MLOAD PUSH1 0x1F DUP3 ADD PUSH1 0x1F NOT SWAP1 DUP2 AND PUSH1 0x3F ADD AND DUP2 ADD PUSH8 0xFFFFFFFFFFFFFFFF DUP2 GT DUP3 DUP3 LT OR ISZERO PUSH2 0x3DA JUMPI PUSH2 0x3DA PUSH2 0x341 JUMP JUMPDEST PUSH1 0x40 MSTORE DUP2 DUP2 MSTORE DUP3 DUP3 ADD PUSH1 0x20 ADD DUP7 LT ISZERO PUSH2 0x3F2 JUMPI PUSH1 0x0 DUP1 REVERT JUMPDEST DUP2 PUSH1 0x20 DUP5 ADD PUSH1 0x20 DUP4 ADD CALLDATACOPY PUSH1 0x0 SWAP2 DUP2 ADD PUSH1 0x20 ADD SWAP2 SWAP1 SWAP2 MSTORE SWAP5 SWAP4 POP POP POP POP JUMP JUMPDEST PUSH1 0x1 DUP2 DUP2 SHR SWAP1 DUP3 AND DUP1 PUSH2 0x424 JUMPI PUSH1 0x7F DUP3 AND SWAP2 POP JUMPDEST PUSH1 0x20 DUP3 LT DUP2 SUB PUSH2 0x444 JUMPI PUSH4 0x4E487B71 PUSH1 0xE0 SHL PUSH1 0x0 MSTORE PUSH1 0x22 PUSH1 0x4 MSTORE PUSH1 0x24 PUSH1 0x0 REVERT JUMPDEST POP SWAP2 SWAP1 POP JUMP JUMPDEST PUSH1 0x1F DUP3 GT ISZERO PUSH2 0x494 JUMPI DUP1 PUSH1 0x0 MSTORE PUSH1 0x20 PUSH1 0x0 KECCAK256 PUSH1 0x1F DUP5 ADD PUSH1 0x5 SHR DUP2 ADD PUSH1 0x20 DUP6 LT ISZERO PUSH2 0x471 JUMPI POP DUP1 JUMPDEST PUSH1 0x1F DUP5 ADD PUSH1 0x5 SHR DUP3 ADD SWAP2 POP JUMPDEST DUP2 DUP2 LT ISZERO PUSH2 0x491 JUMPI PUSH1 0x0 DUP2 SSTORE PUSH1 0x1 ADD PUSH2 0x47D JUMP JUMPDEST POP POP JUMPDEST POP POP POP JUMP JUMPDEST DUP2 MLOAD PUSH8 0xFFFFFFFFFFFFFFFF DUP2 GT ISZERO PUSH2 0x4B3 JUMPI PUSH2 0x4B3 PUSH2 0x341 JUMP JUMPDEST PUSH2 0x4C7 DUP2 PUSH2 0x4C1 DUP5 SLOAD PUSH2 0x410 JUMP JUMPDEST DUP5 PUSH2 0x44A JUMP JUMPDEST PUSH1 0x20 PUSH1 0x1F DUP3 GT PUSH1 0x1 DUP2 EQ PUSH2 0x4FB JUMPI PUSH1 0x0 DUP4 ISZERO PUSH2 0x4E3 JUMPI POP DUP5 DUP3 ADD MLOAD JUMPDEST PUSH1 0x0 NOT PUSH1 0x3 DUP6 SWAP1 SHL SHR NOT AND PUSH1 0x1 DUP5 SWAP1 SHL OR DUP5 SSTORE PUSH2 0x491 JUMP JUMPDEST PUSH1 0x0 DUP5 DUP2 MSTORE PUSH1 0x20 DUP2 KECCAK256 PUSH1 0x1F NOT DUP6 AND SWAP2 JUMPDEST DUP3 DUP2 LT ISZERO PUSH2 0x52B JUMPI DUP8 DUP6 ADD MLOAD DUP3 SSTORE PUSH1 0x20 SWAP5 DUP6 ADD SWAP5 PUSH1 0x1 SWAP1 SWAP3 ADD SWAP2 ADD PUSH2 0x50B JUMP JUMPDEST POP DUP5 DUP3 LT ISZERO PUSH2 0x549 JUMPI DUP7 DUP5 ADD MLOAD PUSH1 0x0 NOT PUSH1 0x3 DUP8 SWAP1 SHL PUSH1 0xF8 AND SHR NOT AND DUP2 SSTORE JUMPDEST POP POP POP POP PUSH1 0x1 SWAP1 DUP2 SHL ADD SWAP1 SSTORE POP JUMP INVALID LOG2 PUSH5 0x6970667358 0x22 SLT KECCAK256 0x26 JUMP 0xCC 0xDD 0xB1 0xA8 PUSH15 0x5151C2E84C75073E897DD4D014B520 0xC 0xB9 0xD6 CALLVALUE 0x4C DUP16 0xE5 0xBC 0xB9 JUMP PUSH5 0x736F6C6343 STOP ADDMOD BYTE STOP CALLER "
				},
				"gasEstimates": {
					"creation": {
						"codeDepositCost": "284400",
						"executionCost": "324",
						"totalCost": "284724"
					},
					"external": {
						"addPublicKey(string)": "infinite",
						"getPublicKey(address)": "infinite"
					}
				},
				"methodIdentifiers": {
					"addPublicKey(string)": "ce09197e",
					"getPublicKey(address)": "857cdbb8"
				}
			},
			"storageLayout": {
				"storage": [
					{
						"astId": 5,
						"contract": "contracts/PublicKeyManager.sol:PublicKeyManager",
						"label": "publicKeys",
						"offset": 0,
						"slot": "0",
						"type": "t_mapping(t_address,t_string_storage)"
					}
				],
				"types": {
					"t_address": {
						"encoding": "inplace",
						"label": "address",
						"numberOfBytes": "20"
					},
					"t_mapping(t_address,t_string_storage)": {
						"encoding": "mapping",
						"key": "t_address",
						"label": "mapping(address => string)",
						"numberOfBytes": "32",
						"value": "t_string_storage"
					},
					"t_string_storage": {
						"encoding": "bytes",
						"label": "string",
						"numberOfBytes": "32"
					}
				}
			},
			"userdoc": {
				"kind": "user",
				"methods": {},
				"version": 1
			}
		}
	}
}