{
	"contracts/DIDRegistry.sol": {
		"DIDRegistry": {
			"abi": [
				{
					"anonymous": false,
					"inputs": [
						{
							"indexed": true,
							"internalType": "address",
							"name": "patient",
							"type": "address"
						},
						{
							"indexed": true,
							"internalType": "address",
							"name": "doctor",
							"type": "address"
						}
					],
					"name": "AccessGranted",
					"type": "event"
				},
				{
					"anonymous": false,
					"inputs": [
						{
							"indexed": true,
							"internalType": "address",
							"name": "patient",
							"type": "address"
						},
						{
							"indexed": true,
							"internalType": "address",
							"name": "doctor",
							"type": "address"
						}
					],
					"name": "AccessRevoked",
					"type": "event"
				},
				{
					"anonymous": false,
					"inputs": [
						{
							"indexed": true,
							"internalType": "address",
							"name": "owner",
							"type": "address"
						},
						{
							"indexed": false,
							"internalType": "string",
							"name": "identifier",
							"type": "string"
						}
					],
					"name": "DIDRegistered",
					"type": "event"
				},
				{
					"anonymous": false,
					"inputs": [
						{
							"indexed": true,
							"internalType": "address",
							"name": "owner",
							"type": "address"
						},
						{
							"indexed": false,
							"internalType": "enum DIDRegistry.Roles",
							"name": "role",
							"type": "uint8"
						}
					],
					"name": "RoleAssigned",
					"type": "event"
				},
				{
					"inputs": [
						{
							"internalType": "enum DIDRegistry.Roles",
							"name": "_role",
							"type": "uint8"
						}
					],
					"name": "assignRole",
					"outputs": [],
					"stateMutability": "nonpayable",
					"type": "function"
				},
				{
					"inputs": [
						{
							"internalType": "string",
							"name": "_identifier",
							"type": "string"
						}
					],
					"name": "createDID",
					"outputs": [],
					"stateMutability": "nonpayable",
					"type": "function"
				},
				{
					"inputs": [
						{
							"internalType": "address",
							"name": "_owner",
							"type": "address"
						}
					],
					"name": "getDelegates",
					"outputs": [
						{
							"internalType": "address[]",
							"name": "",
							"type": "address[]"
						}
					],
					"stateMutability": "view",
					"type": "function"
				},
				{
					"inputs": [],
					"name": "getRole",
					"outputs": [
						{
							"internalType": "enum DIDRegistry.Roles",
							"name": "",
							"type": "uint8"
						}
					],
					"stateMutability": "view",
					"type": "function"
				},
				{
					"inputs": [],
					"name": "getRoleString",
					"outputs": [
						{
							"internalType": "string",
							"name": "",
							"type": "string"
						}
					],
					"stateMutability": "view",
					"type": "function"
				},
				{
					"inputs": [
						{
							"internalType": "address",
							"name": "_doctor",
							"type": "address"
						}
					],
					"name": "grantAccess",
					"outputs": [],
					"stateMutability": "nonpayable",
					"type": "function"
				},
				{
					"inputs": [
						{
							"internalType": "address",
							"name": "_doctor",
							"type": "address"
						}
					],
					"name": "revokeAccess",
					"outputs": [],
					"stateMutability": "nonpayable",
					"type": "function"
				},
				{
					"inputs": [
						{
							"internalType": "enum DIDRegistry.Roles",
							"name": "_newRole",
							"type": "uint8"
						}
					],
					"name": "updateRole",
					"outputs": [],
					"stateMutability": "nonpayable",
					"type": "function"
				}
			],
			"devdoc": {
				"kind": "dev",
				"methods": {},
				"version": 1
			},
			"evm": {
				"assembly": "    /* \"contracts/DIDRegistry.sol\":57:3220  contract DIDRegistry {... */\n  mstore(0x40, 0x80)\n  callvalue\n  dup1\n  iszero\n  tag_1\n  jumpi\n  0x00\n  dup1\n  revert\ntag_1:\n  pop\n  dataSize(sub_0)\n  dup1\n  dataOffset(sub_0)\n  0x00\n  codecopy\n  0x00\n  return\nstop\n\nsub_0: assembly {\n        /* \"contracts/DIDRegistry.sol\":57:3220  contract DIDRegistry {... */\n      mstore(0x40, 0x80)\n      callvalue\n      dup1\n      iszero\n      tag_1\n      jumpi\n      0x00\n      dup1\n      revert\n    tag_1:\n      pop\n      jumpi(tag_2, lt(calldatasize, 0x04))\n      shr(0xe0, calldataload(0x00))\n      dup1\n      0x61765a26\n      gt\n      tag_11\n      jumpi\n      dup1\n      0x61765a26\n      eq\n      tag_7\n      jumpi\n      dup1\n      0x85e68531\n      eq\n      tag_8\n      jumpi\n      dup1\n      0xec0b7b41\n      eq\n      tag_9\n      jumpi\n      dup1\n      0xfde08174\n      eq\n      tag_10\n      jumpi\n      0x00\n      dup1\n      revert\n    tag_11:\n      dup1\n      0x0ae5e739\n      eq\n      tag_3\n      jumpi\n      dup1\n      0x13720fef\n      eq\n      tag_4\n      jumpi\n      dup1\n      0x169db77d\n      eq\n      tag_5\n      jumpi\n      dup1\n      0x3457d3e2\n      eq\n      tag_6\n      jumpi\n    tag_2:\n      0x00\n      dup1\n      revert\n        /* \"contracts/DIDRegistry.sol\":2212:2509  function grantAccess(address _doctor) public {... */\n    tag_3:\n      tag_12\n      tag_13\n      calldatasize\n      0x04\n      tag_14\n      jump\t// in\n    tag_13:\n      tag_15\n      jump\t// in\n    tag_12:\n      stop\n        /* \"contracts/DIDRegistry.sol\":1785:2206  function getRoleString() public view returns (string memory) {... */\n    tag_4:\n      tag_16\n      tag_17\n      jump\t// in\n    tag_16:\n      mload(0x40)\n      tag_18\n      swap2\n      swap1\n      tag_19\n      jump\t// in\n    tag_18:\n      mload(0x40)\n      dup1\n      swap2\n      sub\n      swap1\n      return\n        /* \"contracts/DIDRegistry.sol\":3100:3218  function getDelegates(address _owner) public view returns (address[] memory) {... */\n    tag_5:\n      tag_20\n      tag_21\n      calldatasize\n      0x04\n      tag_14\n      jump\t// in\n    tag_21:\n      tag_22\n      jump\t// in\n    tag_20:\n      mload(0x40)\n      tag_18\n      swap2\n      swap1\n      tag_24\n      jump\t// in\n        /* \"contracts/DIDRegistry.sol\":645:1012  function createDID(string memory _identifier) public {... */\n    tag_6:\n      tag_12\n      tag_26\n      calldatasize\n      0x04\n      tag_27\n      jump\t// in\n    tag_26:\n      tag_28\n      jump\t// in\n        /* \"contracts/DIDRegistry.sol\":1228:1609  function updateRole(Roles _newRole) public {... */\n    tag_7:\n      tag_12\n      tag_30\n      calldatasize\n      0x04\n      tag_31\n      jump\t// in\n    tag_30:\n      tag_32\n      jump\t// in\n        /* \"contracts/DIDRegistry.sol\":2515:3094  function revokeAccess(address _doctor) public {... */\n    tag_8:\n      tag_12\n      tag_34\n      calldatasize\n      0x04\n      tag_14\n      jump\t// in\n    tag_34:\n      tag_35\n      jump\t// in\n        /* \"contracts/DIDRegistry.sol\":1018:1222  function assignRole(Roles _role) public {... */\n    tag_9:\n      tag_12\n      tag_37\n      calldatasize\n      0x04\n      tag_31\n      jump\t// in\n    tag_37:\n      tag_38\n      jump\t// in\n        /* \"contracts/DIDRegistry.sol\":1615:1779  function getRole() public view returns (Roles) {... */\n    tag_10:\n      tag_39\n      tag_40\n      jump\t// in\n    tag_39:\n      mload(0x40)\n      tag_18\n      swap2\n      swap1\n      tag_42\n      jump\t// in\n        /* \"contracts/DIDRegistry.sol\":2212:2509  function grantAccess(address _doctor) public {... */\n    tag_15:\n        /* \"contracts/DIDRegistry.sol\":2280:2290  msg.sender */\n      caller\n        /* \"contracts/DIDRegistry.sol\":2309:2310  0 */\n      0x00\n        /* \"contracts/DIDRegistry.sol\":2275:2291  dids[msg.sender] */\n      swap1\n      dup2\n      mstore\n      0x20\n      dup2\n      swap1\n      mstore\n      0x40\n      swap1\n      keccak256\n        /* \"contracts/DIDRegistry.sol\":2275:2297  dids[msg.sender].owner */\n      0x01\n      add\n      sload\n      sub(shl(0xa0, 0x01), 0x01)\n      and\n        /* \"contracts/DIDRegistry.sol\":2267:2329  require(dids[msg.sender].owner != address(0), \"No DID found.\") */\n      tag_44\n      jumpi\n      mload(0x40)\n      shl(0xe5, 0x461bcd)\n      dup2\n      mstore\n        /* \"#utility.yul\":3549:3551   */\n      0x20\n        /* \"contracts/DIDRegistry.sol\":2267:2329  require(dids[msg.sender].owner != address(0), \"No DID found.\") */\n      0x04\n      dup3\n      add\n        /* \"#utility.yul\":3531:3552   */\n      mstore\n        /* \"#utility.yul\":3588:3590   */\n      0x0d\n        /* \"#utility.yul\":3568:3586   */\n      0x24\n      dup3\n      add\n        /* \"#utility.yul\":3561:3591   */\n      mstore\n      shl(0x99, 0x2737902224a2103337bab73217)\n        /* \"#utility.yul\":3607:3625   */\n      0x44\n      dup3\n      add\n        /* \"#utility.yul\":3600:3643   */\n      mstore\n        /* \"#utility.yul\":3660:3678   */\n      0x64\n      add\n        /* \"contracts/DIDRegistry.sol\":2267:2329  require(dids[msg.sender].owner != address(0), \"No DID found.\") */\n    tag_45:\n      mload(0x40)\n      dup1\n      swap2\n      sub\n      swap1\n      revert\n    tag_44:\n      sub(shl(0xa0, 0x01), 0x01)\n        /* \"contracts/DIDRegistry.sol\":2347:2360  dids[_doctor] */\n      dup2\n      dup2\n      and\n        /* \"contracts/DIDRegistry.sol\":2378:2379  0 */\n      0x00\n        /* \"contracts/DIDRegistry.sol\":2347:2360  dids[_doctor] */\n      swap1\n      dup2\n      mstore\n      0x20\n      dup2\n      swap1\n      mstore\n      0x40\n      swap1\n      keccak256\n        /* \"contracts/DIDRegistry.sol\":2347:2366  dids[_doctor].owner */\n      0x01\n      add\n      sload\n      and\n        /* \"contracts/DIDRegistry.sol\":2339:2408  require(dids[_doctor].owner != address(0), \"Doctor must have a DID.\") */\n      tag_47\n      jumpi\n      mload(0x40)\n      shl(0xe5, 0x461bcd)\n      dup2\n      mstore\n        /* \"#utility.yul\":3891:3893   */\n      0x20\n        /* \"contracts/DIDRegistry.sol\":2339:2408  require(dids[_doctor].owner != address(0), \"Doctor must have a DID.\") */\n      0x04\n      dup3\n      add\n        /* \"#utility.yul\":3873:3894   */\n      mstore\n        /* \"#utility.yul\":3930:3932   */\n      0x17\n        /* \"#utility.yul\":3910:3928   */\n      0x24\n      dup3\n      add\n        /* \"#utility.yul\":3903:3933   */\n      mstore\n        /* \"#utility.yul\":3969:3994   */\n      0x446f63746f72206d75737420686176652061204449442e000000000000000000\n        /* \"#utility.yul\":3949:3967   */\n      0x44\n      dup3\n      add\n        /* \"#utility.yul\":3942:3995   */\n      mstore\n        /* \"#utility.yul\":4012:4030   */\n      0x64\n      add\n        /* \"contracts/DIDRegistry.sol\":2339:2408  require(dids[_doctor].owner != address(0), \"Doctor must have a DID.\") */\n      tag_45\n        /* \"#utility.yul\":3689:4036   */\n      jump\n        /* \"contracts/DIDRegistry.sol\":2339:2408  require(dids[_doctor].owner != address(0), \"Doctor must have a DID.\") */\n    tag_47:\n        /* \"contracts/DIDRegistry.sol\":2428:2438  msg.sender */\n      caller\n        /* \"contracts/DIDRegistry.sol\":2418:2439  delegates[msg.sender] */\n      0x00\n      dup2\n      dup2\n      mstore\n        /* \"contracts/DIDRegistry.sol\":2418:2427  delegates */\n      0x01\n        /* \"contracts/DIDRegistry.sol\":2418:2439  delegates[msg.sender] */\n      0x20\n      dup2\n      dup2\n      mstore\n      0x40\n      dup1\n      dup5\n      keccak256\n        /* \"contracts/DIDRegistry.sol\":2418:2453  delegates[msg.sender].push(_doctor) */\n      dup1\n      sload\n      swap4\n      dup5\n      add\n      dup2\n      sstore\n      dup5\n      mstore\n      swap1\n      dup4\n      keccak256\n      swap1\n      swap2\n      add\n      dup1\n      sload\n      not(sub(shl(0xa0, 0x01), 0x01))\n      and\n      sub(shl(0xa0, 0x01), 0x01)\n      dup7\n      and\n      swap1\n      dup2\n      or\n      swap1\n      swap2\n      sstore\n        /* \"contracts/DIDRegistry.sol\":2468:2502  AccessGranted(msg.sender, _doctor) */\n      swap1\n      mload\n        /* \"contracts/DIDRegistry.sol\":2418:2453  delegates[msg.sender].push(_doctor) */\n      swap1\n      swap3\n        /* \"contracts/DIDRegistry.sol\":2428:2438  msg.sender */\n      swap2\n        /* \"contracts/DIDRegistry.sol\":2468:2502  AccessGranted(msg.sender, _doctor) */\n      0x9f520b3bfc56d06f7065d10b4683b3f57ac8895d5026cd176dee95ce1454cb8d\n      swap2\n      log3\n        /* \"contracts/DIDRegistry.sol\":2212:2509  function grantAccess(address _doctor) public {... */\n      pop\n      jump\t// out\n        /* \"contracts/DIDRegistry.sol\":1785:2206  function getRoleString() public view returns (string memory) {... */\n    tag_17:\n        /* \"contracts/DIDRegistry.sol\":1927:1937  msg.sender */\n      caller\n        /* \"contracts/DIDRegistry.sol\":1956:1957  0 */\n      0x00\n        /* \"contracts/DIDRegistry.sol\":1922:1938  dids[msg.sender] */\n      swap1\n      dup2\n      mstore\n      0x20\n      dup2\n      swap1\n      mstore\n      0x40\n      swap1\n      keccak256\n        /* \"contracts/DIDRegistry.sol\":1922:1944  dids[msg.sender].owner */\n      0x01\n      add\n      sload\n        /* \"contracts/DIDRegistry.sol\":1831:1844  string memory */\n      0x60\n      swap1\n      sub(shl(0xa0, 0x01), 0x01)\n        /* \"contracts/DIDRegistry.sol\":1922:1944  dids[msg.sender].owner */\n      and\n        /* \"contracts/DIDRegistry.sol\":1914:1976  require(dids[msg.sender].owner != address(0), \"No DID found.\") */\n      tag_52\n      jumpi\n      mload(0x40)\n      shl(0xe5, 0x461bcd)\n      dup2\n      mstore\n        /* \"#utility.yul\":3549:3551   */\n      0x20\n        /* \"contracts/DIDRegistry.sol\":1914:1976  require(dids[msg.sender].owner != address(0), \"No DID found.\") */\n      0x04\n      dup3\n      add\n        /* \"#utility.yul\":3531:3552   */\n      mstore\n        /* \"#utility.yul\":3588:3590   */\n      0x0d\n        /* \"#utility.yul\":3568:3586   */\n      0x24\n      dup3\n      add\n        /* \"#utility.yul\":3561:3591   */\n      mstore\n      shl(0x99, 0x2737902224a2103337bab73217)\n        /* \"#utility.yul\":3607:3625   */\n      0x44\n      dup3\n      add\n        /* \"#utility.yul\":3600:3643   */\n      mstore\n        /* \"#utility.yul\":3660:3678   */\n      0x64\n      add\n        /* \"contracts/DIDRegistry.sol\":1914:1976  require(dids[msg.sender].owner != address(0), \"No DID found.\") */\n      tag_45\n        /* \"#utility.yul\":3347:3684   */\n      jump\n        /* \"contracts/DIDRegistry.sol\":1914:1976  require(dids[msg.sender].owner != address(0), \"No DID found.\") */\n    tag_52:\n        /* \"contracts/DIDRegistry.sol\":2015:2026  Roles.Admin */\n      0x00\n        /* \"contracts/DIDRegistry.sol\":1995:2005  msg.sender */\n      caller\n        /* \"contracts/DIDRegistry.sol\":1990:1994  dids */\n      0x00\n        /* \"contracts/DIDRegistry.sol\":1990:2006  dids[msg.sender] */\n      swap1\n      dup2\n      mstore\n      0x20\n      dup2\n      swap1\n      mstore\n      0x40\n      swap1\n      keccak256\n        /* \"contracts/DIDRegistry.sol\":1990:2011  dids[msg.sender].role */\n      0x01\n      add\n      sload\n      shl(0xa0, 0x01)\n      swap1\n      div\n      0xff\n      and\n        /* \"contracts/DIDRegistry.sol\":1990:2026  dids[msg.sender].role == Roles.Admin */\n      0x02\n      dup2\n      gt\n      iszero\n      tag_58\n      jumpi\n      tag_58\n      tag_56\n      jump\t// in\n    tag_58:\n      sub\n        /* \"contracts/DIDRegistry.sol\":1986:2042  if (dids[msg.sender].role == Roles.Admin) return \"Admin\" */\n      tag_59\n      jumpi\n      pop\n        /* \"contracts/DIDRegistry.sol\":2028:2042  return \"Admin\" */\n      0x40\n      dup1\n      mload\n      dup1\n      dup3\n      add\n      swap1\n      swap2\n      mstore\n      0x05\n      dup2\n      mstore\n      shl(0xd9, 0x20b236b4b7)\n      0x20\n      dup3\n      add\n      mstore\n      swap1\n        /* \"contracts/DIDRegistry.sol\":1785:2206  function getRoleString() public view returns (string memory) {... */\n      jump\t// out\n        /* \"contracts/DIDRegistry.sol\":1986:2042  if (dids[msg.sender].role == Roles.Admin) return \"Admin\" */\n    tag_59:\n        /* \"contracts/DIDRegistry.sol\":2081:2093  Roles.Doctor */\n      0x01\n        /* \"contracts/DIDRegistry.sol\":2061:2071  msg.sender */\n      caller\n        /* \"contracts/DIDRegistry.sol\":2056:2060  dids */\n      0x00\n        /* \"contracts/DIDRegistry.sol\":2056:2072  dids[msg.sender] */\n      swap1\n      dup2\n      mstore\n      0x20\n      dup2\n      swap1\n      mstore\n      0x40\n      swap1\n      keccak256\n        /* \"contracts/DIDRegistry.sol\":2056:2077  dids[msg.sender].role */\n      0x01\n      add\n      sload\n      shl(0xa0, 0x01)\n      swap1\n      div\n      0xff\n      and\n        /* \"contracts/DIDRegistry.sol\":2056:2093  dids[msg.sender].role == Roles.Doctor */\n      0x02\n      dup2\n      gt\n      iszero\n      tag_63\n      jumpi\n      tag_63\n      tag_56\n      jump\t// in\n    tag_63:\n      sub\n        /* \"contracts/DIDRegistry.sol\":2052:2110  if (dids[msg.sender].role == Roles.Doctor) return \"Doctor\" */\n      tag_64\n      jumpi\n      pop\n        /* \"contracts/DIDRegistry.sol\":2095:2110  return \"Doctor\" */\n      0x40\n      dup1\n      mload\n      dup1\n      dup3\n      add\n      swap1\n      swap2\n      mstore\n      0x06\n      dup2\n      mstore\n      shl(0xd1, 0x2237b1ba37b9)\n      0x20\n      dup3\n      add\n      mstore\n      swap1\n        /* \"contracts/DIDRegistry.sol\":1785:2206  function getRoleString() public view returns (string memory) {... */\n      jump\t// out\n        /* \"contracts/DIDRegistry.sol\":2052:2110  if (dids[msg.sender].role == Roles.Doctor) return \"Doctor\" */\n    tag_64:\n        /* \"contracts/DIDRegistry.sol\":2149:2162  Roles.Patient */\n      0x02\n        /* \"contracts/DIDRegistry.sol\":2129:2139  msg.sender */\n      caller\n        /* \"contracts/DIDRegistry.sol\":2124:2128  dids */\n      0x00\n        /* \"contracts/DIDRegistry.sol\":2124:2140  dids[msg.sender] */\n      swap1\n      dup2\n      mstore\n      0x20\n      dup2\n      swap1\n      mstore\n      0x40\n      swap1\n      keccak256\n        /* \"contracts/DIDRegistry.sol\":2124:2145  dids[msg.sender].role */\n      0x01\n      add\n      sload\n      shl(0xa0, 0x01)\n      swap1\n      div\n      0xff\n      and\n        /* \"contracts/DIDRegistry.sol\":2124:2162  dids[msg.sender].role == Roles.Patient */\n      0x02\n      dup2\n      gt\n      iszero\n      tag_68\n      jumpi\n      tag_68\n      tag_56\n      jump\t// in\n    tag_68:\n      sub\n        /* \"contracts/DIDRegistry.sol\":2120:2180  if (dids[msg.sender].role == Roles.Patient) return \"Patient\" */\n      tag_69\n      jumpi\n      pop\n        /* \"contracts/DIDRegistry.sol\":2164:2180  return \"Patient\" */\n      0x40\n      dup1\n      mload\n      dup1\n      dup3\n      add\n      swap1\n      swap2\n      mstore\n      0x07\n      dup2\n      mstore\n      shl(0xca, 0x14185d1a595b9d)\n      0x20\n      dup3\n      add\n      mstore\n      swap1\n        /* \"contracts/DIDRegistry.sol\":1785:2206  function getRoleString() public view returns (string memory) {... */\n      jump\t// out\n        /* \"contracts/DIDRegistry.sol\":2120:2180  if (dids[msg.sender].role == Roles.Patient) return \"Patient\" */\n    tag_69:\n      pop\n        /* \"contracts/DIDRegistry.sol\":2190:2199  return \"\" */\n      0x40\n      dup1\n      mload\n      0x20\n      dup2\n      add\n      swap1\n      swap2\n      mstore\n      0x00\n      dup2\n      mstore\n      swap1\n        /* \"contracts/DIDRegistry.sol\":1785:2206  function getRoleString() public view returns (string memory) {... */\n      jump\t// out\n        /* \"contracts/DIDRegistry.sol\":3100:3218  function getDelegates(address _owner) public view returns (address[] memory) {... */\n    tag_22:\n      sub(shl(0xa0, 0x01), 0x01)\n        /* \"contracts/DIDRegistry.sol\":3194:3211  delegates[_owner] */\n      dup2\n      and\n      0x00\n      swap1\n      dup2\n      mstore\n        /* \"contracts/DIDRegistry.sol\":3194:3203  delegates */\n      0x01\n        /* \"contracts/DIDRegistry.sol\":3194:3211  delegates[_owner] */\n      0x20\n      swap1\n      dup2\n      mstore\n      0x40\n      swap2\n      dup3\n      swap1\n      keccak256\n        /* \"contracts/DIDRegistry.sol\":3187:3211  return delegates[_owner] */\n      dup1\n      sload\n      dup4\n      mload\n      dup2\n      dup5\n      mul\n      dup2\n      add\n      dup5\n      add\n      swap1\n      swap5\n      mstore\n      dup1\n      dup5\n      mstore\n        /* \"contracts/DIDRegistry.sol\":3159:3175  address[] memory */\n      0x60\n      swap4\n        /* \"contracts/DIDRegistry.sol\":3187:3211  return delegates[_owner] */\n      swap3\n      dup4\n      add\n        /* \"contracts/DIDRegistry.sol\":3194:3211  delegates[_owner] */\n      dup3\n        /* \"contracts/DIDRegistry.sol\":3187:3211  return delegates[_owner] */\n      dup3\n      dup1\n      iszero\n      tag_71\n      jumpi\n      0x20\n      mul\n      dup3\n      add\n      swap2\n      swap1\n      0x00\n      mstore\n      keccak256(0x00, 0x20)\n      swap1\n    tag_72:\n      dup2\n      sload\n      sub(shl(0xa0, 0x01), 0x01)\n      and\n      dup2\n      mstore\n      0x01\n      swap1\n      swap2\n      add\n      swap1\n      0x20\n      add\n      dup1\n      dup4\n      gt\n      tag_72\n      jumpi\n    tag_71:\n      pop\n      pop\n      pop\n      pop\n      pop\n      swap1\n      pop\n        /* \"contracts/DIDRegistry.sol\":3100:3218  function getDelegates(address _owner) public view returns (address[] memory) {... */\n      swap2\n      swap1\n      pop\n      jump\t// out\n        /* \"contracts/DIDRegistry.sol\":645:1012  function createDID(string memory _identifier) public {... */\n    tag_28:\n        /* \"contracts/DIDRegistry.sol\":744:745  0 */\n      0x00\n        /* \"contracts/DIDRegistry.sol\":722:733  _identifier */\n      dup2\n        /* \"contracts/DIDRegistry.sol\":716:741  bytes(_identifier).length */\n      mload\n        /* \"contracts/DIDRegistry.sol\":716:745  bytes(_identifier).length > 0 */\n      gt\n        /* \"contracts/DIDRegistry.sol\":708:777  require(bytes(_identifier).length > 0, \"Identifier cannot be empty.\") */\n      tag_74\n      jumpi\n      mload(0x40)\n      shl(0xe5, 0x461bcd)\n      dup2\n      mstore\n        /* \"#utility.yul\":4243:4245   */\n      0x20\n        /* \"contracts/DIDRegistry.sol\":708:777  require(bytes(_identifier).length > 0, \"Identifier cannot be empty.\") */\n      0x04\n      dup3\n      add\n        /* \"#utility.yul\":4225:4246   */\n      mstore\n        /* \"#utility.yul\":4282:4284   */\n      0x1b\n        /* \"#utility.yul\":4262:4280   */\n      0x24\n      dup3\n      add\n        /* \"#utility.yul\":4255:4285   */\n      mstore\n        /* \"#utility.yul\":4321:4350   */\n      0x4964656e7469666965722063616e6e6f7420626520656d7074792e0000000000\n        /* \"#utility.yul\":4301:4319   */\n      0x44\n      dup3\n      add\n        /* \"#utility.yul\":4294:4351   */\n      mstore\n        /* \"#utility.yul\":4368:4386   */\n      0x64\n      add\n        /* \"contracts/DIDRegistry.sol\":708:777  require(bytes(_identifier).length > 0, \"Identifier cannot be empty.\") */\n      tag_45\n        /* \"#utility.yul\":4041:4392   */\n      jump\n        /* \"contracts/DIDRegistry.sol\":708:777  require(bytes(_identifier).length > 0, \"Identifier cannot be empty.\") */\n    tag_74:\n        /* \"contracts/DIDRegistry.sol\":800:810  msg.sender */\n      caller\n        /* \"contracts/DIDRegistry.sol\":829:830  0 */\n      0x00\n        /* \"contracts/DIDRegistry.sol\":795:811  dids[msg.sender] */\n      swap1\n      dup2\n      mstore\n      0x20\n      dup2\n      swap1\n      mstore\n      0x40\n      swap1\n      keccak256\n        /* \"contracts/DIDRegistry.sol\":795:817  dids[msg.sender].owner */\n      0x01\n      add\n      sload\n      sub(shl(0xa0, 0x01), 0x01)\n      and\n        /* \"contracts/DIDRegistry.sol\":795:831  dids[msg.sender].owner == address(0) */\n      iszero\n        /* \"contracts/DIDRegistry.sol\":787:855  require(dids[msg.sender].owner == address(0), \"DID already exists.\") */\n      tag_77\n      jumpi\n      mload(0x40)\n      shl(0xe5, 0x461bcd)\n      dup2\n      mstore\n        /* \"#utility.yul\":4599:4601   */\n      0x20\n        /* \"contracts/DIDRegistry.sol\":787:855  require(dids[msg.sender].owner == address(0), \"DID already exists.\") */\n      0x04\n      dup3\n      add\n        /* \"#utility.yul\":4581:4602   */\n      mstore\n        /* \"#utility.yul\":4638:4640   */\n      0x13\n        /* \"#utility.yul\":4618:4636   */\n      0x24\n      dup3\n      add\n        /* \"#utility.yul\":4611:4641   */\n      mstore\n        /* \"#utility.yul\":4677:4698   */\n      0x44494420616c7265616479206578697374732e00000000000000000000000000\n        /* \"#utility.yul\":4657:4675   */\n      0x44\n      dup3\n      add\n        /* \"#utility.yul\":4650:4699   */\n      mstore\n        /* \"#utility.yul\":4716:4734   */\n      0x64\n      add\n        /* \"contracts/DIDRegistry.sol\":787:855  require(dids[msg.sender].owner == address(0), \"DID already exists.\") */\n      tag_45\n        /* \"#utility.yul\":4397:4740   */\n      jump\n        /* \"contracts/DIDRegistry.sol\":787:855  require(dids[msg.sender].owner == address(0), \"DID already exists.\") */\n    tag_77:\n        /* \"contracts/DIDRegistry.sol\":884:927  DID(_identifier, msg.sender, Roles.Patient) */\n      0x40\n      dup1\n      mload\n      0x60\n      dup2\n      add\n      dup3\n      mstore\n      dup3\n      dup2\n      mstore\n        /* \"contracts/DIDRegistry.sol\":901:911  msg.sender */\n      caller\n        /* \"contracts/DIDRegistry.sol\":884:927  DID(_identifier, msg.sender, Roles.Patient) */\n      0x20\n      dup3\n      add\n      mstore\n      swap1\n      dup2\n      add\n        /* \"contracts/DIDRegistry.sol\":913:926  Roles.Patient */\n      0x02\n        /* \"contracts/DIDRegistry.sol\":884:927  DID(_identifier, msg.sender, Roles.Patient) */\n      swap1\n      mstore\n        /* \"contracts/DIDRegistry.sol\":870:880  msg.sender */\n      caller\n        /* \"contracts/DIDRegistry.sol\":865:869  dids */\n      0x00\n        /* \"contracts/DIDRegistry.sol\":865:881  dids[msg.sender] */\n      swap1\n      dup2\n      mstore\n      0x20\n      dup2\n      swap1\n      mstore\n      0x40\n      swap1\n      keccak256\n        /* \"contracts/DIDRegistry.sol\":865:927  dids[msg.sender] = DID(_identifier, msg.sender, Roles.Patient) */\n      dup2\n      mload\n        /* \"contracts/DIDRegistry.sol\":865:881  dids[msg.sender] */\n      dup2\n      swap1\n        /* \"contracts/DIDRegistry.sol\":865:927  dids[msg.sender] = DID(_identifier, msg.sender, Roles.Patient) */\n      tag_82\n      swap1\n        /* \"contracts/DIDRegistry.sol\":865:881  dids[msg.sender] */\n      dup3\n        /* \"contracts/DIDRegistry.sol\":865:927  dids[msg.sender] = DID(_identifier, msg.sender, Roles.Patient) */\n      tag_83\n      jump\t// in\n    tag_82:\n      pop\n      0x20\n      dup3\n      add\n      mload\n      0x01\n      dup3\n      add\n      dup1\n      sload\n      sub(shl(0xa0, 0x01), 0x01)\n      swap1\n      swap3\n      and\n      not(sub(shl(0xa0, 0x01), 0x01))\n      dup4\n      and\n      dup2\n      or\n      dup3\n      sstore\n      0x40\n      dup6\n      add\n      mload\n      swap3\n      not(0xffffffffffffffffffffffffffffffffffffffffff)\n      and\n      or\n      shl(0xa0, 0x01)\n      dup4\n      0x02\n      dup2\n      gt\n      iszero\n      tag_85\n      jumpi\n      tag_85\n      tag_56\n      jump\t// in\n    tag_85:\n      mul\n      or\n      swap1\n      sstore\n      pop\n      pop\n        /* \"contracts/DIDRegistry.sol\":967:1005  DIDRegistered(msg.sender, _identifier) */\n      mload(0x40)\n        /* \"contracts/DIDRegistry.sol\":981:991  msg.sender */\n      caller\n      swap2\n      pop\n        /* \"contracts/DIDRegistry.sol\":967:1005  DIDRegistered(msg.sender, _identifier) */\n      0xbfab59a7af78dfc896c3096604749fcee2db2e850297de42de5e6369f54bd3fb\n      swap1\n      tag_86\n      swap1\n        /* \"contracts/DIDRegistry.sol\":993:1004  _identifier */\n      dup5\n      swap1\n        /* \"contracts/DIDRegistry.sol\":967:1005  DIDRegistered(msg.sender, _identifier) */\n      tag_19\n      jump\t// in\n    tag_86:\n      mload(0x40)\n      dup1\n      swap2\n      sub\n      swap1\n      log2\n        /* \"contracts/DIDRegistry.sol\":645:1012  function createDID(string memory _identifier) public {... */\n      pop\n      jump\t// out\n        /* \"contracts/DIDRegistry.sol\":1228:1609  function updateRole(Roles _newRole) public {... */\n    tag_32:\n        /* \"contracts/DIDRegistry.sol\":1303:1313  msg.sender */\n      caller\n        /* \"contracts/DIDRegistry.sol\":1281:1295  Roles _oldRole */\n      0x00\n        /* \"contracts/DIDRegistry.sol\":1298:1314  dids[msg.sender] */\n      swap1\n      dup2\n      mstore\n      0x20\n      dup2\n      swap1\n      mstore\n      0x40\n      swap1\n      keccak256\n        /* \"contracts/DIDRegistry.sol\":1298:1319  dids[msg.sender].role */\n      0x01\n      add\n      sload\n      0xff\n      shl(0xa0, 0x01)\n      dup3\n      div\n      and\n      swap1\n      sub(shl(0xa0, 0x01), 0x01)\n        /* \"contracts/DIDRegistry.sol\":1338:1360  dids[msg.sender].owner */\n      and\n        /* \"contracts/DIDRegistry.sol\":1330:1392  require(dids[msg.sender].owner != address(0), \"No DID found.\") */\n      tag_88\n      jumpi\n      mload(0x40)\n      shl(0xe5, 0x461bcd)\n      dup2\n      mstore\n        /* \"#utility.yul\":3549:3551   */\n      0x20\n        /* \"contracts/DIDRegistry.sol\":1330:1392  require(dids[msg.sender].owner != address(0), \"No DID found.\") */\n      0x04\n      dup3\n      add\n        /* \"#utility.yul\":3531:3552   */\n      mstore\n        /* \"#utility.yul\":3588:3590   */\n      0x0d\n        /* \"#utility.yul\":3568:3586   */\n      0x24\n      dup3\n      add\n        /* \"#utility.yul\":3561:3591   */\n      mstore\n      shl(0x99, 0x2737902224a2103337bab73217)\n        /* \"#utility.yul\":3607:3625   */\n      0x44\n      dup3\n      add\n        /* \"#utility.yul\":3600:3643   */\n      mstore\n        /* \"#utility.yul\":3660:3678   */\n      0x64\n      add\n        /* \"contracts/DIDRegistry.sol\":1330:1392  require(dids[msg.sender].owner != address(0), \"No DID found.\") */\n      tag_45\n        /* \"#utility.yul\":3347:3684   */\n      jump\n        /* \"contracts/DIDRegistry.sol\":1330:1392  require(dids[msg.sender].owner != address(0), \"No DID found.\") */\n    tag_88:\n        /* \"contracts/DIDRegistry.sol\":1422:1430  _oldRole */\n      dup1\n        /* \"contracts/DIDRegistry.sol\":1410:1430  _newRole != _oldRole */\n      0x02\n      dup2\n      gt\n      iszero\n      tag_91\n      jumpi\n      tag_91\n      tag_56\n      jump\t// in\n    tag_91:\n        /* \"contracts/DIDRegistry.sol\":1410:1418  _newRole */\n      dup3\n        /* \"contracts/DIDRegistry.sol\":1410:1430  _newRole != _oldRole */\n      0x02\n      dup2\n      gt\n      iszero\n      tag_93\n      jumpi\n      tag_93\n      tag_56\n      jump\t// in\n    tag_93:\n      sub\n        /* \"contracts/DIDRegistry.sol\":1402:1480  require(_newRole != _oldRole, \"New Role must be different from the old Role.\") */\n      tag_94\n      jumpi\n      mload(0x40)\n      shl(0xe5, 0x461bcd)\n      dup2\n      mstore\n        /* \"#utility.yul\":7456:7458   */\n      0x20\n        /* \"contracts/DIDRegistry.sol\":1402:1480  require(_newRole != _oldRole, \"New Role must be different from the old Role.\") */\n      0x04\n      dup3\n      add\n        /* \"#utility.yul\":7438:7459   */\n      mstore\n        /* \"#utility.yul\":7495:7497   */\n      0x2d\n        /* \"#utility.yul\":7475:7493   */\n      0x24\n      dup3\n      add\n        /* \"#utility.yul\":7468:7498   */\n      mstore\n        /* \"#utility.yul\":7534:7568   */\n      0x4e657720526f6c65206d75737420626520646966666572656e742066726f6d20\n        /* \"#utility.yul\":7514:7532   */\n      0x44\n      dup3\n      add\n        /* \"#utility.yul\":7507:7569   */\n      mstore\n      shl(0x99, 0x3a34329037b632102937b63297)\n        /* \"#utility.yul\":7585:7603   */\n      0x64\n      dup3\n      add\n        /* \"#utility.yul\":7578:7621   */\n      mstore\n        /* \"#utility.yul\":7638:7657   */\n      0x84\n      add\n        /* \"contracts/DIDRegistry.sol\":1402:1480  require(_newRole != _oldRole, \"New Role must be different from the old Role.\") */\n      tag_45\n        /* \"#utility.yul\":7254:7663   */\n      jump\n        /* \"contracts/DIDRegistry.sol\":1402:1480  require(_newRole != _oldRole, \"New Role must be different from the old Role.\") */\n    tag_94:\n        /* \"contracts/DIDRegistry.sol\":1496:1506  msg.sender */\n      caller\n        /* \"contracts/DIDRegistry.sol\":1491:1495  dids */\n      0x00\n        /* \"contracts/DIDRegistry.sol\":1491:1507  dids[msg.sender] */\n      swap1\n      dup2\n      mstore\n      0x20\n      dup2\n      swap1\n      mstore\n      0x40\n      swap1\n      keccak256\n        /* \"contracts/DIDRegistry.sol\":1491:1512  dids[msg.sender].role */\n      0x01\n      add\n        /* \"contracts/DIDRegistry.sol\":1491:1523  dids[msg.sender].role = _newRole */\n      dup1\n      sload\n        /* \"contracts/DIDRegistry.sol\":1515:1523  _newRole */\n      dup4\n      swap2\n        /* \"contracts/DIDRegistry.sol\":1491:1512  dids[msg.sender].role */\n      swap1\n      not(shl(0xa0, 0xff))\n        /* \"contracts/DIDRegistry.sol\":1491:1523  dids[msg.sender].role = _newRole */\n      and\n      shl(0xa0, 0x01)\n        /* \"contracts/DIDRegistry.sol\":1515:1523  _newRole */\n      dup4\n        /* \"contracts/DIDRegistry.sol\":1491:1523  dids[msg.sender].role = _newRole */\n      0x02\n      dup2\n      gt\n      iszero\n      tag_98\n      jumpi\n      tag_98\n      tag_56\n      jump\t// in\n    tag_98:\n      mul\n      or\n      swap1\n      sstore\n      pop\n        /* \"contracts/DIDRegistry.sol\":1551:1561  msg.sender */\n      caller\n      sub(shl(0xa0, 0x01), 0x01)\n        /* \"contracts/DIDRegistry.sol\":1538:1572  RoleAssigned(msg.sender, _newRole) */\n      and\n      0x4ac36fa53f167ceb85964be512e01de2a3b8bdb9862f917da079deeeff689b38\n        /* \"contracts/DIDRegistry.sol\":1563:1571  _newRole */\n      dup4\n        /* \"contracts/DIDRegistry.sol\":1538:1572  RoleAssigned(msg.sender, _newRole) */\n      mload(0x40)\n      tag_99\n      swap2\n      swap1\n      tag_42\n      jump\t// in\n    tag_99:\n      mload(0x40)\n      dup1\n      swap2\n      sub\n      swap1\n      log2\n        /* \"contracts/DIDRegistry.sol\":1271:1609  {... */\n      pop\n        /* \"contracts/DIDRegistry.sol\":1228:1609  function updateRole(Roles _newRole) public {... */\n      pop\n      jump\t// out\n        /* \"contracts/DIDRegistry.sol\":2515:3094  function revokeAccess(address _doctor) public {... */\n    tag_35:\n        /* \"contracts/DIDRegistry.sol\":2584:2594  msg.sender */\n      caller\n        /* \"contracts/DIDRegistry.sol\":2613:2614  0 */\n      0x00\n        /* \"contracts/DIDRegistry.sol\":2579:2595  dids[msg.sender] */\n      swap1\n      dup2\n      mstore\n      0x20\n      dup2\n      swap1\n      mstore\n      0x40\n      swap1\n      keccak256\n        /* \"contracts/DIDRegistry.sol\":2579:2601  dids[msg.sender].owner */\n      0x01\n      add\n      sload\n      sub(shl(0xa0, 0x01), 0x01)\n      and\n        /* \"contracts/DIDRegistry.sol\":2571:2633  require(dids[msg.sender].owner != address(0), \"No DID found.\") */\n      tag_101\n      jumpi\n      mload(0x40)\n      shl(0xe5, 0x461bcd)\n      dup2\n      mstore\n        /* \"#utility.yul\":3549:3551   */\n      0x20\n        /* \"contracts/DIDRegistry.sol\":2571:2633  require(dids[msg.sender].owner != address(0), \"No DID found.\") */\n      0x04\n      dup3\n      add\n        /* \"#utility.yul\":3531:3552   */\n      mstore\n        /* \"#utility.yul\":3588:3590   */\n      0x0d\n        /* \"#utility.yul\":3568:3586   */\n      0x24\n      dup3\n      add\n        /* \"#utility.yul\":3561:3591   */\n      mstore\n      shl(0x99, 0x2737902224a2103337bab73217)\n        /* \"#utility.yul\":3607:3625   */\n      0x44\n      dup3\n      add\n        /* \"#utility.yul\":3600:3643   */\n      mstore\n        /* \"#utility.yul\":3660:3678   */\n      0x64\n      add\n        /* \"contracts/DIDRegistry.sol\":2571:2633  require(dids[msg.sender].owner != address(0), \"No DID found.\") */\n      tag_45\n        /* \"#utility.yul\":3347:3684   */\n      jump\n        /* \"contracts/DIDRegistry.sol\":2571:2633  require(dids[msg.sender].owner != address(0), \"No DID found.\") */\n    tag_101:\n      sub(shl(0xa0, 0x01), 0x01)\n        /* \"contracts/DIDRegistry.sol\":2651:2664  dids[_doctor] */\n      dup2\n      dup2\n      and\n        /* \"contracts/DIDRegistry.sol\":2682:2683  0 */\n      0x00\n        /* \"contracts/DIDRegistry.sol\":2651:2664  dids[_doctor] */\n      swap1\n      dup2\n      mstore\n      0x20\n      dup2\n      swap1\n      mstore\n      0x40\n      swap1\n      keccak256\n        /* \"contracts/DIDRegistry.sol\":2651:2670  dids[_doctor].owner */\n      0x01\n      add\n      sload\n      and\n        /* \"contracts/DIDRegistry.sol\":2643:2712  require(dids[_doctor].owner != address(0), \"Doctor must have a DID.\") */\n      tag_103\n      jumpi\n      mload(0x40)\n      shl(0xe5, 0x461bcd)\n      dup2\n      mstore\n        /* \"#utility.yul\":3891:3893   */\n      0x20\n        /* \"contracts/DIDRegistry.sol\":2643:2712  require(dids[_doctor].owner != address(0), \"Doctor must have a DID.\") */\n      0x04\n      dup3\n      add\n        /* \"#utility.yul\":3873:3894   */\n      mstore\n        /* \"#utility.yul\":3930:3932   */\n      0x17\n        /* \"#utility.yul\":3910:3928   */\n      0x24\n      dup3\n      add\n        /* \"#utility.yul\":3903:3933   */\n      mstore\n        /* \"#utility.yul\":3969:3994   */\n      0x446f63746f72206d75737420686176652061204449442e000000000000000000\n        /* \"#utility.yul\":3949:3967   */\n      0x44\n      dup3\n      add\n        /* \"#utility.yul\":3942:3995   */\n      mstore\n        /* \"#utility.yul\":4012:4030   */\n      0x64\n      add\n        /* \"contracts/DIDRegistry.sol\":2643:2712  require(dids[_doctor].owner != address(0), \"Doctor must have a DID.\") */\n      tag_45\n        /* \"#utility.yul\":3689:4036   */\n      jump\n        /* \"contracts/DIDRegistry.sol\":2643:2712  require(dids[_doctor].owner != address(0), \"Doctor must have a DID.\") */\n    tag_103:\n        /* \"contracts/DIDRegistry.sol\":2728:2737  uint256 i */\n      0x00\n        /* \"contracts/DIDRegistry.sol\":2723:3088  for (uint256 i = 0; i < delegates[msg.sender].length; i++) {... */\n    tag_105:\n        /* \"contracts/DIDRegistry.sol\":2757:2767  msg.sender */\n      caller\n        /* \"contracts/DIDRegistry.sol\":2747:2768  delegates[msg.sender] */\n      0x00\n      swap1\n      dup2\n      mstore\n        /* \"contracts/DIDRegistry.sol\":2747:2756  delegates */\n      0x01\n        /* \"contracts/DIDRegistry.sol\":2747:2768  delegates[msg.sender] */\n      0x20\n      mstore\n      0x40\n      swap1\n      keccak256\n        /* \"contracts/DIDRegistry.sol\":2747:2775  delegates[msg.sender].length */\n      sload\n        /* \"contracts/DIDRegistry.sol\":2743:2775  i < delegates[msg.sender].length */\n      dup2\n      lt\n        /* \"contracts/DIDRegistry.sol\":2723:3088  for (uint256 i = 0; i < delegates[msg.sender].length; i++) {... */\n      iszero\n      tag_106\n      jumpi\n        /* \"contracts/DIDRegistry.sol\":2810:2820  msg.sender */\n      caller\n        /* \"contracts/DIDRegistry.sol\":2800:2821  delegates[msg.sender] */\n      0x00\n      swap1\n      dup2\n      mstore\n        /* \"contracts/DIDRegistry.sol\":2800:2809  delegates */\n      0x01\n        /* \"contracts/DIDRegistry.sol\":2800:2821  delegates[msg.sender] */\n      0x20\n      mstore\n      0x40\n      swap1\n      keccak256\n        /* \"contracts/DIDRegistry.sol\":2800:2824  delegates[msg.sender][i] */\n      dup1\n      sload\n      sub(shl(0xa0, 0x01), 0x01)\n        /* \"contracts/DIDRegistry.sol\":2800:2835  delegates[msg.sender][i] == _doctor */\n      dup5\n      and\n      swap2\n        /* \"contracts/DIDRegistry.sol\":2800:2821  delegates[msg.sender] */\n      swap1\n        /* \"contracts/DIDRegistry.sol\":2822:2823  i */\n      dup4\n      swap1\n        /* \"contracts/DIDRegistry.sol\":2800:2824  delegates[msg.sender][i] */\n      dup2\n      lt\n      tag_109\n      jumpi\n      tag_109\n      tag_110\n      jump\t// in\n    tag_109:\n      0x00\n      swap2\n      dup3\n      mstore\n      0x20\n      swap1\n      swap2\n      keccak256\n      add\n      sload\n      sub(shl(0xa0, 0x01), 0x01)\n      and\n        /* \"contracts/DIDRegistry.sol\":2800:2835  delegates[msg.sender][i] == _doctor */\n      sub\n        /* \"contracts/DIDRegistry.sol\":2796:3078  if (delegates[msg.sender][i] == _doctor) {... */\n      tag_112\n      jumpi\n        /* \"contracts/DIDRegistry.sol\":2892:2902  msg.sender */\n      caller\n        /* \"contracts/DIDRegistry.sol\":2882:2903  delegates[msg.sender] */\n      0x00\n      swap1\n      dup2\n      mstore\n        /* \"contracts/DIDRegistry.sol\":2882:2891  delegates */\n      0x01\n        /* \"contracts/DIDRegistry.sol\":2882:2903  delegates[msg.sender] */\n      0x20\n      dup2\n      swap1\n      mstore\n      0x40\n      swap1\n      swap2\n      keccak256\n        /* \"contracts/DIDRegistry.sol\":2904:2932  delegates[msg.sender].length */\n      dup1\n      sload\n        /* \"contracts/DIDRegistry.sol\":2882:2903  delegates[msg.sender] */\n      swap1\n      swap2\n        /* \"contracts/DIDRegistry.sol\":2904:2936  delegates[msg.sender].length - 1 */\n      tag_113\n      swap2\n      tag_114\n      jump\t// in\n    tag_113:\n        /* \"contracts/DIDRegistry.sol\":2882:2937  delegates[msg.sender][delegates[msg.sender].length - 1] */\n      dup2\n      sload\n      dup2\n      lt\n      tag_116\n      jumpi\n      tag_116\n      tag_110\n      jump\t// in\n    tag_116:\n      0x00\n      swap2\n      dup3\n      mstore\n      0x20\n      dup1\n      dup4\n      keccak256\n      swap1\n      swap2\n      add\n      sload\n        /* \"contracts/DIDRegistry.sol\":2865:2875  msg.sender */\n      caller\n        /* \"contracts/DIDRegistry.sol\":2855:2876  delegates[msg.sender] */\n      dup4\n      mstore\n        /* \"contracts/DIDRegistry.sol\":2882:2937  delegates[msg.sender][delegates[msg.sender].length - 1] */\n      0x01\n        /* \"contracts/DIDRegistry.sol\":2855:2876  delegates[msg.sender] */\n      swap1\n      swap2\n      mstore\n      0x40\n      swap1\n      swap2\n      keccak256\n        /* \"contracts/DIDRegistry.sol\":2855:2879  delegates[msg.sender][i] */\n      dup1\n      sload\n      sub(shl(0xa0, 0x01), 0x01)\n        /* \"contracts/DIDRegistry.sol\":2882:2937  delegates[msg.sender][delegates[msg.sender].length - 1] */\n      swap1\n      swap3\n      and\n      swap2\n        /* \"contracts/DIDRegistry.sol\":2877:2878  i */\n      dup4\n      swap1\n        /* \"contracts/DIDRegistry.sol\":2855:2879  delegates[msg.sender][i] */\n      dup2\n      lt\n      tag_119\n      jumpi\n      tag_119\n      tag_110\n      jump\t// in\n    tag_119:\n      0x00\n      swap2\n      dup3\n      mstore\n      0x20\n      dup1\n      dup4\n      keccak256\n      swap2\n      swap1\n      swap2\n      add\n        /* \"contracts/DIDRegistry.sol\":2855:2937  delegates[msg.sender][i] = delegates[msg.sender][delegates[msg.sender].length - 1] */\n      dup1\n      sload\n      not(sub(shl(0xa0, 0x01), 0x01))\n      and\n      sub(shl(0xa0, 0x01), 0x01)\n      swap5\n      swap1\n      swap5\n      and\n      swap4\n      swap1\n      swap4\n      or\n      swap1\n      swap3\n      sstore\n        /* \"contracts/DIDRegistry.sol\":2965:2975  msg.sender */\n      caller\n        /* \"contracts/DIDRegistry.sol\":2955:2976  delegates[msg.sender] */\n      dup2\n      mstore\n      0x01\n      swap1\n      swap2\n      mstore\n      0x40\n      swap1\n      keccak256\n        /* \"contracts/DIDRegistry.sol\":2955:2982  delegates[msg.sender].pop() */\n      dup1\n      sload\n      dup1\n      tag_122\n      jumpi\n      tag_122\n      tag_123\n      jump\t// in\n    tag_122:\n      0x00\n      dup3\n      dup2\n      mstore\n      0x20\n      dup2\n      keccak256\n      dup3\n      add\n      not(0x00)\n      swap1\n      dup2\n      add\n      dup1\n      sload\n      not(sub(shl(0xa0, 0x01), 0x01))\n      and\n      swap1\n      sstore\n      swap1\n      swap2\n      add\n      swap1\n      swap2\n      sstore\n        /* \"contracts/DIDRegistry.sol\":3005:3039  AccessRevoked(msg.sender, _doctor) */\n      mload(0x40)\n      sub(shl(0xa0, 0x01), 0x01)\n      dup5\n      and\n      swap2\n        /* \"contracts/DIDRegistry.sol\":3019:3029  msg.sender */\n      caller\n      swap2\n        /* \"contracts/DIDRegistry.sol\":3005:3039  AccessRevoked(msg.sender, _doctor) */\n      0x825c8be24eb0df19500f63e86c29e7d0d951e73056b889b891d85e40938d9b6e\n      swap2\n        /* \"contracts/DIDRegistry.sol\":2955:2982  delegates[msg.sender].pop() */\n      swap1\n        /* \"contracts/DIDRegistry.sol\":3005:3039  AccessRevoked(msg.sender, _doctor) */\n      log3\n        /* \"contracts/DIDRegistry.sol\":3057:3064  return; */\n      pop\n        /* \"contracts/DIDRegistry.sol\":2515:3094  function revokeAccess(address _doctor) public {... */\n      pop\n      jump\t// out\n        /* \"contracts/DIDRegistry.sol\":2796:3078  if (delegates[msg.sender][i] == _doctor) {... */\n    tag_112:\n        /* \"contracts/DIDRegistry.sol\":2777:2780  i++ */\n      0x01\n      add\n        /* \"contracts/DIDRegistry.sol\":2723:3088  for (uint256 i = 0; i < delegates[msg.sender].length; i++) {... */\n      jump(tag_105)\n    tag_106:\n      pop\n        /* \"contracts/DIDRegistry.sol\":2515:3094  function revokeAccess(address _doctor) public {... */\n      pop\n      jump\t// out\n        /* \"contracts/DIDRegistry.sol\":1018:1222  function assignRole(Roles _role) public {... */\n    tag_38:\n        /* \"contracts/DIDRegistry.sol\":1081:1091  msg.sender */\n      caller\n        /* \"contracts/DIDRegistry.sol\":1110:1111  0 */\n      0x00\n        /* \"contracts/DIDRegistry.sol\":1076:1092  dids[msg.sender] */\n      swap1\n      dup2\n      mstore\n      0x20\n      dup2\n      swap1\n      mstore\n      0x40\n      swap1\n      keccak256\n        /* \"contracts/DIDRegistry.sol\":1076:1098  dids[msg.sender].owner */\n      0x01\n      add\n      sload\n      sub(shl(0xa0, 0x01), 0x01)\n      and\n        /* \"contracts/DIDRegistry.sol\":1068:1130  require(dids[msg.sender].owner != address(0), \"No DID found.\") */\n      tag_126\n      jumpi\n      mload(0x40)\n      shl(0xe5, 0x461bcd)\n      dup2\n      mstore\n        /* \"#utility.yul\":3549:3551   */\n      0x20\n        /* \"contracts/DIDRegistry.sol\":1068:1130  require(dids[msg.sender].owner != address(0), \"No DID found.\") */\n      0x04\n      dup3\n      add\n        /* \"#utility.yul\":3531:3552   */\n      mstore\n        /* \"#utility.yul\":3588:3590   */\n      0x0d\n        /* \"#utility.yul\":3568:3586   */\n      0x24\n      dup3\n      add\n        /* \"#utility.yul\":3561:3591   */\n      mstore\n      shl(0x99, 0x2737902224a2103337bab73217)\n        /* \"#utility.yul\":3607:3625   */\n      0x44\n      dup3\n      add\n        /* \"#utility.yul\":3600:3643   */\n      mstore\n        /* \"#utility.yul\":3660:3678   */\n      0x64\n      add\n        /* \"contracts/DIDRegistry.sol\":1068:1130  require(dids[msg.sender].owner != address(0), \"No DID found.\") */\n      tag_45\n        /* \"#utility.yul\":3347:3684   */\n      jump\n        /* \"contracts/DIDRegistry.sol\":1068:1130  require(dids[msg.sender].owner != address(0), \"No DID found.\") */\n    tag_126:\n        /* \"contracts/DIDRegistry.sol\":1145:1155  msg.sender */\n      caller\n        /* \"contracts/DIDRegistry.sol\":1140:1144  dids */\n      0x00\n        /* \"contracts/DIDRegistry.sol\":1140:1156  dids[msg.sender] */\n      swap1\n      dup2\n      mstore\n      0x20\n      dup2\n      swap1\n      mstore\n      0x40\n      swap1\n      keccak256\n        /* \"contracts/DIDRegistry.sol\":1140:1161  dids[msg.sender].role */\n      0x01\n      add\n        /* \"contracts/DIDRegistry.sol\":1140:1169  dids[msg.sender].role = _role */\n      dup1\n      sload\n        /* \"contracts/DIDRegistry.sol\":1164:1169  _role */\n      dup3\n      swap2\n        /* \"contracts/DIDRegistry.sol\":1140:1161  dids[msg.sender].role */\n      swap1\n      not(shl(0xa0, 0xff))\n        /* \"contracts/DIDRegistry.sol\":1140:1169  dids[msg.sender].role = _role */\n      and\n      shl(0xa0, 0x01)\n        /* \"contracts/DIDRegistry.sol\":1164:1169  _role */\n      dup4\n        /* \"contracts/DIDRegistry.sol\":1140:1169  dids[msg.sender].role = _role */\n      0x02\n      dup2\n      gt\n      iszero\n      tag_129\n      jumpi\n      tag_129\n      tag_56\n      jump\t// in\n    tag_129:\n      mul\n      or\n      swap1\n      sstore\n      pop\n        /* \"contracts/DIDRegistry.sol\":1197:1207  msg.sender */\n      caller\n      sub(shl(0xa0, 0x01), 0x01)\n        /* \"contracts/DIDRegistry.sol\":1184:1215  RoleAssigned(msg.sender, _role) */\n      and\n      0x4ac36fa53f167ceb85964be512e01de2a3b8bdb9862f917da079deeeff689b38\n        /* \"contracts/DIDRegistry.sol\":1209:1214  _role */\n      dup3\n        /* \"contracts/DIDRegistry.sol\":1184:1215  RoleAssigned(msg.sender, _role) */\n      mload(0x40)\n      tag_86\n      swap2\n      swap1\n      tag_42\n      jump\t// in\n        /* \"contracts/DIDRegistry.sol\":1615:1779  function getRole() public view returns (Roles) {... */\n    tag_40:\n        /* \"contracts/DIDRegistry.sol\":1685:1695  msg.sender */\n      caller\n        /* \"contracts/DIDRegistry.sol\":1655:1660  Roles */\n      0x00\n        /* \"contracts/DIDRegistry.sol\":1680:1696  dids[msg.sender] */\n      swap1\n      dup2\n      mstore\n      0x20\n      dup2\n      swap1\n      mstore\n      0x40\n      dup2\n      keccak256\n        /* \"contracts/DIDRegistry.sol\":1680:1702  dids[msg.sender].owner */\n      0x01\n      add\n      sload\n      sub(shl(0xa0, 0x01), 0x01)\n      and\n        /* \"contracts/DIDRegistry.sol\":1672:1734  require(dids[msg.sender].owner != address(0), \"No DID found.\") */\n      tag_132\n      jumpi\n      mload(0x40)\n      shl(0xe5, 0x461bcd)\n      dup2\n      mstore\n        /* \"#utility.yul\":3549:3551   */\n      0x20\n        /* \"contracts/DIDRegistry.sol\":1672:1734  require(dids[msg.sender].owner != address(0), \"No DID found.\") */\n      0x04\n      dup3\n      add\n        /* \"#utility.yul\":3531:3552   */\n      mstore\n        /* \"#utility.yul\":3588:3590   */\n      0x0d\n        /* \"#utility.yul\":3568:3586   */\n      0x24\n      dup3\n      add\n        /* \"#utility.yul\":3561:3591   */\n      mstore\n      shl(0x99, 0x2737902224a2103337bab73217)\n        /* \"#utility.yul\":3607:3625   */\n      0x44\n      dup3\n      add\n        /* \"#utility.yul\":3600:3643   */\n      mstore\n        /* \"#utility.yul\":3660:3678   */\n      0x64\n      add\n        /* \"contracts/DIDRegistry.sol\":1672:1734  require(dids[msg.sender].owner != address(0), \"No DID found.\") */\n      tag_45\n        /* \"#utility.yul\":3347:3684   */\n      jump\n        /* \"contracts/DIDRegistry.sol\":1672:1734  require(dids[msg.sender].owner != address(0), \"No DID found.\") */\n    tag_132:\n      pop\n        /* \"contracts/DIDRegistry.sol\":1756:1766  msg.sender */\n      caller\n        /* \"contracts/DIDRegistry.sol\":1751:1755  dids */\n      0x00\n        /* \"contracts/DIDRegistry.sol\":1751:1767  dids[msg.sender] */\n      swap1\n      dup2\n      mstore\n      0x20\n      dup2\n      swap1\n      mstore\n      0x40\n      swap1\n      keccak256\n        /* \"contracts/DIDRegistry.sol\":1751:1772  dids[msg.sender].role */\n      0x01\n      add\n      sload\n      shl(0xa0, 0x01)\n      swap1\n      div\n      0xff\n      and\n      swap1\n        /* \"contracts/DIDRegistry.sol\":1615:1779  function getRole() public view returns (Roles) {... */\n      jump\t// out\n        /* \"#utility.yul\":14:323   */\n    tag_14:\n        /* \"#utility.yul\":73:79   */\n      0x00\n        /* \"#utility.yul\":126:128   */\n      0x20\n        /* \"#utility.yul\":114:123   */\n      dup3\n        /* \"#utility.yul\":105:112   */\n      dup5\n        /* \"#utility.yul\":101:124   */\n      sub\n        /* \"#utility.yul\":97:129   */\n      slt\n        /* \"#utility.yul\":94:146   */\n      iszero\n      tag_141\n      jumpi\n        /* \"#utility.yul\":142:143   */\n      0x00\n        /* \"#utility.yul\":139:140   */\n      dup1\n        /* \"#utility.yul\":132:144   */\n      revert\n        /* \"#utility.yul\":94:146   */\n    tag_141:\n        /* \"#utility.yul\":181:190   */\n      dup2\n        /* \"#utility.yul\":168:191   */\n      calldataload\n      sub(shl(0xa0, 0x01), 0x01)\n        /* \"#utility.yul\":224:229   */\n      dup2\n        /* \"#utility.yul\":220:274   */\n      and\n        /* \"#utility.yul\":213:218   */\n      dup2\n        /* \"#utility.yul\":210:275   */\n      eq\n        /* \"#utility.yul\":200:293   */\n      tag_142\n      jumpi\n        /* \"#utility.yul\":289:290   */\n      0x00\n        /* \"#utility.yul\":286:287   */\n      dup1\n        /* \"#utility.yul\":279:291   */\n      revert\n        /* \"#utility.yul\":200:293   */\n    tag_142:\n        /* \"#utility.yul\":312:317   */\n      swap4\n        /* \"#utility.yul\":14:323   */\n      swap3\n      pop\n      pop\n      pop\n      jump\t// out\n        /* \"#utility.yul\":328:855   */\n    tag_19:\n        /* \"#utility.yul\":477:479   */\n      0x20\n        /* \"#utility.yul\":466:475   */\n      dup2\n        /* \"#utility.yul\":459:480   */\n      mstore\n        /* \"#utility.yul\":440:444   */\n      0x00\n        /* \"#utility.yul\":509:515   */\n      dup3\n        /* \"#utility.yul\":503:516   */\n      mload\n        /* \"#utility.yul\":552:558   */\n      dup1\n        /* \"#utility.yul\":547:549   */\n      0x20\n        /* \"#utility.yul\":536:545   */\n      dup5\n        /* \"#utility.yul\":532:550   */\n      add\n        /* \"#utility.yul\":525:559   */\n      mstore\n        /* \"#utility.yul\":577:578   */\n      0x00\n        /* \"#utility.yul\":587:727   */\n    tag_144:\n        /* \"#utility.yul\":601:607   */\n      dup2\n        /* \"#utility.yul\":598:599   */\n      dup2\n        /* \"#utility.yul\":595:608   */\n      lt\n        /* \"#utility.yul\":587:727   */\n      iszero\n      tag_146\n      jumpi\n        /* \"#utility.yul\":712:714   */\n      0x20\n        /* \"#utility.yul\":696:710   */\n      dup2\n      dup7\n      add\n        /* \"#utility.yul\":692:715   */\n      dup2\n      add\n        /* \"#utility.yul\":686:716   */\n      mload\n        /* \"#utility.yul\":681:683   */\n      0x40\n        /* \"#utility.yul\":662:679   */\n      dup7\n      dup5\n      add\n        /* \"#utility.yul\":658:684   */\n      add\n        /* \"#utility.yul\":651:717   */\n      mstore\n        /* \"#utility.yul\":616:626   */\n      add\n        /* \"#utility.yul\":587:727   */\n      jump(tag_144)\n    tag_146:\n        /* \"#utility.yul\":591:594   */\n      pop\n        /* \"#utility.yul\":776:777   */\n      0x00\n        /* \"#utility.yul\":771:773   */\n      0x40\n        /* \"#utility.yul\":762:768   */\n      dup3\n        /* \"#utility.yul\":751:760   */\n      dup6\n        /* \"#utility.yul\":747:769   */\n      add\n        /* \"#utility.yul\":743:774   */\n      add\n        /* \"#utility.yul\":736:778   */\n      mstore\n        /* \"#utility.yul\":846:848   */\n      0x40\n        /* \"#utility.yul\":839:841   */\n      0x1f\n        /* \"#utility.yul\":835:842   */\n      not\n        /* \"#utility.yul\":830:832   */\n      0x1f\n        /* \"#utility.yul\":822:828   */\n      dup4\n        /* \"#utility.yul\":818:833   */\n      add\n        /* \"#utility.yul\":814:843   */\n      and\n        /* \"#utility.yul\":803:812   */\n      dup5\n        /* \"#utility.yul\":799:844   */\n      add\n        /* \"#utility.yul\":795:849   */\n      add\n        /* \"#utility.yul\":787:849   */\n      swap2\n      pop\n      pop\n        /* \"#utility.yul\":328:855   */\n      swap3\n      swap2\n      pop\n      pop\n      jump\t// out\n        /* \"#utility.yul\":860:1520   */\n    tag_24:\n        /* \"#utility.yul\":1050:1052   */\n      0x20\n        /* \"#utility.yul\":1062:1083   */\n      dup1\n      dup3\n      mstore\n        /* \"#utility.yul\":1132:1145   */\n      dup3\n      mload\n        /* \"#utility.yul\":1035:1053   */\n      dup3\n      dup3\n      add\n        /* \"#utility.yul\":1154:1176   */\n      dup2\n      swap1\n      mstore\n        /* \"#utility.yul\":1002:1006   */\n      0x00\n      swap2\n        /* \"#utility.yul\":1233:1248   */\n      dup5\n      add\n      swap1\n        /* \"#utility.yul\":1207:1209   */\n      0x40\n        /* \"#utility.yul\":1192:1210   */\n      dup5\n      add\n      swap1\n        /* \"#utility.yul\":1002:1006   */\n      dup4\n        /* \"#utility.yul\":1276:1494   */\n    tag_148:\n        /* \"#utility.yul\":1290:1296   */\n      dup2\n        /* \"#utility.yul\":1287:1288   */\n      dup2\n        /* \"#utility.yul\":1284:1297   */\n      lt\n        /* \"#utility.yul\":1276:1494   */\n      iszero\n      tag_150\n      jumpi\n        /* \"#utility.yul\":1355:1368   */\n      dup4\n      mload\n      sub(shl(0xa0, 0x01), 0x01)\n        /* \"#utility.yul\":1351:1413   */\n      and\n        /* \"#utility.yul\":1339:1414   */\n      dup4\n      mstore\n        /* \"#utility.yul\":1443:1445   */\n      0x20\n        /* \"#utility.yul\":1469:1484   */\n      swap4\n      dup5\n      add\n      swap4\n        /* \"#utility.yul\":1434:1446   */\n      swap1\n      swap3\n      add\n      swap2\n        /* \"#utility.yul\":1312:1313   */\n      0x01\n        /* \"#utility.yul\":1305:1314   */\n      add\n        /* \"#utility.yul\":1276:1494   */\n      jump(tag_148)\n    tag_150:\n      pop\n        /* \"#utility.yul\":1511:1514   */\n      swap1\n      swap6\n        /* \"#utility.yul\":860:1520   */\n      swap5\n      pop\n      pop\n      pop\n      pop\n      pop\n      jump\t// out\n        /* \"#utility.yul\":1525:1652   */\n    tag_134:\n        /* \"#utility.yul\":1586:1596   */\n      0x4e487b71\n        /* \"#utility.yul\":1581:1584   */\n      0xe0\n        /* \"#utility.yul\":1577:1597   */\n      shl\n        /* \"#utility.yul\":1574:1575   */\n      0x00\n        /* \"#utility.yul\":1567:1598   */\n      mstore\n        /* \"#utility.yul\":1617:1621   */\n      0x41\n        /* \"#utility.yul\":1614:1615   */\n      0x04\n        /* \"#utility.yul\":1607:1622   */\n      mstore\n        /* \"#utility.yul\":1641:1645   */\n      0x24\n        /* \"#utility.yul\":1638:1639   */\n      0x00\n        /* \"#utility.yul\":1631:1646   */\n      revert\n        /* \"#utility.yul\":1657:2602   */\n    tag_27:\n        /* \"#utility.yul\":1726:1732   */\n      0x00\n        /* \"#utility.yul\":1779:1781   */\n      0x20\n        /* \"#utility.yul\":1767:1776   */\n      dup3\n        /* \"#utility.yul\":1758:1765   */\n      dup5\n        /* \"#utility.yul\":1754:1777   */\n      sub\n        /* \"#utility.yul\":1750:1782   */\n      slt\n        /* \"#utility.yul\":1747:1799   */\n      iszero\n      tag_153\n      jumpi\n        /* \"#utility.yul\":1795:1796   */\n      0x00\n        /* \"#utility.yul\":1792:1793   */\n      dup1\n        /* \"#utility.yul\":1785:1797   */\n      revert\n        /* \"#utility.yul\":1747:1799   */\n    tag_153:\n        /* \"#utility.yul\":1835:1844   */\n      dup2\n        /* \"#utility.yul\":1822:1845   */\n      calldataload\n        /* \"#utility.yul\":1868:1886   */\n      0xffffffffffffffff\n        /* \"#utility.yul\":1860:1866   */\n      dup2\n        /* \"#utility.yul\":1857:1887   */\n      gt\n        /* \"#utility.yul\":1854:1904   */\n      iszero\n      tag_154\n      jumpi\n        /* \"#utility.yul\":1900:1901   */\n      0x00\n        /* \"#utility.yul\":1897:1898   */\n      dup1\n        /* \"#utility.yul\":1890:1902   */\n      revert\n        /* \"#utility.yul\":1854:1904   */\n    tag_154:\n        /* \"#utility.yul\":1923:1945   */\n      dup3\n      add\n        /* \"#utility.yul\":1976:1980   */\n      0x1f\n        /* \"#utility.yul\":1968:1981   */\n      dup2\n      add\n        /* \"#utility.yul\":1964:1991   */\n      dup5\n      sgt\n        /* \"#utility.yul\":1954:2009   */\n      tag_155\n      jumpi\n        /* \"#utility.yul\":2005:2006   */\n      0x00\n        /* \"#utility.yul\":2002:2003   */\n      dup1\n        /* \"#utility.yul\":1995:2007   */\n      revert\n        /* \"#utility.yul\":1954:2009   */\n    tag_155:\n        /* \"#utility.yul\":2045:2047   */\n      dup1\n        /* \"#utility.yul\":2032:2048   */\n      calldataload\n        /* \"#utility.yul\":2071:2089   */\n      0xffffffffffffffff\n        /* \"#utility.yul\":2063:2069   */\n      dup2\n        /* \"#utility.yul\":2060:2090   */\n      gt\n        /* \"#utility.yul\":2057:2113   */\n      iszero\n      tag_157\n      jumpi\n        /* \"#utility.yul\":2093:2111   */\n      tag_157\n      tag_134\n      jump\t// in\n    tag_157:\n        /* \"#utility.yul\":2142:2144   */\n      0x40\n        /* \"#utility.yul\":2136:2145   */\n      mload\n        /* \"#utility.yul\":2234:2236   */\n      0x1f\n        /* \"#utility.yul\":2196:2213   */\n      dup3\n      add\n      not(0x1f)\n        /* \"#utility.yul\":2192:2223   */\n      swap1\n      dup2\n      and\n        /* \"#utility.yul\":2225:2227   */\n      0x3f\n        /* \"#utility.yul\":2188:2228   */\n      add\n        /* \"#utility.yul\":2184:2238   */\n      and\n        /* \"#utility.yul\":2172:2239   */\n      dup2\n      add\n        /* \"#utility.yul\":2269:2287   */\n      0xffffffffffffffff\n        /* \"#utility.yul\":2254:2288   */\n      dup2\n      gt\n        /* \"#utility.yul\":2290:2312   */\n      dup3\n      dup3\n      lt\n        /* \"#utility.yul\":2251:2313   */\n      or\n        /* \"#utility.yul\":2248:2336   */\n      iszero\n      tag_159\n      jumpi\n        /* \"#utility.yul\":2316:2334   */\n      tag_159\n      tag_134\n      jump\t// in\n    tag_159:\n        /* \"#utility.yul\":2352:2354   */\n      0x40\n        /* \"#utility.yul\":2345:2367   */\n      mstore\n        /* \"#utility.yul\":2376:2398   */\n      dup2\n      dup2\n      mstore\n        /* \"#utility.yul\":2417:2432   */\n      dup3\n      dup3\n      add\n        /* \"#utility.yul\":2434:2436   */\n      0x20\n        /* \"#utility.yul\":2413:2437   */\n      add\n        /* \"#utility.yul\":2410:2447   */\n      dup7\n      lt\n        /* \"#utility.yul\":2407:2464   */\n      iszero\n      tag_160\n      jumpi\n        /* \"#utility.yul\":2460:2461   */\n      0x00\n        /* \"#utility.yul\":2457:2458   */\n      dup1\n        /* \"#utility.yul\":2450:2462   */\n      revert\n        /* \"#utility.yul\":2407:2464   */\n    tag_160:\n        /* \"#utility.yul\":2516:2522   */\n      dup2\n        /* \"#utility.yul\":2511:2513   */\n      0x20\n        /* \"#utility.yul\":2507:2509   */\n      dup5\n        /* \"#utility.yul\":2503:2514   */\n      add\n        /* \"#utility.yul\":2498:2500   */\n      0x20\n        /* \"#utility.yul\":2490:2496   */\n      dup4\n        /* \"#utility.yul\":2486:2501   */\n      add\n        /* \"#utility.yul\":2473:2523   */\n      calldatacopy\n        /* \"#utility.yul\":2569:2570   */\n      0x00\n        /* \"#utility.yul\":2543:2562   */\n      swap2\n      dup2\n      add\n        /* \"#utility.yul\":2564:2566   */\n      0x20\n        /* \"#utility.yul\":2539:2567   */\n      add\n        /* \"#utility.yul\":2532:2571   */\n      swap2\n      swap1\n      swap2\n      mstore\n        /* \"#utility.yul\":2547:2553   */\n      swap5\n        /* \"#utility.yul\":1657:2602   */\n      swap4\n      pop\n      pop\n      pop\n      pop\n      jump\t// out\n        /* \"#utility.yul\":2607:2870   */\n    tag_31:\n        /* \"#utility.yul\":2673:2679   */\n      0x00\n        /* \"#utility.yul\":2726:2728   */\n      0x20\n        /* \"#utility.yul\":2714:2723   */\n      dup3\n        /* \"#utility.yul\":2705:2712   */\n      dup5\n        /* \"#utility.yul\":2701:2724   */\n      sub\n        /* \"#utility.yul\":2697:2729   */\n      slt\n        /* \"#utility.yul\":2694:2746   */\n      iszero\n      tag_162\n      jumpi\n        /* \"#utility.yul\":2742:2743   */\n      0x00\n        /* \"#utility.yul\":2739:2740   */\n      dup1\n        /* \"#utility.yul\":2732:2744   */\n      revert\n        /* \"#utility.yul\":2694:2746   */\n    tag_162:\n        /* \"#utility.yul\":2781:2790   */\n      dup2\n        /* \"#utility.yul\":2768:2791   */\n      calldataload\n        /* \"#utility.yul\":2820:2821   */\n      0x03\n        /* \"#utility.yul\":2813:2818   */\n      dup2\n        /* \"#utility.yul\":2810:2822   */\n      lt\n        /* \"#utility.yul\":2800:2840   */\n      tag_142\n      jumpi\n        /* \"#utility.yul\":2836:2837   */\n      0x00\n        /* \"#utility.yul\":2833:2834   */\n      dup1\n        /* \"#utility.yul\":2826:2838   */\n      revert\n        /* \"#utility.yul\":2875:3002   */\n    tag_56:\n        /* \"#utility.yul\":2936:2946   */\n      0x4e487b71\n        /* \"#utility.yul\":2931:2934   */\n      0xe0\n        /* \"#utility.yul\":2927:2947   */\n      shl\n        /* \"#utility.yul\":2924:2925   */\n      0x00\n        /* \"#utility.yul\":2917:2948   */\n      mstore\n        /* \"#utility.yul\":2967:2971   */\n      0x21\n        /* \"#utility.yul\":2964:2965   */\n      0x04\n        /* \"#utility.yul\":2957:2972   */\n      mstore\n        /* \"#utility.yul\":2991:2995   */\n      0x24\n        /* \"#utility.yul\":2988:2989   */\n      0x00\n        /* \"#utility.yul\":2981:2996   */\n      revert\n        /* \"#utility.yul\":3007:3342   */\n    tag_42:\n        /* \"#utility.yul\":3146:3148   */\n      0x20\n        /* \"#utility.yul\":3131:3149   */\n      dup2\n      add\n        /* \"#utility.yul\":3179:3180   */\n      0x03\n        /* \"#utility.yul\":3168:3181   */\n      dup4\n      lt\n        /* \"#utility.yul\":3158:3302   */\n      tag_166\n      jumpi\n        /* \"#utility.yul\":3224:3234   */\n      0x4e487b71\n        /* \"#utility.yul\":3219:3222   */\n      0xe0\n        /* \"#utility.yul\":3215:3235   */\n      shl\n        /* \"#utility.yul\":3212:3213   */\n      0x00\n        /* \"#utility.yul\":3205:3236   */\n      mstore\n        /* \"#utility.yul\":3259:3263   */\n      0x21\n        /* \"#utility.yul\":3256:3257   */\n      0x04\n        /* \"#utility.yul\":3249:3264   */\n      mstore\n        /* \"#utility.yul\":3287:3291   */\n      0x24\n        /* \"#utility.yul\":3284:3285   */\n      0x00\n        /* \"#utility.yul\":3277:3292   */\n      revert\n        /* \"#utility.yul\":3158:3302   */\n    tag_166:\n        /* \"#utility.yul\":3311:3336   */\n      swap2\n      swap1\n      mstore\n        /* \"#utility.yul\":3007:3342   */\n      swap1\n      jump\t// out\n        /* \"#utility.yul\":4745:5125   */\n    tag_135:\n        /* \"#utility.yul\":4824:4825   */\n      0x01\n        /* \"#utility.yul\":4820:4832   */\n      dup2\n      dup2\n      shr\n      swap1\n        /* \"#utility.yul\":4867:4879   */\n      dup3\n      and\n      dup1\n        /* \"#utility.yul\":4888:4949   */\n      tag_172\n      jumpi\n        /* \"#utility.yul\":4942:4946   */\n      0x7f\n        /* \"#utility.yul\":4934:4940   */\n      dup3\n        /* \"#utility.yul\":4930:4947   */\n      and\n        /* \"#utility.yul\":4920:4947   */\n      swap2\n      pop\n        /* \"#utility.yul\":4888:4949   */\n    tag_172:\n        /* \"#utility.yul\":4995:4997   */\n      0x20\n        /* \"#utility.yul\":4987:4993   */\n      dup3\n        /* \"#utility.yul\":4984:4998   */\n      lt\n        /* \"#utility.yul\":4964:4982   */\n      dup2\n        /* \"#utility.yul\":4961:4999   */\n      sub\n        /* \"#utility.yul\":4958:5119   */\n      tag_173\n      jumpi\n        /* \"#utility.yul\":5041:5051   */\n      0x4e487b71\n        /* \"#utility.yul\":5036:5039   */\n      0xe0\n        /* \"#utility.yul\":5032:5052   */\n      shl\n        /* \"#utility.yul\":5029:5030   */\n      0x00\n        /* \"#utility.yul\":5022:5053   */\n      mstore\n        /* \"#utility.yul\":5076:5080   */\n      0x22\n        /* \"#utility.yul\":5073:5074   */\n      0x04\n        /* \"#utility.yul\":5066:5081   */\n      mstore\n        /* \"#utility.yul\":5104:5108   */\n      0x24\n        /* \"#utility.yul\":5101:5102   */\n      0x00\n        /* \"#utility.yul\":5094:5109   */\n      revert\n        /* \"#utility.yul\":4958:5119   */\n    tag_173:\n      pop\n        /* \"#utility.yul\":4745:5125   */\n      swap2\n      swap1\n      pop\n      jump\t// out\n        /* \"#utility.yul\":5256:5774   */\n    tag_137:\n        /* \"#utility.yul\":5358:5360   */\n      0x1f\n        /* \"#utility.yul\":5353:5356   */\n      dup3\n        /* \"#utility.yul\":5350:5361   */\n      gt\n        /* \"#utility.yul\":5347:5768   */\n      iszero\n      tag_176\n      jumpi\n        /* \"#utility.yul\":5394:5399   */\n      dup1\n        /* \"#utility.yul\":5391:5392   */\n      0x00\n        /* \"#utility.yul\":5384:5400   */\n      mstore\n        /* \"#utility.yul\":5438:5442   */\n      0x20\n        /* \"#utility.yul\":5435:5436   */\n      0x00\n        /* \"#utility.yul\":5425:5443   */\n      keccak256\n        /* \"#utility.yul\":5508:5510   */\n      0x1f\n        /* \"#utility.yul\":5496:5506   */\n      dup5\n        /* \"#utility.yul\":5492:5511   */\n      add\n        /* \"#utility.yul\":5489:5490   */\n      0x05\n        /* \"#utility.yul\":5485:5512   */\n      shr\n        /* \"#utility.yul\":5479:5483   */\n      dup2\n        /* \"#utility.yul\":5475:5513   */\n      add\n        /* \"#utility.yul\":5544:5548   */\n      0x20\n        /* \"#utility.yul\":5532:5542   */\n      dup6\n        /* \"#utility.yul\":5529:5549   */\n      lt\n        /* \"#utility.yul\":5526:5573   */\n      iszero\n      tag_177\n      jumpi\n      pop\n        /* \"#utility.yul\":5567:5571   */\n      dup1\n        /* \"#utility.yul\":5526:5573   */\n    tag_177:\n        /* \"#utility.yul\":5622:5624   */\n      0x1f\n        /* \"#utility.yul\":5617:5620   */\n      dup5\n        /* \"#utility.yul\":5613:5625   */\n      add\n        /* \"#utility.yul\":5610:5611   */\n      0x05\n        /* \"#utility.yul\":5606:5626   */\n      shr\n        /* \"#utility.yul\":5600:5604   */\n      dup3\n        /* \"#utility.yul\":5596:5627   */\n      add\n        /* \"#utility.yul\":5586:5627   */\n      swap2\n      pop\n        /* \"#utility.yul\":5677:5758   */\n    tag_178:\n        /* \"#utility.yul\":5695:5697   */\n      dup2\n        /* \"#utility.yul\":5688:5693   */\n      dup2\n        /* \"#utility.yul\":5685:5698   */\n      lt\n        /* \"#utility.yul\":5677:5758   */\n      iszero\n      tag_180\n      jumpi\n        /* \"#utility.yul\":5754:5755   */\n      0x00\n        /* \"#utility.yul\":5740:5756   */\n      dup2\n      sstore\n        /* \"#utility.yul\":5721:5722   */\n      0x01\n        /* \"#utility.yul\":5710:5723   */\n      add\n        /* \"#utility.yul\":5677:5758   */\n      jump(tag_178)\n    tag_180:\n        /* \"#utility.yul\":5681:5684   */\n      pop\n      pop\n        /* \"#utility.yul\":5347:5768   */\n    tag_176:\n        /* \"#utility.yul\":5256:5774   */\n      pop\n      pop\n      pop\n      jump\t// out\n        /* \"#utility.yul\":5950:7249   */\n    tag_83:\n        /* \"#utility.yul\":6076:6079   */\n      dup2\n        /* \"#utility.yul\":6070:6080   */\n      mload\n        /* \"#utility.yul\":6103:6121   */\n      0xffffffffffffffff\n        /* \"#utility.yul\":6095:6101   */\n      dup2\n        /* \"#utility.yul\":6092:6122   */\n      gt\n        /* \"#utility.yul\":6089:6145   */\n      iszero\n      tag_184\n      jumpi\n        /* \"#utility.yul\":6125:6143   */\n      tag_184\n      tag_134\n      jump\t// in\n    tag_184:\n        /* \"#utility.yul\":6154:6251   */\n      tag_185\n        /* \"#utility.yul\":6244:6250   */\n      dup2\n        /* \"#utility.yul\":6204:6242   */\n      tag_186\n        /* \"#utility.yul\":6236:6240   */\n      dup5\n        /* \"#utility.yul\":6230:6241   */\n      sload\n        /* \"#utility.yul\":6204:6242   */\n      tag_135\n      jump\t// in\n    tag_186:\n        /* \"#utility.yul\":6198:6202   */\n      dup5\n        /* \"#utility.yul\":6154:6251   */\n      tag_137\n      jump\t// in\n    tag_185:\n        /* \"#utility.yul\":6300:6304   */\n      0x20\n        /* \"#utility.yul\":6331:6333   */\n      0x1f\n        /* \"#utility.yul\":6320:6334   */\n      dup3\n      gt\n        /* \"#utility.yul\":6348:6349   */\n      0x01\n        /* \"#utility.yul\":6343:6992   */\n      dup2\n      eq\n      tag_188\n      jumpi\n        /* \"#utility.yul\":7036:7037   */\n      0x00\n        /* \"#utility.yul\":7053:7059   */\n      dup4\n        /* \"#utility.yul\":7050:7139   */\n      iszero\n      tag_189\n      jumpi\n      pop\n        /* \"#utility.yul\":7105:7124   */\n      dup5\n      dup3\n      add\n        /* \"#utility.yul\":7099:7125   */\n      mload\n        /* \"#utility.yul\":7050:7139   */\n    tag_189:\n      not(0x00)\n        /* \"#utility.yul\":5907:5908   */\n      0x03\n        /* \"#utility.yul\":5903:5914   */\n      dup6\n      swap1\n      shl\n        /* \"#utility.yul\":5899:5923   */\n      shr\n        /* \"#utility.yul\":5895:5924   */\n      not\n        /* \"#utility.yul\":5885:5925   */\n      and\n        /* \"#utility.yul\":5931:5932   */\n      0x01\n        /* \"#utility.yul\":5927:5938   */\n      dup5\n      swap1\n      shl\n        /* \"#utility.yul\":5882:5939   */\n      or\n        /* \"#utility.yul\":7152:7233   */\n      dup5\n      sstore\n        /* \"#utility.yul\":6313:7243   */\n      jump(tag_180)\n        /* \"#utility.yul\":6343:6992   */\n    tag_188:\n        /* \"#utility.yul\":5203:5204   */\n      0x00\n        /* \"#utility.yul\":5196:5210   */\n      dup5\n      dup2\n      mstore\n        /* \"#utility.yul\":5240:5244   */\n      0x20\n        /* \"#utility.yul\":5227:5245   */\n      dup2\n      keccak256\n      not(0x1f)\n        /* \"#utility.yul\":6379:6399   */\n      dup6\n      and\n      swap2\n        /* \"#utility.yul\":6497:6719   */\n    tag_192:\n        /* \"#utility.yul\":6511:6518   */\n      dup3\n        /* \"#utility.yul\":6508:6509   */\n      dup2\n        /* \"#utility.yul\":6505:6519   */\n      lt\n        /* \"#utility.yul\":6497:6719   */\n      iszero\n      tag_194\n      jumpi\n        /* \"#utility.yul\":6593:6612   */\n      dup8\n      dup6\n      add\n        /* \"#utility.yul\":6587:6613   */\n      mload\n        /* \"#utility.yul\":6572:6614   */\n      dup3\n      sstore\n        /* \"#utility.yul\":6700:6704   */\n      0x20\n        /* \"#utility.yul\":6685:6705   */\n      swap5\n      dup6\n      add\n      swap5\n        /* \"#utility.yul\":6653:6654   */\n      0x01\n        /* \"#utility.yul\":6641:6655   */\n      swap1\n      swap3\n      add\n      swap2\n        /* \"#utility.yul\":6527:6539   */\n      add\n        /* \"#utility.yul\":6497:6719   */\n      jump(tag_192)\n    tag_194:\n        /* \"#utility.yul\":6501:6504   */\n      pop\n        /* \"#utility.yul\":6747:6753   */\n      dup5\n        /* \"#utility.yul\":6738:6745   */\n      dup3\n        /* \"#utility.yul\":6735:6754   */\n      lt\n        /* \"#utility.yul\":6732:6933   */\n      iszero\n      tag_195\n      jumpi\n        /* \"#utility.yul\":6808:6827   */\n      dup7\n      dup5\n      add\n        /* \"#utility.yul\":6802:6828   */\n      mload\n      not(0x00)\n        /* \"#utility.yul\":6891:6892   */\n      0x03\n        /* \"#utility.yul\":6887:6901   */\n      dup8\n      swap1\n      shl\n        /* \"#utility.yul\":6903:6906   */\n      0xf8\n        /* \"#utility.yul\":6883:6907   */\n      and\n        /* \"#utility.yul\":6879:6916   */\n      shr\n        /* \"#utility.yul\":6875:6917   */\n      not\n        /* \"#utility.yul\":6860:6918   */\n      and\n        /* \"#utility.yul\":6845:6919   */\n      dup2\n      sstore\n        /* \"#utility.yul\":6732:6933   */\n    tag_195:\n      pop\n      pop\n      pop\n      pop\n        /* \"#utility.yul\":6979:6980   */\n      0x01\n        /* \"#utility.yul\":6963:6977   */\n      swap1\n      dup2\n      shl\n        /* \"#utility.yul\":6959:6981   */\n      add\n        /* \"#utility.yul\":6946:6982   */\n      swap1\n      sstore\n      pop\n        /* \"#utility.yul\":5950:7249   */\n      jump\t// out\n        /* \"#utility.yul\":7668:7795   */\n    tag_110:\n        /* \"#utility.yul\":7729:7739   */\n      0x4e487b71\n        /* \"#utility.yul\":7724:7727   */\n      0xe0\n        /* \"#utility.yul\":7720:7740   */\n      shl\n        /* \"#utility.yul\":7717:7718   */\n      0x00\n        /* \"#utility.yul\":7710:7741   */\n      mstore\n        /* \"#utility.yul\":7760:7764   */\n      0x32\n        /* \"#utility.yul\":7757:7758   */\n      0x04\n        /* \"#utility.yul\":7750:7765   */\n      mstore\n        /* \"#utility.yul\":7784:7788   */\n      0x24\n        /* \"#utility.yul\":7781:7782   */\n      0x00\n        /* \"#utility.yul\":7774:7789   */\n      revert\n        /* \"#utility.yul\":7800:8025   */\n    tag_114:\n        /* \"#utility.yul\":7867:7876   */\n      dup2\n      dup2\n      sub\n        /* \"#utility.yul\":7888:7899   */\n      dup2\n      dup2\n      gt\n        /* \"#utility.yul\":7885:8019   */\n      iszero\n      tag_199\n      jumpi\n        /* \"#utility.yul\":7941:7951   */\n      0x4e487b71\n        /* \"#utility.yul\":7936:7939   */\n      0xe0\n        /* \"#utility.yul\":7932:7952   */\n      shl\n        /* \"#utility.yul\":7929:7930   */\n      0x00\n        /* \"#utility.yul\":7922:7953   */\n      mstore\n        /* \"#utility.yul\":7976:7980   */\n      0x11\n        /* \"#utility.yul\":7973:7974   */\n      0x04\n        /* \"#utility.yul\":7966:7981   */\n      mstore\n        /* \"#utility.yul\":8004:8008   */\n      0x24\n        /* \"#utility.yul\":8001:8002   */\n      0x00\n        /* \"#utility.yul\":7994:8009   */\n      revert\n        /* \"#utility.yul\":7885:8019   */\n    tag_199:\n        /* \"#utility.yul\":7800:8025   */\n      swap3\n      swap2\n      pop\n      pop\n      jump\t// out\n        /* \"#utility.yul\":8030:8157   */\n    tag_123:\n        /* \"#utility.yul\":8091:8101   */\n      0x4e487b71\n        /* \"#utility.yul\":8086:8089   */\n      0xe0\n        /* \"#utility.yul\":8082:8102   */\n      shl\n        /* \"#utility.yul\":8079:8080   */\n      0x00\n        /* \"#utility.yul\":8072:8103   */\n      mstore\n        /* \"#utility.yul\":8122:8126   */\n      0x31\n        /* \"#utility.yul\":8119:8120   */\n      0x04\n        /* \"#utility.yul\":8112:8127   */\n      mstore\n        /* \"#utility.yul\":8146:8150   */\n      0x24\n        /* \"#utility.yul\":8143:8144   */\n      0x00\n        /* \"#utility.yul\":8136:8151   */\n      revert\n\n    auxdata: 0xa2646970667358221220a69aad8de2715d53d29ec6eb7ec4a24e93ff9ad84bd8bdc91765a6c74e1e6d8164736f6c634300081a0033\n}\n",
				"bytecode": {
					"linkReferences": {},
					"object": "6080604052348015600f57600080fd5b50610e998061001f6000396000f3fe608060405234801561001057600080fd5b50600436106100885760003560e01c806361765a261161005b57806361765a26146100f357806385e6853114610106578063ec0b7b4114610119578063fde081741461012c57600080fd5b80630ae5e7391461008d57806313720fef146100a2578063169db77d146100c05780633457d3e2146100e0575b600080fd5b6100a061009b366004610ad0565b610141565b005b6100aa610270565b6040516100b79190610b00565b60405180910390f35b6100d36100ce366004610ad0565b6103e0565b6040516100b79190610b4e565b6100a06100ee366004610bb0565b610456565b6100a0610101366004610c69565b6105e7565b6100a0610114366004610ad0565b610750565b6100a0610127366004610c69565b61098c565b610134610a57565b6040516100b79190610ca0565b336000908152602081905260409020600101546001600160a01b031661019e5760405162461bcd60e51b815260206004820152600d60248201526c2737902224a2103337bab7321760991b60448201526064015b60405180910390fd5b6001600160a01b03818116600090815260208190526040902060010154166102085760405162461bcd60e51b815260206004820152601760248201527f446f63746f72206d75737420686176652061204449442e0000000000000000006044820152606401610195565b33600081815260016020818152604080842080549384018155845290832090910180546001600160a01b0319166001600160a01b03861690811790915590519092917f9f520b3bfc56d06f7065d10b4683b3f57ac8895d5026cd176dee95ce1454cb8d91a350565b336000908152602081905260409020600101546060906001600160a01b03166102cb5760405162461bcd60e51b815260206004820152600d60248201526c2737902224a2103337bab7321760991b6044820152606401610195565b600033600090815260208190526040902060010154600160a01b900460ff1660028111156102fb576102fb610c8a565b03610320575060408051808201909152600581526420b236b4b760d91b602082015290565b600133600090815260208190526040902060010154600160a01b900460ff16600281111561035057610350610c8a565b0361037657506040805180820190915260068152652237b1ba37b960d11b602082015290565b600233600090815260208190526040902060010154600160a01b900460ff1660028111156103a6576103a6610c8a565b036103cd575060408051808201909152600781526614185d1a595b9d60ca1b602082015290565b5060408051602081019091526000815290565b6001600160a01b03811660009081526001602090815260409182902080548351818402810184019094528084526060939283018282801561044a57602002820191906000526020600020905b81546001600160a01b0316815260019091019060200180831161042c575b50505050509050919050565b60008151116104a75760405162461bcd60e51b815260206004820152601b60248201527f4964656e7469666965722063616e6e6f7420626520656d7074792e00000000006044820152606401610195565b336000908152602081905260409020600101546001600160a01b0316156105105760405162461bcd60e51b815260206004820152601360248201527f44494420616c7265616479206578697374732e000000000000000000000000006044820152606401610195565b6040805160608101825282815233602082015290810160029052336000908152602081905260409020815181906105479082610d51565b5060208201516001820180546001600160a01b039092166001600160a01b031983168117825560408501519274ffffffffffffffffffffffffffffffffffffffffff191617600160a01b8360028111156105a3576105a3610c8a565b0217905550506040513391507fbfab59a7af78dfc896c3096604749fcee2db2e850297de42de5e6369f54bd3fb906105dc908490610b00565b60405180910390a250565b3360009081526020819052604090206001015460ff600160a01b820416906001600160a01b031661064a5760405162461bcd60e51b815260206004820152600d60248201526c2737902224a2103337bab7321760991b6044820152606401610195565b80600281111561065c5761065c610c8a565b82600281111561066e5761066e610c8a565b036106d15760405162461bcd60e51b815260206004820152602d60248201527f4e657720526f6c65206d75737420626520646966666572656e742066726f6d2060448201526c3a34329037b632102937b6329760991b6064820152608401610195565b336000908152602081905260409020600101805483919060ff60a01b1916600160a01b83600281111561070657610706610c8a565b0217905550336001600160a01b03167f4ac36fa53f167ceb85964be512e01de2a3b8bdb9862f917da079deeeff689b38836040516107449190610ca0565b60405180910390a25050565b336000908152602081905260409020600101546001600160a01b03166107a85760405162461bcd60e51b815260206004820152600d60248201526c2737902224a2103337bab7321760991b6044820152606401610195565b6001600160a01b03818116600090815260208190526040902060010154166108125760405162461bcd60e51b815260206004820152601760248201527f446f63746f72206d75737420686176652061204449442e0000000000000000006044820152606401610195565b60005b336000908152600160205260409020548110156109885733600090815260016020526040902080546001600160a01b03841691908390811061085957610859610e10565b6000918252602090912001546001600160a01b031603610980573360009081526001602081905260409091208054909161089291610e26565b815481106108a2576108a2610e10565b60009182526020808320909101543383526001909152604090912080546001600160a01b0390921691839081106108db576108db610e10565b600091825260208083209190910180546001600160a01b0319166001600160a01b03949094169390931790925533815260019091526040902080548061092357610923610e4d565b600082815260208120820160001990810180546001600160a01b03191690559091019091556040516001600160a01b0384169133917f825c8be24eb0df19500f63e86c29e7d0d951e73056b889b891d85e40938d9b6e9190a35050565b600101610815565b5050565b336000908152602081905260409020600101546001600160a01b03166109e45760405162461bcd60e51b815260206004820152600d60248201526c2737902224a2103337bab7321760991b6044820152606401610195565b336000908152602081905260409020600101805482919060ff60a01b1916600160a01b836002811115610a1957610a19610c8a565b0217905550336001600160a01b03167f4ac36fa53f167ceb85964be512e01de2a3b8bdb9862f917da079deeeff689b38826040516105dc9190610ca0565b336000908152602081905260408120600101546001600160a01b0316610aaf5760405162461bcd60e51b815260206004820152600d60248201526c2737902224a2103337bab7321760991b6044820152606401610195565b5033600090815260208190526040902060010154600160a01b900460ff1690565b600060208284031215610ae257600080fd5b81356001600160a01b0381168114610af957600080fd5b9392505050565b602081526000825180602084015260005b81811015610b2e5760208186018101516040868401015201610b11565b506000604082850101526040601f19601f83011684010191505092915050565b602080825282518282018190526000918401906040840190835b81811015610b8f5783516001600160a01b0316835260209384019390920191600101610b68565b509095945050505050565b634e487b7160e01b600052604160045260246000fd5b600060208284031215610bc257600080fd5b813567ffffffffffffffff811115610bd957600080fd5b8201601f81018413610bea57600080fd5b803567ffffffffffffffff811115610c0457610c04610b9a565b604051601f8201601f19908116603f0116810167ffffffffffffffff81118282101715610c3357610c33610b9a565b604052818152828201602001861015610c4b57600080fd5b81602084016020830137600091810160200191909152949350505050565b600060208284031215610c7b57600080fd5b813560038110610af957600080fd5b634e487b7160e01b600052602160045260246000fd5b6020810160038310610cc257634e487b7160e01b600052602160045260246000fd5b91905290565b600181811c90821680610cdc57607f821691505b602082108103610cfc57634e487b7160e01b600052602260045260246000fd5b50919050565b601f821115610d4c57806000526020600020601f840160051c81016020851015610d295750805b601f840160051c820191505b81811015610d495760008155600101610d35565b50505b505050565b815167ffffffffffffffff811115610d6b57610d6b610b9a565b610d7f81610d798454610cc8565b84610d02565b6020601f821160018114610db35760008315610d9b5750848201515b600019600385901b1c1916600184901b178455610d49565b600084815260208120601f198516915b82811015610de35787850151825560209485019460019092019101610dc3565b5084821015610e015786840151600019600387901b60f8161c191681555b50505050600190811b01905550565b634e487b7160e01b600052603260045260246000fd5b81810381811115610e4757634e487b7160e01b600052601160045260246000fd5b92915050565b634e487b7160e01b600052603160045260246000fdfea2646970667358221220a69aad8de2715d53d29ec6eb7ec4a24e93ff9ad84bd8bdc91765a6c74e1e6d8164736f6c634300081a0033",
					"opcodes": "PUSH1 0x80 PUSH1 0x40 MSTORE CALLVALUE DUP1 ISZERO PUSH1 0xF JUMPI PUSH1 0x0 DUP1 REVERT JUMPDEST POP PUSH2 0xE99 DUP1 PUSH2 0x1F PUSH1 0x0 CODECOPY PUSH1 0x0 RETURN INVALID PUSH1 0x80 PUSH1 0x40 MSTORE CALLVALUE DUP1 ISZERO PUSH2 0x10 JUMPI PUSH1 0x0 DUP1 REVERT JUMPDEST POP PUSH1 0x4 CALLDATASIZE LT PUSH2 0x88 JUMPI PUSH1 0x0 CALLDATALOAD PUSH1 0xE0 SHR DUP1 PUSH4 0x61765A26 GT PUSH2 0x5B JUMPI DUP1 PUSH4 0x61765A26 EQ PUSH2 0xF3 JUMPI DUP1 PUSH4 0x85E68531 EQ PUSH2 0x106 JUMPI DUP1 PUSH4 0xEC0B7B41 EQ PUSH2 0x119 JUMPI DUP1 PUSH4 0xFDE08174 EQ PUSH2 0x12C JUMPI PUSH1 0x0 DUP1 REVERT JUMPDEST DUP1 PUSH4 0xAE5E739 EQ PUSH2 0x8D JUMPI DUP1 PUSH4 0x13720FEF EQ PUSH2 0xA2 JUMPI DUP1 PUSH4 0x169DB77D EQ PUSH2 0xC0 JUMPI DUP1 PUSH4 0x3457D3E2 EQ PUSH2 0xE0 JUMPI JUMPDEST PUSH1 0x0 DUP1 REVERT JUMPDEST PUSH2 0xA0 PUSH2 0x9B CALLDATASIZE PUSH1 0x4 PUSH2 0xAD0 JUMP JUMPDEST PUSH2 0x141 JUMP JUMPDEST STOP JUMPDEST PUSH2 0xAA PUSH2 0x270 JUMP JUMPDEST PUSH1 0x40 MLOAD PUSH2 0xB7 SWAP2 SWAP1 PUSH2 0xB00 JUMP JUMPDEST PUSH1 0x40 MLOAD DUP1 SWAP2 SUB SWAP1 RETURN JUMPDEST PUSH2 0xD3 PUSH2 0xCE CALLDATASIZE PUSH1 0x4 PUSH2 0xAD0 JUMP JUMPDEST PUSH2 0x3E0 JUMP JUMPDEST PUSH1 0x40 MLOAD PUSH2 0xB7 SWAP2 SWAP1 PUSH2 0xB4E JUMP JUMPDEST PUSH2 0xA0 PUSH2 0xEE CALLDATASIZE PUSH1 0x4 PUSH2 0xBB0 JUMP JUMPDEST PUSH2 0x456 JUMP JUMPDEST PUSH2 0xA0 PUSH2 0x101 CALLDATASIZE PUSH1 0x4 PUSH2 0xC69 JUMP JUMPDEST PUSH2 0x5E7 JUMP JUMPDEST PUSH2 0xA0 PUSH2 0x114 CALLDATASIZE PUSH1 0x4 PUSH2 0xAD0 JUMP JUMPDEST PUSH2 0x750 JUMP JUMPDEST PUSH2 0xA0 PUSH2 0x127 CALLDATASIZE PUSH1 0x4 PUSH2 0xC69 JUMP JUMPDEST PUSH2 0x98C JUMP JUMPDEST PUSH2 0x134 PUSH2 0xA57 JUMP JUMPDEST PUSH1 0x40 MLOAD PUSH2 0xB7 SWAP2 SWAP1 PUSH2 0xCA0 JUMP JUMPDEST CALLER PUSH1 0x0 SWAP1 DUP2 MSTORE PUSH1 0x20 DUP2 SWAP1 MSTORE PUSH1 0x40 SWAP1 KECCAK256 PUSH1 0x1 ADD SLOAD PUSH1 0x1 PUSH1 0x1 PUSH1 0xA0 SHL SUB AND PUSH2 0x19E JUMPI PUSH1 0x40 MLOAD PUSH3 0x461BCD PUSH1 0xE5 SHL DUP2 MSTORE PUSH1 0x20 PUSH1 0x4 DUP3 ADD MSTORE PUSH1 0xD PUSH1 0x24 DUP3 ADD MSTORE PUSH13 0x2737902224A2103337BAB73217 PUSH1 0x99 SHL PUSH1 0x44 DUP3 ADD MSTORE PUSH1 0x64 ADD JUMPDEST PUSH1 0x40 MLOAD DUP1 SWAP2 SUB SWAP1 REVERT JUMPDEST PUSH1 0x1 PUSH1 0x1 PUSH1 0xA0 SHL SUB DUP2 DUP2 AND PUSH1 0x0 SWAP1 DUP2 MSTORE PUSH1 0x20 DUP2 SWAP1 MSTORE PUSH1 0x40 SWAP1 KECCAK256 PUSH1 0x1 ADD SLOAD AND PUSH2 0x208 JUMPI PUSH1 0x40 MLOAD PUSH3 0x461BCD PUSH1 0xE5 SHL DUP2 MSTORE PUSH1 0x20 PUSH1 0x4 DUP3 ADD MSTORE PUSH1 0x17 PUSH1 0x24 DUP3 ADD MSTORE PUSH32 0x446F63746F72206D75737420686176652061204449442E000000000000000000 PUSH1 0x44 DUP3 ADD MSTORE PUSH1 0x64 ADD PUSH2 0x195 JUMP JUMPDEST CALLER PUSH1 0x0 DUP2 DUP2 MSTORE PUSH1 0x1 PUSH1 0x20 DUP2 DUP2 MSTORE PUSH1 0x40 DUP1 DUP5 KECCAK256 DUP1 SLOAD SWAP4 DUP5 ADD DUP2 SSTORE DUP5 MSTORE SWAP1 DUP4 KECCAK256 SWAP1 SWAP2 ADD DUP1 SLOAD PUSH1 0x1 PUSH1 0x1 PUSH1 0xA0 SHL SUB NOT AND PUSH1 0x1 PUSH1 0x1 PUSH1 0xA0 SHL SUB DUP7 AND SWAP1 DUP2 OR SWAP1 SWAP2 SSTORE SWAP1 MLOAD SWAP1 SWAP3 SWAP2 PUSH32 0x9F520B3BFC56D06F7065D10B4683B3F57AC8895D5026CD176DEE95CE1454CB8D SWAP2 LOG3 POP JUMP JUMPDEST CALLER PUSH1 0x0 SWAP1 DUP2 MSTORE PUSH1 0x20 DUP2 SWAP1 MSTORE PUSH1 0x40 SWAP1 KECCAK256 PUSH1 0x1 ADD SLOAD PUSH1 0x60 SWAP1 PUSH1 0x1 PUSH1 0x1 PUSH1 0xA0 SHL SUB AND PUSH2 0x2CB JUMPI PUSH1 0x40 MLOAD PUSH3 0x461BCD PUSH1 0xE5 SHL DUP2 MSTORE PUSH1 0x20 PUSH1 0x4 DUP3 ADD MSTORE PUSH1 0xD PUSH1 0x24 DUP3 ADD MSTORE PUSH13 0x2737902224A2103337BAB73217 PUSH1 0x99 SHL PUSH1 0x44 DUP3 ADD MSTORE PUSH1 0x64 ADD PUSH2 0x195 JUMP JUMPDEST PUSH1 0x0 CALLER PUSH1 0x0 SWAP1 DUP2 MSTORE PUSH1 0x20 DUP2 SWAP1 MSTORE PUSH1 0x40 SWAP1 KECCAK256 PUSH1 0x1 ADD SLOAD PUSH1 0x1 PUSH1 0xA0 SHL SWAP1 DIV PUSH1 0xFF AND PUSH1 0x2 DUP2 GT ISZERO PUSH2 0x2FB JUMPI PUSH2 0x2FB PUSH2 0xC8A JUMP JUMPDEST SUB PUSH2 0x320 JUMPI POP PUSH1 0x40 DUP1 MLOAD DUP1 DUP3 ADD SWAP1 SWAP2 MSTORE PUSH1 0x5 DUP2 MSTORE PUSH5 0x20B236B4B7 PUSH1 0xD9 SHL PUSH1 0x20 DUP3 ADD MSTORE SWAP1 JUMP JUMPDEST PUSH1 0x1 CALLER PUSH1 0x0 SWAP1 DUP2 MSTORE PUSH1 0x20 DUP2 SWAP1 MSTORE PUSH1 0x40 SWAP1 KECCAK256 PUSH1 0x1 ADD SLOAD PUSH1 0x1 PUSH1 0xA0 SHL SWAP1 DIV PUSH1 0xFF AND PUSH1 0x2 DUP2 GT ISZERO PUSH2 0x350 JUMPI PUSH2 0x350 PUSH2 0xC8A JUMP JUMPDEST SUB PUSH2 0x376 JUMPI POP PUSH1 0x40 DUP1 MLOAD DUP1 DUP3 ADD SWAP1 SWAP2 MSTORE PUSH1 0x6 DUP2 MSTORE PUSH6 0x2237B1BA37B9 PUSH1 0xD1 SHL PUSH1 0x20 DUP3 ADD MSTORE SWAP1 JUMP JUMPDEST PUSH1 0x2 CALLER PUSH1 0x0 SWAP1 DUP2 MSTORE PUSH1 0x20 DUP2 SWAP1 MSTORE PUSH1 0x40 SWAP1 KECCAK256 PUSH1 0x1 ADD SLOAD PUSH1 0x1 PUSH1 0xA0 SHL SWAP1 DIV PUSH1 0xFF AND PUSH1 0x2 DUP2 GT ISZERO PUSH2 0x3A6 JUMPI PUSH2 0x3A6 PUSH2 0xC8A JUMP JUMPDEST SUB PUSH2 0x3CD JUMPI POP PUSH1 0x40 DUP1 MLOAD DUP1 DUP3 ADD SWAP1 SWAP2 MSTORE PUSH1 0x7 DUP2 MSTORE PUSH7 0x14185D1A595B9D PUSH1 0xCA SHL PUSH1 0x20 DUP3 ADD MSTORE SWAP1 JUMP JUMPDEST POP PUSH1 0x40 DUP1 MLOAD PUSH1 0x20 DUP2 ADD SWAP1 SWAP2 MSTORE PUSH1 0x0 DUP2 MSTORE SWAP1 JUMP JUMPDEST PUSH1 0x1 PUSH1 0x1 PUSH1 0xA0 SHL SUB DUP2 AND PUSH1 0x0 SWAP1 DUP2 MSTORE PUSH1 0x1 PUSH1 0x20 SWAP1 DUP2 MSTORE PUSH1 0x40 SWAP2 DUP3 SWAP1 KECCAK256 DUP1 SLOAD DUP4 MLOAD DUP2 DUP5 MUL DUP2 ADD DUP5 ADD SWAP1 SWAP5 MSTORE DUP1 DUP5 MSTORE PUSH1 0x60 SWAP4 SWAP3 DUP4 ADD DUP3 DUP3 DUP1 ISZERO PUSH2 0x44A JUMPI PUSH1 0x20 MUL DUP3 ADD SWAP2 SWAP1 PUSH1 0x0 MSTORE PUSH1 0x20 PUSH1 0x0 KECCAK256 SWAP1 JUMPDEST DUP2 SLOAD PUSH1 0x1 PUSH1 0x1 PUSH1 0xA0 SHL SUB AND DUP2 MSTORE PUSH1 0x1 SWAP1 SWAP2 ADD SWAP1 PUSH1 0x20 ADD DUP1 DUP4 GT PUSH2 0x42C JUMPI JUMPDEST POP POP POP POP POP SWAP1 POP SWAP2 SWAP1 POP JUMP JUMPDEST PUSH1 0x0 DUP2 MLOAD GT PUSH2 0x4A7 JUMPI PUSH1 0x40 MLOAD PUSH3 0x461BCD PUSH1 0xE5 SHL DUP2 MSTORE PUSH1 0x20 PUSH1 0x4 DUP3 ADD MSTORE PUSH1 0x1B PUSH1 0x24 DUP3 ADD MSTORE PUSH32 0x4964656E7469666965722063616E6E6F7420626520656D7074792E0000000000 PUSH1 0x44 DUP3 ADD MSTORE PUSH1 0x64 ADD PUSH2 0x195 JUMP JUMPDEST CALLER PUSH1 0x0 SWAP1 DUP2 MSTORE PUSH1 0x20 DUP2 SWAP1 MSTORE PUSH1 0x40 SWAP1 KECCAK256 PUSH1 0x1 ADD SLOAD PUSH1 0x1 PUSH1 0x1 PUSH1 0xA0 SHL SUB AND ISZERO PUSH2 0x510 JUMPI PUSH1 0x40 MLOAD PUSH3 0x461BCD PUSH1 0xE5 SHL DUP2 MSTORE PUSH1 0x20 PUSH1 0x4 DUP3 ADD MSTORE PUSH1 0x13 PUSH1 0x24 DUP3 ADD MSTORE PUSH32 0x44494420616C7265616479206578697374732E00000000000000000000000000 PUSH1 0x44 DUP3 ADD MSTORE PUSH1 0x64 ADD PUSH2 0x195 JUMP JUMPDEST PUSH1 0x40 DUP1 MLOAD PUSH1 0x60 DUP2 ADD DUP3 MSTORE DUP3 DUP2 MSTORE CALLER PUSH1 0x20 DUP3 ADD MSTORE SWAP1 DUP2 ADD PUSH1 0x2 SWAP1 MSTORE CALLER PUSH1 0x0 SWAP1 DUP2 MSTORE PUSH1 0x20 DUP2 SWAP1 MSTORE PUSH1 0x40 SWAP1 KECCAK256 DUP2 MLOAD DUP2 SWAP1 PUSH2 0x547 SWAP1 DUP3 PUSH2 0xD51 JUMP JUMPDEST POP PUSH1 0x20 DUP3 ADD MLOAD PUSH1 0x1 DUP3 ADD DUP1 SLOAD PUSH1 0x1 PUSH1 0x1 PUSH1 0xA0 SHL SUB SWAP1 SWAP3 AND PUSH1 0x1 PUSH1 0x1 PUSH1 0xA0 SHL SUB NOT DUP4 AND DUP2 OR DUP3 SSTORE PUSH1 0x40 DUP6 ADD MLOAD SWAP3 PUSH21 0xFFFFFFFFFFFFFFFFFFFFFFFFFFFFFFFFFFFFFFFFFF NOT AND OR PUSH1 0x1 PUSH1 0xA0 SHL DUP4 PUSH1 0x2 DUP2 GT ISZERO PUSH2 0x5A3 JUMPI PUSH2 0x5A3 PUSH2 0xC8A JUMP JUMPDEST MUL OR SWAP1 SSTORE POP POP PUSH1 0x40 MLOAD CALLER SWAP2 POP PUSH32 0xBFAB59A7AF78DFC896C3096604749FCEE2DB2E850297DE42DE5E6369F54BD3FB SWAP1 PUSH2 0x5DC SWAP1 DUP5 SWAP1 PUSH2 0xB00 JUMP JUMPDEST PUSH1 0x40 MLOAD DUP1 SWAP2 SUB SWAP1 LOG2 POP JUMP JUMPDEST CALLER PUSH1 0x0 SWAP1 DUP2 MSTORE PUSH1 0x20 DUP2 SWAP1 MSTORE PUSH1 0x40 SWAP1 KECCAK256 PUSH1 0x1 ADD SLOAD PUSH1 0xFF PUSH1 0x1 PUSH1 0xA0 SHL DUP3 DIV AND SWAP1 PUSH1 0x1 PUSH1 0x1 PUSH1 0xA0 SHL SUB AND PUSH2 0x64A JUMPI PUSH1 0x40 MLOAD PUSH3 0x461BCD PUSH1 0xE5 SHL DUP2 MSTORE PUSH1 0x20 PUSH1 0x4 DUP3 ADD MSTORE PUSH1 0xD PUSH1 0x24 DUP3 ADD MSTORE PUSH13 0x2737902224A2103337BAB73217 PUSH1 0x99 SHL PUSH1 0x44 DUP3 ADD MSTORE PUSH1 0x64 ADD PUSH2 0x195 JUMP JUMPDEST DUP1 PUSH1 0x2 DUP2 GT ISZERO PUSH2 0x65C JUMPI PUSH2 0x65C PUSH2 0xC8A JUMP JUMPDEST DUP3 PUSH1 0x2 DUP2 GT ISZERO PUSH2 0x66E JUMPI PUSH2 0x66E PUSH2 0xC8A JUMP JUMPDEST SUB PUSH2 0x6D1 JUMPI PUSH1 0x40 MLOAD PUSH3 0x461BCD PUSH1 0xE5 SHL DUP2 MSTORE PUSH1 0x20 PUSH1 0x4 DUP3 ADD MSTORE PUSH1 0x2D PUSH1 0x24 DUP3 ADD MSTORE PUSH32 0x4E657720526F6C65206D75737420626520646966666572656E742066726F6D20 PUSH1 0x44 DUP3 ADD MSTORE PUSH13 0x3A34329037B632102937B63297 PUSH1 0x99 SHL PUSH1 0x64 DUP3 ADD MSTORE PUSH1 0x84 ADD PUSH2 0x195 JUMP JUMPDEST CALLER PUSH1 0x0 SWAP1 DUP2 MSTORE PUSH1 0x20 DUP2 SWAP1 MSTORE PUSH1 0x40 SWAP1 KECCAK256 PUSH1 0x1 ADD DUP1 SLOAD DUP4 SWAP2 SWAP1 PUSH1 0xFF PUSH1 0xA0 SHL NOT AND PUSH1 0x1 PUSH1 0xA0 SHL DUP4 PUSH1 0x2 DUP2 GT ISZERO PUSH2 0x706 JUMPI PUSH2 0x706 PUSH2 0xC8A JUMP JUMPDEST MUL OR SWAP1 SSTORE POP CALLER PUSH1 0x1 PUSH1 0x1 PUSH1 0xA0 SHL SUB AND PUSH32 0x4AC36FA53F167CEB85964BE512E01DE2A3B8BDB9862F917DA079DEEEFF689B38 DUP4 PUSH1 0x40 MLOAD PUSH2 0x744 SWAP2 SWAP1 PUSH2 0xCA0 JUMP JUMPDEST PUSH1 0x40 MLOAD DUP1 SWAP2 SUB SWAP1 LOG2 POP POP JUMP JUMPDEST CALLER PUSH1 0x0 SWAP1 DUP2 MSTORE PUSH1 0x20 DUP2 SWAP1 MSTORE PUSH1 0x40 SWAP1 KECCAK256 PUSH1 0x1 ADD SLOAD PUSH1 0x1 PUSH1 0x1 PUSH1 0xA0 SHL SUB AND PUSH2 0x7A8 JUMPI PUSH1 0x40 MLOAD PUSH3 0x461BCD PUSH1 0xE5 SHL DUP2 MSTORE PUSH1 0x20 PUSH1 0x4 DUP3 ADD MSTORE PUSH1 0xD PUSH1 0x24 DUP3 ADD MSTORE PUSH13 0x2737902224A2103337BAB73217 PUSH1 0x99 SHL PUSH1 0x44 DUP3 ADD MSTORE PUSH1 0x64 ADD PUSH2 0x195 JUMP JUMPDEST PUSH1 0x1 PUSH1 0x1 PUSH1 0xA0 SHL SUB DUP2 DUP2 AND PUSH1 0x0 SWAP1 DUP2 MSTORE PUSH1 0x20 DUP2 SWAP1 MSTORE PUSH1 0x40 SWAP1 KECCAK256 PUSH1 0x1 ADD SLOAD AND PUSH2 0x812 JUMPI PUSH1 0x40 MLOAD PUSH3 0x461BCD PUSH1 0xE5 SHL DUP2 MSTORE PUSH1 0x20 PUSH1 0x4 DUP3 ADD MSTORE PUSH1 0x17 PUSH1 0x24 DUP3 ADD MSTORE PUSH32 0x446F63746F72206D75737420686176652061204449442E000000000000000000 PUSH1 0x44 DUP3 ADD MSTORE PUSH1 0x64 ADD PUSH2 0x195 JUMP JUMPDEST PUSH1 0x0 JUMPDEST CALLER PUSH1 0x0 SWAP1 DUP2 MSTORE PUSH1 0x1 PUSH1 0x20 MSTORE PUSH1 0x40 SWAP1 KECCAK256 SLOAD DUP2 LT ISZERO PUSH2 0x988 JUMPI CALLER PUSH1 0x0 SWAP1 DUP2 MSTORE PUSH1 0x1 PUSH1 0x20 MSTORE PUSH1 0x40 SWAP1 KECCAK256 DUP1 SLOAD PUSH1 0x1 PUSH1 0x1 PUSH1 0xA0 SHL SUB DUP5 AND SWAP2 SWAP1 DUP4 SWAP1 DUP2 LT PUSH2 0x859 JUMPI PUSH2 0x859 PUSH2 0xE10 JUMP JUMPDEST PUSH1 0x0 SWAP2 DUP3 MSTORE PUSH1 0x20 SWAP1 SWAP2 KECCAK256 ADD SLOAD PUSH1 0x1 PUSH1 0x1 PUSH1 0xA0 SHL SUB AND SUB PUSH2 0x980 JUMPI CALLER PUSH1 0x0 SWAP1 DUP2 MSTORE PUSH1 0x1 PUSH1 0x20 DUP2 SWAP1 MSTORE PUSH1 0x40 SWAP1 SWAP2 KECCAK256 DUP1 SLOAD SWAP1 SWAP2 PUSH2 0x892 SWAP2 PUSH2 0xE26 JUMP JUMPDEST DUP2 SLOAD DUP2 LT PUSH2 0x8A2 JUMPI PUSH2 0x8A2 PUSH2 0xE10 JUMP JUMPDEST PUSH1 0x0 SWAP2 DUP3 MSTORE PUSH1 0x20 DUP1 DUP4 KECCAK256 SWAP1 SWAP2 ADD SLOAD CALLER DUP4 MSTORE PUSH1 0x1 SWAP1 SWAP2 MSTORE PUSH1 0x40 SWAP1 SWAP2 KECCAK256 DUP1 SLOAD PUSH1 0x1 PUSH1 0x1 PUSH1 0xA0 SHL SUB SWAP1 SWAP3 AND SWAP2 DUP4 SWAP1 DUP2 LT PUSH2 0x8DB JUMPI PUSH2 0x8DB PUSH2 0xE10 JUMP JUMPDEST PUSH1 0x0 SWAP2 DUP3 MSTORE PUSH1 0x20 DUP1 DUP4 KECCAK256 SWAP2 SWAP1 SWAP2 ADD DUP1 SLOAD PUSH1 0x1 PUSH1 0x1 PUSH1 0xA0 SHL SUB NOT AND PUSH1 0x1 PUSH1 0x1 PUSH1 0xA0 SHL SUB SWAP5 SWAP1 SWAP5 AND SWAP4 SWAP1 SWAP4 OR SWAP1 SWAP3 SSTORE CALLER DUP2 MSTORE PUSH1 0x1 SWAP1 SWAP2 MSTORE PUSH1 0x40 SWAP1 KECCAK256 DUP1 SLOAD DUP1 PUSH2 0x923 JUMPI PUSH2 0x923 PUSH2 0xE4D JUMP JUMPDEST PUSH1 0x0 DUP3 DUP2 MSTORE PUSH1 0x20 DUP2 KECCAK256 DUP3 ADD PUSH1 0x0 NOT SWAP1 DUP2 ADD DUP1 SLOAD PUSH1 0x1 PUSH1 0x1 PUSH1 0xA0 SHL SUB NOT AND SWAP1 SSTORE SWAP1 SWAP2 ADD SWAP1 SWAP2 SSTORE PUSH1 0x40 MLOAD PUSH1 0x1 PUSH1 0x1 PUSH1 0xA0 SHL SUB DUP5 AND SWAP2 CALLER SWAP2 PUSH32 0x825C8BE24EB0DF19500F63E86C29E7D0D951E73056B889B891D85E40938D9B6E SWAP2 SWAP1 LOG3 POP POP JUMP JUMPDEST PUSH1 0x1 ADD PUSH2 0x815 JUMP JUMPDEST POP POP JUMP JUMPDEST CALLER PUSH1 0x0 SWAP1 DUP2 MSTORE PUSH1 0x20 DUP2 SWAP1 MSTORE PUSH1 0x40 SWAP1 KECCAK256 PUSH1 0x1 ADD SLOAD PUSH1 0x1 PUSH1 0x1 PUSH1 0xA0 SHL SUB AND PUSH2 0x9E4 JUMPI PUSH1 0x40 MLOAD PUSH3 0x461BCD PUSH1 0xE5 SHL DUP2 MSTORE PUSH1 0x20 PUSH1 0x4 DUP3 ADD MSTORE PUSH1 0xD PUSH1 0x24 DUP3 ADD MSTORE PUSH13 0x2737902224A2103337BAB73217 PUSH1 0x99 SHL PUSH1 0x44 DUP3 ADD MSTORE PUSH1 0x64 ADD PUSH2 0x195 JUMP JUMPDEST CALLER PUSH1 0x0 SWAP1 DUP2 MSTORE PUSH1 0x20 DUP2 SWAP1 MSTORE PUSH1 0x40 SWAP1 KECCAK256 PUSH1 0x1 ADD DUP1 SLOAD DUP3 SWAP2 SWAP1 PUSH1 0xFF PUSH1 0xA0 SHL NOT AND PUSH1 0x1 PUSH1 0xA0 SHL DUP4 PUSH1 0x2 DUP2 GT ISZERO PUSH2 0xA19 JUMPI PUSH2 0xA19 PUSH2 0xC8A JUMP JUMPDEST MUL OR SWAP1 SSTORE POP CALLER PUSH1 0x1 PUSH1 0x1 PUSH1 0xA0 SHL SUB AND PUSH32 0x4AC36FA53F167CEB85964BE512E01DE2A3B8BDB9862F917DA079DEEEFF689B38 DUP3 PUSH1 0x40 MLOAD PUSH2 0x5DC SWAP2 SWAP1 PUSH2 0xCA0 JUMP JUMPDEST CALLER PUSH1 0x0 SWAP1 DUP2 MSTORE PUSH1 0x20 DUP2 SWAP1 MSTORE PUSH1 0x40 DUP2 KECCAK256 PUSH1 0x1 ADD SLOAD PUSH1 0x1 PUSH1 0x1 PUSH1 0xA0 SHL SUB AND PUSH2 0xAAF JUMPI PUSH1 0x40 MLOAD PUSH3 0x461BCD PUSH1 0xE5 SHL DUP2 MSTORE PUSH1 0x20 PUSH1 0x4 DUP3 ADD MSTORE PUSH1 0xD PUSH1 0x24 DUP3 ADD MSTORE PUSH13 0x2737902224A2103337BAB73217 PUSH1 0x99 SHL PUSH1 0x44 DUP3 ADD MSTORE PUSH1 0x64 ADD PUSH2 0x195 JUMP JUMPDEST POP CALLER PUSH1 0x0 SWAP1 DUP2 MSTORE PUSH1 0x20 DUP2 SWAP1 MSTORE PUSH1 0x40 SWAP1 KECCAK256 PUSH1 0x1 ADD SLOAD PUSH1 0x1 PUSH1 0xA0 SHL SWAP1 DIV PUSH1 0xFF AND SWAP1 JUMP JUMPDEST PUSH1 0x0 PUSH1 0x20 DUP3 DUP5 SUB SLT ISZERO PUSH2 0xAE2 JUMPI PUSH1 0x0 DUP1 REVERT JUMPDEST DUP2 CALLDATALOAD PUSH1 0x1 PUSH1 0x1 PUSH1 0xA0 SHL SUB DUP2 AND DUP2 EQ PUSH2 0xAF9 JUMPI PUSH1 0x0 DUP1 REVERT JUMPDEST SWAP4 SWAP3 POP POP POP JUMP JUMPDEST PUSH1 0x20 DUP2 MSTORE PUSH1 0x0 DUP3 MLOAD DUP1 PUSH1 0x20 DUP5 ADD MSTORE PUSH1 0x0 JUMPDEST DUP2 DUP2 LT ISZERO PUSH2 0xB2E JUMPI PUSH1 0x20 DUP2 DUP7 ADD DUP2 ADD MLOAD PUSH1 0x40 DUP7 DUP5 ADD ADD MSTORE ADD PUSH2 0xB11 JUMP JUMPDEST POP PUSH1 0x0 PUSH1 0x40 DUP3 DUP6 ADD ADD MSTORE PUSH1 0x40 PUSH1 0x1F NOT PUSH1 0x1F DUP4 ADD AND DUP5 ADD ADD SWAP2 POP POP SWAP3 SWAP2 POP POP JUMP JUMPDEST PUSH1 0x20 DUP1 DUP3 MSTORE DUP3 MLOAD DUP3 DUP3 ADD DUP2 SWAP1 MSTORE PUSH1 0x0 SWAP2 DUP5 ADD SWAP1 PUSH1 0x40 DUP5 ADD SWAP1 DUP4 JUMPDEST DUP2 DUP2 LT ISZERO PUSH2 0xB8F JUMPI DUP4 MLOAD PUSH1 0x1 PUSH1 0x1 PUSH1 0xA0 SHL SUB AND DUP4 MSTORE PUSH1 0x20 SWAP4 DUP5 ADD SWAP4 SWAP1 SWAP3 ADD SWAP2 PUSH1 0x1 ADD PUSH2 0xB68 JUMP JUMPDEST POP SWAP1 SWAP6 SWAP5 POP POP POP POP POP JUMP JUMPDEST PUSH4 0x4E487B71 PUSH1 0xE0 SHL PUSH1 0x0 MSTORE PUSH1 0x41 PUSH1 0x4 MSTORE PUSH1 0x24 PUSH1 0x0 REVERT JUMPDEST PUSH1 0x0 PUSH1 0x20 DUP3 DUP5 SUB SLT ISZERO PUSH2 0xBC2 JUMPI PUSH1 0x0 DUP1 REVERT JUMPDEST DUP2 CALLDATALOAD PUSH8 0xFFFFFFFFFFFFFFFF DUP2 GT ISZERO PUSH2 0xBD9 JUMPI PUSH1 0x0 DUP1 REVERT JUMPDEST DUP3 ADD PUSH1 0x1F DUP2 ADD DUP5 SGT PUSH2 0xBEA JUMPI PUSH1 0x0 DUP1 REVERT JUMPDEST DUP1 CALLDATALOAD PUSH8 0xFFFFFFFFFFFFFFFF DUP2 GT ISZERO PUSH2 0xC04 JUMPI PUSH2 0xC04 PUSH2 0xB9A JUMP JUMPDEST PUSH1 0x40 MLOAD PUSH1 0x1F DUP3 ADD PUSH1 0x1F NOT SWAP1 DUP2 AND PUSH1 0x3F ADD AND DUP2 ADD PUSH8 0xFFFFFFFFFFFFFFFF DUP2 GT DUP3 DUP3 LT OR ISZERO PUSH2 0xC33 JUMPI PUSH2 0xC33 PUSH2 0xB9A JUMP JUMPDEST PUSH1 0x40 MSTORE DUP2 DUP2 MSTORE DUP3 DUP3 ADD PUSH1 0x20 ADD DUP7 LT ISZERO PUSH2 0xC4B JUMPI PUSH1 0x0 DUP1 REVERT JUMPDEST DUP2 PUSH1 0x20 DUP5 ADD PUSH1 0x20 DUP4 ADD CALLDATACOPY PUSH1 0x0 SWAP2 DUP2 ADD PUSH1 0x20 ADD SWAP2 SWAP1 SWAP2 MSTORE SWAP5 SWAP4 POP POP POP POP JUMP JUMPDEST PUSH1 0x0 PUSH1 0x20 DUP3 DUP5 SUB SLT ISZERO PUSH2 0xC7B JUMPI PUSH1 0x0 DUP1 REVERT JUMPDEST DUP2 CALLDATALOAD PUSH1 0x3 DUP2 LT PUSH2 0xAF9 JUMPI PUSH1 0x0 DUP1 REVERT JUMPDEST PUSH4 0x4E487B71 PUSH1 0xE0 SHL PUSH1 0x0 MSTORE PUSH1 0x21 PUSH1 0x4 MSTORE PUSH1 0x24 PUSH1 0x0 REVERT JUMPDEST PUSH1 0x20 DUP2 ADD PUSH1 0x3 DUP4 LT PUSH2 0xCC2 JUMPI PUSH4 0x4E487B71 PUSH1 0xE0 SHL PUSH1 0x0 MSTORE PUSH1 0x21 PUSH1 0x4 MSTORE PUSH1 0x24 PUSH1 0x0 REVERT JUMPDEST SWAP2 SWAP1 MSTORE SWAP1 JUMP JUMPDEST PUSH1 0x1 DUP2 DUP2 SHR SWAP1 DUP3 AND DUP1 PUSH2 0xCDC JUMPI PUSH1 0x7F DUP3 AND SWAP2 POP JUMPDEST PUSH1 0x20 DUP3 LT DUP2 SUB PUSH2 0xCFC JUMPI PUSH4 0x4E487B71 PUSH1 0xE0 SHL PUSH1 0x0 MSTORE PUSH1 0x22 PUSH1 0x4 MSTORE PUSH1 0x24 PUSH1 0x0 REVERT JUMPDEST POP SWAP2 SWAP1 POP JUMP JUMPDEST PUSH1 0x1F DUP3 GT ISZERO PUSH2 0xD4C JUMPI DUP1 PUSH1 0x0 MSTORE PUSH1 0x20 PUSH1 0x0 KECCAK256 PUSH1 0x1F DUP5 ADD PUSH1 0x5 SHR DUP2 ADD PUSH1 0x20 DUP6 LT ISZERO PUSH2 0xD29 JUMPI POP DUP1 JUMPDEST PUSH1 0x1F DUP5 ADD PUSH1 0x5 SHR DUP3 ADD SWAP2 POP JUMPDEST DUP2 DUP2 LT ISZERO PUSH2 0xD49 JUMPI PUSH1 0x0 DUP2 SSTORE PUSH1 0x1 ADD PUSH2 0xD35 JUMP JUMPDEST POP POP JUMPDEST POP POP POP JUMP JUMPDEST DUP2 MLOAD PUSH8 0xFFFFFFFFFFFFFFFF DUP2 GT ISZERO PUSH2 0xD6B JUMPI PUSH2 0xD6B PUSH2 0xB9A JUMP JUMPDEST PUSH2 0xD7F DUP2 PUSH2 0xD79 DUP5 SLOAD PUSH2 0xCC8 JUMP JUMPDEST DUP5 PUSH2 0xD02 JUMP JUMPDEST PUSH1 0x20 PUSH1 0x1F DUP3 GT PUSH1 0x1 DUP2 EQ PUSH2 0xDB3 JUMPI PUSH1 0x0 DUP4 ISZERO PUSH2 0xD9B JUMPI POP DUP5 DUP3 ADD MLOAD JUMPDEST PUSH1 0x0 NOT PUSH1 0x3 DUP6 SWAP1 SHL SHR NOT AND PUSH1 0x1 DUP5 SWAP1 SHL OR DUP5 SSTORE PUSH2 0xD49 JUMP JUMPDEST PUSH1 0x0 DUP5 DUP2 MSTORE PUSH1 0x20 DUP2 KECCAK256 PUSH1 0x1F NOT DUP6 AND SWAP2 JUMPDEST DUP3 DUP2 LT ISZERO PUSH2 0xDE3 JUMPI DUP8 DUP6 ADD MLOAD DUP3 SSTORE PUSH1 0x20 SWAP5 DUP6 ADD SWAP5 PUSH1 0x1 SWAP1 SWAP3 ADD SWAP2 ADD PUSH2 0xDC3 JUMP JUMPDEST POP DUP5 DUP3 LT ISZERO PUSH2 0xE01 JUMPI DUP7 DUP5 ADD MLOAD PUSH1 0x0 NOT PUSH1 0x3 DUP8 SWAP1 SHL PUSH1 0xF8 AND SHR NOT AND DUP2 SSTORE JUMPDEST POP POP POP POP PUSH1 0x1 SWAP1 DUP2 SHL ADD SWAP1 SSTORE POP JUMP JUMPDEST PUSH4 0x4E487B71 PUSH1 0xE0 SHL PUSH1 0x0 MSTORE PUSH1 0x32 PUSH1 0x4 MSTORE PUSH1 0x24 PUSH1 0x0 REVERT JUMPDEST DUP2 DUP2 SUB DUP2 DUP2 GT ISZERO PUSH2 0xE47 JUMPI PUSH4 0x4E487B71 PUSH1 0xE0 SHL PUSH1 0x0 MSTORE PUSH1 0x11 PUSH1 0x4 MSTORE PUSH1 0x24 PUSH1 0x0 REVERT JUMPDEST SWAP3 SWAP2 POP POP JUMP JUMPDEST PUSH4 0x4E487B71 PUSH1 0xE0 SHL PUSH1 0x0 MSTORE PUSH1 0x31 PUSH1 0x4 MSTORE PUSH1 0x24 PUSH1 0x0 REVERT INVALID LOG2 PUSH5 0x6970667358 0x22 SLT KECCAK256 0xA6 SWAP11 0xAD DUP14 0xE2 PUSH18 0x5D53D29EC6EB7EC4A24E93FF9AD84BD8BDC9 OR PUSH6 0xA6C74E1E6D81 PUSH5 0x736F6C6343 STOP ADDMOD BYTE STOP CALLER "
				},
				"gasEstimates": {
					"creation": {
						"codeDepositCost": "747400",
						"executionCost": "779",
						"totalCost": "748179"
					},
					"external": {
						"assignRole(uint8)": "28376",
						"createDID(string)": "infinite",
						"getDelegates(address)": "infinite",
						"getRole()": "4734",
						"getRoleString()": "infinite",
						"grantAccess(address)": "54834",
						"revokeAccess(address)": "infinite",
						"updateRole(uint8)": "28435"
					}
				},
				"methodIdentifiers": {
					"assignRole(uint8)": "ec0b7b41",
					"createDID(string)": "3457d3e2",
					"getDelegates(address)": "169db77d",
					"getRole()": "fde08174",
					"getRoleString()": "13720fef",
					"grantAccess(address)": "0ae5e739",
					"revokeAccess(address)": "85e68531",
					"updateRole(uint8)": "61765a26"
				}
			},
			"storageLayout": {
				"storage": [
					{
						"astId": 18,
						"contract": "contracts/DIDRegistry.sol:DIDRegistry",
						"label": "dids",
						"offset": 0,
						"slot": "0",
						"type": "t_mapping(t_address,t_struct(DID)13_storage)"
					},
					{
						"astId": 23,
						"contract": "contracts/DIDRegistry.sol:DIDRegistry",
						"label": "delegates",
						"offset": 0,
						"slot": "1",
						"type": "t_mapping(t_address,t_array(t_address)dyn_storage)"
					}
				],
				"types": {
					"t_address": {
						"encoding": "inplace",
						"label": "address",
						"numberOfBytes": "20"
					},
					"t_array(t_address)dyn_storage": {
						"base": "t_address",
						"encoding": "dynamic_array",
						"label": "address[]",
						"numberOfBytes": "32"
					},
					"t_enum(Roles)5": {
						"encoding": "inplace",
						"label": "enum DIDRegistry.Roles",
						"numberOfBytes": "1"
					},
					"t_mapping(t_address,t_array(t_address)dyn_storage)": {
						"encoding": "mapping",
						"key": "t_address",
						"label": "mapping(address => address[])",
						"numberOfBytes": "32",
						"value": "t_array(t_address)dyn_storage"
					},
					"t_mapping(t_address,t_struct(DID)13_storage)": {
						"encoding": "mapping",
						"key": "t_address",
						"label": "mapping(address => struct DIDRegistry.DID)",
						"numberOfBytes": "32",
						"value": "t_struct(DID)13_storage"
					},
					"t_string_storage": {
						"encoding": "bytes",
						"label": "string",
						"numberOfBytes": "32"
					},
					"t_struct(DID)13_storage": {
						"encoding": "inplace",
						"label": "struct DIDRegistry.DID",
						"members": [
							{
								"astId": 7,
								"contract": "contracts/DIDRegistry.sol:DIDRegistry",
								"label": "identifier",
								"offset": 0,
								"slot": "0",
								"type": "t_string_storage"
							},
							{
								"astId": 9,
								"contract": "contracts/DIDRegistry.sol:DIDRegistry",
								"label": "owner",
								"offset": 0,
								"slot": "1",
								"type": "t_address"
							},
							{
								"astId": 12,
								"contract": "contracts/DIDRegistry.sol:DIDRegistry",
								"label": "role",
								"offset": 20,
								"slot": "1",
								"type": "t_enum(Roles)5"
							}
						],
						"numberOfBytes": "64"
					}
				}
			},
			"userdoc": {
				"kind": "user",
				"methods": {},
				"version": 1
			}
		}
	}
}