{
	"contracts/MedicalRecords.sol": {
		"MedicalRecords": {
			"abi": [
				{
					"anonymous": false,
					"inputs": [
						{
							"indexed": true,
							"internalType": "address",
							"name": "patient",
							"type": "address"
						},
						{
							"indexed": true,
							"internalType": "address",
							"name": "doctor",
							"type": "address"
						}
					],
					"name": "AccessGranted",
					"type": "event"
				},
				{
					"anonymous": false,
					"inputs": [
						{
							"indexed": true,
							"internalType": "address",
							"name": "patient",
							"type": "address"
						},
						{
							"indexed": true,
							"internalType": "address",
							"name": "doctor",
							"type": "address"
						}
					],
					"name": "AccessRevoked",
					"type": "event"
				},
				{
					"anonymous": false,
					"inputs": [
						{
							"indexed": true,
							"internalType": "address",
							"name": "owner",
							"type": "address"
						},
						{
							"indexed": false,
							"internalType": "string",
							"name": "identifier",
							"type": "string"
						}
					],
					"name": "DIDRegistered",
					"type": "event"
				},
				{
					"anonymous": false,
					"inputs": [
						{
							"indexed": true,
							"internalType": "address",
							"name": "patient",
							"type": "address"
						},
						{
							"indexed": false,
							"internalType": "string",
							"name": "ipfsHash",
							"type": "string"
						}
					],
					"name": "RecordAdded",
					"type": "event"
				},
				{
					"anonymous": false,
					"inputs": [
						{
							"indexed": true,
							"internalType": "address",
							"name": "owner",
							"type": "address"
						},
						{
							"indexed": false,
							"internalType": "enum DIDRegistry.Roles",
							"name": "role",
							"type": "uint8"
						}
					],
					"name": "RoleAssigned",
					"type": "event"
				},
				{
					"inputs": [
						{
							"internalType": "string",
							"name": "_ipfsHash",
							"type": "string"
						}
					],
					"name": "addRecord",
					"outputs": [],
					"stateMutability": "nonpayable",
					"type": "function"
				},
				{
					"inputs": [
						{
							"internalType": "enum DIDRegistry.Roles",
							"name": "_role",
							"type": "uint8"
						}
					],
					"name": "assignRole",
					"outputs": [],
					"stateMutability": "nonpayable",
					"type": "function"
				},
				{
					"inputs": [
						{
							"internalType": "string",
							"name": "_identifier",
							"type": "string"
						}
					],
					"name": "createDID",
					"outputs": [],
					"stateMutability": "nonpayable",
					"type": "function"
				},
				{
					"inputs": [
						{
							"internalType": "address",
							"name": "_owner",
							"type": "address"
						}
					],
					"name": "getDelegates",
					"outputs": [
						{
							"internalType": "address[]",
							"name": "",
							"type": "address[]"
						}
					],
					"stateMutability": "view",
					"type": "function"
				},
				{
					"inputs": [
						{
							"internalType": "address",
							"name": "_owner",
							"type": "address"
						}
					],
					"name": "getRecords",
					"outputs": [
						{
							"internalType": "string[]",
							"name": "ipfsHashes",
							"type": "string[]"
						},
						{
							"internalType": "address[]",
							"name": "uploadedBy",
							"type": "address[]"
						},
						{
							"internalType": "uint256[]",
							"name": "timestamps",
							"type": "uint256[]"
						}
					],
					"stateMutability": "view",
					"type": "function"
				},
				{
					"inputs": [],
					"name": "getRole",
					"outputs": [
						{
							"internalType": "enum DIDRegistry.Roles",
							"name": "",
							"type": "uint8"
						}
					],
					"stateMutability": "view",
					"type": "function"
				},
				{
					"inputs": [],
					"name": "getRoleString",
					"outputs": [
						{
							"internalType": "string",
							"name": "",
							"type": "string"
						}
					],
					"stateMutability": "view",
					"type": "function"
				},
				{
					"inputs": [
						{
							"internalType": "address",
							"name": "_doctor",
							"type": "address"
						}
					],
					"name": "grantAccess",
					"outputs": [],
					"stateMutability": "nonpayable",
					"type": "function"
				},
				{
					"inputs": [
						{
							"internalType": "address",
							"name": "_doctor",
							"type": "address"
						}
					],
					"name": "revokeAccess",
					"outputs": [],
					"stateMutability": "nonpayable",
					"type": "function"
				},
				{
					"inputs": [
						{
							"internalType": "enum DIDRegistry.Roles",
							"name": "_newRole",
							"type": "uint8"
						}
					],
					"name": "updateRole",
					"outputs": [],
					"stateMutability": "nonpayable",
					"type": "function"
				}
			],
			"devdoc": {
				"kind": "dev",
				"methods": {},
				"version": 1
			},
			"evm": {
				"assembly": "    /* \"contracts/MedicalRecords.sol\":94:1572  contract MedicalRecords is DIDRegistry {... */\n  mstore(0x40, 0x80)\n  callvalue\n  dup1\n  iszero\n  tag_1\n  jumpi\n  0x00\n  dup1\n  revert\ntag_1:\n  pop\n  dataSize(sub_0)\n  dup1\n  dataOffset(sub_0)\n  0x00\n  codecopy\n  0x00\n  return\nstop\n\nsub_0: assembly {\n        /* \"contracts/MedicalRecords.sol\":94:1572  contract MedicalRecords is DIDRegistry {... */\n      mstore(0x40, 0x80)\n      callvalue\n      dup1\n      iszero\n      tag_1\n      jumpi\n      0x00\n      dup1\n      revert\n    tag_1:\n      pop\n      jumpi(tag_2, lt(calldatasize, 0x04))\n      shr(0xe0, calldataload(0x00))\n      dup1\n      0x85e68531\n      gt\n      tag_13\n      jumpi\n      dup1\n      0x85e68531\n      eq\n      tag_8\n      jumpi\n      dup1\n      0xa0076e84\n      eq\n      tag_9\n      jumpi\n      dup1\n      0xd81aa8c4\n      eq\n      tag_10\n      jumpi\n      dup1\n      0xec0b7b41\n      eq\n      tag_11\n      jumpi\n      dup1\n      0xfde08174\n      eq\n      tag_12\n      jumpi\n      0x00\n      dup1\n      revert\n    tag_13:\n      dup1\n      0x0ae5e739\n      eq\n      tag_3\n      jumpi\n      dup1\n      0x13720fef\n      eq\n      tag_4\n      jumpi\n      dup1\n      0x169db77d\n      eq\n      tag_5\n      jumpi\n      dup1\n      0x3457d3e2\n      eq\n      tag_6\n      jumpi\n      dup1\n      0x61765a26\n      eq\n      tag_7\n      jumpi\n    tag_2:\n      0x00\n      dup1\n      revert\n        /* \"contracts/DIDRegistry.sol\":2212:2509  function grantAccess(address _doctor) public {... */\n    tag_3:\n      tag_14\n      tag_15\n      calldatasize\n      0x04\n      tag_16\n      jump\t// in\n    tag_15:\n      tag_17\n      jump\t// in\n    tag_14:\n      stop\n        /* \"contracts/DIDRegistry.sol\":1785:2206  function getRoleString() public view returns (string memory) {... */\n    tag_4:\n      tag_18\n      tag_19\n      jump\t// in\n    tag_18:\n      mload(0x40)\n      tag_20\n      swap2\n      swap1\n      tag_21\n      jump\t// in\n    tag_20:\n      mload(0x40)\n      dup1\n      swap2\n      sub\n      swap1\n      return\n        /* \"contracts/DIDRegistry.sol\":3100:3218  function getDelegates(address _owner) public view returns (address[] memory) {... */\n    tag_5:\n      tag_22\n      tag_23\n      calldatasize\n      0x04\n      tag_16\n      jump\t// in\n    tag_23:\n      tag_24\n      jump\t// in\n    tag_22:\n      mload(0x40)\n      tag_20\n      swap2\n      swap1\n      tag_26\n      jump\t// in\n        /* \"contracts/DIDRegistry.sol\":645:1012  function createDID(string memory _identifier) public {... */\n    tag_6:\n      tag_14\n      tag_28\n      calldatasize\n      0x04\n      tag_29\n      jump\t// in\n    tag_28:\n      tag_30\n      jump\t// in\n        /* \"contracts/DIDRegistry.sol\":1228:1609  function updateRole(Roles _newRole) public {... */\n    tag_7:\n      tag_14\n      tag_32\n      calldatasize\n      0x04\n      tag_33\n      jump\t// in\n    tag_32:\n      tag_34\n      jump\t// in\n        /* \"contracts/DIDRegistry.sol\":2515:3094  function revokeAccess(address _doctor) public {... */\n    tag_8:\n      tag_14\n      tag_36\n      calldatasize\n      0x04\n      tag_16\n      jump\t// in\n    tag_36:\n      tag_37\n      jump\t// in\n        /* \"contracts/MedicalRecords.sol\":781:1570  function getRecords(address _owner) public view returns (string[] memory ipfsHashes, address[] memory uploadedBy, uint256[] memory timestamps) {... */\n    tag_9:\n      tag_38\n      tag_39\n      calldatasize\n      0x04\n      tag_16\n      jump\t// in\n    tag_39:\n      tag_40\n      jump\t// in\n    tag_38:\n      mload(0x40)\n      tag_20\n      swap4\n      swap3\n      swap2\n      swap1\n      tag_42\n      jump\t// in\n        /* \"contracts/MedicalRecords.sol\":377:721  function addRecord(string memory _ipfsHash) public {... */\n    tag_10:\n      tag_14\n      tag_44\n      calldatasize\n      0x04\n      tag_29\n      jump\t// in\n    tag_44:\n      tag_45\n      jump\t// in\n        /* \"contracts/DIDRegistry.sol\":1018:1222  function assignRole(Roles _role) public {... */\n    tag_11:\n      tag_14\n      tag_47\n      calldatasize\n      0x04\n      tag_33\n      jump\t// in\n    tag_47:\n      tag_48\n      jump\t// in\n        /* \"contracts/DIDRegistry.sol\":1615:1779  function getRole() public view returns (Roles) {... */\n    tag_12:\n      tag_49\n      tag_50\n      jump\t// in\n    tag_49:\n      mload(0x40)\n      tag_20\n      swap2\n      swap1\n      tag_52\n      jump\t// in\n        /* \"contracts/DIDRegistry.sol\":2212:2509  function grantAccess(address _doctor) public {... */\n    tag_17:\n        /* \"contracts/DIDRegistry.sol\":2280:2290  msg.sender */\n      caller\n        /* \"contracts/DIDRegistry.sol\":2309:2310  0 */\n      0x00\n        /* \"contracts/DIDRegistry.sol\":2275:2291  dids[msg.sender] */\n      swap1\n      dup2\n      mstore\n      0x20\n      dup2\n      swap1\n      mstore\n      0x40\n      swap1\n      keccak256\n        /* \"contracts/DIDRegistry.sol\":2275:2297  dids[msg.sender].owner */\n      0x01\n      add\n      sload\n      sub(shl(0xa0, 0x01), 0x01)\n      and\n        /* \"contracts/DIDRegistry.sol\":2267:2329  require(dids[msg.sender].owner != address(0), \"No DID found.\") */\n      tag_54\n      jumpi\n      mload(0x40)\n      shl(0xe5, 0x461bcd)\n      dup2\n      mstore\n        /* \"#utility.yul\":5259:5261   */\n      0x20\n        /* \"contracts/DIDRegistry.sol\":2267:2329  require(dids[msg.sender].owner != address(0), \"No DID found.\") */\n      0x04\n      dup3\n      add\n        /* \"#utility.yul\":5241:5262   */\n      mstore\n        /* \"#utility.yul\":5298:5300   */\n      0x0d\n        /* \"#utility.yul\":5278:5296   */\n      0x24\n      dup3\n      add\n        /* \"#utility.yul\":5271:5301   */\n      mstore\n      shl(0x99, 0x2737902224a2103337bab73217)\n        /* \"#utility.yul\":5317:5335   */\n      0x44\n      dup3\n      add\n        /* \"#utility.yul\":5310:5353   */\n      mstore\n        /* \"#utility.yul\":5370:5388   */\n      0x64\n      add\n        /* \"contracts/DIDRegistry.sol\":2267:2329  require(dids[msg.sender].owner != address(0), \"No DID found.\") */\n    tag_55:\n      mload(0x40)\n      dup1\n      swap2\n      sub\n      swap1\n      revert\n    tag_54:\n      sub(shl(0xa0, 0x01), 0x01)\n        /* \"contracts/DIDRegistry.sol\":2347:2360  dids[_doctor] */\n      dup2\n      dup2\n      and\n        /* \"contracts/DIDRegistry.sol\":2378:2379  0 */\n      0x00\n        /* \"contracts/DIDRegistry.sol\":2347:2360  dids[_doctor] */\n      swap1\n      dup2\n      mstore\n      0x20\n      dup2\n      swap1\n      mstore\n      0x40\n      swap1\n      keccak256\n        /* \"contracts/DIDRegistry.sol\":2347:2366  dids[_doctor].owner */\n      0x01\n      add\n      sload\n      and\n        /* \"contracts/DIDRegistry.sol\":2339:2408  require(dids[_doctor].owner != address(0), \"Doctor must have a DID.\") */\n      tag_57\n      jumpi\n      mload(0x40)\n      shl(0xe5, 0x461bcd)\n      dup2\n      mstore\n        /* \"#utility.yul\":5601:5603   */\n      0x20\n        /* \"contracts/DIDRegistry.sol\":2339:2408  require(dids[_doctor].owner != address(0), \"Doctor must have a DID.\") */\n      0x04\n      dup3\n      add\n        /* \"#utility.yul\":5583:5604   */\n      mstore\n        /* \"#utility.yul\":5640:5642   */\n      0x17\n        /* \"#utility.yul\":5620:5638   */\n      0x24\n      dup3\n      add\n        /* \"#utility.yul\":5613:5643   */\n      mstore\n        /* \"#utility.yul\":5679:5704   */\n      0x446f63746f72206d75737420686176652061204449442e000000000000000000\n        /* \"#utility.yul\":5659:5677   */\n      0x44\n      dup3\n      add\n        /* \"#utility.yul\":5652:5705   */\n      mstore\n        /* \"#utility.yul\":5722:5740   */\n      0x64\n      add\n        /* \"contracts/DIDRegistry.sol\":2339:2408  require(dids[_doctor].owner != address(0), \"Doctor must have a DID.\") */\n      tag_55\n        /* \"#utility.yul\":5399:5746   */\n      jump\n        /* \"contracts/DIDRegistry.sol\":2339:2408  require(dids[_doctor].owner != address(0), \"Doctor must have a DID.\") */\n    tag_57:\n        /* \"contracts/DIDRegistry.sol\":2428:2438  msg.sender */\n      caller\n        /* \"contracts/DIDRegistry.sol\":2418:2439  delegates[msg.sender] */\n      0x00\n      dup2\n      dup2\n      mstore\n        /* \"contracts/DIDRegistry.sol\":2418:2427  delegates */\n      0x01\n        /* \"contracts/DIDRegistry.sol\":2418:2439  delegates[msg.sender] */\n      0x20\n      dup2\n      dup2\n      mstore\n      0x40\n      dup1\n      dup5\n      keccak256\n        /* \"contracts/DIDRegistry.sol\":2418:2453  delegates[msg.sender].push(_doctor) */\n      dup1\n      sload\n      swap4\n      dup5\n      add\n      dup2\n      sstore\n      dup5\n      mstore\n      swap1\n      dup4\n      keccak256\n      swap1\n      swap2\n      add\n      dup1\n      sload\n      not(sub(shl(0xa0, 0x01), 0x01))\n      and\n      sub(shl(0xa0, 0x01), 0x01)\n      dup7\n      and\n      swap1\n      dup2\n      or\n      swap1\n      swap2\n      sstore\n        /* \"contracts/DIDRegistry.sol\":2468:2502  AccessGranted(msg.sender, _doctor) */\n      swap1\n      mload\n        /* \"contracts/DIDRegistry.sol\":2418:2453  delegates[msg.sender].push(_doctor) */\n      swap1\n      swap3\n        /* \"contracts/DIDRegistry.sol\":2428:2438  msg.sender */\n      swap2\n        /* \"contracts/DIDRegistry.sol\":2468:2502  AccessGranted(msg.sender, _doctor) */\n      0x9f520b3bfc56d06f7065d10b4683b3f57ac8895d5026cd176dee95ce1454cb8d\n      swap2\n      log3\n        /* \"contracts/DIDRegistry.sol\":2212:2509  function grantAccess(address _doctor) public {... */\n      pop\n      jump\t// out\n        /* \"contracts/DIDRegistry.sol\":1785:2206  function getRoleString() public view returns (string memory) {... */\n    tag_19:\n        /* \"contracts/DIDRegistry.sol\":1927:1937  msg.sender */\n      caller\n        /* \"contracts/DIDRegistry.sol\":1956:1957  0 */\n      0x00\n        /* \"contracts/DIDRegistry.sol\":1922:1938  dids[msg.sender] */\n      swap1\n      dup2\n      mstore\n      0x20\n      dup2\n      swap1\n      mstore\n      0x40\n      swap1\n      keccak256\n        /* \"contracts/DIDRegistry.sol\":1922:1944  dids[msg.sender].owner */\n      0x01\n      add\n      sload\n        /* \"contracts/DIDRegistry.sol\":1831:1844  string memory */\n      0x60\n      swap1\n      sub(shl(0xa0, 0x01), 0x01)\n        /* \"contracts/DIDRegistry.sol\":1922:1944  dids[msg.sender].owner */\n      and\n        /* \"contracts/DIDRegistry.sol\":1914:1976  require(dids[msg.sender].owner != address(0), \"No DID found.\") */\n      tag_62\n      jumpi\n      mload(0x40)\n      shl(0xe5, 0x461bcd)\n      dup2\n      mstore\n        /* \"#utility.yul\":5259:5261   */\n      0x20\n        /* \"contracts/DIDRegistry.sol\":1914:1976  require(dids[msg.sender].owner != address(0), \"No DID found.\") */\n      0x04\n      dup3\n      add\n        /* \"#utility.yul\":5241:5262   */\n      mstore\n        /* \"#utility.yul\":5298:5300   */\n      0x0d\n        /* \"#utility.yul\":5278:5296   */\n      0x24\n      dup3\n      add\n        /* \"#utility.yul\":5271:5301   */\n      mstore\n      shl(0x99, 0x2737902224a2103337bab73217)\n        /* \"#utility.yul\":5317:5335   */\n      0x44\n      dup3\n      add\n        /* \"#utility.yul\":5310:5353   */\n      mstore\n        /* \"#utility.yul\":5370:5388   */\n      0x64\n      add\n        /* \"contracts/DIDRegistry.sol\":1914:1976  require(dids[msg.sender].owner != address(0), \"No DID found.\") */\n      tag_55\n        /* \"#utility.yul\":5057:5394   */\n      jump\n        /* \"contracts/DIDRegistry.sol\":1914:1976  require(dids[msg.sender].owner != address(0), \"No DID found.\") */\n    tag_62:\n        /* \"contracts/DIDRegistry.sol\":2015:2026  Roles.Admin */\n      0x00\n        /* \"contracts/DIDRegistry.sol\":1995:2005  msg.sender */\n      caller\n        /* \"contracts/DIDRegistry.sol\":1990:1994  dids */\n      0x00\n        /* \"contracts/DIDRegistry.sol\":1990:2006  dids[msg.sender] */\n      swap1\n      dup2\n      mstore\n      0x20\n      dup2\n      swap1\n      mstore\n      0x40\n      swap1\n      keccak256\n        /* \"contracts/DIDRegistry.sol\":1990:2011  dids[msg.sender].role */\n      0x01\n      add\n      sload\n      shl(0xa0, 0x01)\n      swap1\n      div\n      0xff\n      and\n        /* \"contracts/DIDRegistry.sol\":1990:2026  dids[msg.sender].role == Roles.Admin */\n      0x02\n      dup2\n      gt\n      iszero\n      tag_68\n      jumpi\n      tag_68\n      tag_66\n      jump\t// in\n    tag_68:\n      sub\n        /* \"contracts/DIDRegistry.sol\":1986:2042  if (dids[msg.sender].role == Roles.Admin) return \"Admin\" */\n      tag_69\n      jumpi\n      pop\n        /* \"contracts/DIDRegistry.sol\":2028:2042  return \"Admin\" */\n      0x40\n      dup1\n      mload\n      dup1\n      dup3\n      add\n      swap1\n      swap2\n      mstore\n      0x05\n      dup2\n      mstore\n      shl(0xd9, 0x20b236b4b7)\n      0x20\n      dup3\n      add\n      mstore\n      swap1\n        /* \"contracts/DIDRegistry.sol\":1785:2206  function getRoleString() public view returns (string memory) {... */\n      jump\t// out\n        /* \"contracts/DIDRegistry.sol\":1986:2042  if (dids[msg.sender].role == Roles.Admin) return \"Admin\" */\n    tag_69:\n        /* \"contracts/DIDRegistry.sol\":2081:2093  Roles.Doctor */\n      0x01\n        /* \"contracts/DIDRegistry.sol\":2061:2071  msg.sender */\n      caller\n        /* \"contracts/DIDRegistry.sol\":2056:2060  dids */\n      0x00\n        /* \"contracts/DIDRegistry.sol\":2056:2072  dids[msg.sender] */\n      swap1\n      dup2\n      mstore\n      0x20\n      dup2\n      swap1\n      mstore\n      0x40\n      swap1\n      keccak256\n        /* \"contracts/DIDRegistry.sol\":2056:2077  dids[msg.sender].role */\n      0x01\n      add\n      sload\n      shl(0xa0, 0x01)\n      swap1\n      div\n      0xff\n      and\n        /* \"contracts/DIDRegistry.sol\":2056:2093  dids[msg.sender].role == Roles.Doctor */\n      0x02\n      dup2\n      gt\n      iszero\n      tag_73\n      jumpi\n      tag_73\n      tag_66\n      jump\t// in\n    tag_73:\n      sub\n        /* \"contracts/DIDRegistry.sol\":2052:2110  if (dids[msg.sender].role == Roles.Doctor) return \"Doctor\" */\n      tag_74\n      jumpi\n      pop\n        /* \"contracts/DIDRegistry.sol\":2095:2110  return \"Doctor\" */\n      0x40\n      dup1\n      mload\n      dup1\n      dup3\n      add\n      swap1\n      swap2\n      mstore\n      0x06\n      dup2\n      mstore\n      shl(0xd1, 0x2237b1ba37b9)\n      0x20\n      dup3\n      add\n      mstore\n      swap1\n        /* \"contracts/DIDRegistry.sol\":1785:2206  function getRoleString() public view returns (string memory) {... */\n      jump\t// out\n        /* \"contracts/DIDRegistry.sol\":2052:2110  if (dids[msg.sender].role == Roles.Doctor) return \"Doctor\" */\n    tag_74:\n        /* \"contracts/DIDRegistry.sol\":2149:2162  Roles.Patient */\n      0x02\n        /* \"contracts/DIDRegistry.sol\":2129:2139  msg.sender */\n      caller\n        /* \"contracts/DIDRegistry.sol\":2124:2128  dids */\n      0x00\n        /* \"contracts/DIDRegistry.sol\":2124:2140  dids[msg.sender] */\n      swap1\n      dup2\n      mstore\n      0x20\n      dup2\n      swap1\n      mstore\n      0x40\n      swap1\n      keccak256\n        /* \"contracts/DIDRegistry.sol\":2124:2145  dids[msg.sender].role */\n      0x01\n      add\n      sload\n      shl(0xa0, 0x01)\n      swap1\n      div\n      0xff\n      and\n        /* \"contracts/DIDRegistry.sol\":2124:2162  dids[msg.sender].role == Roles.Patient */\n      0x02\n      dup2\n      gt\n      iszero\n      tag_78\n      jumpi\n      tag_78\n      tag_66\n      jump\t// in\n    tag_78:\n      sub\n        /* \"contracts/DIDRegistry.sol\":2120:2180  if (dids[msg.sender].role == Roles.Patient) return \"Patient\" */\n      tag_79\n      jumpi\n      pop\n        /* \"contracts/DIDRegistry.sol\":2164:2180  return \"Patient\" */\n      0x40\n      dup1\n      mload\n      dup1\n      dup3\n      add\n      swap1\n      swap2\n      mstore\n      0x07\n      dup2\n      mstore\n      shl(0xca, 0x14185d1a595b9d)\n      0x20\n      dup3\n      add\n      mstore\n      swap1\n        /* \"contracts/DIDRegistry.sol\":1785:2206  function getRoleString() public view returns (string memory) {... */\n      jump\t// out\n        /* \"contracts/DIDRegistry.sol\":2120:2180  if (dids[msg.sender].role == Roles.Patient) return \"Patient\" */\n    tag_79:\n      pop\n        /* \"contracts/DIDRegistry.sol\":2190:2199  return \"\" */\n      0x40\n      dup1\n      mload\n      0x20\n      dup2\n      add\n      swap1\n      swap2\n      mstore\n      0x00\n      dup2\n      mstore\n      swap1\n        /* \"contracts/DIDRegistry.sol\":1785:2206  function getRoleString() public view returns (string memory) {... */\n      jump\t// out\n        /* \"contracts/DIDRegistry.sol\":3100:3218  function getDelegates(address _owner) public view returns (address[] memory) {... */\n    tag_24:\n      sub(shl(0xa0, 0x01), 0x01)\n        /* \"contracts/DIDRegistry.sol\":3194:3211  delegates[_owner] */\n      dup2\n      and\n      0x00\n      swap1\n      dup2\n      mstore\n        /* \"contracts/DIDRegistry.sol\":3194:3203  delegates */\n      0x01\n        /* \"contracts/DIDRegistry.sol\":3194:3211  delegates[_owner] */\n      0x20\n      swap1\n      dup2\n      mstore\n      0x40\n      swap2\n      dup3\n      swap1\n      keccak256\n        /* \"contracts/DIDRegistry.sol\":3187:3211  return delegates[_owner] */\n      dup1\n      sload\n      dup4\n      mload\n      dup2\n      dup5\n      mul\n      dup2\n      add\n      dup5\n      add\n      swap1\n      swap5\n      mstore\n      dup1\n      dup5\n      mstore\n        /* \"contracts/DIDRegistry.sol\":3159:3175  address[] memory */\n      0x60\n      swap4\n        /* \"contracts/DIDRegistry.sol\":3187:3211  return delegates[_owner] */\n      swap3\n      dup4\n      add\n        /* \"contracts/DIDRegistry.sol\":3194:3211  delegates[_owner] */\n      dup3\n        /* \"contracts/DIDRegistry.sol\":3187:3211  return delegates[_owner] */\n      dup3\n      dup1\n      iszero\n      tag_81\n      jumpi\n      0x20\n      mul\n      dup3\n      add\n      swap2\n      swap1\n      0x00\n      mstore\n      keccak256(0x00, 0x20)\n      swap1\n    tag_82:\n      dup2\n      sload\n      sub(shl(0xa0, 0x01), 0x01)\n      and\n      dup2\n      mstore\n      0x01\n      swap1\n      swap2\n      add\n      swap1\n      0x20\n      add\n      dup1\n      dup4\n      gt\n      tag_82\n      jumpi\n    tag_81:\n      pop\n      pop\n      pop\n      pop\n      pop\n      swap1\n      pop\n        /* \"contracts/DIDRegistry.sol\":3100:3218  function getDelegates(address _owner) public view returns (address[] memory) {... */\n      swap2\n      swap1\n      pop\n      jump\t// out\n        /* \"contracts/DIDRegistry.sol\":645:1012  function createDID(string memory _identifier) public {... */\n    tag_30:\n        /* \"contracts/DIDRegistry.sol\":744:745  0 */\n      0x00\n        /* \"contracts/DIDRegistry.sol\":722:733  _identifier */\n      dup2\n        /* \"contracts/DIDRegistry.sol\":716:741  bytes(_identifier).length */\n      mload\n        /* \"contracts/DIDRegistry.sol\":716:745  bytes(_identifier).length > 0 */\n      gt\n        /* \"contracts/DIDRegistry.sol\":708:777  require(bytes(_identifier).length > 0, \"Identifier cannot be empty.\") */\n      tag_84\n      jumpi\n      mload(0x40)\n      shl(0xe5, 0x461bcd)\n      dup2\n      mstore\n        /* \"#utility.yul\":5953:5955   */\n      0x20\n        /* \"contracts/DIDRegistry.sol\":708:777  require(bytes(_identifier).length > 0, \"Identifier cannot be empty.\") */\n      0x04\n      dup3\n      add\n        /* \"#utility.yul\":5935:5956   */\n      mstore\n        /* \"#utility.yul\":5992:5994   */\n      0x1b\n        /* \"#utility.yul\":5972:5990   */\n      0x24\n      dup3\n      add\n        /* \"#utility.yul\":5965:5995   */\n      mstore\n        /* \"#utility.yul\":6031:6060   */\n      0x4964656e7469666965722063616e6e6f7420626520656d7074792e0000000000\n        /* \"#utility.yul\":6011:6029   */\n      0x44\n      dup3\n      add\n        /* \"#utility.yul\":6004:6061   */\n      mstore\n        /* \"#utility.yul\":6078:6096   */\n      0x64\n      add\n        /* \"contracts/DIDRegistry.sol\":708:777  require(bytes(_identifier).length > 0, \"Identifier cannot be empty.\") */\n      tag_55\n        /* \"#utility.yul\":5751:6102   */\n      jump\n        /* \"contracts/DIDRegistry.sol\":708:777  require(bytes(_identifier).length > 0, \"Identifier cannot be empty.\") */\n    tag_84:\n        /* \"contracts/DIDRegistry.sol\":800:810  msg.sender */\n      caller\n        /* \"contracts/DIDRegistry.sol\":829:830  0 */\n      0x00\n        /* \"contracts/DIDRegistry.sol\":795:811  dids[msg.sender] */\n      swap1\n      dup2\n      mstore\n      0x20\n      dup2\n      swap1\n      mstore\n      0x40\n      swap1\n      keccak256\n        /* \"contracts/DIDRegistry.sol\":795:817  dids[msg.sender].owner */\n      0x01\n      add\n      sload\n      sub(shl(0xa0, 0x01), 0x01)\n      and\n        /* \"contracts/DIDRegistry.sol\":795:831  dids[msg.sender].owner == address(0) */\n      iszero\n        /* \"contracts/DIDRegistry.sol\":787:855  require(dids[msg.sender].owner == address(0), \"DID already exists.\") */\n      tag_87\n      jumpi\n      mload(0x40)\n      shl(0xe5, 0x461bcd)\n      dup2\n      mstore\n        /* \"#utility.yul\":6309:6311   */\n      0x20\n        /* \"contracts/DIDRegistry.sol\":787:855  require(dids[msg.sender].owner == address(0), \"DID already exists.\") */\n      0x04\n      dup3\n      add\n        /* \"#utility.yul\":6291:6312   */\n      mstore\n        /* \"#utility.yul\":6348:6350   */\n      0x13\n        /* \"#utility.yul\":6328:6346   */\n      0x24\n      dup3\n      add\n        /* \"#utility.yul\":6321:6351   */\n      mstore\n        /* \"#utility.yul\":6387:6408   */\n      0x44494420616c7265616479206578697374732e00000000000000000000000000\n        /* \"#utility.yul\":6367:6385   */\n      0x44\n      dup3\n      add\n        /* \"#utility.yul\":6360:6409   */\n      mstore\n        /* \"#utility.yul\":6426:6444   */\n      0x64\n      add\n        /* \"contracts/DIDRegistry.sol\":787:855  require(dids[msg.sender].owner == address(0), \"DID already exists.\") */\n      tag_55\n        /* \"#utility.yul\":6107:6450   */\n      jump\n        /* \"contracts/DIDRegistry.sol\":787:855  require(dids[msg.sender].owner == address(0), \"DID already exists.\") */\n    tag_87:\n        /* \"contracts/DIDRegistry.sol\":884:927  DID(_identifier, msg.sender, Roles.Patient) */\n      0x40\n      dup1\n      mload\n      0x60\n      dup2\n      add\n      dup3\n      mstore\n      dup3\n      dup2\n      mstore\n        /* \"contracts/DIDRegistry.sol\":901:911  msg.sender */\n      caller\n        /* \"contracts/DIDRegistry.sol\":884:927  DID(_identifier, msg.sender, Roles.Patient) */\n      0x20\n      dup3\n      add\n      mstore\n      swap1\n      dup2\n      add\n        /* \"contracts/DIDRegistry.sol\":913:926  Roles.Patient */\n      0x02\n        /* \"contracts/DIDRegistry.sol\":884:927  DID(_identifier, msg.sender, Roles.Patient) */\n      swap1\n      mstore\n        /* \"contracts/DIDRegistry.sol\":870:880  msg.sender */\n      caller\n        /* \"contracts/DIDRegistry.sol\":865:869  dids */\n      0x00\n        /* \"contracts/DIDRegistry.sol\":865:881  dids[msg.sender] */\n      swap1\n      dup2\n      mstore\n      0x20\n      dup2\n      swap1\n      mstore\n      0x40\n      swap1\n      keccak256\n        /* \"contracts/DIDRegistry.sol\":865:927  dids[msg.sender] = DID(_identifier, msg.sender, Roles.Patient) */\n      dup2\n      mload\n        /* \"contracts/DIDRegistry.sol\":865:881  dids[msg.sender] */\n      dup2\n      swap1\n        /* \"contracts/DIDRegistry.sol\":865:927  dids[msg.sender] = DID(_identifier, msg.sender, Roles.Patient) */\n      tag_92\n      swap1\n        /* \"contracts/DIDRegistry.sol\":865:881  dids[msg.sender] */\n      dup3\n        /* \"contracts/DIDRegistry.sol\":865:927  dids[msg.sender] = DID(_identifier, msg.sender, Roles.Patient) */\n      tag_93\n      jump\t// in\n    tag_92:\n      pop\n      0x20\n      dup3\n      add\n      mload\n      0x01\n      dup3\n      add\n      dup1\n      sload\n      sub(shl(0xa0, 0x01), 0x01)\n      swap1\n      swap3\n      and\n      not(sub(shl(0xa0, 0x01), 0x01))\n      dup4\n      and\n      dup2\n      or\n      dup3\n      sstore\n      0x40\n      dup6\n      add\n      mload\n      swap3\n      not(0xffffffffffffffffffffffffffffffffffffffffff)\n      and\n      or\n      shl(0xa0, 0x01)\n      dup4\n      0x02\n      dup2\n      gt\n      iszero\n      tag_95\n      jumpi\n      tag_95\n      tag_66\n      jump\t// in\n    tag_95:\n      mul\n      or\n      swap1\n      sstore\n      pop\n      pop\n        /* \"contracts/DIDRegistry.sol\":967:1005  DIDRegistered(msg.sender, _identifier) */\n      mload(0x40)\n        /* \"contracts/DIDRegistry.sol\":981:991  msg.sender */\n      caller\n      swap2\n      pop\n        /* \"contracts/DIDRegistry.sol\":967:1005  DIDRegistered(msg.sender, _identifier) */\n      0xbfab59a7af78dfc896c3096604749fcee2db2e850297de42de5e6369f54bd3fb\n      swap1\n      tag_96\n      swap1\n        /* \"contracts/DIDRegistry.sol\":993:1004  _identifier */\n      dup5\n      swap1\n        /* \"contracts/DIDRegistry.sol\":967:1005  DIDRegistered(msg.sender, _identifier) */\n      tag_21\n      jump\t// in\n    tag_96:\n      mload(0x40)\n      dup1\n      swap2\n      sub\n      swap1\n      log2\n        /* \"contracts/DIDRegistry.sol\":645:1012  function createDID(string memory _identifier) public {... */\n      pop\n      jump\t// out\n        /* \"contracts/DIDRegistry.sol\":1228:1609  function updateRole(Roles _newRole) public {... */\n    tag_34:\n        /* \"contracts/DIDRegistry.sol\":1303:1313  msg.sender */\n      caller\n        /* \"contracts/DIDRegistry.sol\":1281:1295  Roles _oldRole */\n      0x00\n        /* \"contracts/DIDRegistry.sol\":1298:1314  dids[msg.sender] */\n      swap1\n      dup2\n      mstore\n      0x20\n      dup2\n      swap1\n      mstore\n      0x40\n      swap1\n      keccak256\n        /* \"contracts/DIDRegistry.sol\":1298:1319  dids[msg.sender].role */\n      0x01\n      add\n      sload\n      0xff\n      shl(0xa0, 0x01)\n      dup3\n      div\n      and\n      swap1\n      sub(shl(0xa0, 0x01), 0x01)\n        /* \"contracts/DIDRegistry.sol\":1338:1360  dids[msg.sender].owner */\n      and\n        /* \"contracts/DIDRegistry.sol\":1330:1392  require(dids[msg.sender].owner != address(0), \"No DID found.\") */\n      tag_98\n      jumpi\n      mload(0x40)\n      shl(0xe5, 0x461bcd)\n      dup2\n      mstore\n        /* \"#utility.yul\":5259:5261   */\n      0x20\n        /* \"contracts/DIDRegistry.sol\":1330:1392  require(dids[msg.sender].owner != address(0), \"No DID found.\") */\n      0x04\n      dup3\n      add\n        /* \"#utility.yul\":5241:5262   */\n      mstore\n        /* \"#utility.yul\":5298:5300   */\n      0x0d\n        /* \"#utility.yul\":5278:5296   */\n      0x24\n      dup3\n      add\n        /* \"#utility.yul\":5271:5301   */\n      mstore\n      shl(0x99, 0x2737902224a2103337bab73217)\n        /* \"#utility.yul\":5317:5335   */\n      0x44\n      dup3\n      add\n        /* \"#utility.yul\":5310:5353   */\n      mstore\n        /* \"#utility.yul\":5370:5388   */\n      0x64\n      add\n        /* \"contracts/DIDRegistry.sol\":1330:1392  require(dids[msg.sender].owner != address(0), \"No DID found.\") */\n      tag_55\n        /* \"#utility.yul\":5057:5394   */\n      jump\n        /* \"contracts/DIDRegistry.sol\":1330:1392  require(dids[msg.sender].owner != address(0), \"No DID found.\") */\n    tag_98:\n        /* \"contracts/DIDRegistry.sol\":1422:1430  _oldRole */\n      dup1\n        /* \"contracts/DIDRegistry.sol\":1410:1430  _newRole != _oldRole */\n      0x02\n      dup2\n      gt\n      iszero\n      tag_101\n      jumpi\n      tag_101\n      tag_66\n      jump\t// in\n    tag_101:\n        /* \"contracts/DIDRegistry.sol\":1410:1418  _newRole */\n      dup3\n        /* \"contracts/DIDRegistry.sol\":1410:1430  _newRole != _oldRole */\n      0x02\n      dup2\n      gt\n      iszero\n      tag_103\n      jumpi\n      tag_103\n      tag_66\n      jump\t// in\n    tag_103:\n      sub\n        /* \"contracts/DIDRegistry.sol\":1402:1480  require(_newRole != _oldRole, \"New Role must be different from the old Role.\") */\n      tag_104\n      jumpi\n      mload(0x40)\n      shl(0xe5, 0x461bcd)\n      dup2\n      mstore\n        /* \"#utility.yul\":9166:9168   */\n      0x20\n        /* \"contracts/DIDRegistry.sol\":1402:1480  require(_newRole != _oldRole, \"New Role must be different from the old Role.\") */\n      0x04\n      dup3\n      add\n        /* \"#utility.yul\":9148:9169   */\n      mstore\n        /* \"#utility.yul\":9205:9207   */\n      0x2d\n        /* \"#utility.yul\":9185:9203   */\n      0x24\n      dup3\n      add\n        /* \"#utility.yul\":9178:9208   */\n      mstore\n        /* \"#utility.yul\":9244:9278   */\n      0x4e657720526f6c65206d75737420626520646966666572656e742066726f6d20\n        /* \"#utility.yul\":9224:9242   */\n      0x44\n      dup3\n      add\n        /* \"#utility.yul\":9217:9279   */\n      mstore\n      shl(0x99, 0x3a34329037b632102937b63297)\n        /* \"#utility.yul\":9295:9313   */\n      0x64\n      dup3\n      add\n        /* \"#utility.yul\":9288:9331   */\n      mstore\n        /* \"#utility.yul\":9348:9367   */\n      0x84\n      add\n        /* \"contracts/DIDRegistry.sol\":1402:1480  require(_newRole != _oldRole, \"New Role must be different from the old Role.\") */\n      tag_55\n        /* \"#utility.yul\":8964:9373   */\n      jump\n        /* \"contracts/DIDRegistry.sol\":1402:1480  require(_newRole != _oldRole, \"New Role must be different from the old Role.\") */\n    tag_104:\n        /* \"contracts/DIDRegistry.sol\":1496:1506  msg.sender */\n      caller\n        /* \"contracts/DIDRegistry.sol\":1491:1495  dids */\n      0x00\n        /* \"contracts/DIDRegistry.sol\":1491:1507  dids[msg.sender] */\n      swap1\n      dup2\n      mstore\n      0x20\n      dup2\n      swap1\n      mstore\n      0x40\n      swap1\n      keccak256\n        /* \"contracts/DIDRegistry.sol\":1491:1512  dids[msg.sender].role */\n      0x01\n      add\n        /* \"contracts/DIDRegistry.sol\":1491:1523  dids[msg.sender].role = _newRole */\n      dup1\n      sload\n        /* \"contracts/DIDRegistry.sol\":1515:1523  _newRole */\n      dup4\n      swap2\n        /* \"contracts/DIDRegistry.sol\":1491:1512  dids[msg.sender].role */\n      swap1\n      not(shl(0xa0, 0xff))\n        /* \"contracts/DIDRegistry.sol\":1491:1523  dids[msg.sender].role = _newRole */\n      and\n      shl(0xa0, 0x01)\n        /* \"contracts/DIDRegistry.sol\":1515:1523  _newRole */\n      dup4\n        /* \"contracts/DIDRegistry.sol\":1491:1523  dids[msg.sender].role = _newRole */\n      0x02\n      dup2\n      gt\n      iszero\n      tag_108\n      jumpi\n      tag_108\n      tag_66\n      jump\t// in\n    tag_108:\n      mul\n      or\n      swap1\n      sstore\n      pop\n        /* \"contracts/DIDRegistry.sol\":1551:1561  msg.sender */\n      caller\n      sub(shl(0xa0, 0x01), 0x01)\n        /* \"contracts/DIDRegistry.sol\":1538:1572  RoleAssigned(msg.sender, _newRole) */\n      and\n      0x4ac36fa53f167ceb85964be512e01de2a3b8bdb9862f917da079deeeff689b38\n        /* \"contracts/DIDRegistry.sol\":1563:1571  _newRole */\n      dup4\n        /* \"contracts/DIDRegistry.sol\":1538:1572  RoleAssigned(msg.sender, _newRole) */\n      mload(0x40)\n      tag_109\n      swap2\n      swap1\n      tag_52\n      jump\t// in\n    tag_109:\n      mload(0x40)\n      dup1\n      swap2\n      sub\n      swap1\n      log2\n        /* \"contracts/DIDRegistry.sol\":1271:1609  {... */\n      pop\n        /* \"contracts/DIDRegistry.sol\":1228:1609  function updateRole(Roles _newRole) public {... */\n      pop\n      jump\t// out\n        /* \"contracts/DIDRegistry.sol\":2515:3094  function revokeAccess(address _doctor) public {... */\n    tag_37:\n        /* \"contracts/DIDRegistry.sol\":2584:2594  msg.sender */\n      caller\n        /* \"contracts/DIDRegistry.sol\":2613:2614  0 */\n      0x00\n        /* \"contracts/DIDRegistry.sol\":2579:2595  dids[msg.sender] */\n      swap1\n      dup2\n      mstore\n      0x20\n      dup2\n      swap1\n      mstore\n      0x40\n      swap1\n      keccak256\n        /* \"contracts/DIDRegistry.sol\":2579:2601  dids[msg.sender].owner */\n      0x01\n      add\n      sload\n      sub(shl(0xa0, 0x01), 0x01)\n      and\n        /* \"contracts/DIDRegistry.sol\":2571:2633  require(dids[msg.sender].owner != address(0), \"No DID found.\") */\n      tag_111\n      jumpi\n      mload(0x40)\n      shl(0xe5, 0x461bcd)\n      dup2\n      mstore\n        /* \"#utility.yul\":5259:5261   */\n      0x20\n        /* \"contracts/DIDRegistry.sol\":2571:2633  require(dids[msg.sender].owner != address(0), \"No DID found.\") */\n      0x04\n      dup3\n      add\n        /* \"#utility.yul\":5241:5262   */\n      mstore\n        /* \"#utility.yul\":5298:5300   */\n      0x0d\n        /* \"#utility.yul\":5278:5296   */\n      0x24\n      dup3\n      add\n        /* \"#utility.yul\":5271:5301   */\n      mstore\n      shl(0x99, 0x2737902224a2103337bab73217)\n        /* \"#utility.yul\":5317:5335   */\n      0x44\n      dup3\n      add\n        /* \"#utility.yul\":5310:5353   */\n      mstore\n        /* \"#utility.yul\":5370:5388   */\n      0x64\n      add\n        /* \"contracts/DIDRegistry.sol\":2571:2633  require(dids[msg.sender].owner != address(0), \"No DID found.\") */\n      tag_55\n        /* \"#utility.yul\":5057:5394   */\n      jump\n        /* \"contracts/DIDRegistry.sol\":2571:2633  require(dids[msg.sender].owner != address(0), \"No DID found.\") */\n    tag_111:\n      sub(shl(0xa0, 0x01), 0x01)\n        /* \"contracts/DIDRegistry.sol\":2651:2664  dids[_doctor] */\n      dup2\n      dup2\n      and\n        /* \"contracts/DIDRegistry.sol\":2682:2683  0 */\n      0x00\n        /* \"contracts/DIDRegistry.sol\":2651:2664  dids[_doctor] */\n      swap1\n      dup2\n      mstore\n      0x20\n      dup2\n      swap1\n      mstore\n      0x40\n      swap1\n      keccak256\n        /* \"contracts/DIDRegistry.sol\":2651:2670  dids[_doctor].owner */\n      0x01\n      add\n      sload\n      and\n        /* \"contracts/DIDRegistry.sol\":2643:2712  require(dids[_doctor].owner != address(0), \"Doctor must have a DID.\") */\n      tag_113\n      jumpi\n      mload(0x40)\n      shl(0xe5, 0x461bcd)\n      dup2\n      mstore\n        /* \"#utility.yul\":5601:5603   */\n      0x20\n        /* \"contracts/DIDRegistry.sol\":2643:2712  require(dids[_doctor].owner != address(0), \"Doctor must have a DID.\") */\n      0x04\n      dup3\n      add\n        /* \"#utility.yul\":5583:5604   */\n      mstore\n        /* \"#utility.yul\":5640:5642   */\n      0x17\n        /* \"#utility.yul\":5620:5638   */\n      0x24\n      dup3\n      add\n        /* \"#utility.yul\":5613:5643   */\n      mstore\n        /* \"#utility.yul\":5679:5704   */\n      0x446f63746f72206d75737420686176652061204449442e000000000000000000\n        /* \"#utility.yul\":5659:5677   */\n      0x44\n      dup3\n      add\n        /* \"#utility.yul\":5652:5705   */\n      mstore\n        /* \"#utility.yul\":5722:5740   */\n      0x64\n      add\n        /* \"contracts/DIDRegistry.sol\":2643:2712  require(dids[_doctor].owner != address(0), \"Doctor must have a DID.\") */\n      tag_55\n        /* \"#utility.yul\":5399:5746   */\n      jump\n        /* \"contracts/DIDRegistry.sol\":2643:2712  require(dids[_doctor].owner != address(0), \"Doctor must have a DID.\") */\n    tag_113:\n        /* \"contracts/DIDRegistry.sol\":2728:2737  uint256 i */\n      0x00\n        /* \"contracts/DIDRegistry.sol\":2723:3088  for (uint256 i = 0; i < delegates[msg.sender].length; i++) {... */\n    tag_115:\n        /* \"contracts/DIDRegistry.sol\":2757:2767  msg.sender */\n      caller\n        /* \"contracts/DIDRegistry.sol\":2747:2768  delegates[msg.sender] */\n      0x00\n      swap1\n      dup2\n      mstore\n        /* \"contracts/DIDRegistry.sol\":2747:2756  delegates */\n      0x01\n        /* \"contracts/DIDRegistry.sol\":2747:2768  delegates[msg.sender] */\n      0x20\n      mstore\n      0x40\n      swap1\n      keccak256\n        /* \"contracts/DIDRegistry.sol\":2747:2775  delegates[msg.sender].length */\n      sload\n        /* \"contracts/DIDRegistry.sol\":2743:2775  i < delegates[msg.sender].length */\n      dup2\n      lt\n        /* \"contracts/DIDRegistry.sol\":2723:3088  for (uint256 i = 0; i < delegates[msg.sender].length; i++) {... */\n      iszero\n      tag_116\n      jumpi\n        /* \"contracts/DIDRegistry.sol\":2810:2820  msg.sender */\n      caller\n        /* \"contracts/DIDRegistry.sol\":2800:2821  delegates[msg.sender] */\n      0x00\n      swap1\n      dup2\n      mstore\n        /* \"contracts/DIDRegistry.sol\":2800:2809  delegates */\n      0x01\n        /* \"contracts/DIDRegistry.sol\":2800:2821  delegates[msg.sender] */\n      0x20\n      mstore\n      0x40\n      swap1\n      keccak256\n        /* \"contracts/DIDRegistry.sol\":2800:2824  delegates[msg.sender][i] */\n      dup1\n      sload\n      sub(shl(0xa0, 0x01), 0x01)\n        /* \"contracts/DIDRegistry.sol\":2800:2835  delegates[msg.sender][i] == _doctor */\n      dup5\n      and\n      swap2\n        /* \"contracts/DIDRegistry.sol\":2800:2821  delegates[msg.sender] */\n      swap1\n        /* \"contracts/DIDRegistry.sol\":2822:2823  i */\n      dup4\n      swap1\n        /* \"contracts/DIDRegistry.sol\":2800:2824  delegates[msg.sender][i] */\n      dup2\n      lt\n      tag_119\n      jumpi\n      tag_119\n      tag_120\n      jump\t// in\n    tag_119:\n      0x00\n      swap2\n      dup3\n      mstore\n      0x20\n      swap1\n      swap2\n      keccak256\n      add\n      sload\n      sub(shl(0xa0, 0x01), 0x01)\n      and\n        /* \"contracts/DIDRegistry.sol\":2800:2835  delegates[msg.sender][i] == _doctor */\n      sub\n        /* \"contracts/DIDRegistry.sol\":2796:3078  if (delegates[msg.sender][i] == _doctor) {... */\n      tag_122\n      jumpi\n        /* \"contracts/DIDRegistry.sol\":2892:2902  msg.sender */\n      caller\n        /* \"contracts/DIDRegistry.sol\":2882:2903  delegates[msg.sender] */\n      0x00\n      swap1\n      dup2\n      mstore\n        /* \"contracts/DIDRegistry.sol\":2882:2891  delegates */\n      0x01\n        /* \"contracts/DIDRegistry.sol\":2882:2903  delegates[msg.sender] */\n      0x20\n      dup2\n      swap1\n      mstore\n      0x40\n      swap1\n      swap2\n      keccak256\n        /* \"contracts/DIDRegistry.sol\":2904:2932  delegates[msg.sender].length */\n      dup1\n      sload\n        /* \"contracts/DIDRegistry.sol\":2882:2903  delegates[msg.sender] */\n      swap1\n      swap2\n        /* \"contracts/DIDRegistry.sol\":2904:2936  delegates[msg.sender].length - 1 */\n      tag_123\n      swap2\n      tag_124\n      jump\t// in\n    tag_123:\n        /* \"contracts/DIDRegistry.sol\":2882:2937  delegates[msg.sender][delegates[msg.sender].length - 1] */\n      dup2\n      sload\n      dup2\n      lt\n      tag_126\n      jumpi\n      tag_126\n      tag_120\n      jump\t// in\n    tag_126:\n      0x00\n      swap2\n      dup3\n      mstore\n      0x20\n      dup1\n      dup4\n      keccak256\n      swap1\n      swap2\n      add\n      sload\n        /* \"contracts/DIDRegistry.sol\":2865:2875  msg.sender */\n      caller\n        /* \"contracts/DIDRegistry.sol\":2855:2876  delegates[msg.sender] */\n      dup4\n      mstore\n        /* \"contracts/DIDRegistry.sol\":2882:2937  delegates[msg.sender][delegates[msg.sender].length - 1] */\n      0x01\n        /* \"contracts/DIDRegistry.sol\":2855:2876  delegates[msg.sender] */\n      swap1\n      swap2\n      mstore\n      0x40\n      swap1\n      swap2\n      keccak256\n        /* \"contracts/DIDRegistry.sol\":2855:2879  delegates[msg.sender][i] */\n      dup1\n      sload\n      sub(shl(0xa0, 0x01), 0x01)\n        /* \"contracts/DIDRegistry.sol\":2882:2937  delegates[msg.sender][delegates[msg.sender].length - 1] */\n      swap1\n      swap3\n      and\n      swap2\n        /* \"contracts/DIDRegistry.sol\":2877:2878  i */\n      dup4\n      swap1\n        /* \"contracts/DIDRegistry.sol\":2855:2879  delegates[msg.sender][i] */\n      dup2\n      lt\n      tag_129\n      jumpi\n      tag_129\n      tag_120\n      jump\t// in\n    tag_129:\n      0x00\n      swap2\n      dup3\n      mstore\n      0x20\n      dup1\n      dup4\n      keccak256\n      swap2\n      swap1\n      swap2\n      add\n        /* \"contracts/DIDRegistry.sol\":2855:2937  delegates[msg.sender][i] = delegates[msg.sender][delegates[msg.sender].length - 1] */\n      dup1\n      sload\n      not(sub(shl(0xa0, 0x01), 0x01))\n      and\n      sub(shl(0xa0, 0x01), 0x01)\n      swap5\n      swap1\n      swap5\n      and\n      swap4\n      swap1\n      swap4\n      or\n      swap1\n      swap3\n      sstore\n        /* \"contracts/DIDRegistry.sol\":2965:2975  msg.sender */\n      caller\n        /* \"contracts/DIDRegistry.sol\":2955:2976  delegates[msg.sender] */\n      dup2\n      mstore\n      0x01\n      swap1\n      swap2\n      mstore\n      0x40\n      swap1\n      keccak256\n        /* \"contracts/DIDRegistry.sol\":2955:2982  delegates[msg.sender].pop() */\n      dup1\n      sload\n      dup1\n      tag_132\n      jumpi\n      tag_132\n      tag_133\n      jump\t// in\n    tag_132:\n      0x00\n      dup3\n      dup2\n      mstore\n      0x20\n      dup2\n      keccak256\n      dup3\n      add\n      not(0x00)\n      swap1\n      dup2\n      add\n      dup1\n      sload\n      not(sub(shl(0xa0, 0x01), 0x01))\n      and\n      swap1\n      sstore\n      swap1\n      swap2\n      add\n      swap1\n      swap2\n      sstore\n        /* \"contracts/DIDRegistry.sol\":3005:3039  AccessRevoked(msg.sender, _doctor) */\n      mload(0x40)\n      sub(shl(0xa0, 0x01), 0x01)\n      dup5\n      and\n      swap2\n        /* \"contracts/DIDRegistry.sol\":3019:3029  msg.sender */\n      caller\n      swap2\n        /* \"contracts/DIDRegistry.sol\":3005:3039  AccessRevoked(msg.sender, _doctor) */\n      0x825c8be24eb0df19500f63e86c29e7d0d951e73056b889b891d85e40938d9b6e\n      swap2\n        /* \"contracts/DIDRegistry.sol\":2955:2982  delegates[msg.sender].pop() */\n      swap1\n        /* \"contracts/DIDRegistry.sol\":3005:3039  AccessRevoked(msg.sender, _doctor) */\n      log3\n        /* \"contracts/DIDRegistry.sol\":3057:3064  return; */\n      pop\n        /* \"contracts/DIDRegistry.sol\":2515:3094  function revokeAccess(address _doctor) public {... */\n      pop\n      jump\t// out\n        /* \"contracts/DIDRegistry.sol\":2796:3078  if (delegates[msg.sender][i] == _doctor) {... */\n    tag_122:\n        /* \"contracts/DIDRegistry.sol\":2777:2780  i++ */\n      0x01\n      add\n        /* \"contracts/DIDRegistry.sol\":2723:3088  for (uint256 i = 0; i < delegates[msg.sender].length; i++) {... */\n      jump(tag_115)\n    tag_116:\n      pop\n        /* \"contracts/DIDRegistry.sol\":2515:3094  function revokeAccess(address _doctor) public {... */\n      pop\n      jump\t// out\n        /* \"contracts/MedicalRecords.sol\":781:1570  function getRecords(address _owner) public view returns (string[] memory ipfsHashes, address[] memory uploadedBy, uint256[] memory timestamps) {... */\n    tag_40:\n      sub(shl(0xa0, 0x01), 0x01)\n        /* \"contracts/MedicalRecords.sol\":942:954  dids[_owner] */\n      dup2\n      dup2\n      and\n        /* \"contracts/MedicalRecords.sol\":972:973  0 */\n      0x00\n        /* \"contracts/MedicalRecords.sol\":942:954  dids[_owner] */\n      swap1\n      dup2\n      mstore\n      0x20\n      dup2\n      swap1\n      mstore\n      0x40\n      swap1\n      keccak256\n        /* \"contracts/MedicalRecords.sol\":942:960  dids[_owner].owner */\n      0x01\n      add\n      sload\n        /* \"contracts/MedicalRecords.sol\":838:864  string[] memory ipfsHashes */\n      0x60\n      swap2\n      dup3\n      swap2\n      dup3\n      swap2\n        /* \"contracts/MedicalRecords.sol\":942:960  dids[_owner].owner */\n      and\n        /* \"contracts/MedicalRecords.sol\":934:992  require(dids[_owner].owner != address(0), \"No DID found.\") */\n      tag_136\n      jumpi\n      mload(0x40)\n      shl(0xe5, 0x461bcd)\n      dup2\n      mstore\n        /* \"#utility.yul\":5259:5261   */\n      0x20\n        /* \"contracts/MedicalRecords.sol\":934:992  require(dids[_owner].owner != address(0), \"No DID found.\") */\n      0x04\n      dup3\n      add\n        /* \"#utility.yul\":5241:5262   */\n      mstore\n        /* \"#utility.yul\":5298:5300   */\n      0x0d\n        /* \"#utility.yul\":5278:5296   */\n      0x24\n      dup3\n      add\n        /* \"#utility.yul\":5271:5301   */\n      mstore\n      shl(0x99, 0x2737902224a2103337bab73217)\n        /* \"#utility.yul\":5317:5335   */\n      0x44\n      dup3\n      add\n        /* \"#utility.yul\":5310:5353   */\n      mstore\n        /* \"#utility.yul\":5370:5388   */\n      0x64\n      add\n        /* \"contracts/MedicalRecords.sol\":934:992  require(dids[_owner].owner != address(0), \"No DID found.\") */\n      tag_55\n        /* \"#utility.yul\":5057:5394   */\n      jump\n        /* \"contracts/MedicalRecords.sol\":934:992  require(dids[_owner].owner != address(0), \"No DID found.\") */\n    tag_136:\n      sub(shl(0xa0, 0x01), 0x01)\n        /* \"contracts/MedicalRecords.sol\":1025:1040  records[_owner] */\n      dup5\n      and\n        /* \"contracts/MedicalRecords.sol\":1003:1022  uint256 recordCount */\n      0x00\n        /* \"contracts/MedicalRecords.sol\":1025:1040  records[_owner] */\n      swap1\n      dup2\n      mstore\n        /* \"contracts/MedicalRecords.sol\":1025:1032  records */\n      0x02\n        /* \"contracts/MedicalRecords.sol\":1025:1040  records[_owner] */\n      0x20\n      mstore\n      0x40\n      swap1\n      keccak256\n        /* \"contracts/MedicalRecords.sol\":1025:1047  records[_owner].length */\n      sload\n      dup1\n        /* \"contracts/MedicalRecords.sol\":1117:1142  new string[](recordCount) */\n      0xffffffffffffffff\n      dup2\n      gt\n      iszero\n      tag_139\n      jumpi\n      tag_139\n      tag_140\n      jump\t// in\n    tag_139:\n      mload(0x40)\n      swap1\n      dup1\n      dup3\n      mstore\n      dup1\n      0x20\n      mul\n      0x20\n      add\n      dup3\n      add\n      0x40\n      mstore\n      dup1\n      iszero\n      tag_141\n      jumpi\n      dup2\n      0x20\n      add\n    tag_142:\n      0x60\n      dup2\n      mstore\n      0x20\n      add\n      swap1\n      0x01\n      swap1\n      sub\n      swap1\n      dup2\n      tag_142\n      jumpi\n      swap1\n      pop\n    tag_141:\n      pop\n        /* \"contracts/MedicalRecords.sol\":1104:1142  ipfsHashes = new string[](recordCount) */\n      swap4\n      pop\n        /* \"contracts/MedicalRecords.sol\":1179:1190  recordCount */\n      dup1\n        /* \"contracts/MedicalRecords.sol\":1165:1191  new address[](recordCount) */\n      0xffffffffffffffff\n      dup2\n      gt\n      iszero\n      tag_144\n      jumpi\n      tag_144\n      tag_140\n      jump\t// in\n    tag_144:\n      mload(0x40)\n      swap1\n      dup1\n      dup3\n      mstore\n      dup1\n      0x20\n      mul\n      0x20\n      add\n      dup3\n      add\n      0x40\n      mstore\n      dup1\n      iszero\n      tag_145\n      jumpi\n      dup2\n      0x20\n      add\n      0x20\n      dup3\n      mul\n      dup1\n      calldatasize\n      dup4\n      calldatacopy\n      add\n      swap1\n      pop\n    tag_145:\n      pop\n        /* \"contracts/MedicalRecords.sol\":1152:1191  uploadedBy = new address[](recordCount) */\n      swap3\n      pop\n        /* \"contracts/MedicalRecords.sol\":1228:1239  recordCount */\n      dup1\n        /* \"contracts/MedicalRecords.sol\":1214:1240  new uint256[](recordCount) */\n      0xffffffffffffffff\n      dup2\n      gt\n      iszero\n      tag_147\n      jumpi\n      tag_147\n      tag_140\n      jump\t// in\n    tag_147:\n      mload(0x40)\n      swap1\n      dup1\n      dup3\n      mstore\n      dup1\n      0x20\n      mul\n      0x20\n      add\n      dup3\n      add\n      0x40\n      mstore\n      dup1\n      iszero\n      tag_148\n      jumpi\n      dup2\n      0x20\n      add\n      0x20\n      dup3\n      mul\n      dup1\n      calldatasize\n      dup4\n      calldatacopy\n      add\n      swap1\n      pop\n    tag_148:\n      pop\n        /* \"contracts/MedicalRecords.sol\":1201:1240  timestamps = new uint256[](recordCount) */\n      swap2\n      pop\n        /* \"contracts/MedicalRecords.sol\":1316:1325  uint256 i */\n      0x00\n        /* \"contracts/MedicalRecords.sol\":1311:1564  for (uint256 i = 0; i < recordCount; i++) {... */\n    tag_149:\n        /* \"contracts/MedicalRecords.sol\":1335:1346  recordCount */\n      dup2\n        /* \"contracts/MedicalRecords.sol\":1331:1332  i */\n      dup2\n        /* \"contracts/MedicalRecords.sol\":1331:1346  i < recordCount */\n      lt\n        /* \"contracts/MedicalRecords.sol\":1311:1564  for (uint256 i = 0; i < recordCount; i++) {... */\n      iszero\n      tag_150\n      jumpi\n      sub(shl(0xa0, 0x01), 0x01)\n        /* \"contracts/MedicalRecords.sol\":1397:1412  records[_owner] */\n      dup7\n      and\n        /* \"contracts/MedicalRecords.sol\":1367:1394  MedicalRecord memory record */\n      0x00\n        /* \"contracts/MedicalRecords.sol\":1397:1412  records[_owner] */\n      swap1\n      dup2\n      mstore\n        /* \"contracts/MedicalRecords.sol\":1397:1404  records */\n      0x02\n        /* \"contracts/MedicalRecords.sol\":1397:1412  records[_owner] */\n      0x20\n      mstore\n      0x40\n      dup2\n      keccak256\n        /* \"contracts/MedicalRecords.sol\":1397:1415  records[_owner][i] */\n      dup1\n      sload\n        /* \"contracts/MedicalRecords.sol\":1413:1414  i */\n      dup4\n      swap1\n        /* \"contracts/MedicalRecords.sol\":1397:1415  records[_owner][i] */\n      dup2\n      lt\n      tag_153\n      jumpi\n      tag_153\n      tag_120\n      jump\t// in\n    tag_153:\n      swap1\n      0x00\n      mstore\n      keccak256(0x00, 0x20)\n      swap1\n      0x03\n      mul\n      add\n        /* \"contracts/MedicalRecords.sol\":1367:1415  MedicalRecord memory record = records[_owner][i] */\n      mload(0x40)\n      dup1\n      0x60\n      add\n      0x40\n      mstore\n      swap1\n      dup2\n      0x00\n      dup3\n      add\n      dup1\n      sload\n      tag_155\n      swap1\n      tag_156\n      jump\t// in\n    tag_155:\n      dup1\n      0x1f\n      add\n      0x20\n      dup1\n      swap2\n      div\n      mul\n      0x20\n      add\n      mload(0x40)\n      swap1\n      dup2\n      add\n      0x40\n      mstore\n      dup1\n      swap3\n      swap2\n      swap1\n      dup2\n      dup2\n      mstore\n      0x20\n      add\n      dup3\n      dup1\n      sload\n      tag_157\n      swap1\n      tag_156\n      jump\t// in\n    tag_157:\n      dup1\n      iszero\n      tag_158\n      jumpi\n      dup1\n      0x1f\n      lt\n      tag_159\n      jumpi\n      0x0100\n      dup1\n      dup4\n      sload\n      div\n      mul\n      dup4\n      mstore\n      swap2\n      0x20\n      add\n      swap2\n      jump(tag_158)\n    tag_159:\n      dup3\n      add\n      swap2\n      swap1\n      0x00\n      mstore\n      keccak256(0x00, 0x20)\n      swap1\n    tag_160:\n      dup2\n      sload\n      dup2\n      mstore\n      swap1\n      0x01\n      add\n      swap1\n      0x20\n      add\n      dup1\n      dup4\n      gt\n      tag_160\n      jumpi\n      dup3\n      swap1\n      sub\n      0x1f\n      and\n      dup3\n      add\n      swap2\n    tag_158:\n      pop\n      pop\n      pop\n      swap2\n      dup4\n      mstore\n      pop\n      pop\n      0x01\n      dup3\n      add\n      sload\n      sub(shl(0xa0, 0x01), 0x01)\n      and\n      0x20\n      dup3\n      add\n      mstore\n      0x02\n      swap1\n      swap2\n      add\n      sload\n      0x40\n      swap1\n      swap2\n      add\n      mstore\n        /* \"contracts/MedicalRecords.sol\":1445:1460  record.ipfsHash */\n      dup1\n      mload\n        /* \"contracts/MedicalRecords.sol\":1429:1442  ipfsHashes[i] */\n      dup8\n      mload\n        /* \"contracts/MedicalRecords.sol\":1367:1415  MedicalRecord memory record = records[_owner][i] */\n      swap2\n      swap3\n      pop\n        /* \"contracts/MedicalRecords.sol\":1445:1460  record.ipfsHash */\n      swap1\n        /* \"contracts/MedicalRecords.sol\":1429:1439  ipfsHashes */\n      dup8\n      swap1\n        /* \"contracts/MedicalRecords.sol\":1440:1441  i */\n      dup5\n      swap1\n        /* \"contracts/MedicalRecords.sol\":1429:1442  ipfsHashes[i] */\n      dup2\n      lt\n      tag_162\n      jumpi\n      tag_162\n      tag_120\n      jump\t// in\n    tag_162:\n      0x20\n      mul\n      0x20\n      add\n      add\n        /* \"contracts/MedicalRecords.sol\":1429:1460  ipfsHashes[i] = record.ipfsHash */\n      dup2\n      swap1\n      mstore\n      pop\n        /* \"contracts/MedicalRecords.sol\":1490:1496  record */\n      dup1\n        /* \"contracts/MedicalRecords.sol\":1490:1507  record.uploadedBy */\n      0x20\n      add\n      mload\n        /* \"contracts/MedicalRecords.sol\":1474:1484  uploadedBy */\n      dup6\n        /* \"contracts/MedicalRecords.sol\":1485:1486  i */\n      dup4\n        /* \"contracts/MedicalRecords.sol\":1474:1487  uploadedBy[i] */\n      dup2\n      mload\n      dup2\n      lt\n      tag_164\n      jumpi\n      tag_164\n      tag_120\n      jump\t// in\n    tag_164:\n      0x20\n      mul\n      0x20\n      add\n      add\n        /* \"contracts/MedicalRecords.sol\":1474:1507  uploadedBy[i] = record.uploadedBy */\n      swap1\n      sub(shl(0xa0, 0x01), 0x01)\n      and\n      swap1\n      dup2\n      sub(shl(0xa0, 0x01), 0x01)\n      and\n      dup2\n      mstore\n      pop\n      pop\n        /* \"contracts/MedicalRecords.sol\":1537:1543  record */\n      dup1\n        /* \"contracts/MedicalRecords.sol\":1537:1553  record.timestamp */\n      0x40\n      add\n      mload\n        /* \"contracts/MedicalRecords.sol\":1521:1531  timestamps */\n      dup5\n        /* \"contracts/MedicalRecords.sol\":1532:1533  i */\n      dup4\n        /* \"contracts/MedicalRecords.sol\":1521:1534  timestamps[i] */\n      dup2\n      mload\n      dup2\n      lt\n      tag_166\n      jumpi\n      tag_166\n      tag_120\n      jump\t// in\n    tag_166:\n      0x20\n      swap1\n      dup2\n      mul\n      swap2\n      swap1\n      swap2\n      add\n      add\n        /* \"contracts/MedicalRecords.sol\":1521:1553  timestamps[i] = record.timestamp */\n      mstore\n      pop\n        /* \"contracts/MedicalRecords.sol\":1348:1351  i++ */\n      0x01\n      add\n        /* \"contracts/MedicalRecords.sol\":1311:1564  for (uint256 i = 0; i < recordCount; i++) {... */\n      jump(tag_149)\n    tag_150:\n      pop\n        /* \"contracts/MedicalRecords.sol\":924:1570  {... */\n      pop\n        /* \"contracts/MedicalRecords.sol\":781:1570  function getRecords(address _owner) public view returns (string[] memory ipfsHashes, address[] memory uploadedBy, uint256[] memory timestamps) {... */\n      swap2\n      swap4\n      swap1\n      swap3\n      pop\n      jump\t// out\n        /* \"contracts/MedicalRecords.sol\":377:721  function addRecord(string memory _ipfsHash) public {... */\n    tag_45:\n        /* \"contracts/MedicalRecords.sol\":472:473  0 */\n      0x00\n        /* \"contracts/MedicalRecords.sol\":452:461  _ipfsHash */\n      dup2\n        /* \"contracts/MedicalRecords.sol\":446:469  bytes(_ipfsHash).length */\n      mload\n        /* \"contracts/MedicalRecords.sol\":446:473  bytes(_ipfsHash).length > 0 */\n      gt\n        /* \"contracts/MedicalRecords.sol\":438:504  require(bytes(_ipfsHash).length > 0, \"IPFS hash cannot be empty.\") */\n      tag_168\n      jumpi\n      mload(0x40)\n      shl(0xe5, 0x461bcd)\n      dup2\n      mstore\n        /* \"#utility.yul\":10074:10076   */\n      0x20\n        /* \"contracts/MedicalRecords.sol\":438:504  require(bytes(_ipfsHash).length > 0, \"IPFS hash cannot be empty.\") */\n      0x04\n      dup3\n      add\n        /* \"#utility.yul\":10056:10077   */\n      mstore\n        /* \"#utility.yul\":10113:10115   */\n      0x1a\n        /* \"#utility.yul\":10093:10111   */\n      0x24\n      dup3\n      add\n        /* \"#utility.yul\":10086:10116   */\n      mstore\n        /* \"#utility.yul\":10152:10180   */\n      0x4950465320686173682063616e6e6f7420626520656d7074792e000000000000\n        /* \"#utility.yul\":10132:10150   */\n      0x44\n      dup3\n      add\n        /* \"#utility.yul\":10125:10181   */\n      mstore\n        /* \"#utility.yul\":10198:10216   */\n      0x64\n      add\n        /* \"contracts/MedicalRecords.sol\":438:504  require(bytes(_ipfsHash).length > 0, \"IPFS hash cannot be empty.\") */\n      tag_55\n        /* \"#utility.yul\":9872:10222   */\n      jump\n        /* \"contracts/MedicalRecords.sol\":438:504  require(bytes(_ipfsHash).length > 0, \"IPFS hash cannot be empty.\") */\n    tag_168:\n        /* \"contracts/MedicalRecords.sol\":527:537  msg.sender */\n      caller\n        /* \"contracts/MedicalRecords.sol\":556:557  0 */\n      0x00\n        /* \"contracts/MedicalRecords.sol\":522:538  dids[msg.sender] */\n      swap1\n      dup2\n      mstore\n      0x20\n      dup2\n      swap1\n      mstore\n      0x40\n      swap1\n      keccak256\n        /* \"contracts/MedicalRecords.sol\":522:544  dids[msg.sender].owner */\n      0x01\n      add\n      sload\n      sub(shl(0xa0, 0x01), 0x01)\n      and\n        /* \"contracts/MedicalRecords.sol\":514:576  require(dids[msg.sender].owner != address(0), \"No DID found.\") */\n      tag_171\n      jumpi\n      mload(0x40)\n      shl(0xe5, 0x461bcd)\n      dup2\n      mstore\n        /* \"#utility.yul\":5259:5261   */\n      0x20\n        /* \"contracts/MedicalRecords.sol\":514:576  require(dids[msg.sender].owner != address(0), \"No DID found.\") */\n      0x04\n      dup3\n      add\n        /* \"#utility.yul\":5241:5262   */\n      mstore\n        /* \"#utility.yul\":5298:5300   */\n      0x0d\n        /* \"#utility.yul\":5278:5296   */\n      0x24\n      dup3\n      add\n        /* \"#utility.yul\":5271:5301   */\n      mstore\n      shl(0x99, 0x2737902224a2103337bab73217)\n        /* \"#utility.yul\":5317:5335   */\n      0x44\n      dup3\n      add\n        /* \"#utility.yul\":5310:5353   */\n      mstore\n        /* \"#utility.yul\":5370:5388   */\n      0x64\n      add\n        /* \"contracts/MedicalRecords.sol\":514:576  require(dids[msg.sender].owner != address(0), \"No DID found.\") */\n      tag_55\n        /* \"#utility.yul\":5057:5394   */\n      jump\n        /* \"contracts/MedicalRecords.sol\":514:576  require(dids[msg.sender].owner != address(0), \"No DID found.\") */\n    tag_171:\n        /* \"contracts/MedicalRecords.sol\":594:604  msg.sender */\n      caller\n        /* \"contracts/MedicalRecords.sol\":586:605  records[msg.sender] */\n      0x00\n      dup2\n      dup2\n      mstore\n        /* \"contracts/MedicalRecords.sol\":586:593  records */\n      0x02\n        /* \"contracts/MedicalRecords.sol\":586:605  records[msg.sender] */\n      0x20\n      swap1\n      dup2\n      mstore\n      0x40\n      dup1\n      dup4\n      keccak256\n        /* \"contracts/MedicalRecords.sol\":611:664  MedicalRecord(_ipfsHash, msg.sender, block.timestamp) */\n      dup2\n      mload\n      0x60\n      dup2\n      add\n      dup4\n      mstore\n      dup7\n      dup2\n      mstore\n      dup1\n      dup5\n      add\n      swap6\n      swap1\n      swap6\n      mstore\n        /* \"contracts/MedicalRecords.sol\":648:663  block.timestamp */\n      timestamp\n        /* \"contracts/MedicalRecords.sol\":611:664  MedicalRecord(_ipfsHash, msg.sender, block.timestamp) */\n      swap2\n      dup6\n      add\n      swap2\n      swap1\n      swap2\n      mstore\n        /* \"contracts/MedicalRecords.sol\":586:665  records[msg.sender].push(MedicalRecord(_ipfsHash, msg.sender, block.timestamp)) */\n      dup1\n      sload\n      0x01\n      dup2\n      add\n      dup3\n      sstore\n      swap1\n      dup4\n      mstore\n      swap2\n      keccak256\n      dup3\n      mload\n      0x03\n      swap1\n      swap3\n      mul\n      add\n      swap1\n      dup2\n      swap1\n      tag_174\n      swap1\n      dup3\n      tag_93\n      jump\t// in\n    tag_174:\n      pop\n      0x20\n      dup3\n      add\n      mload\n      0x01\n      dup3\n      add\n      dup1\n      sload\n      not(sub(shl(0xa0, 0x01), 0x01))\n      and\n      sub(shl(0xa0, 0x01), 0x01)\n      swap1\n      swap3\n      and\n      swap2\n      swap1\n      swap2\n      or\n      swap1\n      sstore\n      0x40\n      swap2\n      dup3\n      add\n      mload\n      0x02\n      swap1\n      swap2\n      add\n      sstore\n        /* \"contracts/MedicalRecords.sol\":680:714  RecordAdded(msg.sender, _ipfsHash) */\n      mload\n        /* \"contracts/MedicalRecords.sol\":692:702  msg.sender */\n      caller\n      swap1\n        /* \"contracts/MedicalRecords.sol\":680:714  RecordAdded(msg.sender, _ipfsHash) */\n      0x44626cfec8a165f72396cc5e247c6b96279f8c205a8d07c390df7aa5806205fa\n      swap1\n      tag_96\n      swap1\n        /* \"contracts/MedicalRecords.sol\":704:713  _ipfsHash */\n      dup5\n      swap1\n        /* \"contracts/MedicalRecords.sol\":680:714  RecordAdded(msg.sender, _ipfsHash) */\n      tag_21\n      jump\t// in\n        /* \"contracts/DIDRegistry.sol\":1018:1222  function assignRole(Roles _role) public {... */\n    tag_48:\n        /* \"contracts/DIDRegistry.sol\":1081:1091  msg.sender */\n      caller\n        /* \"contracts/DIDRegistry.sol\":1110:1111  0 */\n      0x00\n        /* \"contracts/DIDRegistry.sol\":1076:1092  dids[msg.sender] */\n      swap1\n      dup2\n      mstore\n      0x20\n      dup2\n      swap1\n      mstore\n      0x40\n      swap1\n      keccak256\n        /* \"contracts/DIDRegistry.sol\":1076:1098  dids[msg.sender].owner */\n      0x01\n      add\n      sload\n      sub(shl(0xa0, 0x01), 0x01)\n      and\n        /* \"contracts/DIDRegistry.sol\":1068:1130  require(dids[msg.sender].owner != address(0), \"No DID found.\") */\n      tag_177\n      jumpi\n      mload(0x40)\n      shl(0xe5, 0x461bcd)\n      dup2\n      mstore\n        /* \"#utility.yul\":5259:5261   */\n      0x20\n        /* \"contracts/DIDRegistry.sol\":1068:1130  require(dids[msg.sender].owner != address(0), \"No DID found.\") */\n      0x04\n      dup3\n      add\n        /* \"#utility.yul\":5241:5262   */\n      mstore\n        /* \"#utility.yul\":5298:5300   */\n      0x0d\n        /* \"#utility.yul\":5278:5296   */\n      0x24\n      dup3\n      add\n        /* \"#utility.yul\":5271:5301   */\n      mstore\n      shl(0x99, 0x2737902224a2103337bab73217)\n        /* \"#utility.yul\":5317:5335   */\n      0x44\n      dup3\n      add\n        /* \"#utility.yul\":5310:5353   */\n      mstore\n        /* \"#utility.yul\":5370:5388   */\n      0x64\n      add\n        /* \"contracts/DIDRegistry.sol\":1068:1130  require(dids[msg.sender].owner != address(0), \"No DID found.\") */\n      tag_55\n        /* \"#utility.yul\":5057:5394   */\n      jump\n        /* \"contracts/DIDRegistry.sol\":1068:1130  require(dids[msg.sender].owner != address(0), \"No DID found.\") */\n    tag_177:\n        /* \"contracts/DIDRegistry.sol\":1145:1155  msg.sender */\n      caller\n        /* \"contracts/DIDRegistry.sol\":1140:1144  dids */\n      0x00\n        /* \"contracts/DIDRegistry.sol\":1140:1156  dids[msg.sender] */\n      swap1\n      dup2\n      mstore\n      0x20\n      dup2\n      swap1\n      mstore\n      0x40\n      swap1\n      keccak256\n        /* \"contracts/DIDRegistry.sol\":1140:1161  dids[msg.sender].role */\n      0x01\n      add\n        /* \"contracts/DIDRegistry.sol\":1140:1169  dids[msg.sender].role = _role */\n      dup1\n      sload\n        /* \"contracts/DIDRegistry.sol\":1164:1169  _role */\n      dup3\n      swap2\n        /* \"contracts/DIDRegistry.sol\":1140:1161  dids[msg.sender].role */\n      swap1\n      not(shl(0xa0, 0xff))\n        /* \"contracts/DIDRegistry.sol\":1140:1169  dids[msg.sender].role = _role */\n      and\n      shl(0xa0, 0x01)\n        /* \"contracts/DIDRegistry.sol\":1164:1169  _role */\n      dup4\n        /* \"contracts/DIDRegistry.sol\":1140:1169  dids[msg.sender].role = _role */\n      0x02\n      dup2\n      gt\n      iszero\n      tag_180\n      jumpi\n      tag_180\n      tag_66\n      jump\t// in\n    tag_180:\n      mul\n      or\n      swap1\n      sstore\n      pop\n        /* \"contracts/DIDRegistry.sol\":1197:1207  msg.sender */\n      caller\n      sub(shl(0xa0, 0x01), 0x01)\n        /* \"contracts/DIDRegistry.sol\":1184:1215  RoleAssigned(msg.sender, _role) */\n      and\n      0x4ac36fa53f167ceb85964be512e01de2a3b8bdb9862f917da079deeeff689b38\n        /* \"contracts/DIDRegistry.sol\":1209:1214  _role */\n      dup3\n        /* \"contracts/DIDRegistry.sol\":1184:1215  RoleAssigned(msg.sender, _role) */\n      mload(0x40)\n      tag_96\n      swap2\n      swap1\n      tag_52\n      jump\t// in\n        /* \"contracts/DIDRegistry.sol\":1615:1779  function getRole() public view returns (Roles) {... */\n    tag_50:\n        /* \"contracts/DIDRegistry.sol\":1685:1695  msg.sender */\n      caller\n        /* \"contracts/DIDRegistry.sol\":1655:1660  Roles */\n      0x00\n        /* \"contracts/DIDRegistry.sol\":1680:1696  dids[msg.sender] */\n      swap1\n      dup2\n      mstore\n      0x20\n      dup2\n      swap1\n      mstore\n      0x40\n      dup2\n      keccak256\n        /* \"contracts/DIDRegistry.sol\":1680:1702  dids[msg.sender].owner */\n      0x01\n      add\n      sload\n      sub(shl(0xa0, 0x01), 0x01)\n      and\n        /* \"contracts/DIDRegistry.sol\":1672:1734  require(dids[msg.sender].owner != address(0), \"No DID found.\") */\n      tag_183\n      jumpi\n      mload(0x40)\n      shl(0xe5, 0x461bcd)\n      dup2\n      mstore\n        /* \"#utility.yul\":5259:5261   */\n      0x20\n        /* \"contracts/DIDRegistry.sol\":1672:1734  require(dids[msg.sender].owner != address(0), \"No DID found.\") */\n      0x04\n      dup3\n      add\n        /* \"#utility.yul\":5241:5262   */\n      mstore\n        /* \"#utility.yul\":5298:5300   */\n      0x0d\n        /* \"#utility.yul\":5278:5296   */\n      0x24\n      dup3\n      add\n        /* \"#utility.yul\":5271:5301   */\n      mstore\n      shl(0x99, 0x2737902224a2103337bab73217)\n        /* \"#utility.yul\":5317:5335   */\n      0x44\n      dup3\n      add\n        /* \"#utility.yul\":5310:5353   */\n      mstore\n        /* \"#utility.yul\":5370:5388   */\n      0x64\n      add\n        /* \"contracts/DIDRegistry.sol\":1672:1734  require(dids[msg.sender].owner != address(0), \"No DID found.\") */\n      tag_55\n        /* \"#utility.yul\":5057:5394   */\n      jump\n        /* \"contracts/DIDRegistry.sol\":1672:1734  require(dids[msg.sender].owner != address(0), \"No DID found.\") */\n    tag_183:\n      pop\n        /* \"contracts/DIDRegistry.sol\":1756:1766  msg.sender */\n      caller\n        /* \"contracts/DIDRegistry.sol\":1751:1755  dids */\n      0x00\n        /* \"contracts/DIDRegistry.sol\":1751:1767  dids[msg.sender] */\n      swap1\n      dup2\n      mstore\n      0x20\n      dup2\n      swap1\n      mstore\n      0x40\n      swap1\n      keccak256\n        /* \"contracts/DIDRegistry.sol\":1751:1772  dids[msg.sender].role */\n      0x01\n      add\n      sload\n      shl(0xa0, 0x01)\n      swap1\n      div\n      0xff\n      and\n      swap1\n        /* \"contracts/DIDRegistry.sol\":1615:1779  function getRole() public view returns (Roles) {... */\n      jump\t// out\n        /* \"#utility.yul\":14:323   */\n    tag_16:\n        /* \"#utility.yul\":73:79   */\n      0x00\n        /* \"#utility.yul\":126:128   */\n      0x20\n        /* \"#utility.yul\":114:123   */\n      dup3\n        /* \"#utility.yul\":105:112   */\n      dup5\n        /* \"#utility.yul\":101:124   */\n      sub\n        /* \"#utility.yul\":97:129   */\n      slt\n        /* \"#utility.yul\":94:146   */\n      iszero\n      tag_192\n      jumpi\n        /* \"#utility.yul\":142:143   */\n      0x00\n        /* \"#utility.yul\":139:140   */\n      dup1\n        /* \"#utility.yul\":132:144   */\n      revert\n        /* \"#utility.yul\":94:146   */\n    tag_192:\n        /* \"#utility.yul\":181:190   */\n      dup2\n        /* \"#utility.yul\":168:191   */\n      calldataload\n      sub(shl(0xa0, 0x01), 0x01)\n        /* \"#utility.yul\":224:229   */\n      dup2\n        /* \"#utility.yul\":220:274   */\n      and\n        /* \"#utility.yul\":213:218   */\n      dup2\n        /* \"#utility.yul\":210:275   */\n      eq\n        /* \"#utility.yul\":200:293   */\n      tag_193\n      jumpi\n        /* \"#utility.yul\":289:290   */\n      0x00\n        /* \"#utility.yul\":286:287   */\n      dup1\n        /* \"#utility.yul\":279:291   */\n      revert\n        /* \"#utility.yul\":200:293   */\n    tag_193:\n        /* \"#utility.yul\":312:317   */\n      swap4\n        /* \"#utility.yul\":14:323   */\n      swap3\n      pop\n      pop\n      pop\n      jump\t// out\n        /* \"#utility.yul\":328:728   */\n    tag_185:\n        /* \"#utility.yul\":370:373   */\n      0x00\n        /* \"#utility.yul\":408:413   */\n      dup2\n        /* \"#utility.yul\":402:414   */\n      mload\n        /* \"#utility.yul\":435:441   */\n      dup1\n        /* \"#utility.yul\":430:433   */\n      dup5\n        /* \"#utility.yul\":423:442   */\n      mstore\n        /* \"#utility.yul\":460:461   */\n      0x00\n        /* \"#utility.yul\":470:609   */\n    tag_195:\n        /* \"#utility.yul\":484:490   */\n      dup2\n        /* \"#utility.yul\":481:482   */\n      dup2\n        /* \"#utility.yul\":478:491   */\n      lt\n        /* \"#utility.yul\":470:609   */\n      iszero\n      tag_197\n      jumpi\n        /* \"#utility.yul\":592:596   */\n      0x20\n        /* \"#utility.yul\":577:590   */\n      dup2\n      dup6\n      add\n        /* \"#utility.yul\":573:597   */\n      dup2\n      add\n        /* \"#utility.yul\":567:598   */\n      mload\n        /* \"#utility.yul\":547:558   */\n      dup7\n      dup4\n      add\n        /* \"#utility.yul\":543:565   */\n      dup3\n      add\n        /* \"#utility.yul\":536:599   */\n      mstore\n        /* \"#utility.yul\":499:511   */\n      add\n        /* \"#utility.yul\":470:609   */\n      jump(tag_195)\n    tag_197:\n        /* \"#utility.yul\":474:477   */\n      pop\n        /* \"#utility.yul\":654:655   */\n      0x00\n        /* \"#utility.yul\":647:651   */\n      0x20\n        /* \"#utility.yul\":638:644   */\n      dup3\n        /* \"#utility.yul\":633:636   */\n      dup7\n        /* \"#utility.yul\":629:645   */\n      add\n        /* \"#utility.yul\":625:652   */\n      add\n        /* \"#utility.yul\":618:656   */\n      mstore\n        /* \"#utility.yul\":717:721   */\n      0x20\n        /* \"#utility.yul\":710:712   */\n      0x1f\n        /* \"#utility.yul\":706:713   */\n      not\n        /* \"#utility.yul\":701:703   */\n      0x1f\n        /* \"#utility.yul\":693:699   */\n      dup4\n        /* \"#utility.yul\":689:704   */\n      add\n        /* \"#utility.yul\":685:714   */\n      and\n        /* \"#utility.yul\":680:683   */\n      dup6\n        /* \"#utility.yul\":676:715   */\n      add\n        /* \"#utility.yul\":672:722   */\n      add\n        /* \"#utility.yul\":665:722   */\n      swap2\n      pop\n      pop\n        /* \"#utility.yul\":328:728   */\n      swap3\n      swap2\n      pop\n      pop\n      jump\t// out\n        /* \"#utility.yul\":733:953   */\n    tag_21:\n        /* \"#utility.yul\":882:884   */\n      0x20\n        /* \"#utility.yul\":871:880   */\n      dup2\n        /* \"#utility.yul\":864:885   */\n      mstore\n        /* \"#utility.yul\":845:849   */\n      0x00\n        /* \"#utility.yul\":902:947   */\n      tag_193\n        /* \"#utility.yul\":943:945   */\n      0x20\n        /* \"#utility.yul\":932:941   */\n      dup4\n        /* \"#utility.yul\":928:946   */\n      add\n        /* \"#utility.yul\":920:926   */\n      dup5\n        /* \"#utility.yul\":902:947   */\n      tag_185\n      jump\t// in\n        /* \"#utility.yul\":958:1427   */\n    tag_186:\n        /* \"#utility.yul\":1011:1014   */\n      0x00\n        /* \"#utility.yul\":1049:1054   */\n      dup2\n        /* \"#utility.yul\":1043:1055   */\n      mload\n        /* \"#utility.yul\":1076:1082   */\n      dup1\n        /* \"#utility.yul\":1071:1074   */\n      dup5\n        /* \"#utility.yul\":1064:1083   */\n      mstore\n        /* \"#utility.yul\":1108:1112   */\n      0x20\n        /* \"#utility.yul\":1103:1106   */\n      dup5\n        /* \"#utility.yul\":1099:1113   */\n      add\n        /* \"#utility.yul\":1092:1113   */\n      swap4\n      pop\n        /* \"#utility.yul\":1147:1151   */\n      0x20\n        /* \"#utility.yul\":1140:1145   */\n      dup4\n        /* \"#utility.yul\":1136:1152   */\n      add\n        /* \"#utility.yul\":1170:1171   */\n      0x00\n        /* \"#utility.yul\":1180:1402   */\n    tag_201:\n        /* \"#utility.yul\":1194:1200   */\n      dup3\n        /* \"#utility.yul\":1191:1192   */\n      dup2\n        /* \"#utility.yul\":1188:1201   */\n      lt\n        /* \"#utility.yul\":1180:1402   */\n      iszero\n      tag_203\n      jumpi\n        /* \"#utility.yul\":1259:1272   */\n      dup2\n      mload\n      sub(shl(0xa0, 0x01), 0x01)\n        /* \"#utility.yul\":1255:1317   */\n      and\n        /* \"#utility.yul\":1243:1318   */\n      dup7\n      mstore\n        /* \"#utility.yul\":1347:1351   */\n      0x20\n        /* \"#utility.yul\":1338:1352   */\n      swap6\n      dup7\n      add\n      swap6\n        /* \"#utility.yul\":1375:1392   */\n      swap1\n      swap2\n      add\n      swap1\n        /* \"#utility.yul\":1216:1217   */\n      0x01\n        /* \"#utility.yul\":1209:1218   */\n      add\n        /* \"#utility.yul\":1180:1402   */\n      jump(tag_201)\n    tag_203:\n      pop\n        /* \"#utility.yul\":1418:1421   */\n      swap4\n      swap5\n        /* \"#utility.yul\":958:1427   */\n      swap4\n      pop\n      pop\n      pop\n      pop\n      jump\t// out\n        /* \"#utility.yul\":1432:1693   */\n    tag_26:\n        /* \"#utility.yul\":1611:1613   */\n      0x20\n        /* \"#utility.yul\":1600:1609   */\n      dup2\n        /* \"#utility.yul\":1593:1614   */\n      mstore\n        /* \"#utility.yul\":1574:1578   */\n      0x00\n        /* \"#utility.yul\":1631:1687   */\n      tag_193\n        /* \"#utility.yul\":1683:1685   */\n      0x20\n        /* \"#utility.yul\":1672:1681   */\n      dup4\n        /* \"#utility.yul\":1668:1686   */\n      add\n        /* \"#utility.yul\":1660:1666   */\n      dup5\n        /* \"#utility.yul\":1631:1687   */\n      tag_186\n      jump\t// in\n        /* \"#utility.yul\":1698:1825   */\n    tag_140:\n        /* \"#utility.yul\":1759:1769   */\n      0x4e487b71\n        /* \"#utility.yul\":1754:1757   */\n      0xe0\n        /* \"#utility.yul\":1750:1770   */\n      shl\n        /* \"#utility.yul\":1747:1748   */\n      0x00\n        /* \"#utility.yul\":1740:1771   */\n      mstore\n        /* \"#utility.yul\":1790:1794   */\n      0x41\n        /* \"#utility.yul\":1787:1788   */\n      0x04\n        /* \"#utility.yul\":1780:1795   */\n      mstore\n        /* \"#utility.yul\":1814:1818   */\n      0x24\n        /* \"#utility.yul\":1811:1812   */\n      0x00\n        /* \"#utility.yul\":1804:1819   */\n      revert\n        /* \"#utility.yul\":1830:2775   */\n    tag_29:\n        /* \"#utility.yul\":1899:1905   */\n      0x00\n        /* \"#utility.yul\":1952:1954   */\n      0x20\n        /* \"#utility.yul\":1940:1949   */\n      dup3\n        /* \"#utility.yul\":1931:1938   */\n      dup5\n        /* \"#utility.yul\":1927:1950   */\n      sub\n        /* \"#utility.yul\":1923:1955   */\n      slt\n        /* \"#utility.yul\":1920:1972   */\n      iszero\n      tag_208\n      jumpi\n        /* \"#utility.yul\":1968:1969   */\n      0x00\n        /* \"#utility.yul\":1965:1966   */\n      dup1\n        /* \"#utility.yul\":1958:1970   */\n      revert\n        /* \"#utility.yul\":1920:1972   */\n    tag_208:\n        /* \"#utility.yul\":2008:2017   */\n      dup2\n        /* \"#utility.yul\":1995:2018   */\n      calldataload\n        /* \"#utility.yul\":2041:2059   */\n      0xffffffffffffffff\n        /* \"#utility.yul\":2033:2039   */\n      dup2\n        /* \"#utility.yul\":2030:2060   */\n      gt\n        /* \"#utility.yul\":2027:2077   */\n      iszero\n      tag_209\n      jumpi\n        /* \"#utility.yul\":2073:2074   */\n      0x00\n        /* \"#utility.yul\":2070:2071   */\n      dup1\n        /* \"#utility.yul\":2063:2075   */\n      revert\n        /* \"#utility.yul\":2027:2077   */\n    tag_209:\n        /* \"#utility.yul\":2096:2118   */\n      dup3\n      add\n        /* \"#utility.yul\":2149:2153   */\n      0x1f\n        /* \"#utility.yul\":2141:2154   */\n      dup2\n      add\n        /* \"#utility.yul\":2137:2164   */\n      dup5\n      sgt\n        /* \"#utility.yul\":2127:2182   */\n      tag_210\n      jumpi\n        /* \"#utility.yul\":2178:2179   */\n      0x00\n        /* \"#utility.yul\":2175:2176   */\n      dup1\n        /* \"#utility.yul\":2168:2180   */\n      revert\n        /* \"#utility.yul\":2127:2182   */\n    tag_210:\n        /* \"#utility.yul\":2218:2220   */\n      dup1\n        /* \"#utility.yul\":2205:2221   */\n      calldataload\n        /* \"#utility.yul\":2244:2262   */\n      0xffffffffffffffff\n        /* \"#utility.yul\":2236:2242   */\n      dup2\n        /* \"#utility.yul\":2233:2263   */\n      gt\n        /* \"#utility.yul\":2230:2286   */\n      iszero\n      tag_212\n      jumpi\n        /* \"#utility.yul\":2266:2284   */\n      tag_212\n      tag_140\n      jump\t// in\n    tag_212:\n        /* \"#utility.yul\":2315:2317   */\n      0x40\n        /* \"#utility.yul\":2309:2318   */\n      mload\n        /* \"#utility.yul\":2407:2409   */\n      0x1f\n        /* \"#utility.yul\":2369:2386   */\n      dup3\n      add\n      not(0x1f)\n        /* \"#utility.yul\":2365:2396   */\n      swap1\n      dup2\n      and\n        /* \"#utility.yul\":2398:2400   */\n      0x3f\n        /* \"#utility.yul\":2361:2401   */\n      add\n        /* \"#utility.yul\":2357:2411   */\n      and\n        /* \"#utility.yul\":2345:2412   */\n      dup2\n      add\n        /* \"#utility.yul\":2442:2460   */\n      0xffffffffffffffff\n        /* \"#utility.yul\":2427:2461   */\n      dup2\n      gt\n        /* \"#utility.yul\":2463:2485   */\n      dup3\n      dup3\n      lt\n        /* \"#utility.yul\":2424:2486   */\n      or\n        /* \"#utility.yul\":2421:2509   */\n      iszero\n      tag_214\n      jumpi\n        /* \"#utility.yul\":2489:2507   */\n      tag_214\n      tag_140\n      jump\t// in\n    tag_214:\n        /* \"#utility.yul\":2525:2527   */\n      0x40\n        /* \"#utility.yul\":2518:2540   */\n      mstore\n        /* \"#utility.yul\":2549:2571   */\n      dup2\n      dup2\n      mstore\n        /* \"#utility.yul\":2590:2605   */\n      dup3\n      dup3\n      add\n        /* \"#utility.yul\":2607:2609   */\n      0x20\n        /* \"#utility.yul\":2586:2610   */\n      add\n        /* \"#utility.yul\":2583:2620   */\n      dup7\n      lt\n        /* \"#utility.yul\":2580:2637   */\n      iszero\n      tag_215\n      jumpi\n        /* \"#utility.yul\":2633:2634   */\n      0x00\n        /* \"#utility.yul\":2630:2631   */\n      dup1\n        /* \"#utility.yul\":2623:2635   */\n      revert\n        /* \"#utility.yul\":2580:2637   */\n    tag_215:\n        /* \"#utility.yul\":2689:2695   */\n      dup2\n        /* \"#utility.yul\":2684:2686   */\n      0x20\n        /* \"#utility.yul\":2680:2682   */\n      dup5\n        /* \"#utility.yul\":2676:2687   */\n      add\n        /* \"#utility.yul\":2671:2673   */\n      0x20\n        /* \"#utility.yul\":2663:2669   */\n      dup4\n        /* \"#utility.yul\":2659:2674   */\n      add\n        /* \"#utility.yul\":2646:2696   */\n      calldatacopy\n        /* \"#utility.yul\":2742:2743   */\n      0x00\n        /* \"#utility.yul\":2716:2735   */\n      swap2\n      dup2\n      add\n        /* \"#utility.yul\":2737:2739   */\n      0x20\n        /* \"#utility.yul\":2712:2740   */\n      add\n        /* \"#utility.yul\":2705:2744   */\n      swap2\n      swap1\n      swap2\n      mstore\n        /* \"#utility.yul\":2720:2726   */\n      swap5\n        /* \"#utility.yul\":1830:2775   */\n      swap4\n      pop\n      pop\n      pop\n      pop\n      jump\t// out\n        /* \"#utility.yul\":2780:3043   */\n    tag_33:\n        /* \"#utility.yul\":2846:2852   */\n      0x00\n        /* \"#utility.yul\":2899:2901   */\n      0x20\n        /* \"#utility.yul\":2887:2896   */\n      dup3\n        /* \"#utility.yul\":2878:2885   */\n      dup5\n        /* \"#utility.yul\":2874:2897   */\n      sub\n        /* \"#utility.yul\":2870:2902   */\n      slt\n        /* \"#utility.yul\":2867:2919   */\n      iszero\n      tag_217\n      jumpi\n        /* \"#utility.yul\":2915:2916   */\n      0x00\n        /* \"#utility.yul\":2912:2913   */\n      dup1\n        /* \"#utility.yul\":2905:2917   */\n      revert\n        /* \"#utility.yul\":2867:2919   */\n    tag_217:\n        /* \"#utility.yul\":2954:2963   */\n      dup2\n        /* \"#utility.yul\":2941:2964   */\n      calldataload\n        /* \"#utility.yul\":2993:2994   */\n      0x03\n        /* \"#utility.yul\":2986:2991   */\n      dup2\n        /* \"#utility.yul\":2983:2995   */\n      lt\n        /* \"#utility.yul\":2973:3013   */\n      tag_193\n      jumpi\n        /* \"#utility.yul\":3009:3010   */\n      0x00\n        /* \"#utility.yul\":3006:3007   */\n      dup1\n        /* \"#utility.yul\":2999:3011   */\n      revert\n        /* \"#utility.yul\":3048:4580   */\n    tag_42:\n        /* \"#utility.yul\":3366:3370   */\n      0x00\n        /* \"#utility.yul\":3414:3416   */\n      0x60\n        /* \"#utility.yul\":3403:3412   */\n      dup3\n        /* \"#utility.yul\":3399:3417   */\n      add\n        /* \"#utility.yul\":3444:3446   */\n      0x60\n        /* \"#utility.yul\":3433:3442   */\n      dup4\n        /* \"#utility.yul\":3426:3447   */\n      mstore\n        /* \"#utility.yul\":3467:3473   */\n      dup1\n        /* \"#utility.yul\":3502:3508   */\n      dup7\n        /* \"#utility.yul\":3496:3509   */\n      mload\n        /* \"#utility.yul\":3533:3539   */\n      dup1\n        /* \"#utility.yul\":3525:3531   */\n      dup4\n        /* \"#utility.yul\":3518:3540   */\n      mstore\n        /* \"#utility.yul\":3571:3574   */\n      0x80\n        /* \"#utility.yul\":3560:3569   */\n      dup6\n        /* \"#utility.yul\":3556:3575   */\n      add\n        /* \"#utility.yul\":3549:3575   */\n      swap2\n      pop\n        /* \"#utility.yul\":3634:3637   */\n      0x80\n        /* \"#utility.yul\":3624:3630   */\n      dup2\n        /* \"#utility.yul\":3621:3622   */\n      0x05\n        /* \"#utility.yul\":3617:3631   */\n      shl\n        /* \"#utility.yul\":3606:3615   */\n      dup7\n        /* \"#utility.yul\":3602:3632   */\n      add\n        /* \"#utility.yul\":3598:3638   */\n      add\n        /* \"#utility.yul\":3584:3638   */\n      swap3\n      pop\n        /* \"#utility.yul\":3673:3677   */\n      0x20\n        /* \"#utility.yul\":3665:3671   */\n      dup9\n        /* \"#utility.yul\":3661:3678   */\n      add\n        /* \"#utility.yul\":3696:3697   */\n      0x00\n        /* \"#utility.yul\":3706:3966   */\n    tag_220:\n        /* \"#utility.yul\":3720:3726   */\n      dup3\n        /* \"#utility.yul\":3717:3718   */\n      dup2\n        /* \"#utility.yul\":3714:3727   */\n      lt\n        /* \"#utility.yul\":3706:3966   */\n      iszero\n      tag_222\n      jumpi\n        /* \"#utility.yul\":3813:3816   */\n      0x7f\n        /* \"#utility.yul\":3809:3817   */\n      not\n        /* \"#utility.yul\":3797:3806   */\n      dup8\n        /* \"#utility.yul\":3789:3795   */\n      dup7\n        /* \"#utility.yul\":3785:3807   */\n      sub\n        /* \"#utility.yul\":3781:3818   */\n      add\n        /* \"#utility.yul\":3776:3779   */\n      dup5\n        /* \"#utility.yul\":3769:3819   */\n      mstore\n        /* \"#utility.yul\":3842:3882   */\n      tag_223\n        /* \"#utility.yul\":3875:3881   */\n      dup6\n        /* \"#utility.yul\":3866:3872   */\n      dup4\n        /* \"#utility.yul\":3860:3873   */\n      mload\n        /* \"#utility.yul\":3842:3882   */\n      tag_185\n      jump\t// in\n    tag_223:\n        /* \"#utility.yul\":3832:3882   */\n      swap5\n      pop\n        /* \"#utility.yul\":3917:3921   */\n      0x20\n        /* \"#utility.yul\":3942:3956   */\n      swap4\n      dup5\n      add\n      swap4\n        /* \"#utility.yul\":3905:3922   */\n      swap2\n      swap1\n      swap2\n      add\n      swap1\n        /* \"#utility.yul\":3742:3743   */\n      0x01\n        /* \"#utility.yul\":3735:3744   */\n      add\n        /* \"#utility.yul\":3706:3966   */\n      jump(tag_220)\n    tag_222:\n        /* \"#utility.yul\":3710:3713   */\n      pop\n      pop\n      pop\n      pop\n        /* \"#utility.yul\":4016:4025   */\n      dup3\n        /* \"#utility.yul\":4008:4014   */\n      dup2\n        /* \"#utility.yul\":4004:4026   */\n      sub\n        /* \"#utility.yul\":3997:4001   */\n      0x20\n        /* \"#utility.yul\":3986:3995   */\n      dup5\n        /* \"#utility.yul\":3982:4002   */\n      add\n        /* \"#utility.yul\":3975:4027   */\n      mstore\n        /* \"#utility.yul\":4050:4094   */\n      tag_224\n        /* \"#utility.yul\":4087:4093   */\n      dup2\n        /* \"#utility.yul\":4079:4085   */\n      dup7\n        /* \"#utility.yul\":4050:4094   */\n      tag_186\n      jump\t// in\n    tag_224:\n        /* \"#utility.yul\":4130:4152   */\n      dup4\n      dup2\n      sub\n        /* \"#utility.yul\":4125:4127   */\n      0x40\n        /* \"#utility.yul\":4110:4128   */\n      dup6\n      add\n        /* \"#utility.yul\":4103:4153   */\n      mstore\n        /* \"#utility.yul\":4206:4219   */\n      dup5\n      mload\n        /* \"#utility.yul\":4228:4252   */\n      dup1\n      dup3\n      mstore\n        /* \"#utility.yul\":4282:4286   */\n      0x20\n        /* \"#utility.yul\":4312:4329   */\n      dup1\n      dup8\n      add\n      swap4\n      pop\n        /* \"#utility.yul\":4270:4287   */\n      swap1\n      swap2\n      add\n      swap1\n        /* \"#utility.yul\":4349:4350   */\n      0x00\n        /* \"#utility.yul\":4359:4552   */\n    tag_225:\n        /* \"#utility.yul\":4375:4383   */\n      dup2\n        /* \"#utility.yul\":4370:4373   */\n      dup2\n        /* \"#utility.yul\":4367:4384   */\n      lt\n        /* \"#utility.yul\":4359:4552   */\n      iszero\n      tag_227\n      jumpi\n        /* \"#utility.yul\":4444:4459   */\n      dup4\n      mload\n        /* \"#utility.yul\":4430:4460   */\n      dup4\n      mstore\n        /* \"#utility.yul\":4493:4497   */\n      0x20\n        /* \"#utility.yul\":4523:4542   */\n      swap4\n      dup5\n      add\n      swap4\n        /* \"#utility.yul\":4482:4498   */\n      swap1\n      swap3\n      add\n      swap2\n        /* \"#utility.yul\":4403:4404   */\n      0x01\n        /* \"#utility.yul\":4394:4405   */\n      add\n        /* \"#utility.yul\":4359:4552   */\n      jump(tag_225)\n    tag_227:\n      pop\n        /* \"#utility.yul\":4569:4574   */\n      swap1\n      swap8\n        /* \"#utility.yul\":3048:4580   */\n      swap7\n      pop\n      pop\n      pop\n      pop\n      pop\n      pop\n      pop\n      jump\t// out\n        /* \"#utility.yul\":4585:4712   */\n    tag_66:\n        /* \"#utility.yul\":4646:4656   */\n      0x4e487b71\n        /* \"#utility.yul\":4641:4644   */\n      0xe0\n        /* \"#utility.yul\":4637:4657   */\n      shl\n        /* \"#utility.yul\":4634:4635   */\n      0x00\n        /* \"#utility.yul\":4627:4658   */\n      mstore\n        /* \"#utility.yul\":4677:4681   */\n      0x21\n        /* \"#utility.yul\":4674:4675   */\n      0x04\n        /* \"#utility.yul\":4667:4682   */\n      mstore\n        /* \"#utility.yul\":4701:4705   */\n      0x24\n        /* \"#utility.yul\":4698:4699   */\n      0x00\n        /* \"#utility.yul\":4691:4706   */\n      revert\n        /* \"#utility.yul\":4717:5052   */\n    tag_52:\n        /* \"#utility.yul\":4856:4858   */\n      0x20\n        /* \"#utility.yul\":4841:4859   */\n      dup2\n      add\n        /* \"#utility.yul\":4889:4890   */\n      0x03\n        /* \"#utility.yul\":4878:4891   */\n      dup4\n      lt\n        /* \"#utility.yul\":4868:5012   */\n      tag_230\n      jumpi\n        /* \"#utility.yul\":4934:4944   */\n      0x4e487b71\n        /* \"#utility.yul\":4929:4932   */\n      0xe0\n        /* \"#utility.yul\":4925:4945   */\n      shl\n        /* \"#utility.yul\":4922:4923   */\n      0x00\n        /* \"#utility.yul\":4915:4946   */\n      mstore\n        /* \"#utility.yul\":4969:4973   */\n      0x21\n        /* \"#utility.yul\":4966:4967   */\n      0x04\n        /* \"#utility.yul\":4959:4974   */\n      mstore\n        /* \"#utility.yul\":4997:5001   */\n      0x24\n        /* \"#utility.yul\":4994:4995   */\n      0x00\n        /* \"#utility.yul\":4987:5002   */\n      revert\n        /* \"#utility.yul\":4868:5012   */\n    tag_230:\n        /* \"#utility.yul\":5021:5046   */\n      swap2\n      swap1\n      mstore\n        /* \"#utility.yul\":4717:5052   */\n      swap1\n      jump\t// out\n        /* \"#utility.yul\":6455:6835   */\n    tag_156:\n        /* \"#utility.yul\":6534:6535   */\n      0x01\n        /* \"#utility.yul\":6530:6542   */\n      dup2\n      dup2\n      shr\n      swap1\n        /* \"#utility.yul\":6577:6589   */\n      dup3\n      and\n      dup1\n        /* \"#utility.yul\":6598:6659   */\n      tag_236\n      jumpi\n        /* \"#utility.yul\":6652:6656   */\n      0x7f\n        /* \"#utility.yul\":6644:6650   */\n      dup3\n        /* \"#utility.yul\":6640:6657   */\n      and\n        /* \"#utility.yul\":6630:6657   */\n      swap2\n      pop\n        /* \"#utility.yul\":6598:6659   */\n    tag_236:\n        /* \"#utility.yul\":6705:6707   */\n      0x20\n        /* \"#utility.yul\":6697:6703   */\n      dup3\n        /* \"#utility.yul\":6694:6708   */\n      lt\n        /* \"#utility.yul\":6674:6692   */\n      dup2\n        /* \"#utility.yul\":6671:6709   */\n      sub\n        /* \"#utility.yul\":6668:6829   */\n      tag_237\n      jumpi\n        /* \"#utility.yul\":6751:6761   */\n      0x4e487b71\n        /* \"#utility.yul\":6746:6749   */\n      0xe0\n        /* \"#utility.yul\":6742:6762   */\n      shl\n        /* \"#utility.yul\":6739:6740   */\n      0x00\n        /* \"#utility.yul\":6732:6763   */\n      mstore\n        /* \"#utility.yul\":6786:6790   */\n      0x22\n        /* \"#utility.yul\":6783:6784   */\n      0x04\n        /* \"#utility.yul\":6776:6791   */\n      mstore\n        /* \"#utility.yul\":6814:6818   */\n      0x24\n        /* \"#utility.yul\":6811:6812   */\n      0x00\n        /* \"#utility.yul\":6804:6819   */\n      revert\n        /* \"#utility.yul\":6668:6829   */\n    tag_237:\n      pop\n        /* \"#utility.yul\":6455:6835   */\n      swap2\n      swap1\n      pop\n      jump\t// out\n        /* \"#utility.yul\":6966:7484   */\n    tag_188:\n        /* \"#utility.yul\":7068:7070   */\n      0x1f\n        /* \"#utility.yul\":7063:7066   */\n      dup3\n        /* \"#utility.yul\":7060:7071   */\n      gt\n        /* \"#utility.yul\":7057:7478   */\n      iszero\n      tag_240\n      jumpi\n        /* \"#utility.yul\":7104:7109   */\n      dup1\n        /* \"#utility.yul\":7101:7102   */\n      0x00\n        /* \"#utility.yul\":7094:7110   */\n      mstore\n        /* \"#utility.yul\":7148:7152   */\n      0x20\n        /* \"#utility.yul\":7145:7146   */\n      0x00\n        /* \"#utility.yul\":7135:7153   */\n      keccak256\n        /* \"#utility.yul\":7218:7220   */\n      0x1f\n        /* \"#utility.yul\":7206:7216   */\n      dup5\n        /* \"#utility.yul\":7202:7221   */\n      add\n        /* \"#utility.yul\":7199:7200   */\n      0x05\n        /* \"#utility.yul\":7195:7222   */\n      shr\n        /* \"#utility.yul\":7189:7193   */\n      dup2\n        /* \"#utility.yul\":7185:7223   */\n      add\n        /* \"#utility.yul\":7254:7258   */\n      0x20\n        /* \"#utility.yul\":7242:7252   */\n      dup6\n        /* \"#utility.yul\":7239:7259   */\n      lt\n        /* \"#utility.yul\":7236:7283   */\n      iszero\n      tag_241\n      jumpi\n      pop\n        /* \"#utility.yul\":7277:7281   */\n      dup1\n        /* \"#utility.yul\":7236:7283   */\n    tag_241:\n        /* \"#utility.yul\":7332:7334   */\n      0x1f\n        /* \"#utility.yul\":7327:7330   */\n      dup5\n        /* \"#utility.yul\":7323:7335   */\n      add\n        /* \"#utility.yul\":7320:7321   */\n      0x05\n        /* \"#utility.yul\":7316:7336   */\n      shr\n        /* \"#utility.yul\":7310:7314   */\n      dup3\n        /* \"#utility.yul\":7306:7337   */\n      add\n        /* \"#utility.yul\":7296:7337   */\n      swap2\n      pop\n        /* \"#utility.yul\":7387:7468   */\n    tag_242:\n        /* \"#utility.yul\":7405:7407   */\n      dup2\n        /* \"#utility.yul\":7398:7403   */\n      dup2\n        /* \"#utility.yul\":7395:7408   */\n      lt\n        /* \"#utility.yul\":7387:7468   */\n      iszero\n      tag_244\n      jumpi\n        /* \"#utility.yul\":7464:7465   */\n      0x00\n        /* \"#utility.yul\":7450:7466   */\n      dup2\n      sstore\n        /* \"#utility.yul\":7431:7432   */\n      0x01\n        /* \"#utility.yul\":7420:7433   */\n      add\n        /* \"#utility.yul\":7387:7468   */\n      jump(tag_242)\n    tag_244:\n        /* \"#utility.yul\":7391:7394   */\n      pop\n      pop\n        /* \"#utility.yul\":7057:7478   */\n    tag_240:\n        /* \"#utility.yul\":6966:7484   */\n      pop\n      pop\n      pop\n      jump\t// out\n        /* \"#utility.yul\":7660:8959   */\n    tag_93:\n        /* \"#utility.yul\":7786:7789   */\n      dup2\n        /* \"#utility.yul\":7780:7790   */\n      mload\n        /* \"#utility.yul\":7813:7831   */\n      0xffffffffffffffff\n        /* \"#utility.yul\":7805:7811   */\n      dup2\n        /* \"#utility.yul\":7802:7832   */\n      gt\n        /* \"#utility.yul\":7799:7855   */\n      iszero\n      tag_248\n      jumpi\n        /* \"#utility.yul\":7835:7853   */\n      tag_248\n      tag_140\n      jump\t// in\n    tag_248:\n        /* \"#utility.yul\":7864:7961   */\n      tag_249\n        /* \"#utility.yul\":7954:7960   */\n      dup2\n        /* \"#utility.yul\":7914:7952   */\n      tag_250\n        /* \"#utility.yul\":7946:7950   */\n      dup5\n        /* \"#utility.yul\":7940:7951   */\n      sload\n        /* \"#utility.yul\":7914:7952   */\n      tag_156\n      jump\t// in\n    tag_250:\n        /* \"#utility.yul\":7908:7912   */\n      dup5\n        /* \"#utility.yul\":7864:7961   */\n      tag_188\n      jump\t// in\n    tag_249:\n        /* \"#utility.yul\":8010:8014   */\n      0x20\n        /* \"#utility.yul\":8041:8043   */\n      0x1f\n        /* \"#utility.yul\":8030:8044   */\n      dup3\n      gt\n        /* \"#utility.yul\":8058:8059   */\n      0x01\n        /* \"#utility.yul\":8053:8702   */\n      dup2\n      eq\n      tag_252\n      jumpi\n        /* \"#utility.yul\":8746:8747   */\n      0x00\n        /* \"#utility.yul\":8763:8769   */\n      dup4\n        /* \"#utility.yul\":8760:8849   */\n      iszero\n      tag_253\n      jumpi\n      pop\n        /* \"#utility.yul\":8815:8834   */\n      dup5\n      dup3\n      add\n        /* \"#utility.yul\":8809:8835   */\n      mload\n        /* \"#utility.yul\":8760:8849   */\n    tag_253:\n      not(0x00)\n        /* \"#utility.yul\":7617:7618   */\n      0x03\n        /* \"#utility.yul\":7613:7624   */\n      dup6\n      swap1\n      shl\n        /* \"#utility.yul\":7609:7633   */\n      shr\n        /* \"#utility.yul\":7605:7634   */\n      not\n        /* \"#utility.yul\":7595:7635   */\n      and\n        /* \"#utility.yul\":7641:7642   */\n      0x01\n        /* \"#utility.yul\":7637:7648   */\n      dup5\n      swap1\n      shl\n        /* \"#utility.yul\":7592:7649   */\n      or\n        /* \"#utility.yul\":8862:8943   */\n      dup5\n      sstore\n        /* \"#utility.yul\":8023:8953   */\n      jump(tag_244)\n        /* \"#utility.yul\":8053:8702   */\n    tag_252:\n        /* \"#utility.yul\":6913:6914   */\n      0x00\n        /* \"#utility.yul\":6906:6920   */\n      dup5\n      dup2\n      mstore\n        /* \"#utility.yul\":6950:6954   */\n      0x20\n        /* \"#utility.yul\":6937:6955   */\n      dup2\n      keccak256\n      not(0x1f)\n        /* \"#utility.yul\":8089:8109   */\n      dup6\n      and\n      swap2\n        /* \"#utility.yul\":8207:8429   */\n    tag_256:\n        /* \"#utility.yul\":8221:8228   */\n      dup3\n        /* \"#utility.yul\":8218:8219   */\n      dup2\n        /* \"#utility.yul\":8215:8229   */\n      lt\n        /* \"#utility.yul\":8207:8429   */\n      iszero\n      tag_258\n      jumpi\n        /* \"#utility.yul\":8303:8322   */\n      dup8\n      dup6\n      add\n        /* \"#utility.yul\":8297:8323   */\n      mload\n        /* \"#utility.yul\":8282:8324   */\n      dup3\n      sstore\n        /* \"#utility.yul\":8410:8414   */\n      0x20\n        /* \"#utility.yul\":8395:8415   */\n      swap5\n      dup6\n      add\n      swap5\n        /* \"#utility.yul\":8363:8364   */\n      0x01\n        /* \"#utility.yul\":8351:8365   */\n      swap1\n      swap3\n      add\n      swap2\n        /* \"#utility.yul\":8237:8249   */\n      add\n        /* \"#utility.yul\":8207:8429   */\n      jump(tag_256)\n    tag_258:\n        /* \"#utility.yul\":8211:8214   */\n      pop\n        /* \"#utility.yul\":8457:8463   */\n      dup5\n        /* \"#utility.yul\":8448:8455   */\n      dup3\n        /* \"#utility.yul\":8445:8464   */\n      lt\n        /* \"#utility.yul\":8442:8643   */\n      iszero\n      tag_259\n      jumpi\n        /* \"#utility.yul\":8518:8537   */\n      dup7\n      dup5\n      add\n        /* \"#utility.yul\":8512:8538   */\n      mload\n      not(0x00)\n        /* \"#utility.yul\":8601:8602   */\n      0x03\n        /* \"#utility.yul\":8597:8611   */\n      dup8\n      swap1\n      shl\n        /* \"#utility.yul\":8613:8616   */\n      0xf8\n        /* \"#utility.yul\":8593:8617   */\n      and\n        /* \"#utility.yul\":8589:8626   */\n      shr\n        /* \"#utility.yul\":8585:8627   */\n      not\n        /* \"#utility.yul\":8570:8628   */\n      and\n        /* \"#utility.yul\":8555:8629   */\n      dup2\n      sstore\n        /* \"#utility.yul\":8442:8643   */\n    tag_259:\n      pop\n      pop\n      pop\n      pop\n        /* \"#utility.yul\":8689:8690   */\n      0x01\n        /* \"#utility.yul\":8673:8687   */\n      swap1\n      dup2\n      shl\n        /* \"#utility.yul\":8669:8691   */\n      add\n        /* \"#utility.yul\":8656:8692   */\n      swap1\n      sstore\n      pop\n        /* \"#utility.yul\":7660:8959   */\n      jump\t// out\n        /* \"#utility.yul\":9378:9505   */\n    tag_120:\n        /* \"#utility.yul\":9439:9449   */\n      0x4e487b71\n        /* \"#utility.yul\":9434:9437   */\n      0xe0\n        /* \"#utility.yul\":9430:9450   */\n      shl\n        /* \"#utility.yul\":9427:9428   */\n      0x00\n        /* \"#utility.yul\":9420:9451   */\n      mstore\n        /* \"#utility.yul\":9470:9474   */\n      0x32\n        /* \"#utility.yul\":9467:9468   */\n      0x04\n        /* \"#utility.yul\":9460:9475   */\n      mstore\n        /* \"#utility.yul\":9494:9498   */\n      0x24\n        /* \"#utility.yul\":9491:9492   */\n      0x00\n        /* \"#utility.yul\":9484:9499   */\n      revert\n        /* \"#utility.yul\":9510:9735   */\n    tag_124:\n        /* \"#utility.yul\":9577:9586   */\n      dup2\n      dup2\n      sub\n        /* \"#utility.yul\":9598:9609   */\n      dup2\n      dup2\n      gt\n        /* \"#utility.yul\":9595:9729   */\n      iszero\n      tag_263\n      jumpi\n        /* \"#utility.yul\":9651:9661   */\n      0x4e487b71\n        /* \"#utility.yul\":9646:9649   */\n      0xe0\n        /* \"#utility.yul\":9642:9662   */\n      shl\n        /* \"#utility.yul\":9639:9640   */\n      0x00\n        /* \"#utility.yul\":9632:9663   */\n      mstore\n        /* \"#utility.yul\":9686:9690   */\n      0x11\n        /* \"#utility.yul\":9683:9684   */\n      0x04\n        /* \"#utility.yul\":9676:9691   */\n      mstore\n        /* \"#utility.yul\":9714:9718   */\n      0x24\n        /* \"#utility.yul\":9711:9712   */\n      0x00\n        /* \"#utility.yul\":9704:9719   */\n      revert\n        /* \"#utility.yul\":9595:9729   */\n    tag_263:\n        /* \"#utility.yul\":9510:9735   */\n      swap3\n      swap2\n      pop\n      pop\n      jump\t// out\n        /* \"#utility.yul\":9740:9867   */\n    tag_133:\n        /* \"#utility.yul\":9801:9811   */\n      0x4e487b71\n        /* \"#utility.yul\":9796:9799   */\n      0xe0\n        /* \"#utility.yul\":9792:9812   */\n      shl\n        /* \"#utility.yul\":9789:9790   */\n      0x00\n        /* \"#utility.yul\":9782:9813   */\n      mstore\n        /* \"#utility.yul\":9832:9836   */\n      0x31\n        /* \"#utility.yul\":9829:9830   */\n      0x04\n        /* \"#utility.yul\":9822:9837   */\n      mstore\n        /* \"#utility.yul\":9856:9860   */\n      0x24\n        /* \"#utility.yul\":9853:9854   */\n      0x00\n        /* \"#utility.yul\":9846:9861   */\n      revert\n\n    auxdata: 0xa26469706673582212204337a93180e833fb6ba2f9297f13e7246f0e6372b7dfb8ef392d66c8e7d328a364736f6c634300081a0033\n}\n",
				"bytecode": {
					"linkReferences": {},
					"object": "6080604052348015600f57600080fd5b506113eb8061001f6000396000f3fe608060405234801561001057600080fd5b506004361061009e5760003560e01c806385e685311161006657806385e685311461011c578063a0076e841461012f578063d81aa8c414610151578063ec0b7b4114610164578063fde081741461017757600080fd5b80630ae5e739146100a357806313720fef146100b8578063169db77d146100d65780633457d3e2146100f657806361765a2614610109575b600080fd5b6100b66100b1366004610f56565b61018c565b005b6100c06102bb565b6040516100cd9190610fcc565b60405180910390f35b6100e96100e4366004610f56565b61042b565b6040516100cd9190611024565b6100b661010436600461104d565b6104a1565b6100b6610117366004611106565b610632565b6100b661012a366004610f56565b61079b565b61014261013d366004610f56565b6109d7565b6040516100cd93929190611127565b6100b661015f36600461104d565b610cb8565b6100b6610172366004611106565b610e12565b61017f610edd565b6040516100cd91906111f2565b336000908152602081905260409020600101546001600160a01b03166101e95760405162461bcd60e51b815260206004820152600d60248201526c2737902224a2103337bab7321760991b60448201526064015b60405180910390fd5b6001600160a01b03818116600090815260208190526040902060010154166102535760405162461bcd60e51b815260206004820152601760248201527f446f63746f72206d75737420686176652061204449442e00000000000000000060448201526064016101e0565b33600081815260016020818152604080842080549384018155845290832090910180546001600160a01b0319166001600160a01b03861690811790915590519092917f9f520b3bfc56d06f7065d10b4683b3f57ac8895d5026cd176dee95ce1454cb8d91a350565b336000908152602081905260409020600101546060906001600160a01b03166103165760405162461bcd60e51b815260206004820152600d60248201526c2737902224a2103337bab7321760991b60448201526064016101e0565b600033600090815260208190526040902060010154600160a01b900460ff166002811115610346576103466111dc565b0361036b575060408051808201909152600581526420b236b4b760d91b602082015290565b600133600090815260208190526040902060010154600160a01b900460ff16600281111561039b5761039b6111dc565b036103c157506040805180820190915260068152652237b1ba37b960d11b602082015290565b600233600090815260208190526040902060010154600160a01b900460ff1660028111156103f1576103f16111dc565b03610418575060408051808201909152600781526614185d1a595b9d60ca1b602082015290565b5060408051602081019091526000815290565b6001600160a01b03811660009081526001602090815260409182902080548351818402810184019094528084526060939283018282801561049557602002820191906000526020600020905b81546001600160a01b03168152600190910190602001808311610477575b50505050509050919050565b60008151116104f25760405162461bcd60e51b815260206004820152601b60248201527f4964656e7469666965722063616e6e6f7420626520656d7074792e000000000060448201526064016101e0565b336000908152602081905260409020600101546001600160a01b03161561055b5760405162461bcd60e51b815260206004820152601360248201527f44494420616c7265616479206578697374732e0000000000000000000000000060448201526064016101e0565b60408051606081018252828152336020820152908101600290523360009081526020819052604090208151819061059290826112a3565b5060208201516001820180546001600160a01b039092166001600160a01b031983168117825560408501519274ffffffffffffffffffffffffffffffffffffffffff191617600160a01b8360028111156105ee576105ee6111dc565b0217905550506040513391507fbfab59a7af78dfc896c3096604749fcee2db2e850297de42de5e6369f54bd3fb90610627908490610fcc565b60405180910390a250565b3360009081526020819052604090206001015460ff600160a01b820416906001600160a01b03166106955760405162461bcd60e51b815260206004820152600d60248201526c2737902224a2103337bab7321760991b60448201526064016101e0565b8060028111156106a7576106a76111dc565b8260028111156106b9576106b96111dc565b0361071c5760405162461bcd60e51b815260206004820152602d60248201527f4e657720526f6c65206d75737420626520646966666572656e742066726f6d2060448201526c3a34329037b632102937b6329760991b60648201526084016101e0565b336000908152602081905260409020600101805483919060ff60a01b1916600160a01b836002811115610751576107516111dc565b0217905550336001600160a01b03167f4ac36fa53f167ceb85964be512e01de2a3b8bdb9862f917da079deeeff689b388360405161078f91906111f2565b60405180910390a25050565b336000908152602081905260409020600101546001600160a01b03166107f35760405162461bcd60e51b815260206004820152600d60248201526c2737902224a2103337bab7321760991b60448201526064016101e0565b6001600160a01b038181166000908152602081905260409020600101541661085d5760405162461bcd60e51b815260206004820152601760248201527f446f63746f72206d75737420686176652061204449442e00000000000000000060448201526064016101e0565b60005b336000908152600160205260409020548110156109d35733600090815260016020526040902080546001600160a01b0384169190839081106108a4576108a4611362565b6000918252602090912001546001600160a01b0316036109cb57336000908152600160208190526040909120805490916108dd91611378565b815481106108ed576108ed611362565b60009182526020808320909101543383526001909152604090912080546001600160a01b03909216918390811061092657610926611362565b600091825260208083209190910180546001600160a01b0319166001600160a01b03949094169390931790925533815260019091526040902080548061096e5761096e61139f565b600082815260208120820160001990810180546001600160a01b03191690559091019091556040516001600160a01b0384169133917f825c8be24eb0df19500f63e86c29e7d0d951e73056b889b891d85e40938d9b6e9190a35050565b600101610860565b5050565b6001600160a01b038181166000908152602081905260409020600101546060918291829116610a385760405162461bcd60e51b815260206004820152600d60248201526c2737902224a2103337bab7321760991b60448201526064016101e0565b6001600160a01b0384166000908152600260205260409020548067ffffffffffffffff811115610a6a57610a6a611037565b604051908082528060200260200182016040528015610a9d57816020015b6060815260200190600190039081610a885790505b5093508067ffffffffffffffff811115610ab957610ab9611037565b604051908082528060200260200182016040528015610ae2578160200160208202803683370190505b5092508067ffffffffffffffff811115610afe57610afe611037565b604051908082528060200260200182016040528015610b27578160200160208202803683370190505b50915060005b81811015610caf576001600160a01b0386166000908152600260205260408120805483908110610b5f57610b5f611362565b9060005260206000209060030201604051806060016040529081600082018054610b889061121a565b80601f0160208091040260200160405190810160405280929190818152602001828054610bb49061121a565b8015610c015780601f10610bd657610100808354040283529160200191610c01565b820191906000526020600020905b815481529060010190602001808311610be457829003601f168201915b505050918352505060018201546001600160a01b031660208201526002909101546040909101528051875191925090879084908110610c4257610c42611362565b60200260200101819052508060200151858381518110610c6457610c64611362565b60200260200101906001600160a01b031690816001600160a01b0316815250508060400151848381518110610c9b57610c9b611362565b602090810291909101015250600101610b2d565b50509193909250565b6000815111610d095760405162461bcd60e51b815260206004820152601a60248201527f4950465320686173682063616e6e6f7420626520656d7074792e00000000000060448201526064016101e0565b336000908152602081905260409020600101546001600160a01b0316610d615760405162461bcd60e51b815260206004820152600d60248201526c2737902224a2103337bab7321760991b60448201526064016101e0565b3360008181526002602090815260408083208151606081018352868152808401959095524291850191909152805460018101825590835291208251600390920201908190610daf90826112a3565b5060208201516001820180546001600160a01b0319166001600160a01b039092169190911790556040918201516002909101555133907f44626cfec8a165f72396cc5e247c6b96279f8c205a8d07c390df7aa5806205fa90610627908490610fcc565b336000908152602081905260409020600101546001600160a01b0316610e6a5760405162461bcd60e51b815260206004820152600d60248201526c2737902224a2103337bab7321760991b60448201526064016101e0565b336000908152602081905260409020600101805482919060ff60a01b1916600160a01b836002811115610e9f57610e9f6111dc565b0217905550336001600160a01b03167f4ac36fa53f167ceb85964be512e01de2a3b8bdb9862f917da079deeeff689b388260405161062791906111f2565b336000908152602081905260408120600101546001600160a01b0316610f355760405162461bcd60e51b815260206004820152600d60248201526c2737902224a2103337bab7321760991b60448201526064016101e0565b5033600090815260208190526040902060010154600160a01b900460ff1690565b600060208284031215610f6857600080fd5b81356001600160a01b0381168114610f7f57600080fd5b9392505050565b6000815180845260005b81811015610fac57602081850181015186830182015201610f90565b506000602082860101526020601f19601f83011685010191505092915050565b602081526000610f7f6020830184610f86565b600081518084526020840193506020830160005b8281101561101a5781516001600160a01b0316865260209586019590910190600101610ff3565b5093949350505050565b602081526000610f7f6020830184610fdf565b634e487b7160e01b600052604160045260246000fd5b60006020828403121561105f57600080fd5b813567ffffffffffffffff81111561107657600080fd5b8201601f8101841361108757600080fd5b803567ffffffffffffffff8111156110a1576110a1611037565b604051601f8201601f19908116603f0116810167ffffffffffffffff811182821017156110d0576110d0611037565b6040528181528282016020018610156110e857600080fd5b81602084016020830137600091810160200191909152949350505050565b60006020828403121561111857600080fd5b813560038110610f7f57600080fd5b6000606082016060835280865180835260808501915060808160051b86010192506020880160005b8281101561118057607f1987860301845261116b858351610f86565b9450602093840193919091019060010161114f565b5050505082810360208401526111968186610fdf565b83810360408501528451808252602080870193509091019060005b818110156111cf5783518352602093840193909201916001016111b1565b5090979650505050505050565b634e487b7160e01b600052602160045260246000fd5b602081016003831061121457634e487b7160e01b600052602160045260246000fd5b91905290565b600181811c9082168061122e57607f821691505b60208210810361124e57634e487b7160e01b600052602260045260246000fd5b50919050565b601f82111561129e57806000526020600020601f840160051c8101602085101561127b5750805b601f840160051c820191505b8181101561129b5760008155600101611287565b50505b505050565b815167ffffffffffffffff8111156112bd576112bd611037565b6112d1816112cb845461121a565b84611254565b6020601f82116001811461130557600083156112ed5750848201515b600019600385901b1c1916600184901b17845561129b565b600084815260208120601f198516915b828110156113355787850151825560209485019460019092019101611315565b50848210156113535786840151600019600387901b60f8161c191681555b50505050600190811b01905550565b634e487b7160e01b600052603260045260246000fd5b8181038181111561139957634e487b7160e01b600052601160045260246000fd5b92915050565b634e487b7160e01b600052603160045260246000fdfea26469706673582212204337a93180e833fb6ba2f9297f13e7246f0e6372b7dfb8ef392d66c8e7d328a364736f6c634300081a0033",
					"opcodes": "PUSH1 0x80 PUSH1 0x40 MSTORE CALLVALUE DUP1 ISZERO PUSH1 0xF JUMPI PUSH1 0x0 DUP1 REVERT JUMPDEST POP PUSH2 0x13EB DUP1 PUSH2 0x1F PUSH1 0x0 CODECOPY PUSH1 0x0 RETURN INVALID PUSH1 0x80 PUSH1 0x40 MSTORE CALLVALUE DUP1 ISZERO PUSH2 0x10 JUMPI PUSH1 0x0 DUP1 REVERT JUMPDEST POP PUSH1 0x4 CALLDATASIZE LT PUSH2 0x9E JUMPI PUSH1 0x0 CALLDATALOAD PUSH1 0xE0 SHR DUP1 PUSH4 0x85E68531 GT PUSH2 0x66 JUMPI DUP1 PUSH4 0x85E68531 EQ PUSH2 0x11C JUMPI DUP1 PUSH4 0xA0076E84 EQ PUSH2 0x12F JUMPI DUP1 PUSH4 0xD81AA8C4 EQ PUSH2 0x151 JUMPI DUP1 PUSH4 0xEC0B7B41 EQ PUSH2 0x164 JUMPI DUP1 PUSH4 0xFDE08174 EQ PUSH2 0x177 JUMPI PUSH1 0x0 DUP1 REVERT JUMPDEST DUP1 PUSH4 0xAE5E739 EQ PUSH2 0xA3 JUMPI DUP1 PUSH4 0x13720FEF EQ PUSH2 0xB8 JUMPI DUP1 PUSH4 0x169DB77D EQ PUSH2 0xD6 JUMPI DUP1 PUSH4 0x3457D3E2 EQ PUSH2 0xF6 JUMPI DUP1 PUSH4 0x61765A26 EQ PUSH2 0x109 JUMPI JUMPDEST PUSH1 0x0 DUP1 REVERT JUMPDEST PUSH2 0xB6 PUSH2 0xB1 CALLDATASIZE PUSH1 0x4 PUSH2 0xF56 JUMP JUMPDEST PUSH2 0x18C JUMP JUMPDEST STOP JUMPDEST PUSH2 0xC0 PUSH2 0x2BB JUMP JUMPDEST PUSH1 0x40 MLOAD PUSH2 0xCD SWAP2 SWAP1 PUSH2 0xFCC JUMP JUMPDEST PUSH1 0x40 MLOAD DUP1 SWAP2 SUB SWAP1 RETURN JUMPDEST PUSH2 0xE9 PUSH2 0xE4 CALLDATASIZE PUSH1 0x4 PUSH2 0xF56 JUMP JUMPDEST PUSH2 0x42B JUMP JUMPDEST PUSH1 0x40 MLOAD PUSH2 0xCD SWAP2 SWAP1 PUSH2 0x1024 JUMP JUMPDEST PUSH2 0xB6 PUSH2 0x104 CALLDATASIZE PUSH1 0x4 PUSH2 0x104D JUMP JUMPDEST PUSH2 0x4A1 JUMP JUMPDEST PUSH2 0xB6 PUSH2 0x117 CALLDATASIZE PUSH1 0x4 PUSH2 0x1106 JUMP JUMPDEST PUSH2 0x632 JUMP JUMPDEST PUSH2 0xB6 PUSH2 0x12A CALLDATASIZE PUSH1 0x4 PUSH2 0xF56 JUMP JUMPDEST PUSH2 0x79B JUMP JUMPDEST PUSH2 0x142 PUSH2 0x13D CALLDATASIZE PUSH1 0x4 PUSH2 0xF56 JUMP JUMPDEST PUSH2 0x9D7 JUMP JUMPDEST PUSH1 0x40 MLOAD PUSH2 0xCD SWAP4 SWAP3 SWAP2 SWAP1 PUSH2 0x1127 JUMP JUMPDEST PUSH2 0xB6 PUSH2 0x15F CALLDATASIZE PUSH1 0x4 PUSH2 0x104D JUMP JUMPDEST PUSH2 0xCB8 JUMP JUMPDEST PUSH2 0xB6 PUSH2 0x172 CALLDATASIZE PUSH1 0x4 PUSH2 0x1106 JUMP JUMPDEST PUSH2 0xE12 JUMP JUMPDEST PUSH2 0x17F PUSH2 0xEDD JUMP JUMPDEST PUSH1 0x40 MLOAD PUSH2 0xCD SWAP2 SWAP1 PUSH2 0x11F2 JUMP JUMPDEST CALLER PUSH1 0x0 SWAP1 DUP2 MSTORE PUSH1 0x20 DUP2 SWAP1 MSTORE PUSH1 0x40 SWAP1 KECCAK256 PUSH1 0x1 ADD SLOAD PUSH1 0x1 PUSH1 0x1 PUSH1 0xA0 SHL SUB AND PUSH2 0x1E9 JUMPI PUSH1 0x40 MLOAD PUSH3 0x461BCD PUSH1 0xE5 SHL DUP2 MSTORE PUSH1 0x20 PUSH1 0x4 DUP3 ADD MSTORE PUSH1 0xD PUSH1 0x24 DUP3 ADD MSTORE PUSH13 0x2737902224A2103337BAB73217 PUSH1 0x99 SHL PUSH1 0x44 DUP3 ADD MSTORE PUSH1 0x64 ADD JUMPDEST PUSH1 0x40 MLOAD DUP1 SWAP2 SUB SWAP1 REVERT JUMPDEST PUSH1 0x1 PUSH1 0x1 PUSH1 0xA0 SHL SUB DUP2 DUP2 AND PUSH1 0x0 SWAP1 DUP2 MSTORE PUSH1 0x20 DUP2 SWAP1 MSTORE PUSH1 0x40 SWAP1 KECCAK256 PUSH1 0x1 ADD SLOAD AND PUSH2 0x253 JUMPI PUSH1 0x40 MLOAD PUSH3 0x461BCD PUSH1 0xE5 SHL DUP2 MSTORE PUSH1 0x20 PUSH1 0x4 DUP3 ADD MSTORE PUSH1 0x17 PUSH1 0x24 DUP3 ADD MSTORE PUSH32 0x446F63746F72206D75737420686176652061204449442E000000000000000000 PUSH1 0x44 DUP3 ADD MSTORE PUSH1 0x64 ADD PUSH2 0x1E0 JUMP JUMPDEST CALLER PUSH1 0x0 DUP2 DUP2 MSTORE PUSH1 0x1 PUSH1 0x20 DUP2 DUP2 MSTORE PUSH1 0x40 DUP1 DUP5 KECCAK256 DUP1 SLOAD SWAP4 DUP5 ADD DUP2 SSTORE DUP5 MSTORE SWAP1 DUP4 KECCAK256 SWAP1 SWAP2 ADD DUP1 SLOAD PUSH1 0x1 PUSH1 0x1 PUSH1 0xA0 SHL SUB NOT AND PUSH1 0x1 PUSH1 0x1 PUSH1 0xA0 SHL SUB DUP7 AND SWAP1 DUP2 OR SWAP1 SWAP2 SSTORE SWAP1 MLOAD SWAP1 SWAP3 SWAP2 PUSH32 0x9F520B3BFC56D06F7065D10B4683B3F57AC8895D5026CD176DEE95CE1454CB8D SWAP2 LOG3 POP JUMP JUMPDEST CALLER PUSH1 0x0 SWAP1 DUP2 MSTORE PUSH1 0x20 DUP2 SWAP1 MSTORE PUSH1 0x40 SWAP1 KECCAK256 PUSH1 0x1 ADD SLOAD PUSH1 0x60 SWAP1 PUSH1 0x1 PUSH1 0x1 PUSH1 0xA0 SHL SUB AND PUSH2 0x316 JUMPI PUSH1 0x40 MLOAD PUSH3 0x461BCD PUSH1 0xE5 SHL DUP2 MSTORE PUSH1 0x20 PUSH1 0x4 DUP3 ADD MSTORE PUSH1 0xD PUSH1 0x24 DUP3 ADD MSTORE PUSH13 0x2737902224A2103337BAB73217 PUSH1 0x99 SHL PUSH1 0x44 DUP3 ADD MSTORE PUSH1 0x64 ADD PUSH2 0x1E0 JUMP JUMPDEST PUSH1 0x0 CALLER PUSH1 0x0 SWAP1 DUP2 MSTORE PUSH1 0x20 DUP2 SWAP1 MSTORE PUSH1 0x40 SWAP1 KECCAK256 PUSH1 0x1 ADD SLOAD PUSH1 0x1 PUSH1 0xA0 SHL SWAP1 DIV PUSH1 0xFF AND PUSH1 0x2 DUP2 GT ISZERO PUSH2 0x346 JUMPI PUSH2 0x346 PUSH2 0x11DC JUMP JUMPDEST SUB PUSH2 0x36B JUMPI POP PUSH1 0x40 DUP1 MLOAD DUP1 DUP3 ADD SWAP1 SWAP2 MSTORE PUSH1 0x5 DUP2 MSTORE PUSH5 0x20B236B4B7 PUSH1 0xD9 SHL PUSH1 0x20 DUP3 ADD MSTORE SWAP1 JUMP JUMPDEST PUSH1 0x1 CALLER PUSH1 0x0 SWAP1 DUP2 MSTORE PUSH1 0x20 DUP2 SWAP1 MSTORE PUSH1 0x40 SWAP1 KECCAK256 PUSH1 0x1 ADD SLOAD PUSH1 0x1 PUSH1 0xA0 SHL SWAP1 DIV PUSH1 0xFF AND PUSH1 0x2 DUP2 GT ISZERO PUSH2 0x39B JUMPI PUSH2 0x39B PUSH2 0x11DC JUMP JUMPDEST SUB PUSH2 0x3C1 JUMPI POP PUSH1 0x40 DUP1 MLOAD DUP1 DUP3 ADD SWAP1 SWAP2 MSTORE PUSH1 0x6 DUP2 MSTORE PUSH6 0x2237B1BA37B9 PUSH1 0xD1 SHL PUSH1 0x20 DUP3 ADD MSTORE SWAP1 JUMP JUMPDEST PUSH1 0x2 CALLER PUSH1 0x0 SWAP1 DUP2 MSTORE PUSH1 0x20 DUP2 SWAP1 MSTORE PUSH1 0x40 SWAP1 KECCAK256 PUSH1 0x1 ADD SLOAD PUSH1 0x1 PUSH1 0xA0 SHL SWAP1 DIV PUSH1 0xFF AND PUSH1 0x2 DUP2 GT ISZERO PUSH2 0x3F1 JUMPI PUSH2 0x3F1 PUSH2 0x11DC JUMP JUMPDEST SUB PUSH2 0x418 JUMPI POP PUSH1 0x40 DUP1 MLOAD DUP1 DUP3 ADD SWAP1 SWAP2 MSTORE PUSH1 0x7 DUP2 MSTORE PUSH7 0x14185D1A595B9D PUSH1 0xCA SHL PUSH1 0x20 DUP3 ADD MSTORE SWAP1 JUMP JUMPDEST POP PUSH1 0x40 DUP1 MLOAD PUSH1 0x20 DUP2 ADD SWAP1 SWAP2 MSTORE PUSH1 0x0 DUP2 MSTORE SWAP1 JUMP JUMPDEST PUSH1 0x1 PUSH1 0x1 PUSH1 0xA0 SHL SUB DUP2 AND PUSH1 0x0 SWAP1 DUP2 MSTORE PUSH1 0x1 PUSH1 0x20 SWAP1 DUP2 MSTORE PUSH1 0x40 SWAP2 DUP3 SWAP1 KECCAK256 DUP1 SLOAD DUP4 MLOAD DUP2 DUP5 MUL DUP2 ADD DUP5 ADD SWAP1 SWAP5 MSTORE DUP1 DUP5 MSTORE PUSH1 0x60 SWAP4 SWAP3 DUP4 ADD DUP3 DUP3 DUP1 ISZERO PUSH2 0x495 JUMPI PUSH1 0x20 MUL DUP3 ADD SWAP2 SWAP1 PUSH1 0x0 MSTORE PUSH1 0x20 PUSH1 0x0 KECCAK256 SWAP1 JUMPDEST DUP2 SLOAD PUSH1 0x1 PUSH1 0x1 PUSH1 0xA0 SHL SUB AND DUP2 MSTORE PUSH1 0x1 SWAP1 SWAP2 ADD SWAP1 PUSH1 0x20 ADD DUP1 DUP4 GT PUSH2 0x477 JUMPI JUMPDEST POP POP POP POP POP SWAP1 POP SWAP2 SWAP1 POP JUMP JUMPDEST PUSH1 0x0 DUP2 MLOAD GT PUSH2 0x4F2 JUMPI PUSH1 0x40 MLOAD PUSH3 0x461BCD PUSH1 0xE5 SHL DUP2 MSTORE PUSH1 0x20 PUSH1 0x4 DUP3 ADD MSTORE PUSH1 0x1B PUSH1 0x24 DUP3 ADD MSTORE PUSH32 0x4964656E7469666965722063616E6E6F7420626520656D7074792E0000000000 PUSH1 0x44 DUP3 ADD MSTORE PUSH1 0x64 ADD PUSH2 0x1E0 JUMP JUMPDEST CALLER PUSH1 0x0 SWAP1 DUP2 MSTORE PUSH1 0x20 DUP2 SWAP1 MSTORE PUSH1 0x40 SWAP1 KECCAK256 PUSH1 0x1 ADD SLOAD PUSH1 0x1 PUSH1 0x1 PUSH1 0xA0 SHL SUB AND ISZERO PUSH2 0x55B JUMPI PUSH1 0x40 MLOAD PUSH3 0x461BCD PUSH1 0xE5 SHL DUP2 MSTORE PUSH1 0x20 PUSH1 0x4 DUP3 ADD MSTORE PUSH1 0x13 PUSH1 0x24 DUP3 ADD MSTORE PUSH32 0x44494420616C7265616479206578697374732E00000000000000000000000000 PUSH1 0x44 DUP3 ADD MSTORE PUSH1 0x64 ADD PUSH2 0x1E0 JUMP JUMPDEST PUSH1 0x40 DUP1 MLOAD PUSH1 0x60 DUP2 ADD DUP3 MSTORE DUP3 DUP2 MSTORE CALLER PUSH1 0x20 DUP3 ADD MSTORE SWAP1 DUP2 ADD PUSH1 0x2 SWAP1 MSTORE CALLER PUSH1 0x0 SWAP1 DUP2 MSTORE PUSH1 0x20 DUP2 SWAP1 MSTORE PUSH1 0x40 SWAP1 KECCAK256 DUP2 MLOAD DUP2 SWAP1 PUSH2 0x592 SWAP1 DUP3 PUSH2 0x12A3 JUMP JUMPDEST POP PUSH1 0x20 DUP3 ADD MLOAD PUSH1 0x1 DUP3 ADD DUP1 SLOAD PUSH1 0x1 PUSH1 0x1 PUSH1 0xA0 SHL SUB SWAP1 SWAP3 AND PUSH1 0x1 PUSH1 0x1 PUSH1 0xA0 SHL SUB NOT DUP4 AND DUP2 OR DUP3 SSTORE PUSH1 0x40 DUP6 ADD MLOAD SWAP3 PUSH21 0xFFFFFFFFFFFFFFFFFFFFFFFFFFFFFFFFFFFFFFFFFF NOT AND OR PUSH1 0x1 PUSH1 0xA0 SHL DUP4 PUSH1 0x2 DUP2 GT ISZERO PUSH2 0x5EE JUMPI PUSH2 0x5EE PUSH2 0x11DC JUMP JUMPDEST MUL OR SWAP1 SSTORE POP POP PUSH1 0x40 MLOAD CALLER SWAP2 POP PUSH32 0xBFAB59A7AF78DFC896C3096604749FCEE2DB2E850297DE42DE5E6369F54BD3FB SWAP1 PUSH2 0x627 SWAP1 DUP5 SWAP1 PUSH2 0xFCC JUMP JUMPDEST PUSH1 0x40 MLOAD DUP1 SWAP2 SUB SWAP1 LOG2 POP JUMP JUMPDEST CALLER PUSH1 0x0 SWAP1 DUP2 MSTORE PUSH1 0x20 DUP2 SWAP1 MSTORE PUSH1 0x40 SWAP1 KECCAK256 PUSH1 0x1 ADD SLOAD PUSH1 0xFF PUSH1 0x1 PUSH1 0xA0 SHL DUP3 DIV AND SWAP1 PUSH1 0x1 PUSH1 0x1 PUSH1 0xA0 SHL SUB AND PUSH2 0x695 JUMPI PUSH1 0x40 MLOAD PUSH3 0x461BCD PUSH1 0xE5 SHL DUP2 MSTORE PUSH1 0x20 PUSH1 0x4 DUP3 ADD MSTORE PUSH1 0xD PUSH1 0x24 DUP3 ADD MSTORE PUSH13 0x2737902224A2103337BAB73217 PUSH1 0x99 SHL PUSH1 0x44 DUP3 ADD MSTORE PUSH1 0x64 ADD PUSH2 0x1E0 JUMP JUMPDEST DUP1 PUSH1 0x2 DUP2 GT ISZERO PUSH2 0x6A7 JUMPI PUSH2 0x6A7 PUSH2 0x11DC JUMP JUMPDEST DUP3 PUSH1 0x2 DUP2 GT ISZERO PUSH2 0x6B9 JUMPI PUSH2 0x6B9 PUSH2 0x11DC JUMP JUMPDEST SUB PUSH2 0x71C JUMPI PUSH1 0x40 MLOAD PUSH3 0x461BCD PUSH1 0xE5 SHL DUP2 MSTORE PUSH1 0x20 PUSH1 0x4 DUP3 ADD MSTORE PUSH1 0x2D PUSH1 0x24 DUP3 ADD MSTORE PUSH32 0x4E657720526F6C65206D75737420626520646966666572656E742066726F6D20 PUSH1 0x44 DUP3 ADD MSTORE PUSH13 0x3A34329037B632102937B63297 PUSH1 0x99 SHL PUSH1 0x64 DUP3 ADD MSTORE PUSH1 0x84 ADD PUSH2 0x1E0 JUMP JUMPDEST CALLER PUSH1 0x0 SWAP1 DUP2 MSTORE PUSH1 0x20 DUP2 SWAP1 MSTORE PUSH1 0x40 SWAP1 KECCAK256 PUSH1 0x1 ADD DUP1 SLOAD DUP4 SWAP2 SWAP1 PUSH1 0xFF PUSH1 0xA0 SHL NOT AND PUSH1 0x1 PUSH1 0xA0 SHL DUP4 PUSH1 0x2 DUP2 GT ISZERO PUSH2 0x751 JUMPI PUSH2 0x751 PUSH2 0x11DC JUMP JUMPDEST MUL OR SWAP1 SSTORE POP CALLER PUSH1 0x1 PUSH1 0x1 PUSH1 0xA0 SHL SUB AND PUSH32 0x4AC36FA53F167CEB85964BE512E01DE2A3B8BDB9862F917DA079DEEEFF689B38 DUP4 PUSH1 0x40 MLOAD PUSH2 0x78F SWAP2 SWAP1 PUSH2 0x11F2 JUMP JUMPDEST PUSH1 0x40 MLOAD DUP1 SWAP2 SUB SWAP1 LOG2 POP POP JUMP JUMPDEST CALLER PUSH1 0x0 SWAP1 DUP2 MSTORE PUSH1 0x20 DUP2 SWAP1 MSTORE PUSH1 0x40 SWAP1 KECCAK256 PUSH1 0x1 ADD SLOAD PUSH1 0x1 PUSH1 0x1 PUSH1 0xA0 SHL SUB AND PUSH2 0x7F3 JUMPI PUSH1 0x40 MLOAD PUSH3 0x461BCD PUSH1 0xE5 SHL DUP2 MSTORE PUSH1 0x20 PUSH1 0x4 DUP3 ADD MSTORE PUSH1 0xD PUSH1 0x24 DUP3 ADD MSTORE PUSH13 0x2737902224A2103337BAB73217 PUSH1 0x99 SHL PUSH1 0x44 DUP3 ADD MSTORE PUSH1 0x64 ADD PUSH2 0x1E0 JUMP JUMPDEST PUSH1 0x1 PUSH1 0x1 PUSH1 0xA0 SHL SUB DUP2 DUP2 AND PUSH1 0x0 SWAP1 DUP2 MSTORE PUSH1 0x20 DUP2 SWAP1 MSTORE PUSH1 0x40 SWAP1 KECCAK256 PUSH1 0x1 ADD SLOAD AND PUSH2 0x85D JUMPI PUSH1 0x40 MLOAD PUSH3 0x461BCD PUSH1 0xE5 SHL DUP2 MSTORE PUSH1 0x20 PUSH1 0x4 DUP3 ADD MSTORE PUSH1 0x17 PUSH1 0x24 DUP3 ADD MSTORE PUSH32 0x446F63746F72206D75737420686176652061204449442E000000000000000000 PUSH1 0x44 DUP3 ADD MSTORE PUSH1 0x64 ADD PUSH2 0x1E0 JUMP JUMPDEST PUSH1 0x0 JUMPDEST CALLER PUSH1 0x0 SWAP1 DUP2 MSTORE PUSH1 0x1 PUSH1 0x20 MSTORE PUSH1 0x40 SWAP1 KECCAK256 SLOAD DUP2 LT ISZERO PUSH2 0x9D3 JUMPI CALLER PUSH1 0x0 SWAP1 DUP2 MSTORE PUSH1 0x1 PUSH1 0x20 MSTORE PUSH1 0x40 SWAP1 KECCAK256 DUP1 SLOAD PUSH1 0x1 PUSH1 0x1 PUSH1 0xA0 SHL SUB DUP5 AND SWAP2 SWAP1 DUP4 SWAP1 DUP2 LT PUSH2 0x8A4 JUMPI PUSH2 0x8A4 PUSH2 0x1362 JUMP JUMPDEST PUSH1 0x0 SWAP2 DUP3 MSTORE PUSH1 0x20 SWAP1 SWAP2 KECCAK256 ADD SLOAD PUSH1 0x1 PUSH1 0x1 PUSH1 0xA0 SHL SUB AND SUB PUSH2 0x9CB JUMPI CALLER PUSH1 0x0 SWAP1 DUP2 MSTORE PUSH1 0x1 PUSH1 0x20 DUP2 SWAP1 MSTORE PUSH1 0x40 SWAP1 SWAP2 KECCAK256 DUP1 SLOAD SWAP1 SWAP2 PUSH2 0x8DD SWAP2 PUSH2 0x1378 JUMP JUMPDEST DUP2 SLOAD DUP2 LT PUSH2 0x8ED JUMPI PUSH2 0x8ED PUSH2 0x1362 JUMP JUMPDEST PUSH1 0x0 SWAP2 DUP3 MSTORE PUSH1 0x20 DUP1 DUP4 KECCAK256 SWAP1 SWAP2 ADD SLOAD CALLER DUP4 MSTORE PUSH1 0x1 SWAP1 SWAP2 MSTORE PUSH1 0x40 SWAP1 SWAP2 KECCAK256 DUP1 SLOAD PUSH1 0x1 PUSH1 0x1 PUSH1 0xA0 SHL SUB SWAP1 SWAP3 AND SWAP2 DUP4 SWAP1 DUP2 LT PUSH2 0x926 JUMPI PUSH2 0x926 PUSH2 0x1362 JUMP JUMPDEST PUSH1 0x0 SWAP2 DUP3 MSTORE PUSH1 0x20 DUP1 DUP4 KECCAK256 SWAP2 SWAP1 SWAP2 ADD DUP1 SLOAD PUSH1 0x1 PUSH1 0x1 PUSH1 0xA0 SHL SUB NOT AND PUSH1 0x1 PUSH1 0x1 PUSH1 0xA0 SHL SUB SWAP5 SWAP1 SWAP5 AND SWAP4 SWAP1 SWAP4 OR SWAP1 SWAP3 SSTORE CALLER DUP2 MSTORE PUSH1 0x1 SWAP1 SWAP2 MSTORE PUSH1 0x40 SWAP1 KECCAK256 DUP1 SLOAD DUP1 PUSH2 0x96E JUMPI PUSH2 0x96E PUSH2 0x139F JUMP JUMPDEST PUSH1 0x0 DUP3 DUP2 MSTORE PUSH1 0x20 DUP2 KECCAK256 DUP3 ADD PUSH1 0x0 NOT SWAP1 DUP2 ADD DUP1 SLOAD PUSH1 0x1 PUSH1 0x1 PUSH1 0xA0 SHL SUB NOT AND SWAP1 SSTORE SWAP1 SWAP2 ADD SWAP1 SWAP2 SSTORE PUSH1 0x40 MLOAD PUSH1 0x1 PUSH1 0x1 PUSH1 0xA0 SHL SUB DUP5 AND SWAP2 CALLER SWAP2 PUSH32 0x825C8BE24EB0DF19500F63E86C29E7D0D951E73056B889B891D85E40938D9B6E SWAP2 SWAP1 LOG3 POP POP JUMP JUMPDEST PUSH1 0x1 ADD PUSH2 0x860 JUMP JUMPDEST POP POP JUMP JUMPDEST PUSH1 0x1 PUSH1 0x1 PUSH1 0xA0 SHL SUB DUP2 DUP2 AND PUSH1 0x0 SWAP1 DUP2 MSTORE PUSH1 0x20 DUP2 SWAP1 MSTORE PUSH1 0x40 SWAP1 KECCAK256 PUSH1 0x1 ADD SLOAD PUSH1 0x60 SWAP2 DUP3 SWAP2 DUP3 SWAP2 AND PUSH2 0xA38 JUMPI PUSH1 0x40 MLOAD PUSH3 0x461BCD PUSH1 0xE5 SHL DUP2 MSTORE PUSH1 0x20 PUSH1 0x4 DUP3 ADD MSTORE PUSH1 0xD PUSH1 0x24 DUP3 ADD MSTORE PUSH13 0x2737902224A2103337BAB73217 PUSH1 0x99 SHL PUSH1 0x44 DUP3 ADD MSTORE PUSH1 0x64 ADD PUSH2 0x1E0 JUMP JUMPDEST PUSH1 0x1 PUSH1 0x1 PUSH1 0xA0 SHL SUB DUP5 AND PUSH1 0x0 SWAP1 DUP2 MSTORE PUSH1 0x2 PUSH1 0x20 MSTORE PUSH1 0x40 SWAP1 KECCAK256 SLOAD DUP1 PUSH8 0xFFFFFFFFFFFFFFFF DUP2 GT ISZERO PUSH2 0xA6A JUMPI PUSH2 0xA6A PUSH2 0x1037 JUMP JUMPDEST PUSH1 0x40 MLOAD SWAP1 DUP1 DUP3 MSTORE DUP1 PUSH1 0x20 MUL PUSH1 0x20 ADD DUP3 ADD PUSH1 0x40 MSTORE DUP1 ISZERO PUSH2 0xA9D JUMPI DUP2 PUSH1 0x20 ADD JUMPDEST PUSH1 0x60 DUP2 MSTORE PUSH1 0x20 ADD SWAP1 PUSH1 0x1 SWAP1 SUB SWAP1 DUP2 PUSH2 0xA88 JUMPI SWAP1 POP JUMPDEST POP SWAP4 POP DUP1 PUSH8 0xFFFFFFFFFFFFFFFF DUP2 GT ISZERO PUSH2 0xAB9 JUMPI PUSH2 0xAB9 PUSH2 0x1037 JUMP JUMPDEST PUSH1 0x40 MLOAD SWAP1 DUP1 DUP3 MSTORE DUP1 PUSH1 0x20 MUL PUSH1 0x20 ADD DUP3 ADD PUSH1 0x40 MSTORE DUP1 ISZERO PUSH2 0xAE2 JUMPI DUP2 PUSH1 0x20 ADD PUSH1 0x20 DUP3 MUL DUP1 CALLDATASIZE DUP4 CALLDATACOPY ADD SWAP1 POP JUMPDEST POP SWAP3 POP DUP1 PUSH8 0xFFFFFFFFFFFFFFFF DUP2 GT ISZERO PUSH2 0xAFE JUMPI PUSH2 0xAFE PUSH2 0x1037 JUMP JUMPDEST PUSH1 0x40 MLOAD SWAP1 DUP1 DUP3 MSTORE DUP1 PUSH1 0x20 MUL PUSH1 0x20 ADD DUP3 ADD PUSH1 0x40 MSTORE DUP1 ISZERO PUSH2 0xB27 JUMPI DUP2 PUSH1 0x20 ADD PUSH1 0x20 DUP3 MUL DUP1 CALLDATASIZE DUP4 CALLDATACOPY ADD SWAP1 POP JUMPDEST POP SWAP2 POP PUSH1 0x0 JUMPDEST DUP2 DUP2 LT ISZERO PUSH2 0xCAF JUMPI PUSH1 0x1 PUSH1 0x1 PUSH1 0xA0 SHL SUB DUP7 AND PUSH1 0x0 SWAP1 DUP2 MSTORE PUSH1 0x2 PUSH1 0x20 MSTORE PUSH1 0x40 DUP2 KECCAK256 DUP1 SLOAD DUP4 SWAP1 DUP2 LT PUSH2 0xB5F JUMPI PUSH2 0xB5F PUSH2 0x1362 JUMP JUMPDEST SWAP1 PUSH1 0x0 MSTORE PUSH1 0x20 PUSH1 0x0 KECCAK256 SWAP1 PUSH1 0x3 MUL ADD PUSH1 0x40 MLOAD DUP1 PUSH1 0x60 ADD PUSH1 0x40 MSTORE SWAP1 DUP2 PUSH1 0x0 DUP3 ADD DUP1 SLOAD PUSH2 0xB88 SWAP1 PUSH2 0x121A JUMP JUMPDEST DUP1 PUSH1 0x1F ADD PUSH1 0x20 DUP1 SWAP2 DIV MUL PUSH1 0x20 ADD PUSH1 0x40 MLOAD SWAP1 DUP2 ADD PUSH1 0x40 MSTORE DUP1 SWAP3 SWAP2 SWAP1 DUP2 DUP2 MSTORE PUSH1 0x20 ADD DUP3 DUP1 SLOAD PUSH2 0xBB4 SWAP1 PUSH2 0x121A JUMP JUMPDEST DUP1 ISZERO PUSH2 0xC01 JUMPI DUP1 PUSH1 0x1F LT PUSH2 0xBD6 JUMPI PUSH2 0x100 DUP1 DUP4 SLOAD DIV MUL DUP4 MSTORE SWAP2 PUSH1 0x20 ADD SWAP2 PUSH2 0xC01 JUMP JUMPDEST DUP3 ADD SWAP2 SWAP1 PUSH1 0x0 MSTORE PUSH1 0x20 PUSH1 0x0 KECCAK256 SWAP1 JUMPDEST DUP2 SLOAD DUP2 MSTORE SWAP1 PUSH1 0x1 ADD SWAP1 PUSH1 0x20 ADD DUP1 DUP4 GT PUSH2 0xBE4 JUMPI DUP3 SWAP1 SUB PUSH1 0x1F AND DUP3 ADD SWAP2 JUMPDEST POP POP POP SWAP2 DUP4 MSTORE POP POP PUSH1 0x1 DUP3 ADD SLOAD PUSH1 0x1 PUSH1 0x1 PUSH1 0xA0 SHL SUB AND PUSH1 0x20 DUP3 ADD MSTORE PUSH1 0x2 SWAP1 SWAP2 ADD SLOAD PUSH1 0x40 SWAP1 SWAP2 ADD MSTORE DUP1 MLOAD DUP8 MLOAD SWAP2 SWAP3 POP SWAP1 DUP8 SWAP1 DUP5 SWAP1 DUP2 LT PUSH2 0xC42 JUMPI PUSH2 0xC42 PUSH2 0x1362 JUMP JUMPDEST PUSH1 0x20 MUL PUSH1 0x20 ADD ADD DUP2 SWAP1 MSTORE POP DUP1 PUSH1 0x20 ADD MLOAD DUP6 DUP4 DUP2 MLOAD DUP2 LT PUSH2 0xC64 JUMPI PUSH2 0xC64 PUSH2 0x1362 JUMP JUMPDEST PUSH1 0x20 MUL PUSH1 0x20 ADD ADD SWAP1 PUSH1 0x1 PUSH1 0x1 PUSH1 0xA0 SHL SUB AND SWAP1 DUP2 PUSH1 0x1 PUSH1 0x1 PUSH1 0xA0 SHL SUB AND DUP2 MSTORE POP POP DUP1 PUSH1 0x40 ADD MLOAD DUP5 DUP4 DUP2 MLOAD DUP2 LT PUSH2 0xC9B JUMPI PUSH2 0xC9B PUSH2 0x1362 JUMP JUMPDEST PUSH1 0x20 SWAP1 DUP2 MUL SWAP2 SWAP1 SWAP2 ADD ADD MSTORE POP PUSH1 0x1 ADD PUSH2 0xB2D JUMP JUMPDEST POP POP SWAP2 SWAP4 SWAP1 SWAP3 POP JUMP JUMPDEST PUSH1 0x0 DUP2 MLOAD GT PUSH2 0xD09 JUMPI PUSH1 0x40 MLOAD PUSH3 0x461BCD PUSH1 0xE5 SHL DUP2 MSTORE PUSH1 0x20 PUSH1 0x4 DUP3 ADD MSTORE PUSH1 0x1A PUSH1 0x24 DUP3 ADD MSTORE PUSH32 0x4950465320686173682063616E6E6F7420626520656D7074792E000000000000 PUSH1 0x44 DUP3 ADD MSTORE PUSH1 0x64 ADD PUSH2 0x1E0 JUMP JUMPDEST CALLER PUSH1 0x0 SWAP1 DUP2 MSTORE PUSH1 0x20 DUP2 SWAP1 MSTORE PUSH1 0x40 SWAP1 KECCAK256 PUSH1 0x1 ADD SLOAD PUSH1 0x1 PUSH1 0x1 PUSH1 0xA0 SHL SUB AND PUSH2 0xD61 JUMPI PUSH1 0x40 MLOAD PUSH3 0x461BCD PUSH1 0xE5 SHL DUP2 MSTORE PUSH1 0x20 PUSH1 0x4 DUP3 ADD MSTORE PUSH1 0xD PUSH1 0x24 DUP3 ADD MSTORE PUSH13 0x2737902224A2103337BAB73217 PUSH1 0x99 SHL PUSH1 0x44 DUP3 ADD MSTORE PUSH1 0x64 ADD PUSH2 0x1E0 JUMP JUMPDEST CALLER PUSH1 0x0 DUP2 DUP2 MSTORE PUSH1 0x2 PUSH1 0x20 SWAP1 DUP2 MSTORE PUSH1 0x40 DUP1 DUP4 KECCAK256 DUP2 MLOAD PUSH1 0x60 DUP2 ADD DUP4 MSTORE DUP7 DUP2 MSTORE DUP1 DUP5 ADD SWAP6 SWAP1 SWAP6 MSTORE TIMESTAMP SWAP2 DUP6 ADD SWAP2 SWAP1 SWAP2 MSTORE DUP1 SLOAD PUSH1 0x1 DUP2 ADD DUP3 SSTORE SWAP1 DUP4 MSTORE SWAP2 KECCAK256 DUP3 MLOAD PUSH1 0x3 SWAP1 SWAP3 MUL ADD SWAP1 DUP2 SWAP1 PUSH2 0xDAF SWAP1 DUP3 PUSH2 0x12A3 JUMP JUMPDEST POP PUSH1 0x20 DUP3 ADD MLOAD PUSH1 0x1 DUP3 ADD DUP1 SLOAD PUSH1 0x1 PUSH1 0x1 PUSH1 0xA0 SHL SUB NOT AND PUSH1 0x1 PUSH1 0x1 PUSH1 0xA0 SHL SUB SWAP1 SWAP3 AND SWAP2 SWAP1 SWAP2 OR SWAP1 SSTORE PUSH1 0x40 SWAP2 DUP3 ADD MLOAD PUSH1 0x2 SWAP1 SWAP2 ADD SSTORE MLOAD CALLER SWAP1 PUSH32 0x44626CFEC8A165F72396CC5E247C6B96279F8C205A8D07C390DF7AA5806205FA SWAP1 PUSH2 0x627 SWAP1 DUP5 SWAP1 PUSH2 0xFCC JUMP JUMPDEST CALLER PUSH1 0x0 SWAP1 DUP2 MSTORE PUSH1 0x20 DUP2 SWAP1 MSTORE PUSH1 0x40 SWAP1 KECCAK256 PUSH1 0x1 ADD SLOAD PUSH1 0x1 PUSH1 0x1 PUSH1 0xA0 SHL SUB AND PUSH2 0xE6A JUMPI PUSH1 0x40 MLOAD PUSH3 0x461BCD PUSH1 0xE5 SHL DUP2 MSTORE PUSH1 0x20 PUSH1 0x4 DUP3 ADD MSTORE PUSH1 0xD PUSH1 0x24 DUP3 ADD MSTORE PUSH13 0x2737902224A2103337BAB73217 PUSH1 0x99 SHL PUSH1 0x44 DUP3 ADD MSTORE PUSH1 0x64 ADD PUSH2 0x1E0 JUMP JUMPDEST CALLER PUSH1 0x0 SWAP1 DUP2 MSTORE PUSH1 0x20 DUP2 SWAP1 MSTORE PUSH1 0x40 SWAP1 KECCAK256 PUSH1 0x1 ADD DUP1 SLOAD DUP3 SWAP2 SWAP1 PUSH1 0xFF PUSH1 0xA0 SHL NOT AND PUSH1 0x1 PUSH1 0xA0 SHL DUP4 PUSH1 0x2 DUP2 GT ISZERO PUSH2 0xE9F JUMPI PUSH2 0xE9F PUSH2 0x11DC JUMP JUMPDEST MUL OR SWAP1 SSTORE POP CALLER PUSH1 0x1 PUSH1 0x1 PUSH1 0xA0 SHL SUB AND PUSH32 0x4AC36FA53F167CEB85964BE512E01DE2A3B8BDB9862F917DA079DEEEFF689B38 DUP3 PUSH1 0x40 MLOAD PUSH2 0x627 SWAP2 SWAP1 PUSH2 0x11F2 JUMP JUMPDEST CALLER PUSH1 0x0 SWAP1 DUP2 MSTORE PUSH1 0x20 DUP2 SWAP1 MSTORE PUSH1 0x40 DUP2 KECCAK256 PUSH1 0x1 ADD SLOAD PUSH1 0x1 PUSH1 0x1 PUSH1 0xA0 SHL SUB AND PUSH2 0xF35 JUMPI PUSH1 0x40 MLOAD PUSH3 0x461BCD PUSH1 0xE5 SHL DUP2 MSTORE PUSH1 0x20 PUSH1 0x4 DUP3 ADD MSTORE PUSH1 0xD PUSH1 0x24 DUP3 ADD MSTORE PUSH13 0x2737902224A2103337BAB73217 PUSH1 0x99 SHL PUSH1 0x44 DUP3 ADD MSTORE PUSH1 0x64 ADD PUSH2 0x1E0 JUMP JUMPDEST POP CALLER PUSH1 0x0 SWAP1 DUP2 MSTORE PUSH1 0x20 DUP2 SWAP1 MSTORE PUSH1 0x40 SWAP1 KECCAK256 PUSH1 0x1 ADD SLOAD PUSH1 0x1 PUSH1 0xA0 SHL SWAP1 DIV PUSH1 0xFF AND SWAP1 JUMP JUMPDEST PUSH1 0x0 PUSH1 0x20 DUP3 DUP5 SUB SLT ISZERO PUSH2 0xF68 JUMPI PUSH1 0x0 DUP1 REVERT JUMPDEST DUP2 CALLDATALOAD PUSH1 0x1 PUSH1 0x1 PUSH1 0xA0 SHL SUB DUP2 AND DUP2 EQ PUSH2 0xF7F JUMPI PUSH1 0x0 DUP1 REVERT JUMPDEST SWAP4 SWAP3 POP POP POP JUMP JUMPDEST PUSH1 0x0 DUP2 MLOAD DUP1 DUP5 MSTORE PUSH1 0x0 JUMPDEST DUP2 DUP2 LT ISZERO PUSH2 0xFAC JUMPI PUSH1 0x20 DUP2 DUP6 ADD DUP2 ADD MLOAD DUP7 DUP4 ADD DUP3 ADD MSTORE ADD PUSH2 0xF90 JUMP JUMPDEST POP PUSH1 0x0 PUSH1 0x20 DUP3 DUP7 ADD ADD MSTORE PUSH1 0x20 PUSH1 0x1F NOT PUSH1 0x1F DUP4 ADD AND DUP6 ADD ADD SWAP2 POP POP SWAP3 SWAP2 POP POP JUMP JUMPDEST PUSH1 0x20 DUP2 MSTORE PUSH1 0x0 PUSH2 0xF7F PUSH1 0x20 DUP4 ADD DUP5 PUSH2 0xF86 JUMP JUMPDEST PUSH1 0x0 DUP2 MLOAD DUP1 DUP5 MSTORE PUSH1 0x20 DUP5 ADD SWAP4 POP PUSH1 0x20 DUP4 ADD PUSH1 0x0 JUMPDEST DUP3 DUP2 LT ISZERO PUSH2 0x101A JUMPI DUP2 MLOAD PUSH1 0x1 PUSH1 0x1 PUSH1 0xA0 SHL SUB AND DUP7 MSTORE PUSH1 0x20 SWAP6 DUP7 ADD SWAP6 SWAP1 SWAP2 ADD SWAP1 PUSH1 0x1 ADD PUSH2 0xFF3 JUMP JUMPDEST POP SWAP4 SWAP5 SWAP4 POP POP POP POP JUMP JUMPDEST PUSH1 0x20 DUP2 MSTORE PUSH1 0x0 PUSH2 0xF7F PUSH1 0x20 DUP4 ADD DUP5 PUSH2 0xFDF JUMP JUMPDEST PUSH4 0x4E487B71 PUSH1 0xE0 SHL PUSH1 0x0 MSTORE PUSH1 0x41 PUSH1 0x4 MSTORE PUSH1 0x24 PUSH1 0x0 REVERT JUMPDEST PUSH1 0x0 PUSH1 0x20 DUP3 DUP5 SUB SLT ISZERO PUSH2 0x105F JUMPI PUSH1 0x0 DUP1 REVERT JUMPDEST DUP2 CALLDATALOAD PUSH8 0xFFFFFFFFFFFFFFFF DUP2 GT ISZERO PUSH2 0x1076 JUMPI PUSH1 0x0 DUP1 REVERT JUMPDEST DUP3 ADD PUSH1 0x1F DUP2 ADD DUP5 SGT PUSH2 0x1087 JUMPI PUSH1 0x0 DUP1 REVERT JUMPDEST DUP1 CALLDATALOAD PUSH8 0xFFFFFFFFFFFFFFFF DUP2 GT ISZERO PUSH2 0x10A1 JUMPI PUSH2 0x10A1 PUSH2 0x1037 JUMP JUMPDEST PUSH1 0x40 MLOAD PUSH1 0x1F DUP3 ADD PUSH1 0x1F NOT SWAP1 DUP2 AND PUSH1 0x3F ADD AND DUP2 ADD PUSH8 0xFFFFFFFFFFFFFFFF DUP2 GT DUP3 DUP3 LT OR ISZERO PUSH2 0x10D0 JUMPI PUSH2 0x10D0 PUSH2 0x1037 JUMP JUMPDEST PUSH1 0x40 MSTORE DUP2 DUP2 MSTORE DUP3 DUP3 ADD PUSH1 0x20 ADD DUP7 LT ISZERO PUSH2 0x10E8 JUMPI PUSH1 0x0 DUP1 REVERT JUMPDEST DUP2 PUSH1 0x20 DUP5 ADD PUSH1 0x20 DUP4 ADD CALLDATACOPY PUSH1 0x0 SWAP2 DUP2 ADD PUSH1 0x20 ADD SWAP2 SWAP1 SWAP2 MSTORE SWAP5 SWAP4 POP POP POP POP JUMP JUMPDEST PUSH1 0x0 PUSH1 0x20 DUP3 DUP5 SUB SLT ISZERO PUSH2 0x1118 JUMPI PUSH1 0x0 DUP1 REVERT JUMPDEST DUP2 CALLDATALOAD PUSH1 0x3 DUP2 LT PUSH2 0xF7F JUMPI PUSH1 0x0 DUP1 REVERT JUMPDEST PUSH1 0x0 PUSH1 0x60 DUP3 ADD PUSH1 0x60 DUP4 MSTORE DUP1 DUP7 MLOAD DUP1 DUP4 MSTORE PUSH1 0x80 DUP6 ADD SWAP2 POP PUSH1 0x80 DUP2 PUSH1 0x5 SHL DUP7 ADD ADD SWAP3 POP PUSH1 0x20 DUP9 ADD PUSH1 0x0 JUMPDEST DUP3 DUP2 LT ISZERO PUSH2 0x1180 JUMPI PUSH1 0x7F NOT DUP8 DUP7 SUB ADD DUP5 MSTORE PUSH2 0x116B DUP6 DUP4 MLOAD PUSH2 0xF86 JUMP JUMPDEST SWAP5 POP PUSH1 0x20 SWAP4 DUP5 ADD SWAP4 SWAP2 SWAP1 SWAP2 ADD SWAP1 PUSH1 0x1 ADD PUSH2 0x114F JUMP JUMPDEST POP POP POP POP DUP3 DUP2 SUB PUSH1 0x20 DUP5 ADD MSTORE PUSH2 0x1196 DUP2 DUP7 PUSH2 0xFDF JUMP JUMPDEST DUP4 DUP2 SUB PUSH1 0x40 DUP6 ADD MSTORE DUP5 MLOAD DUP1 DUP3 MSTORE PUSH1 0x20 DUP1 DUP8 ADD SWAP4 POP SWAP1 SWAP2 ADD SWAP1 PUSH1 0x0 JUMPDEST DUP2 DUP2 LT ISZERO PUSH2 0x11CF JUMPI DUP4 MLOAD DUP4 MSTORE PUSH1 0x20 SWAP4 DUP5 ADD SWAP4 SWAP1 SWAP3 ADD SWAP2 PUSH1 0x1 ADD PUSH2 0x11B1 JUMP JUMPDEST POP SWAP1 SWAP8 SWAP7 POP POP POP POP POP POP POP JUMP JUMPDEST PUSH4 0x4E487B71 PUSH1 0xE0 SHL PUSH1 0x0 MSTORE PUSH1 0x21 PUSH1 0x4 MSTORE PUSH1 0x24 PUSH1 0x0 REVERT JUMPDEST PUSH1 0x20 DUP2 ADD PUSH1 0x3 DUP4 LT PUSH2 0x1214 JUMPI PUSH4 0x4E487B71 PUSH1 0xE0 SHL PUSH1 0x0 MSTORE PUSH1 0x21 PUSH1 0x4 MSTORE PUSH1 0x24 PUSH1 0x0 REVERT JUMPDEST SWAP2 SWAP1 MSTORE SWAP1 JUMP JUMPDEST PUSH1 0x1 DUP2 DUP2 SHR SWAP1 DUP3 AND DUP1 PUSH2 0x122E JUMPI PUSH1 0x7F DUP3 AND SWAP2 POP JUMPDEST PUSH1 0x20 DUP3 LT DUP2 SUB PUSH2 0x124E JUMPI PUSH4 0x4E487B71 PUSH1 0xE0 SHL PUSH1 0x0 MSTORE PUSH1 0x22 PUSH1 0x4 MSTORE PUSH1 0x24 PUSH1 0x0 REVERT JUMPDEST POP SWAP2 SWAP1 POP JUMP JUMPDEST PUSH1 0x1F DUP3 GT ISZERO PUSH2 0x129E JUMPI DUP1 PUSH1 0x0 MSTORE PUSH1 0x20 PUSH1 0x0 KECCAK256 PUSH1 0x1F DUP5 ADD PUSH1 0x5 SHR DUP2 ADD PUSH1 0x20 DUP6 LT ISZERO PUSH2 0x127B JUMPI POP DUP1 JUMPDEST PUSH1 0x1F DUP5 ADD PUSH1 0x5 SHR DUP3 ADD SWAP2 POP JUMPDEST DUP2 DUP2 LT ISZERO PUSH2 0x129B JUMPI PUSH1 0x0 DUP2 SSTORE PUSH1 0x1 ADD PUSH2 0x1287 JUMP JUMPDEST POP POP JUMPDEST POP POP POP JUMP JUMPDEST DUP2 MLOAD PUSH8 0xFFFFFFFFFFFFFFFF DUP2 GT ISZERO PUSH2 0x12BD JUMPI PUSH2 0x12BD PUSH2 0x1037 JUMP JUMPDEST PUSH2 0x12D1 DUP2 PUSH2 0x12CB DUP5 SLOAD PUSH2 0x121A JUMP JUMPDEST DUP5 PUSH2 0x1254 JUMP JUMPDEST PUSH1 0x20 PUSH1 0x1F DUP3 GT PUSH1 0x1 DUP2 EQ PUSH2 0x1305 JUMPI PUSH1 0x0 DUP4 ISZERO PUSH2 0x12ED JUMPI POP DUP5 DUP3 ADD MLOAD JUMPDEST PUSH1 0x0 NOT PUSH1 0x3 DUP6 SWAP1 SHL SHR NOT AND PUSH1 0x1 DUP5 SWAP1 SHL OR DUP5 SSTORE PUSH2 0x129B JUMP JUMPDEST PUSH1 0x0 DUP5 DUP2 MSTORE PUSH1 0x20 DUP2 KECCAK256 PUSH1 0x1F NOT DUP6 AND SWAP2 JUMPDEST DUP3 DUP2 LT ISZERO PUSH2 0x1335 JUMPI DUP8 DUP6 ADD MLOAD DUP3 SSTORE PUSH1 0x20 SWAP5 DUP6 ADD SWAP5 PUSH1 0x1 SWAP1 SWAP3 ADD SWAP2 ADD PUSH2 0x1315 JUMP JUMPDEST POP DUP5 DUP3 LT ISZERO PUSH2 0x1353 JUMPI DUP7 DUP5 ADD MLOAD PUSH1 0x0 NOT PUSH1 0x3 DUP8 SWAP1 SHL PUSH1 0xF8 AND SHR NOT AND DUP2 SSTORE JUMPDEST POP POP POP POP PUSH1 0x1 SWAP1 DUP2 SHL ADD SWAP1 SSTORE POP JUMP JUMPDEST PUSH4 0x4E487B71 PUSH1 0xE0 SHL PUSH1 0x0 MSTORE PUSH1 0x32 PUSH1 0x4 MSTORE PUSH1 0x24 PUSH1 0x0 REVERT JUMPDEST DUP2 DUP2 SUB DUP2 DUP2 GT ISZERO PUSH2 0x1399 JUMPI PUSH4 0x4E487B71 PUSH1 0xE0 SHL PUSH1 0x0 MSTORE PUSH1 0x11 PUSH1 0x4 MSTORE PUSH1 0x24 PUSH1 0x0 REVERT JUMPDEST SWAP3 SWAP2 POP POP JUMP JUMPDEST PUSH4 0x4E487B71 PUSH1 0xE0 SHL PUSH1 0x0 MSTORE PUSH1 0x31 PUSH1 0x4 MSTORE PUSH1 0x24 PUSH1 0x0 REVERT INVALID LOG2 PUSH5 0x6970667358 0x22 SLT KECCAK256 NUMBER CALLDATACOPY 0xA9 BALANCE DUP1 0xE8 CALLER 0xFB PUSH12 0xA2F9297F13E7246F0E6372B7 0xDF 0xB8 0xEF CODECOPY 0x2D PUSH7 0xC8E7D328A36473 PUSH16 0x6C634300081A00330000000000000000 "
				},
				"gasEstimates": {
					"creation": {
						"codeDepositCost": "1019800",
						"executionCost": "1061",
						"totalCost": "1020861"
					},
					"external": {
						"addRecord(string)": "infinite",
						"assignRole(uint8)": "28398",
						"createDID(string)": "infinite",
						"getDelegates(address)": "infinite",
						"getRecords(address)": "infinite",
						"getRole()": "4756",
						"getRoleString()": "infinite",
						"grantAccess(address)": "54834",
						"revokeAccess(address)": "infinite",
						"updateRole(uint8)": "28524"
					}
				},
				"methodIdentifiers": {
					"addRecord(string)": "d81aa8c4",
					"assignRole(uint8)": "ec0b7b41",
					"createDID(string)": "3457d3e2",
					"getDelegates(address)": "169db77d",
					"getRecords(address)": "a0076e84",
					"getRole()": "fde08174",
					"getRoleString()": "13720fef",
					"grantAccess(address)": "0ae5e739",
					"revokeAccess(address)": "85e68531",
					"updateRole(uint8)": "61765a26"
				}
			},
			"storageLayout": {
				"storage": [
					{
						"astId": 18,
						"contract": "contracts/MedicalRecords.sol:MedicalRecords",
						"label": "dids",
						"offset": 0,
						"slot": "0",
						"type": "t_mapping(t_address,t_struct(DID)13_storage)"
					},
					{
						"astId": 23,
						"contract": "contracts/MedicalRecords.sol:MedicalRecords",
						"label": "delegates",
						"offset": 0,
						"slot": "1",
						"type": "t_mapping(t_address,t_array(t_address)dyn_storage)"
					},
					{
						"astId": 438,
						"contract": "contracts/MedicalRecords.sol:MedicalRecords",
						"label": "records",
						"offset": 0,
						"slot": "2",
						"type": "t_mapping(t_address,t_array(t_struct(MedicalRecord)432_storage)dyn_storage)"
					}
				],
				"types": {
					"t_address": {
						"encoding": "inplace",
						"label": "address",
						"numberOfBytes": "20"
					},
					"t_array(t_address)dyn_storage": {
						"base": "t_address",
						"encoding": "dynamic_array",
						"label": "address[]",
						"numberOfBytes": "32"
					},
					"t_array(t_struct(MedicalRecord)432_storage)dyn_storage": {
						"base": "t_struct(MedicalRecord)432_storage",
						"encoding": "dynamic_array",
						"label": "struct MedicalRecords.MedicalRecord[]",
						"numberOfBytes": "32"
					},
					"t_enum(Roles)5": {
						"encoding": "inplace",
						"label": "enum DIDRegistry.Roles",
						"numberOfBytes": "1"
					},
					"t_mapping(t_address,t_array(t_address)dyn_storage)": {
						"encoding": "mapping",
						"key": "t_address",
						"label": "mapping(address => address[])",
						"numberOfBytes": "32",
						"value": "t_array(t_address)dyn_storage"
					},
					"t_mapping(t_address,t_array(t_struct(MedicalRecord)432_storage)dyn_storage)": {
						"encoding": "mapping",
						"key": "t_address",
						"label": "mapping(address => struct MedicalRecords.MedicalRecord[])",
						"numberOfBytes": "32",
						"value": "t_array(t_struct(MedicalRecord)432_storage)dyn_storage"
					},
					"t_mapping(t_address,t_struct(DID)13_storage)": {
						"encoding": "mapping",
						"key": "t_address",
						"label": "mapping(address => struct DIDRegistry.DID)",
						"numberOfBytes": "32",
						"value": "t_struct(DID)13_storage"
					},
					"t_string_storage": {
						"encoding": "bytes",
						"label": "string",
						"numberOfBytes": "32"
					},
					"t_struct(DID)13_storage": {
						"encoding": "inplace",
						"label": "struct DIDRegistry.DID",
						"members": [
							{
								"astId": 7,
								"contract": "contracts/MedicalRecords.sol:MedicalRecords",
								"label": "identifier",
								"offset": 0,
								"slot": "0",
								"type": "t_string_storage"
							},
							{
								"astId": 9,
								"contract": "contracts/MedicalRecords.sol:MedicalRecords",
								"label": "owner",
								"offset": 0,
								"slot": "1",
								"type": "t_address"
							},
							{
								"astId": 12,
								"contract": "contracts/MedicalRecords.sol:MedicalRecords",
								"label": "role",
								"offset": 20,
								"slot": "1",
								"type": "t_enum(Roles)5"
							}
						],
						"numberOfBytes": "64"
					},
					"t_struct(MedicalRecord)432_storage": {
						"encoding": "inplace",
						"label": "struct MedicalRecords.MedicalRecord",
						"members": [
							{
								"astId": 427,
								"contract": "contracts/MedicalRecords.sol:MedicalRecords",
								"label": "ipfsHash",
								"offset": 0,
								"slot": "0",
								"type": "t_string_storage"
							},
							{
								"astId": 429,
								"contract": "contracts/MedicalRecords.sol:MedicalRecords",
								"label": "uploadedBy",
								"offset": 0,
								"slot": "1",
								"type": "t_address"
							},
							{
								"astId": 431,
								"contract": "contracts/MedicalRecords.sol:MedicalRecords",
								"label": "timestamp",
								"offset": 0,
								"slot": "2",
								"type": "t_uint256"
							}
						],
						"numberOfBytes": "96"
					},
					"t_uint256": {
						"encoding": "inplace",
						"label": "uint256",
						"numberOfBytes": "32"
					}
				}
			},
			"userdoc": {
				"kind": "user",
				"methods": {},
				"version": 1
			}
		}
	}
}