{
	"contracts/ssi_and_did_lab/DIDRegistry.sol": {
		"DIDRegistry": {
			"abi": [
				{
					"anonymous": false,
					"inputs": [
						{
							"indexed": true,
							"internalType": "address",
							"name": "owner",
							"type": "address"
						},
						{
							"indexed": false,
							"internalType": "string",
							"name": "identifier",
							"type": "string"
						}
					],
					"name": "DIDRegistered",
					"type": "event"
				},
				{
					"anonymous": false,
					"inputs": [
						{
							"indexed": false,
							"internalType": "string",
							"name": "oldDID",
							"type": "string"
						},
						{
							"indexed": false,
							"internalType": "string",
							"name": "newDID",
							"type": "string"
						}
					],
					"name": "DIDUpdated",
					"type": "event"
				},
				{
					"anonymous": false,
					"inputs": [
						{
							"indexed": true,
							"internalType": "address",
							"name": "owner",
							"type": "address"
						},
						{
							"indexed": false,
							"internalType": "string",
							"name": "role",
							"type": "string"
						}
					],
					"name": "RoleAssigned",
					"type": "event"
				},
				{
					"anonymous": false,
					"inputs": [
						{
							"indexed": false,
							"internalType": "string",
							"name": "oldRole",
							"type": "string"
						},
						{
							"indexed": false,
							"internalType": "string",
							"name": "newRole",
							"type": "string"
						}
					],
					"name": "RoleUpdated",
					"type": "event"
				},
				{
					"inputs": [
						{
							"internalType": "string",
							"name": "_role",
							"type": "string"
						}
					],
					"name": "assignRole",
					"outputs": [],
					"stateMutability": "nonpayable",
					"type": "function"
				},
				{
					"inputs": [
						{
							"internalType": "string",
							"name": "_a",
							"type": "string"
						},
						{
							"internalType": "string",
							"name": "_b",
							"type": "string"
						}
					],
					"name": "compareStrings",
					"outputs": [
						{
							"internalType": "bool",
							"name": "",
							"type": "bool"
						}
					],
					"stateMutability": "pure",
					"type": "function"
				},
				{
					"inputs": [
						{
							"internalType": "string",
							"name": "_identifier",
							"type": "string"
						}
					],
					"name": "createDID",
					"outputs": [],
					"stateMutability": "nonpayable",
					"type": "function"
				},
				{
					"inputs": [],
					"name": "getAllRoles",
					"outputs": [
						{
							"internalType": "enum DIDRegistry.Roles",
							"name": "",
							"type": "uint8"
						}
					],
					"stateMutability": "view",
					"type": "function"
				},
				{
					"inputs": [],
					"name": "getDID",
					"outputs": [
						{
							"internalType": "string",
							"name": "",
							"type": "string"
						}
					],
					"stateMutability": "view",
					"type": "function"
				},
				{
					"inputs": [],
					"name": "getRole",
					"outputs": [
						{
							"internalType": "string",
							"name": "",
							"type": "string"
						}
					],
					"stateMutability": "view",
					"type": "function"
				},
				{
					"inputs": [],
					"name": "roles",
					"outputs": [
						{
							"internalType": "enum DIDRegistry.Roles",
							"name": "",
							"type": "uint8"
						}
					],
					"stateMutability": "view",
					"type": "function"
				},
				{
					"inputs": [
						{
							"internalType": "string",
							"name": "_newDID",
							"type": "string"
						}
					],
					"name": "updateDID",
					"outputs": [],
					"stateMutability": "nonpayable",
					"type": "function"
				},
				{
					"inputs": [
						{
							"internalType": "string",
							"name": "_newRole",
							"type": "string"
						}
					],
					"name": "updateRole",
					"outputs": [],
					"stateMutability": "nonpayable",
					"type": "function"
				}
			],
			"devdoc": {
				"kind": "dev",
				"methods": {},
				"version": 1
			},
			"evm": {
				"assembly": "    /* \"contracts/ssi_and_did_lab/DIDRegistry.sol\":57:3538  contract DIDRegistry {... */\n  mstore(0x40, 0x80)\n  callvalue\n  dup1\n  iszero\n  tag_1\n  jumpi\n  0x00\n  dup1\n  revert\ntag_1:\n  pop\n  dataSize(sub_0)\n  dup1\n  dataOffset(sub_0)\n  0x00\n  codecopy\n  0x00\n  return\nstop\n\nsub_0: assembly {\n        /* \"contracts/ssi_and_did_lab/DIDRegistry.sol\":57:3538  contract DIDRegistry {... */\n      mstore(0x40, 0x80)\n      callvalue\n      dup1\n      iszero\n      tag_1\n      jumpi\n      0x00\n      dup1\n      revert\n    tag_1:\n      pop\n      jumpi(tag_2, lt(calldatasize, 0x04))\n      shr(0xe0, calldataload(0x00))\n      dup1\n      0xa60c97eb\n      gt\n      tag_12\n      jumpi\n      dup1\n      0xa60c97eb\n      eq\n      tag_7\n      jumpi\n      dup1\n      0xbc9c2d55\n      eq\n      tag_8\n      jumpi\n      dup1\n      0xbed34bba\n      eq\n      tag_9\n      jumpi\n      dup1\n      0xf2bcac3d\n      eq\n      tag_10\n      jumpi\n      dup1\n      0xfde08174\n      eq\n      tag_11\n      jumpi\n      0x00\n      dup1\n      revert\n    tag_12:\n      dup1\n      0x14c95832\n      eq\n      tag_3\n      jumpi\n      dup1\n      0x2517c5c7\n      eq\n      tag_4\n      jumpi\n      dup1\n      0x3457d3e2\n      eq\n      tag_5\n      jumpi\n      dup1\n      0x392f5f64\n      eq\n      tag_6\n      jumpi\n    tag_2:\n      0x00\n      dup1\n      revert\n        /* \"contracts/ssi_and_did_lab/DIDRegistry.sol\":1225:1862  function updateDID(string memory _newDID) public {... */\n    tag_3:\n      tag_13\n      tag_14\n      calldatasize\n      0x04\n      tag_15\n      jump\t// in\n    tag_14:\n      tag_16\n      jump\t// in\n    tag_13:\n      stop\n        /* \"contracts/ssi_and_did_lab/DIDRegistry.sol\":2757:3247  function updateRole(string memory _newRole) public {... */\n    tag_4:\n      tag_13\n      tag_18\n      calldatasize\n      0x04\n      tag_15\n      jump\t// in\n    tag_18:\n      tag_19\n      jump\t// in\n        /* \"contracts/ssi_and_did_lab/DIDRegistry.sol\":859:1219  function createDID(string memory _identifier) public {... */\n    tag_5:\n      tag_13\n      tag_21\n      calldatasize\n      0x04\n      tag_15\n      jump\t// in\n    tag_21:\n      tag_22\n      jump\t// in\n        /* \"contracts/ssi_and_did_lab/DIDRegistry.sol\":2089:2107  Roles public roles */\n    tag_6:\n      sload(0x01)\n      tag_23\n      swap1\n      0xff\n      and\n      dup2\n      jump\n    tag_23:\n      mload(0x40)\n      tag_25\n      swap2\n      swap1\n      tag_26\n      jump\t// in\n    tag_25:\n      mload(0x40)\n      dup1\n      swap2\n      sub\n      swap1\n      return\n        /* \"contracts/ssi_and_did_lab/DIDRegistry.sol\":2320:2751  function assignRole(string memory _role) public {... */\n    tag_7:\n      tag_13\n      tag_28\n      calldatasize\n      0x04\n      tag_15\n      jump\t// in\n    tag_28:\n      tag_29\n      jump\t// in\n        /* \"contracts/ssi_and_did_lab/DIDRegistry.sol\":1868:2060  function getDID() public view returns(string memory) {... */\n    tag_8:\n      tag_30\n      tag_31\n      jump\t// in\n    tag_30:\n      mload(0x40)\n      tag_25\n      swap2\n      swap1\n      tag_33\n      jump\t// in\n        /* \"contracts/ssi_and_did_lab/DIDRegistry.sol\":641:853  function compareStrings(string memory _a, string memory _b) public pure returns(bool) {... */\n    tag_9:\n      tag_34\n      tag_35\n      calldatasize\n      0x04\n      tag_36\n      jump\t// in\n    tag_35:\n        /* \"contracts/ssi_and_did_lab/DIDRegistry.sol\":768:788  keccak256(bytes(_b)) */\n      dup1\n      mload\n      0x20\n      swap2\n      dup3\n      add\n      keccak256\n        /* \"contracts/ssi_and_did_lab/DIDRegistry.sol\":744:764  keccak256(bytes(_a)) */\n      dup3\n      mload\n      swap3\n      swap1\n      swap2\n      add\n      swap2\n      swap1\n      swap2\n      keccak256\n        /* \"contracts/ssi_and_did_lab/DIDRegistry.sol\":744:788  keccak256(bytes(_a)) == keccak256(bytes(_b)) */\n      eq\n      swap1\n        /* \"contracts/ssi_and_did_lab/DIDRegistry.sol\":641:853  function compareStrings(string memory _a, string memory _b) public pure returns(bool) {... */\n      jump\n    tag_34:\n      mload(0x40)\n        /* \"#utility.yul\":2882:2896   */\n      swap1\n      iszero\n        /* \"#utility.yul\":2875:2897   */\n      iszero\n        /* \"#utility.yul\":2857:2898   */\n      dup2\n      mstore\n        /* \"#utility.yul\":2845:2847   */\n      0x20\n        /* \"#utility.yul\":2830:2848   */\n      add\n        /* \"contracts/ssi_and_did_lab/DIDRegistry.sol\":641:853  function compareStrings(string memory _a, string memory _b) public pure returns(bool) {... */\n      tag_25\n        /* \"#utility.yul\":2717:2904   */\n      jump\n        /* \"contracts/ssi_and_did_lab/DIDRegistry.sol\":2234:2314  function getAllRoles() public view returns (Roles) {... */\n    tag_10:\n        /* \"contracts/ssi_and_did_lab/DIDRegistry.sol\":2302:2307  roles */\n      and(0xff, sload(0x01))\n        /* \"contracts/ssi_and_did_lab/DIDRegistry.sol\":2234:2314  function getAllRoles() public view returns (Roles) {... */\n      jump(tag_23)\n        /* \"contracts/ssi_and_did_lab/DIDRegistry.sol\":3253:3440  function getRole() public view returns(string memory) {... */\n    tag_11:\n      tag_30\n      tag_44\n      jump\t// in\n        /* \"contracts/ssi_and_did_lab/DIDRegistry.sol\":1225:1862  function updateDID(string memory _newDID) public {... */\n    tag_16:\n        /* \"contracts/ssi_and_did_lab/DIDRegistry.sol\":1284:1305  string memory _oldDID */\n      0x00\n        /* \"contracts/ssi_and_did_lab/DIDRegistry.sol\":1308:1316  getDID() */\n      tag_47\n        /* \"contracts/ssi_and_did_lab/DIDRegistry.sol\":1308:1314  getDID */\n      tag_31\n        /* \"contracts/ssi_and_did_lab/DIDRegistry.sol\":1308:1316  getDID() */\n      jump\t// in\n    tag_47:\n        /* \"contracts/ssi_and_did_lab/DIDRegistry.sol\":1378:1388  msg.sender */\n      caller\n        /* \"contracts/ssi_and_did_lab/DIDRegistry.sol\":1407:1408  0 */\n      0x00\n        /* \"contracts/ssi_and_did_lab/DIDRegistry.sol\":1373:1389  dids[msg.sender] */\n      swap1\n      dup2\n      mstore\n      0x20\n      dup2\n      swap1\n      mstore\n      0x40\n      swap1\n      keccak256\n        /* \"contracts/ssi_and_did_lab/DIDRegistry.sol\":1373:1395  dids[msg.sender].owner */\n      0x01\n      add\n      sload\n        /* \"contracts/ssi_and_did_lab/DIDRegistry.sol\":1284:1316  string memory _oldDID = getDID() */\n      swap1\n      swap2\n      pop\n      sub(shl(0xa0, 0x01), 0x01)\n        /* \"contracts/ssi_and_did_lab/DIDRegistry.sol\":1373:1395  dids[msg.sender].owner */\n      and\n        /* \"contracts/ssi_and_did_lab/DIDRegistry.sol\":1365:1443  require(dids[msg.sender].owner != address(0), \"No DID found for this address\") */\n      tag_48\n      jumpi\n      mload(0x40)\n      shl(0xe5, 0x461bcd)\n      dup2\n      mstore\n        /* \"#utility.yul\":3111:3113   */\n      0x20\n        /* \"contracts/ssi_and_did_lab/DIDRegistry.sol\":1365:1443  require(dids[msg.sender].owner != address(0), \"No DID found for this address\") */\n      0x04\n      dup3\n      add\n        /* \"#utility.yul\":3093:3114   */\n      mstore\n        /* \"#utility.yul\":3150:3152   */\n      0x1d\n        /* \"#utility.yul\":3130:3148   */\n      0x24\n      dup3\n      add\n        /* \"#utility.yul\":3123:3153   */\n      mstore\n        /* \"#utility.yul\":3189:3220   */\n      0x4e6f2044494420666f756e6420666f7220746869732061646472657373000000\n        /* \"#utility.yul\":3169:3187   */\n      0x44\n      dup3\n      add\n        /* \"#utility.yul\":3162:3221   */\n      mstore\n        /* \"#utility.yul\":3238:3256   */\n      0x64\n      add\n        /* \"contracts/ssi_and_did_lab/DIDRegistry.sol\":1365:1443  require(dids[msg.sender].owner != address(0), \"No DID found for this address\") */\n    tag_49:\n      mload(0x40)\n      dup1\n      swap2\n      sub\n      swap1\n      revert\n    tag_48:\n        /* \"contracts/ssi_and_did_lab/DIDRegistry.sol\":1485:1486  0 */\n      0x00\n        /* \"contracts/ssi_and_did_lab/DIDRegistry.sol\":1467:1474  _newDID */\n      dup3\n        /* \"contracts/ssi_and_did_lab/DIDRegistry.sol\":1461:1482  bytes(_newDID).length */\n      mload\n        /* \"contracts/ssi_and_did_lab/DIDRegistry.sol\":1461:1486  bytes(_newDID).length > 0 */\n      gt\n        /* \"contracts/ssi_and_did_lab/DIDRegistry.sol\":1453:1515  require(bytes(_newDID).length > 0, \"New DID cannot be empty.\") */\n      tag_51\n      jumpi\n      mload(0x40)\n      shl(0xe5, 0x461bcd)\n      dup2\n      mstore\n        /* \"#utility.yul\":3469:3471   */\n      0x20\n        /* \"contracts/ssi_and_did_lab/DIDRegistry.sol\":1453:1515  require(bytes(_newDID).length > 0, \"New DID cannot be empty.\") */\n      0x04\n      dup3\n      add\n        /* \"#utility.yul\":3451:3472   */\n      mstore\n        /* \"#utility.yul\":3508:3510   */\n      0x18\n        /* \"#utility.yul\":3488:3506   */\n      0x24\n      dup3\n      add\n        /* \"#utility.yul\":3481:3511   */\n      mstore\n        /* \"#utility.yul\":3547:3573   */\n      0x4e6577204449442063616e6e6f7420626520656d7074792e0000000000000000\n        /* \"#utility.yul\":3527:3545   */\n      0x44\n      dup3\n      add\n        /* \"#utility.yul\":3520:3574   */\n      mstore\n        /* \"#utility.yul\":3591:3609   */\n      0x64\n      add\n        /* \"contracts/ssi_and_did_lab/DIDRegistry.sol\":1453:1515  require(bytes(_newDID).length > 0, \"New DID cannot be empty.\") */\n      tag_49\n        /* \"#utility.yul\":3267:3615   */\n      jump\n        /* \"contracts/ssi_and_did_lab/DIDRegistry.sol\":1453:1515  require(bytes(_newDID).length > 0, \"New DID cannot be empty.\") */\n    tag_51:\n        /* \"contracts/ssi_and_did_lab/DIDRegistry.sol\":1562:1572  msg.sender */\n      caller\n        /* \"contracts/ssi_and_did_lab/DIDRegistry.sol\":1557:1561  dids */\n      0x00\n        /* \"contracts/ssi_and_did_lab/DIDRegistry.sol\":1557:1573  dids[msg.sender] */\n      swap1\n      dup2\n      mstore\n      0x20\n      dup2\n      swap1\n      mstore\n      0x40\n      swap1\n      keccak256\n        /* \"contracts/ssi_and_did_lab/DIDRegistry.sol\":1542:1594  compareStrings(dids[msg.sender].identifier, _oldDID) */\n      dup1\n      sload\n      tag_54\n      swap2\n        /* \"contracts/ssi_and_did_lab/DIDRegistry.sol\":1557:1573  dids[msg.sender] */\n      swap1\n        /* \"contracts/ssi_and_did_lab/DIDRegistry.sol\":1542:1594  compareStrings(dids[msg.sender].identifier, _oldDID) */\n      tag_55\n      swap1\n      tag_56\n      jump\t// in\n    tag_55:\n      dup1\n      0x1f\n      add\n      0x20\n      dup1\n      swap2\n      div\n      mul\n      0x20\n      add\n      mload(0x40)\n      swap1\n      dup2\n      add\n      0x40\n      mstore\n      dup1\n      swap3\n      swap2\n      swap1\n      dup2\n      dup2\n      mstore\n      0x20\n      add\n      dup3\n      dup1\n      sload\n      tag_57\n      swap1\n      tag_56\n      jump\t// in\n    tag_57:\n      dup1\n      iszero\n      tag_58\n      jumpi\n      dup1\n      0x1f\n      lt\n      tag_59\n      jumpi\n      0x0100\n      dup1\n      dup4\n      sload\n      div\n      mul\n      dup4\n      mstore\n      swap2\n      0x20\n      add\n      swap2\n      jump(tag_58)\n    tag_59:\n      dup3\n      add\n      swap2\n      swap1\n      0x00\n      mstore\n      keccak256(0x00, 0x20)\n      swap1\n    tag_60:\n      dup2\n      sload\n      dup2\n      mstore\n      swap1\n      0x01\n      add\n      swap1\n      0x20\n      add\n      dup1\n      dup4\n      gt\n      tag_60\n      jumpi\n      dup3\n      swap1\n      sub\n      0x1f\n      and\n      dup3\n      add\n      swap2\n    tag_58:\n      pop\n      pop\n      pop\n      pop\n      pop\n        /* \"contracts/ssi_and_did_lab/DIDRegistry.sol\":1586:1593  _oldDID */\n      dup3\n        /* \"contracts/ssi_and_did_lab/DIDRegistry.sol\":768:788  keccak256(bytes(_b)) */\n      dup1\n      mload\n      0x20\n      swap2\n      dup3\n      add\n      keccak256\n        /* \"contracts/ssi_and_did_lab/DIDRegistry.sol\":744:764  keccak256(bytes(_a)) */\n      dup3\n      mload\n      swap3\n      swap1\n      swap2\n      add\n      swap2\n      swap1\n      swap2\n      keccak256\n        /* \"contracts/ssi_and_did_lab/DIDRegistry.sol\":744:788  keccak256(bytes(_a)) == keccak256(bytes(_b)) */\n      eq\n      swap1\n        /* \"contracts/ssi_and_did_lab/DIDRegistry.sol\":641:853  function compareStrings(string memory _a, string memory _b) public pure returns(bool) {... */\n      jump\n        /* \"contracts/ssi_and_did_lab/DIDRegistry.sol\":1542:1594  compareStrings(dids[msg.sender].identifier, _oldDID) */\n    tag_54:\n        /* \"contracts/ssi_and_did_lab/DIDRegistry.sol\":1525:1635  require(... */\n      tag_61\n      jumpi\n      mload(0x40)\n      shl(0xe5, 0x461bcd)\n      dup2\n      mstore\n        /* \"#utility.yul\":4207:4209   */\n      0x20\n        /* \"contracts/ssi_and_did_lab/DIDRegistry.sol\":1525:1635  require(... */\n      0x04\n      dup3\n      add\n        /* \"#utility.yul\":4189:4210   */\n      mstore\n        /* \"#utility.yul\":4246:4248   */\n      0x13\n        /* \"#utility.yul\":4226:4244   */\n      0x24\n      dup3\n      add\n        /* \"#utility.yul\":4219:4249   */\n      mstore\n        /* \"#utility.yul\":4285:4306   */\n      0x44494420646f6573206e6f74206d617463682e00000000000000000000000000\n        /* \"#utility.yul\":4265:4283   */\n      0x44\n      dup3\n      add\n        /* \"#utility.yul\":4258:4307   */\n      mstore\n        /* \"#utility.yul\":4324:4342   */\n      0x64\n      add\n        /* \"contracts/ssi_and_did_lab/DIDRegistry.sol\":1525:1635  require(... */\n      tag_49\n        /* \"#utility.yul\":4005:4348   */\n      jump\n        /* \"contracts/ssi_and_did_lab/DIDRegistry.sol\":1525:1635  require(... */\n    tag_61:\n        /* \"contracts/ssi_and_did_lab/DIDRegistry.sol\":1683:1693  msg.sender */\n      caller\n        /* \"contracts/ssi_and_did_lab/DIDRegistry.sol\":1678:1682  dids */\n      0x00\n        /* \"contracts/ssi_and_did_lab/DIDRegistry.sol\":1678:1694  dids[msg.sender] */\n      swap1\n      dup2\n      mstore\n      0x20\n      dup2\n      swap1\n      mstore\n      0x40\n      swap1\n      keccak256\n        /* \"contracts/ssi_and_did_lab/DIDRegistry.sol\":1663:1715  compareStrings(dids[msg.sender].identifier, _newDID) */\n      dup1\n      sload\n      tag_64\n      swap2\n        /* \"contracts/ssi_and_did_lab/DIDRegistry.sol\":1678:1694  dids[msg.sender] */\n      swap1\n        /* \"contracts/ssi_and_did_lab/DIDRegistry.sol\":1663:1715  compareStrings(dids[msg.sender].identifier, _newDID) */\n      tag_65\n      swap1\n      tag_56\n      jump\t// in\n    tag_65:\n      dup1\n      0x1f\n      add\n      0x20\n      dup1\n      swap2\n      div\n      mul\n      0x20\n      add\n      mload(0x40)\n      swap1\n      dup2\n      add\n      0x40\n      mstore\n      dup1\n      swap3\n      swap2\n      swap1\n      dup2\n      dup2\n      mstore\n      0x20\n      add\n      dup3\n      dup1\n      sload\n      tag_66\n      swap1\n      tag_56\n      jump\t// in\n    tag_66:\n      dup1\n      iszero\n      tag_67\n      jumpi\n      dup1\n      0x1f\n      lt\n      tag_68\n      jumpi\n      0x0100\n      dup1\n      dup4\n      sload\n      div\n      mul\n      dup4\n      mstore\n      swap2\n      0x20\n      add\n      swap2\n      jump(tag_67)\n    tag_68:\n      dup3\n      add\n      swap2\n      swap1\n      0x00\n      mstore\n      keccak256(0x00, 0x20)\n      swap1\n    tag_69:\n      dup2\n      sload\n      dup2\n      mstore\n      swap1\n      0x01\n      add\n      swap1\n      0x20\n      add\n      dup1\n      dup4\n      gt\n      tag_69\n      jumpi\n      dup3\n      swap1\n      sub\n      0x1f\n      and\n      dup3\n      add\n      swap2\n    tag_67:\n      pop\n      pop\n      pop\n      pop\n      pop\n        /* \"contracts/ssi_and_did_lab/DIDRegistry.sol\":1707:1714  _newDID */\n      dup4\n        /* \"contracts/ssi_and_did_lab/DIDRegistry.sol\":768:788  keccak256(bytes(_b)) */\n      dup1\n      mload\n      0x20\n      swap2\n      dup3\n      add\n      keccak256\n        /* \"contracts/ssi_and_did_lab/DIDRegistry.sol\":744:764  keccak256(bytes(_a)) */\n      dup3\n      mload\n      swap3\n      swap1\n      swap2\n      add\n      swap2\n      swap1\n      swap2\n      keccak256\n        /* \"contracts/ssi_and_did_lab/DIDRegistry.sol\":744:788  keccak256(bytes(_a)) == keccak256(bytes(_b)) */\n      eq\n      swap1\n        /* \"contracts/ssi_and_did_lab/DIDRegistry.sol\":641:853  function compareStrings(string memory _a, string memory _b) public pure returns(bool) {... */\n      jump\n        /* \"contracts/ssi_and_did_lab/DIDRegistry.sol\":1663:1715  compareStrings(dids[msg.sender].identifier, _newDID) */\n    tag_64:\n        /* \"contracts/ssi_and_did_lab/DIDRegistry.sol\":1662:1715  !compareStrings(dids[msg.sender].identifier, _newDID) */\n      iszero\n        /* \"contracts/ssi_and_did_lab/DIDRegistry.sol\":1645:1763  require(... */\n      tag_70\n      jumpi\n      mload(0x40)\n      shl(0xe5, 0x461bcd)\n      dup2\n      mstore\n        /* \"#utility.yul\":4555:4557   */\n      0x20\n        /* \"contracts/ssi_and_did_lab/DIDRegistry.sol\":1645:1763  require(... */\n      0x04\n      dup3\n      add\n        /* \"#utility.yul\":4537:4558   */\n      mstore\n        /* \"#utility.yul\":4594:4596   */\n      0x1a\n        /* \"#utility.yul\":4574:4592   */\n      0x24\n      dup3\n      add\n        /* \"#utility.yul\":4567:4597   */\n      mstore\n        /* \"#utility.yul\":4633:4661   */\n      0x4e657720444944206973207374696c6c207468652073616d652e000000000000\n        /* \"#utility.yul\":4613:4631   */\n      0x44\n      dup3\n      add\n        /* \"#utility.yul\":4606:4662   */\n      mstore\n        /* \"#utility.yul\":4679:4697   */\n      0x64\n      add\n        /* \"contracts/ssi_and_did_lab/DIDRegistry.sol\":1645:1763  require(... */\n      tag_49\n        /* \"#utility.yul\":4353:4703   */\n      jump\n        /* \"contracts/ssi_and_did_lab/DIDRegistry.sol\":1645:1763  require(... */\n    tag_70:\n        /* \"contracts/ssi_and_did_lab/DIDRegistry.sol\":1779:1789  msg.sender */\n      caller\n        /* \"contracts/ssi_and_did_lab/DIDRegistry.sol\":1774:1778  dids */\n      0x00\n        /* \"contracts/ssi_and_did_lab/DIDRegistry.sol\":1774:1790  dids[msg.sender] */\n      swap1\n      dup2\n      mstore\n      0x20\n      dup2\n      swap1\n      mstore\n      0x40\n      swap1\n      keccak256\n        /* \"contracts/ssi_and_did_lab/DIDRegistry.sol\":1774:1811  dids[msg.sender].identifier = _newDID */\n      tag_73\n        /* \"contracts/ssi_and_did_lab/DIDRegistry.sol\":1804:1811  _newDID */\n      dup4\n        /* \"contracts/ssi_and_did_lab/DIDRegistry.sol\":1774:1790  dids[msg.sender] */\n      dup3\n        /* \"contracts/ssi_and_did_lab/DIDRegistry.sol\":1774:1811  dids[msg.sender].identifier = _newDID */\n      tag_74\n      jump\t// in\n    tag_73:\n      pop\n        /* \"contracts/ssi_and_did_lab/DIDRegistry.sol\":1827:1855  DIDUpdated(_oldDID, _newDID) */\n      0xef928790e3ba239e686d4c1e6e85a60d67ddf17a606292c714ca966a2720f268\n        /* \"contracts/ssi_and_did_lab/DIDRegistry.sol\":1838:1845  _oldDID */\n      dup2\n        /* \"contracts/ssi_and_did_lab/DIDRegistry.sol\":1847:1854  _newDID */\n      dup4\n        /* \"contracts/ssi_and_did_lab/DIDRegistry.sol\":1827:1855  DIDUpdated(_oldDID, _newDID) */\n      mload(0x40)\n      tag_75\n      swap3\n      swap2\n      swap1\n      tag_76\n      jump\t// in\n    tag_75:\n      mload(0x40)\n      dup1\n      swap2\n      sub\n      swap1\n      log1\n        /* \"contracts/ssi_and_did_lab/DIDRegistry.sol\":1274:1862  {... */\n      pop\n        /* \"contracts/ssi_and_did_lab/DIDRegistry.sol\":1225:1862  function updateDID(string memory _newDID) public {... */\n      pop\n      jump\t// out\n        /* \"contracts/ssi_and_did_lab/DIDRegistry.sol\":2757:3247  function updateRole(string memory _newRole) public {... */\n    tag_19:\n        /* \"contracts/ssi_and_did_lab/DIDRegistry.sol\":2818:2840  string memory _oldRole */\n      0x00\n        /* \"contracts/ssi_and_did_lab/DIDRegistry.sol\":2843:2852  getRole() */\n      tag_78\n        /* \"contracts/ssi_and_did_lab/DIDRegistry.sol\":2843:2850  getRole */\n      tag_44\n        /* \"contracts/ssi_and_did_lab/DIDRegistry.sol\":2843:2852  getRole() */\n      jump\t// in\n    tag_78:\n        /* \"contracts/ssi_and_did_lab/DIDRegistry.sol\":2876:2886  msg.sender */\n      caller\n        /* \"contracts/ssi_and_did_lab/DIDRegistry.sol\":2905:2906  0 */\n      0x00\n        /* \"contracts/ssi_and_did_lab/DIDRegistry.sol\":2871:2887  dids[msg.sender] */\n      swap1\n      dup2\n      mstore\n      0x20\n      dup2\n      swap1\n      mstore\n      0x40\n      swap1\n      keccak256\n        /* \"contracts/ssi_and_did_lab/DIDRegistry.sol\":2871:2893  dids[msg.sender].owner */\n      0x01\n      add\n      sload\n        /* \"contracts/ssi_and_did_lab/DIDRegistry.sol\":2818:2852  string memory _oldRole = getRole() */\n      swap1\n      swap2\n      pop\n      sub(shl(0xa0, 0x01), 0x01)\n        /* \"contracts/ssi_and_did_lab/DIDRegistry.sol\":2871:2893  dids[msg.sender].owner */\n      and\n        /* \"contracts/ssi_and_did_lab/DIDRegistry.sol\":2863:2941  require(dids[msg.sender].owner != address(0), \"No DID found for this address\") */\n      tag_79\n      jumpi\n      mload(0x40)\n      shl(0xe5, 0x461bcd)\n      dup2\n      mstore\n        /* \"#utility.yul\":3111:3113   */\n      0x20\n        /* \"contracts/ssi_and_did_lab/DIDRegistry.sol\":2863:2941  require(dids[msg.sender].owner != address(0), \"No DID found for this address\") */\n      0x04\n      dup3\n      add\n        /* \"#utility.yul\":3093:3114   */\n      mstore\n        /* \"#utility.yul\":3150:3152   */\n      0x1d\n        /* \"#utility.yul\":3130:3148   */\n      0x24\n      dup3\n      add\n        /* \"#utility.yul\":3123:3153   */\n      mstore\n        /* \"#utility.yul\":3189:3220   */\n      0x4e6f2044494420666f756e6420666f7220746869732061646472657373000000\n        /* \"#utility.yul\":3169:3187   */\n      0x44\n      dup3\n      add\n        /* \"#utility.yul\":3162:3221   */\n      mstore\n        /* \"#utility.yul\":3238:3256   */\n      0x64\n      add\n        /* \"contracts/ssi_and_did_lab/DIDRegistry.sol\":2863:2941  require(dids[msg.sender].owner != address(0), \"No DID found for this address\") */\n      tag_49\n        /* \"#utility.yul\":2909:3262   */\n      jump\n        /* \"contracts/ssi_and_did_lab/DIDRegistry.sol\":2863:2941  require(dids[msg.sender].owner != address(0), \"No DID found for this address\") */\n    tag_79:\n        /* \"contracts/ssi_and_did_lab/DIDRegistry.sol\":2984:2985  0 */\n      0x00\n        /* \"contracts/ssi_and_did_lab/DIDRegistry.sol\":2965:2973  _newRole */\n      dup3\n        /* \"contracts/ssi_and_did_lab/DIDRegistry.sol\":2959:2981  bytes(_newRole).length */\n      mload\n        /* \"contracts/ssi_and_did_lab/DIDRegistry.sol\":2959:2985  bytes(_newRole).length > 0 */\n      gt\n        /* \"contracts/ssi_and_did_lab/DIDRegistry.sol\":2951:3011  require(bytes(_newRole).length > 0, \"Role cannot be empty.\") */\n      tag_81\n      jumpi\n      mload(0x40)\n      shl(0xe5, 0x461bcd)\n      dup2\n      mstore\n        /* \"#utility.yul\":7422:7424   */\n      0x20\n        /* \"contracts/ssi_and_did_lab/DIDRegistry.sol\":2951:3011  require(bytes(_newRole).length > 0, \"Role cannot be empty.\") */\n      0x04\n      dup3\n      add\n        /* \"#utility.yul\":7404:7425   */\n      mstore\n        /* \"#utility.yul\":7461:7463   */\n      0x15\n        /* \"#utility.yul\":7441:7459   */\n      0x24\n      dup3\n      add\n        /* \"#utility.yul\":7434:7464   */\n      mstore\n      shl(0x59, 0x2937b6329031b0b73737ba1031329032b6b83a3c97)\n        /* \"#utility.yul\":7480:7498   */\n      0x44\n      dup3\n      add\n        /* \"#utility.yul\":7473:7524   */\n      mstore\n        /* \"#utility.yul\":7541:7559   */\n      0x64\n      add\n        /* \"contracts/ssi_and_did_lab/DIDRegistry.sol\":2951:3011  require(bytes(_newRole).length > 0, \"Role cannot be empty.\") */\n      tag_49\n        /* \"#utility.yul\":7220:7565   */\n      jump\n        /* \"contracts/ssi_and_did_lab/DIDRegistry.sol\":2951:3011  require(bytes(_newRole).length > 0, \"Role cannot be empty.\") */\n    tag_81:\n        /* \"contracts/ssi_and_did_lab/DIDRegistry.sol\":768:788  keccak256(bytes(_b)) */\n      dup2\n      mload\n      0x20\n      dup1\n      dup5\n      add\n      swap2\n      swap1\n      swap2\n      keccak256\n        /* \"contracts/ssi_and_did_lab/DIDRegistry.sol\":744:764  keccak256(bytes(_a)) */\n      dup3\n      mload\n      swap2\n      dup4\n      add\n      swap2\n      swap1\n      swap2\n      keccak256\n        /* \"contracts/ssi_and_did_lab/DIDRegistry.sol\":744:788  keccak256(bytes(_a)) == keccak256(bytes(_b)) */\n      sub\n        /* \"contracts/ssi_and_did_lab/DIDRegistry.sol\":3021:3150  require(... */\n      tag_85\n      jumpi\n      mload(0x40)\n      shl(0xe5, 0x461bcd)\n      dup2\n      mstore\n        /* \"#utility.yul\":7772:7774   */\n      0x20\n        /* \"contracts/ssi_and_did_lab/DIDRegistry.sol\":3021:3150  require(... */\n      0x04\n      dup3\n      add\n        /* \"#utility.yul\":7754:7775   */\n      mstore\n        /* \"#utility.yul\":7811:7813   */\n      0x2f\n        /* \"#utility.yul\":7791:7809   */\n      0x24\n      dup3\n      add\n        /* \"#utility.yul\":7784:7814   */\n      mstore\n        /* \"#utility.yul\":7850:7884   */\n      0x4e657720526f6c652073686f756c6420626520646966666572656e742066726f\n        /* \"#utility.yul\":7830:7848   */\n      0x44\n      dup3\n      add\n        /* \"#utility.yul\":7823:7885   */\n      mstore\n        /* \"#utility.yul\":7921:7938   */\n      0x6d20746865206f6c6420526f6c652e0000000000000000000000000000000000\n        /* \"#utility.yul\":7901:7919   */\n      0x64\n      dup3\n      add\n        /* \"#utility.yul\":7894:7939   */\n      mstore\n        /* \"#utility.yul\":7956:7975   */\n      0x84\n      add\n        /* \"contracts/ssi_and_did_lab/DIDRegistry.sol\":3021:3150  require(... */\n      tag_49\n        /* \"#utility.yul\":7570:7981   */\n      jump\n        /* \"contracts/ssi_and_did_lab/DIDRegistry.sol\":3021:3150  require(... */\n    tag_85:\n        /* \"contracts/ssi_and_did_lab/DIDRegistry.sol\":3166:3176  msg.sender */\n      caller\n        /* \"contracts/ssi_and_did_lab/DIDRegistry.sol\":3161:3165  dids */\n      0x00\n        /* \"contracts/ssi_and_did_lab/DIDRegistry.sol\":3161:3177  dids[msg.sender] */\n      swap1\n      dup2\n      mstore\n      0x20\n      dup2\n      swap1\n      mstore\n      0x40\n      swap1\n      keccak256\n        /* \"contracts/ssi_and_did_lab/DIDRegistry.sol\":3161:3182  dids[msg.sender].role */\n      0x02\n      add\n        /* \"contracts/ssi_and_did_lab/DIDRegistry.sol\":3161:3193  dids[msg.sender].role = _newRole */\n      tag_88\n        /* \"contracts/ssi_and_did_lab/DIDRegistry.sol\":3185:3193  _newRole */\n      dup4\n        /* \"contracts/ssi_and_did_lab/DIDRegistry.sol\":3161:3182  dids[msg.sender].role */\n      dup3\n        /* \"contracts/ssi_and_did_lab/DIDRegistry.sol\":3161:3193  dids[msg.sender].role = _newRole */\n      tag_74\n      jump\t// in\n    tag_88:\n      pop\n        /* \"contracts/ssi_and_did_lab/DIDRegistry.sol\":3209:3240  RoleUpdated(_oldRole, _newRole) */\n      0x84059cf82b2860dd667235a5c404a8c26329eaf354398d42f60f6ce335129ffa\n        /* \"contracts/ssi_and_did_lab/DIDRegistry.sol\":3221:3229  _oldRole */\n      dup2\n        /* \"contracts/ssi_and_did_lab/DIDRegistry.sol\":3231:3239  _newRole */\n      dup4\n        /* \"contracts/ssi_and_did_lab/DIDRegistry.sol\":3209:3240  RoleUpdated(_oldRole, _newRole) */\n      mload(0x40)\n      tag_75\n      swap3\n      swap2\n      swap1\n      tag_76\n      jump\t// in\n        /* \"contracts/ssi_and_did_lab/DIDRegistry.sol\":859:1219  function createDID(string memory _identifier) public {... */\n    tag_22:\n        /* \"contracts/ssi_and_did_lab/DIDRegistry.sol\":959:960  0 */\n      0x00\n        /* \"contracts/ssi_and_did_lab/DIDRegistry.sol\":937:948  _identifier */\n      dup2\n        /* \"contracts/ssi_and_did_lab/DIDRegistry.sol\":931:956  bytes(_identifier).length */\n      mload\n        /* \"contracts/ssi_and_did_lab/DIDRegistry.sol\":931:960  bytes(_identifier).length > 0 */\n      gt\n        /* \"contracts/ssi_and_did_lab/DIDRegistry.sol\":922:1001  require( bytes(_identifier).length > 0, \"DID already exists for this address.\") */\n      tag_91\n      jumpi\n      mload(0x40)\n      shl(0xe5, 0x461bcd)\n      dup2\n      mstore\n        /* \"#utility.yul\":8188:8190   */\n      0x20\n        /* \"contracts/ssi_and_did_lab/DIDRegistry.sol\":922:1001  require( bytes(_identifier).length > 0, \"DID already exists for this address.\") */\n      0x04\n      dup3\n      add\n        /* \"#utility.yul\":8170:8191   */\n      mstore\n        /* \"#utility.yul\":8227:8229   */\n      0x24\n        /* \"#utility.yul\":8207:8225   */\n      dup1\n      dup3\n      add\n        /* \"#utility.yul\":8200:8230   */\n      mstore\n        /* \"#utility.yul\":8266:8300   */\n      0x44494420616c72656164792065786973747320666f7220746869732061646472\n        /* \"#utility.yul\":8246:8264   */\n      0x44\n      dup3\n      add\n        /* \"#utility.yul\":8239:8301   */\n      mstore\n      shl(0xe1, 0x32b9b997)\n        /* \"#utility.yul\":8317:8335   */\n      0x64\n      dup3\n      add\n        /* \"#utility.yul\":8310:8344   */\n      mstore\n        /* \"#utility.yul\":8361:8380   */\n      0x84\n      add\n        /* \"contracts/ssi_and_did_lab/DIDRegistry.sol\":922:1001  require( bytes(_identifier).length > 0, \"DID already exists for this address.\") */\n      tag_49\n        /* \"#utility.yul\":7986:8386   */\n      jump\n        /* \"contracts/ssi_and_did_lab/DIDRegistry.sol\":922:1001  require( bytes(_identifier).length > 0, \"DID already exists for this address.\") */\n    tag_91:\n        /* \"contracts/ssi_and_did_lab/DIDRegistry.sol\":1024:1034  msg.sender */\n      caller\n        /* \"contracts/ssi_and_did_lab/DIDRegistry.sol\":1053:1054  0 */\n      0x00\n        /* \"contracts/ssi_and_did_lab/DIDRegistry.sol\":1019:1035  dids[msg.sender] */\n      swap1\n      dup2\n      mstore\n      0x20\n      dup2\n      swap1\n      mstore\n      0x40\n      swap1\n      keccak256\n        /* \"contracts/ssi_and_did_lab/DIDRegistry.sol\":1019:1041  dids[msg.sender].owner */\n      0x01\n      add\n      sload\n      sub(shl(0xa0, 0x01), 0x01)\n      and\n        /* \"contracts/ssi_and_did_lab/DIDRegistry.sol\":1019:1055  dids[msg.sender].owner == address(0) */\n      iszero\n        /* \"contracts/ssi_and_did_lab/DIDRegistry.sol\":1011:1096  require(dids[msg.sender].owner == address(0), \"DID already exists for this address.\") */\n      tag_94\n      jumpi\n      mload(0x40)\n      shl(0xe5, 0x461bcd)\n      dup2\n      mstore\n        /* \"#utility.yul\":8188:8190   */\n      0x20\n        /* \"contracts/ssi_and_did_lab/DIDRegistry.sol\":1011:1096  require(dids[msg.sender].owner == address(0), \"DID already exists for this address.\") */\n      0x04\n      dup3\n      add\n        /* \"#utility.yul\":8170:8191   */\n      mstore\n        /* \"#utility.yul\":8227:8229   */\n      0x24\n        /* \"#utility.yul\":8207:8225   */\n      dup1\n      dup3\n      add\n        /* \"#utility.yul\":8200:8230   */\n      mstore\n        /* \"#utility.yul\":8266:8300   */\n      0x44494420616c72656164792065786973747320666f7220746869732061646472\n        /* \"#utility.yul\":8246:8264   */\n      0x44\n      dup3\n      add\n        /* \"#utility.yul\":8239:8301   */\n      mstore\n      shl(0xe1, 0x32b9b997)\n        /* \"#utility.yul\":8317:8335   */\n      0x64\n      dup3\n      add\n        /* \"#utility.yul\":8310:8344   */\n      mstore\n        /* \"#utility.yul\":8361:8380   */\n      0x84\n      add\n        /* \"contracts/ssi_and_did_lab/DIDRegistry.sol\":1011:1096  require(dids[msg.sender].owner == address(0), \"DID already exists for this address.\") */\n      tag_49\n        /* \"#utility.yul\":7986:8386   */\n      jump\n        /* \"contracts/ssi_and_did_lab/DIDRegistry.sol\":1011:1096  require(dids[msg.sender].owner == address(0), \"DID already exists for this address.\") */\n    tag_94:\n        /* \"contracts/ssi_and_did_lab/DIDRegistry.sol\":1126:1158  DID(_identifier, msg.sender, \"\") */\n      0x40\n      dup1\n      mload\n      0x60\n      dup2\n      add\n      dup3\n      mstore\n      dup3\n      dup2\n      mstore\n        /* \"contracts/ssi_and_did_lab/DIDRegistry.sol\":1143:1153  msg.sender */\n      caller\n        /* \"contracts/ssi_and_did_lab/DIDRegistry.sol\":1126:1158  DID(_identifier, msg.sender, \"\") */\n      0x20\n      dup1\n      dup4\n      add\n      dup3\n      swap1\n      mstore\n      dup4\n      mload\n      dup1\n      dup3\n      add\n      dup6\n      mstore\n      0x00\n      dup1\n      dup3\n      mstore\n      dup5\n      dup7\n      add\n      swap2\n      swap1\n      swap2\n      mstore\n        /* \"contracts/ssi_and_did_lab/DIDRegistry.sol\":1107:1123  dids[msg.sender] */\n      swap2\n      dup3\n      mstore\n      dup2\n      swap1\n      mstore\n      swap2\n      swap1\n      swap2\n      keccak256\n        /* \"contracts/ssi_and_did_lab/DIDRegistry.sol\":1107:1158  dids[msg.sender] = DID(_identifier, msg.sender, \"\") */\n      dup2\n      mload\n        /* \"contracts/ssi_and_did_lab/DIDRegistry.sol\":1107:1123  dids[msg.sender] */\n      dup2\n      swap1\n        /* \"contracts/ssi_and_did_lab/DIDRegistry.sol\":1107:1158  dids[msg.sender] = DID(_identifier, msg.sender, \"\") */\n      tag_96\n      swap1\n        /* \"contracts/ssi_and_did_lab/DIDRegistry.sol\":1107:1123  dids[msg.sender] */\n      dup3\n        /* \"contracts/ssi_and_did_lab/DIDRegistry.sol\":1107:1158  dids[msg.sender] = DID(_identifier, msg.sender, \"\") */\n      tag_74\n      jump\t// in\n    tag_96:\n      pop\n      0x20\n      dup3\n      add\n      mload\n      0x01\n      dup3\n      add\n      dup1\n      sload\n      not(0xffffffffffffffffffffffffffffffffffffffff)\n      and\n      sub(shl(0xa0, 0x01), 0x01)\n      swap1\n      swap3\n      and\n      swap2\n      swap1\n      swap2\n      or\n      swap1\n      sstore\n      0x40\n      dup3\n      add\n      mload\n      0x02\n      dup3\n      add\n      swap1\n      tag_97\n      swap1\n      dup3\n      tag_74\n      jump\t// in\n    tag_97:\n      pop\n      pop\n        /* \"contracts/ssi_and_did_lab/DIDRegistry.sol\":1174:1212  DIDRegistered(msg.sender, _identifier) */\n      mload(0x40)\n        /* \"contracts/ssi_and_did_lab/DIDRegistry.sol\":1188:1198  msg.sender */\n      caller\n      swap2\n      pop\n        /* \"contracts/ssi_and_did_lab/DIDRegistry.sol\":1174:1212  DIDRegistered(msg.sender, _identifier) */\n      0xbfab59a7af78dfc896c3096604749fcee2db2e850297de42de5e6369f54bd3fb\n      swap1\n      tag_98\n      swap1\n        /* \"contracts/ssi_and_did_lab/DIDRegistry.sol\":1200:1211  _identifier */\n      dup5\n      swap1\n        /* \"contracts/ssi_and_did_lab/DIDRegistry.sol\":1174:1212  DIDRegistered(msg.sender, _identifier) */\n      tag_33\n      jump\t// in\n    tag_98:\n      mload(0x40)\n      dup1\n      swap2\n      sub\n      swap1\n      log2\n        /* \"contracts/ssi_and_did_lab/DIDRegistry.sol\":859:1219  function createDID(string memory _identifier) public {... */\n      pop\n      jump\t// out\n        /* \"contracts/ssi_and_did_lab/DIDRegistry.sol\":2320:2751  function assignRole(string memory _role) public {... */\n    tag_29:\n        /* \"contracts/ssi_and_did_lab/DIDRegistry.sol\":2391:2401  msg.sender */\n      caller\n        /* \"contracts/ssi_and_did_lab/DIDRegistry.sol\":2420:2421  0 */\n      0x00\n        /* \"contracts/ssi_and_did_lab/DIDRegistry.sol\":2386:2402  dids[msg.sender] */\n      swap1\n      dup2\n      mstore\n      0x20\n      dup2\n      swap1\n      mstore\n      0x40\n      swap1\n      keccak256\n        /* \"contracts/ssi_and_did_lab/DIDRegistry.sol\":2386:2408  dids[msg.sender].owner */\n      0x01\n      add\n      sload\n      sub(shl(0xa0, 0x01), 0x01)\n      and\n        /* \"contracts/ssi_and_did_lab/DIDRegistry.sol\":2378:2456  require(dids[msg.sender].owner != address(0), \"No DID found for this address\") */\n      tag_100\n      jumpi\n      mload(0x40)\n      shl(0xe5, 0x461bcd)\n      dup2\n      mstore\n        /* \"#utility.yul\":3111:3113   */\n      0x20\n        /* \"contracts/ssi_and_did_lab/DIDRegistry.sol\":2378:2456  require(dids[msg.sender].owner != address(0), \"No DID found for this address\") */\n      0x04\n      dup3\n      add\n        /* \"#utility.yul\":3093:3114   */\n      mstore\n        /* \"#utility.yul\":3150:3152   */\n      0x1d\n        /* \"#utility.yul\":3130:3148   */\n      0x24\n      dup3\n      add\n        /* \"#utility.yul\":3123:3153   */\n      mstore\n        /* \"#utility.yul\":3189:3220   */\n      0x4e6f2044494420666f756e6420666f7220746869732061646472657373000000\n        /* \"#utility.yul\":3169:3187   */\n      0x44\n      dup3\n      add\n        /* \"#utility.yul\":3162:3221   */\n      mstore\n        /* \"#utility.yul\":3238:3256   */\n      0x64\n      add\n        /* \"contracts/ssi_and_did_lab/DIDRegistry.sol\":2378:2456  require(dids[msg.sender].owner != address(0), \"No DID found for this address\") */\n      tag_49\n        /* \"#utility.yul\":2909:3262   */\n      jump\n        /* \"contracts/ssi_and_did_lab/DIDRegistry.sol\":2378:2456  require(dids[msg.sender].owner != address(0), \"No DID found for this address\") */\n    tag_100:\n        /* \"contracts/ssi_and_did_lab/DIDRegistry.sol\":2496:2497  0 */\n      0x00\n        /* \"contracts/ssi_and_did_lab/DIDRegistry.sol\":2480:2485  _role */\n      dup2\n        /* \"contracts/ssi_and_did_lab/DIDRegistry.sol\":2474:2493  bytes(_role).length */\n      mload\n        /* \"contracts/ssi_and_did_lab/DIDRegistry.sol\":2474:2497  bytes(_role).length > 0 */\n      gt\n        /* \"contracts/ssi_and_did_lab/DIDRegistry.sol\":2466:2523  require(bytes(_role).length > 0, \"Role cannot be empty.\") */\n      tag_102\n      jumpi\n      mload(0x40)\n      shl(0xe5, 0x461bcd)\n      dup2\n      mstore\n        /* \"#utility.yul\":7422:7424   */\n      0x20\n        /* \"contracts/ssi_and_did_lab/DIDRegistry.sol\":2466:2523  require(bytes(_role).length > 0, \"Role cannot be empty.\") */\n      0x04\n      dup3\n      add\n        /* \"#utility.yul\":7404:7425   */\n      mstore\n        /* \"#utility.yul\":7461:7463   */\n      0x15\n        /* \"#utility.yul\":7441:7459   */\n      0x24\n      dup3\n      add\n        /* \"#utility.yul\":7434:7464   */\n      mstore\n      shl(0x59, 0x2937b6329031b0b73737ba1031329032b6b83a3c97)\n        /* \"#utility.yul\":7480:7498   */\n      0x44\n      dup3\n      add\n        /* \"#utility.yul\":7473:7524   */\n      mstore\n        /* \"#utility.yul\":7541:7559   */\n      0x64\n      add\n        /* \"contracts/ssi_and_did_lab/DIDRegistry.sol\":2466:2523  require(bytes(_role).length > 0, \"Role cannot be empty.\") */\n      tag_49\n        /* \"#utility.yul\":7220:7565   */\n      jump\n        /* \"contracts/ssi_and_did_lab/DIDRegistry.sol\":2466:2523  require(bytes(_role).length > 0, \"Role cannot be empty.\") */\n    tag_102:\n        /* \"contracts/ssi_and_did_lab/DIDRegistry.sol\":2673:2683  msg.sender */\n      caller\n        /* \"contracts/ssi_and_did_lab/DIDRegistry.sol\":2668:2672  dids */\n      0x00\n        /* \"contracts/ssi_and_did_lab/DIDRegistry.sol\":2668:2684  dids[msg.sender] */\n      swap1\n      dup2\n      mstore\n      0x20\n      dup2\n      swap1\n      mstore\n      0x40\n      swap1\n      keccak256\n        /* \"contracts/ssi_and_did_lab/DIDRegistry.sol\":2668:2689  dids[msg.sender].role */\n      0x02\n      add\n        /* \"contracts/ssi_and_did_lab/DIDRegistry.sol\":2668:2697  dids[msg.sender].role = _role */\n      tag_104\n        /* \"contracts/ssi_and_did_lab/DIDRegistry.sol\":2692:2697  _role */\n      dup3\n        /* \"contracts/ssi_and_did_lab/DIDRegistry.sol\":2668:2689  dids[msg.sender].role */\n      dup3\n        /* \"contracts/ssi_and_did_lab/DIDRegistry.sol\":2668:2697  dids[msg.sender].role = _role */\n      tag_74\n      jump\t// in\n    tag_104:\n      pop\n        /* \"contracts/ssi_and_did_lab/DIDRegistry.sol\":2726:2736  msg.sender */\n      caller\n      sub(shl(0xa0, 0x01), 0x01)\n        /* \"contracts/ssi_and_did_lab/DIDRegistry.sol\":2713:2744  RoleAssigned(msg.sender, _role) */\n      and\n      0x3565795c2fb8842c21347d277937778bbcfe788b5b4f790fc5e408786cbe9c90\n        /* \"contracts/ssi_and_did_lab/DIDRegistry.sol\":2738:2743  _role */\n      dup3\n        /* \"contracts/ssi_and_did_lab/DIDRegistry.sol\":2713:2744  RoleAssigned(msg.sender, _role) */\n      mload(0x40)\n      tag_98\n      swap2\n      swap1\n      tag_33\n      jump\t// in\n        /* \"contracts/ssi_and_did_lab/DIDRegistry.sol\":1868:2060  function getDID() public view returns(string memory) {... */\n    tag_31:\n        /* \"contracts/ssi_and_did_lab/DIDRegistry.sol\":1944:1954  msg.sender */\n      caller\n        /* \"contracts/ssi_and_did_lab/DIDRegistry.sol\":1973:1974  0 */\n      0x00\n        /* \"contracts/ssi_and_did_lab/DIDRegistry.sol\":1939:1955  dids[msg.sender] */\n      swap1\n      dup2\n      mstore\n      0x20\n      dup2\n      swap1\n      mstore\n      0x40\n      swap1\n      keccak256\n        /* \"contracts/ssi_and_did_lab/DIDRegistry.sol\":1939:1961  dids[msg.sender].owner */\n      0x01\n      add\n      sload\n        /* \"contracts/ssi_and_did_lab/DIDRegistry.sol\":1906:1919  string memory */\n      0x60\n      swap1\n      sub(shl(0xa0, 0x01), 0x01)\n        /* \"contracts/ssi_and_did_lab/DIDRegistry.sol\":1939:1961  dids[msg.sender].owner */\n      and\n        /* \"contracts/ssi_and_did_lab/DIDRegistry.sol\":1931:2009  require(dids[msg.sender].owner != address(0), \"No DID found for this address\") */\n      tag_107\n      jumpi\n      mload(0x40)\n      shl(0xe5, 0x461bcd)\n      dup2\n      mstore\n        /* \"#utility.yul\":3111:3113   */\n      0x20\n        /* \"contracts/ssi_and_did_lab/DIDRegistry.sol\":1931:2009  require(dids[msg.sender].owner != address(0), \"No DID found for this address\") */\n      0x04\n      dup3\n      add\n        /* \"#utility.yul\":3093:3114   */\n      mstore\n        /* \"#utility.yul\":3150:3152   */\n      0x1d\n        /* \"#utility.yul\":3130:3148   */\n      0x24\n      dup3\n      add\n        /* \"#utility.yul\":3123:3153   */\n      mstore\n        /* \"#utility.yul\":3189:3220   */\n      0x4e6f2044494420666f756e6420666f7220746869732061646472657373000000\n        /* \"#utility.yul\":3169:3187   */\n      0x44\n      dup3\n      add\n        /* \"#utility.yul\":3162:3221   */\n      mstore\n        /* \"#utility.yul\":3238:3256   */\n      0x64\n      add\n        /* \"contracts/ssi_and_did_lab/DIDRegistry.sol\":1931:2009  require(dids[msg.sender].owner != address(0), \"No DID found for this address\") */\n      tag_49\n        /* \"#utility.yul\":2909:3262   */\n      jump\n        /* \"contracts/ssi_and_did_lab/DIDRegistry.sol\":1931:2009  require(dids[msg.sender].owner != address(0), \"No DID found for this address\") */\n    tag_107:\n        /* \"contracts/ssi_and_did_lab/DIDRegistry.sol\":2031:2041  msg.sender */\n      caller\n        /* \"contracts/ssi_and_did_lab/DIDRegistry.sol\":2026:2030  dids */\n      0x00\n        /* \"contracts/ssi_and_did_lab/DIDRegistry.sol\":2026:2042  dids[msg.sender] */\n      swap1\n      dup2\n      mstore\n      0x20\n      dup2\n      swap1\n      mstore\n      0x40\n      swap1\n      keccak256\n        /* \"contracts/ssi_and_did_lab/DIDRegistry.sol\":2019:2053  return dids[msg.sender].identifier */\n      dup1\n      sload\n      tag_109\n      swap1\n      tag_56\n      jump\t// in\n    tag_109:\n      dup1\n      0x1f\n      add\n      0x20\n      dup1\n      swap2\n      div\n      mul\n      0x20\n      add\n      mload(0x40)\n      swap1\n      dup2\n      add\n      0x40\n      mstore\n      dup1\n      swap3\n      swap2\n      swap1\n      dup2\n      dup2\n      mstore\n      0x20\n      add\n      dup3\n      dup1\n      sload\n      tag_110\n      swap1\n      tag_56\n      jump\t// in\n    tag_110:\n      dup1\n      iszero\n      tag_111\n      jumpi\n      dup1\n      0x1f\n      lt\n      tag_112\n      jumpi\n      0x0100\n      dup1\n      dup4\n      sload\n      div\n      mul\n      dup4\n      mstore\n      swap2\n      0x20\n      add\n      swap2\n      jump(tag_111)\n    tag_112:\n      dup3\n      add\n      swap2\n      swap1\n      0x00\n      mstore\n      keccak256(0x00, 0x20)\n      swap1\n    tag_113:\n      dup2\n      sload\n      dup2\n      mstore\n      swap1\n      0x01\n      add\n      swap1\n      0x20\n      add\n      dup1\n      dup4\n      gt\n      tag_113\n      jumpi\n      dup3\n      swap1\n      sub\n      0x1f\n      and\n      dup3\n      add\n      swap2\n    tag_111:\n      pop\n      pop\n      pop\n      pop\n      pop\n      swap1\n      pop\n        /* \"contracts/ssi_and_did_lab/DIDRegistry.sol\":1868:2060  function getDID() public view returns(string memory) {... */\n      swap1\n      jump\t// out\n        /* \"contracts/ssi_and_did_lab/DIDRegistry.sol\":3253:3440  function getRole() public view returns(string memory) {... */\n    tag_44:\n        /* \"contracts/ssi_and_did_lab/DIDRegistry.sol\":3330:3340  msg.sender */\n      caller\n        /* \"contracts/ssi_and_did_lab/DIDRegistry.sol\":3359:3360  0 */\n      0x00\n        /* \"contracts/ssi_and_did_lab/DIDRegistry.sol\":3325:3341  dids[msg.sender] */\n      swap1\n      dup2\n      mstore\n      0x20\n      dup2\n      swap1\n      mstore\n      0x40\n      swap1\n      keccak256\n        /* \"contracts/ssi_and_did_lab/DIDRegistry.sol\":3325:3347  dids[msg.sender].owner */\n      0x01\n      add\n      sload\n        /* \"contracts/ssi_and_did_lab/DIDRegistry.sol\":3292:3305  string memory */\n      0x60\n      swap1\n      sub(shl(0xa0, 0x01), 0x01)\n        /* \"contracts/ssi_and_did_lab/DIDRegistry.sol\":3325:3347  dids[msg.sender].owner */\n      and\n        /* \"contracts/ssi_and_did_lab/DIDRegistry.sol\":3317:3395  require(dids[msg.sender].owner != address(0), \"No DID found for this address\") */\n      tag_117\n      jumpi\n      mload(0x40)\n      shl(0xe5, 0x461bcd)\n      dup2\n      mstore\n        /* \"#utility.yul\":3111:3113   */\n      0x20\n        /* \"contracts/ssi_and_did_lab/DIDRegistry.sol\":3317:3395  require(dids[msg.sender].owner != address(0), \"No DID found for this address\") */\n      0x04\n      dup3\n      add\n        /* \"#utility.yul\":3093:3114   */\n      mstore\n        /* \"#utility.yul\":3150:3152   */\n      0x1d\n        /* \"#utility.yul\":3130:3148   */\n      0x24\n      dup3\n      add\n        /* \"#utility.yul\":3123:3153   */\n      mstore\n        /* \"#utility.yul\":3189:3220   */\n      0x4e6f2044494420666f756e6420666f7220746869732061646472657373000000\n        /* \"#utility.yul\":3169:3187   */\n      0x44\n      dup3\n      add\n        /* \"#utility.yul\":3162:3221   */\n      mstore\n        /* \"#utility.yul\":3238:3256   */\n      0x64\n      add\n        /* \"contracts/ssi_and_did_lab/DIDRegistry.sol\":3317:3395  require(dids[msg.sender].owner != address(0), \"No DID found for this address\") */\n      tag_49\n        /* \"#utility.yul\":2909:3262   */\n      jump\n        /* \"contracts/ssi_and_did_lab/DIDRegistry.sol\":3317:3395  require(dids[msg.sender].owner != address(0), \"No DID found for this address\") */\n    tag_117:\n        /* \"contracts/ssi_and_did_lab/DIDRegistry.sol\":3417:3427  msg.sender */\n      caller\n        /* \"contracts/ssi_and_did_lab/DIDRegistry.sol\":3412:3416  dids */\n      0x00\n        /* \"contracts/ssi_and_did_lab/DIDRegistry.sol\":3412:3428  dids[msg.sender] */\n      swap1\n      dup2\n      mstore\n      0x20\n      dup2\n      swap1\n      mstore\n      0x40\n      swap1\n      keccak256\n        /* \"contracts/ssi_and_did_lab/DIDRegistry.sol\":3412:3433  dids[msg.sender].role */\n      0x02\n      add\n        /* \"contracts/ssi_and_did_lab/DIDRegistry.sol\":3405:3433  return dids[msg.sender].role */\n      dup1\n      sload\n      tag_109\n      swap1\n      tag_56\n      jump\t// in\n        /* \"#utility.yul\":14:141   */\n    tag_124:\n        /* \"#utility.yul\":75:85   */\n      0x4e487b71\n        /* \"#utility.yul\":70:73   */\n      0xe0\n        /* \"#utility.yul\":66:86   */\n      shl\n        /* \"#utility.yul\":63:64   */\n      0x00\n        /* \"#utility.yul\":56:87   */\n      mstore\n        /* \"#utility.yul\":106:110   */\n      0x41\n        /* \"#utility.yul\":103:104   */\n      0x04\n        /* \"#utility.yul\":96:111   */\n      mstore\n        /* \"#utility.yul\":130:134   */\n      0x24\n        /* \"#utility.yul\":127:128   */\n      0x00\n        /* \"#utility.yul\":120:135   */\n      revert\n        /* \"#utility.yul\":146:872   */\n    tag_125:\n        /* \"#utility.yul\":189:194   */\n      0x00\n        /* \"#utility.yul\":242:245   */\n      dup3\n        /* \"#utility.yul\":235:239   */\n      0x1f\n        /* \"#utility.yul\":227:233   */\n      dup4\n        /* \"#utility.yul\":223:240   */\n      add\n        /* \"#utility.yul\":219:246   */\n      slt\n        /* \"#utility.yul\":209:264   */\n      tag_133\n      jumpi\n        /* \"#utility.yul\":260:261   */\n      0x00\n        /* \"#utility.yul\":257:258   */\n      dup1\n        /* \"#utility.yul\":250:262   */\n      revert\n        /* \"#utility.yul\":209:264   */\n    tag_133:\n        /* \"#utility.yul\":300:306   */\n      dup2\n        /* \"#utility.yul\":287:307   */\n      calldataload\n        /* \"#utility.yul\":330:348   */\n      0xffffffffffffffff\n        /* \"#utility.yul\":322:328   */\n      dup2\n        /* \"#utility.yul\":319:349   */\n      gt\n        /* \"#utility.yul\":316:372   */\n      iszero\n      tag_135\n      jumpi\n        /* \"#utility.yul\":352:370   */\n      tag_135\n      tag_124\n      jump\t// in\n    tag_135:\n        /* \"#utility.yul\":401:403   */\n      0x40\n        /* \"#utility.yul\":395:404   */\n      mload\n        /* \"#utility.yul\":493:495   */\n      0x1f\n        /* \"#utility.yul\":455:472   */\n      dup3\n      add\n      not(0x1f)\n        /* \"#utility.yul\":451:482   */\n      swap1\n      dup2\n      and\n        /* \"#utility.yul\":484:486   */\n      0x3f\n        /* \"#utility.yul\":447:487   */\n      add\n        /* \"#utility.yul\":443:497   */\n      and\n        /* \"#utility.yul\":431:498   */\n      dup2\n      add\n        /* \"#utility.yul\":528:546   */\n      0xffffffffffffffff\n        /* \"#utility.yul\":513:547   */\n      dup2\n      gt\n        /* \"#utility.yul\":549:571   */\n      dup3\n      dup3\n      lt\n        /* \"#utility.yul\":510:572   */\n      or\n        /* \"#utility.yul\":507:595   */\n      iszero\n      tag_137\n      jumpi\n        /* \"#utility.yul\":575:593   */\n      tag_137\n      tag_124\n      jump\t// in\n    tag_137:\n        /* \"#utility.yul\":611:613   */\n      0x40\n        /* \"#utility.yul\":604:626   */\n      mstore\n        /* \"#utility.yul\":635:657   */\n      dup2\n      dup2\n      mstore\n        /* \"#utility.yul\":676:695   */\n      dup4\n      dup3\n      add\n        /* \"#utility.yul\":697:701   */\n      0x20\n        /* \"#utility.yul\":672:702   */\n      add\n        /* \"#utility.yul\":669:708   */\n      dup6\n      lt\n        /* \"#utility.yul\":666:725   */\n      iszero\n      tag_138\n      jumpi\n        /* \"#utility.yul\":721:722   */\n      0x00\n        /* \"#utility.yul\":718:719   */\n      dup1\n        /* \"#utility.yul\":711:723   */\n      revert\n        /* \"#utility.yul\":666:725   */\n    tag_138:\n        /* \"#utility.yul\":785:791   */\n      dup2\n        /* \"#utility.yul\":778:782   */\n      0x20\n        /* \"#utility.yul\":770:776   */\n      dup6\n        /* \"#utility.yul\":766:783   */\n      add\n        /* \"#utility.yul\":759:763   */\n      0x20\n        /* \"#utility.yul\":751:757   */\n      dup4\n        /* \"#utility.yul\":747:764   */\n      add\n        /* \"#utility.yul\":734:792   */\n      calldatacopy\n        /* \"#utility.yul\":840:841   */\n      0x00\n        /* \"#utility.yul\":812:831   */\n      swap2\n      dup2\n      add\n        /* \"#utility.yul\":833:837   */\n      0x20\n        /* \"#utility.yul\":808:838   */\n      add\n        /* \"#utility.yul\":801:842   */\n      swap2\n      swap1\n      swap2\n      mstore\n        /* \"#utility.yul\":816:822   */\n      swap4\n        /* \"#utility.yul\":146:872   */\n      swap3\n      pop\n      pop\n      pop\n      jump\t// out\n        /* \"#utility.yul\":877:1199   */\n    tag_15:\n        /* \"#utility.yul\":946:952   */\n      0x00\n        /* \"#utility.yul\":999:1001   */\n      0x20\n        /* \"#utility.yul\":987:996   */\n      dup3\n        /* \"#utility.yul\":978:985   */\n      dup5\n        /* \"#utility.yul\":974:997   */\n      sub\n        /* \"#utility.yul\":970:1002   */\n      slt\n        /* \"#utility.yul\":967:1019   */\n      iszero\n      tag_140\n      jumpi\n        /* \"#utility.yul\":1015:1016   */\n      0x00\n        /* \"#utility.yul\":1012:1013   */\n      dup1\n        /* \"#utility.yul\":1005:1017   */\n      revert\n        /* \"#utility.yul\":967:1019   */\n    tag_140:\n        /* \"#utility.yul\":1055:1064   */\n      dup2\n        /* \"#utility.yul\":1042:1065   */\n      calldataload\n        /* \"#utility.yul\":1088:1106   */\n      0xffffffffffffffff\n        /* \"#utility.yul\":1080:1086   */\n      dup2\n        /* \"#utility.yul\":1077:1107   */\n      gt\n        /* \"#utility.yul\":1074:1124   */\n      iszero\n      tag_141\n      jumpi\n        /* \"#utility.yul\":1120:1121   */\n      0x00\n        /* \"#utility.yul\":1117:1118   */\n      dup1\n        /* \"#utility.yul\":1110:1122   */\n      revert\n        /* \"#utility.yul\":1074:1124   */\n    tag_141:\n        /* \"#utility.yul\":1143:1193   */\n      tag_142\n        /* \"#utility.yul\":1185:1192   */\n      dup5\n        /* \"#utility.yul\":1176:1182   */\n      dup3\n        /* \"#utility.yul\":1165:1174   */\n      dup6\n        /* \"#utility.yul\":1161:1183   */\n      add\n        /* \"#utility.yul\":1143:1193   */\n      tag_125\n      jump\t// in\n    tag_142:\n        /* \"#utility.yul\":1133:1193   */\n      swap5\n        /* \"#utility.yul\":877:1199   */\n      swap4\n      pop\n      pop\n      pop\n      pop\n      jump\t// out\n        /* \"#utility.yul\":1204:1539   */\n    tag_26:\n        /* \"#utility.yul\":1343:1345   */\n      0x20\n        /* \"#utility.yul\":1328:1346   */\n      dup2\n      add\n        /* \"#utility.yul\":1376:1377   */\n      0x03\n        /* \"#utility.yul\":1365:1378   */\n      dup4\n      lt\n        /* \"#utility.yul\":1355:1499   */\n      tag_144\n      jumpi\n        /* \"#utility.yul\":1421:1431   */\n      0x4e487b71\n        /* \"#utility.yul\":1416:1419   */\n      0xe0\n        /* \"#utility.yul\":1412:1432   */\n      shl\n        /* \"#utility.yul\":1409:1410   */\n      0x00\n        /* \"#utility.yul\":1402:1433   */\n      mstore\n        /* \"#utility.yul\":1456:1460   */\n      0x21\n        /* \"#utility.yul\":1453:1454   */\n      0x04\n        /* \"#utility.yul\":1446:1461   */\n      mstore\n        /* \"#utility.yul\":1484:1488   */\n      0x24\n        /* \"#utility.yul\":1481:1482   */\n      0x00\n        /* \"#utility.yul\":1474:1489   */\n      revert\n        /* \"#utility.yul\":1355:1499   */\n    tag_144:\n        /* \"#utility.yul\":1508:1533   */\n      swap2\n      swap1\n      mstore\n        /* \"#utility.yul\":1204:1539   */\n      swap1\n      jump\t// out\n        /* \"#utility.yul\":1544:1944   */\n    tag_126:\n        /* \"#utility.yul\":1586:1589   */\n      0x00\n        /* \"#utility.yul\":1624:1629   */\n      dup2\n        /* \"#utility.yul\":1618:1630   */\n      mload\n        /* \"#utility.yul\":1651:1657   */\n      dup1\n        /* \"#utility.yul\":1646:1649   */\n      dup5\n        /* \"#utility.yul\":1639:1658   */\n      mstore\n        /* \"#utility.yul\":1676:1677   */\n      0x00\n        /* \"#utility.yul\":1686:1825   */\n    tag_146:\n        /* \"#utility.yul\":1700:1706   */\n      dup2\n        /* \"#utility.yul\":1697:1698   */\n      dup2\n        /* \"#utility.yul\":1694:1707   */\n      lt\n        /* \"#utility.yul\":1686:1825   */\n      iszero\n      tag_148\n      jumpi\n        /* \"#utility.yul\":1808:1812   */\n      0x20\n        /* \"#utility.yul\":1793:1806   */\n      dup2\n      dup6\n      add\n        /* \"#utility.yul\":1789:1813   */\n      dup2\n      add\n        /* \"#utility.yul\":1783:1814   */\n      mload\n        /* \"#utility.yul\":1763:1774   */\n      dup7\n      dup4\n      add\n        /* \"#utility.yul\":1759:1781   */\n      dup3\n      add\n        /* \"#utility.yul\":1752:1815   */\n      mstore\n        /* \"#utility.yul\":1715:1727   */\n      add\n        /* \"#utility.yul\":1686:1825   */\n      jump(tag_146)\n    tag_148:\n        /* \"#utility.yul\":1690:1693   */\n      pop\n        /* \"#utility.yul\":1870:1871   */\n      0x00\n        /* \"#utility.yul\":1863:1867   */\n      0x20\n        /* \"#utility.yul\":1854:1860   */\n      dup3\n        /* \"#utility.yul\":1849:1852   */\n      dup7\n        /* \"#utility.yul\":1845:1861   */\n      add\n        /* \"#utility.yul\":1841:1868   */\n      add\n        /* \"#utility.yul\":1834:1872   */\n      mstore\n        /* \"#utility.yul\":1933:1937   */\n      0x20\n        /* \"#utility.yul\":1926:1928   */\n      0x1f\n        /* \"#utility.yul\":1922:1929   */\n      not\n        /* \"#utility.yul\":1917:1919   */\n      0x1f\n        /* \"#utility.yul\":1909:1915   */\n      dup4\n        /* \"#utility.yul\":1905:1920   */\n      add\n        /* \"#utility.yul\":1901:1930   */\n      and\n        /* \"#utility.yul\":1896:1899   */\n      dup6\n        /* \"#utility.yul\":1892:1931   */\n      add\n        /* \"#utility.yul\":1888:1938   */\n      add\n        /* \"#utility.yul\":1881:1938   */\n      swap2\n      pop\n      pop\n        /* \"#utility.yul\":1544:1944   */\n      swap3\n      swap2\n      pop\n      pop\n      jump\t// out\n        /* \"#utility.yul\":1949:2169   */\n    tag_33:\n        /* \"#utility.yul\":2098:2100   */\n      0x20\n        /* \"#utility.yul\":2087:2096   */\n      dup2\n        /* \"#utility.yul\":2080:2101   */\n      mstore\n        /* \"#utility.yul\":2061:2065   */\n      0x00\n        /* \"#utility.yul\":2118:2163   */\n      tag_150\n        /* \"#utility.yul\":2159:2161   */\n      0x20\n        /* \"#utility.yul\":2148:2157   */\n      dup4\n        /* \"#utility.yul\":2144:2162   */\n      add\n        /* \"#utility.yul\":2136:2142   */\n      dup5\n        /* \"#utility.yul\":2118:2163   */\n      tag_126\n      jump\t// in\n    tag_150:\n        /* \"#utility.yul\":2110:2163   */\n      swap4\n        /* \"#utility.yul\":1949:2169   */\n      swap3\n      pop\n      pop\n      pop\n      jump\t// out\n        /* \"#utility.yul\":2174:2712   */\n    tag_36:\n        /* \"#utility.yul\":2262:2268   */\n      0x00\n        /* \"#utility.yul\":2270:2276   */\n      dup1\n        /* \"#utility.yul\":2323:2325   */\n      0x40\n        /* \"#utility.yul\":2311:2320   */\n      dup4\n        /* \"#utility.yul\":2302:2309   */\n      dup6\n        /* \"#utility.yul\":2298:2321   */\n      sub\n        /* \"#utility.yul\":2294:2326   */\n      slt\n        /* \"#utility.yul\":2291:2343   */\n      iszero\n      tag_152\n      jumpi\n        /* \"#utility.yul\":2339:2340   */\n      0x00\n        /* \"#utility.yul\":2336:2337   */\n      dup1\n        /* \"#utility.yul\":2329:2341   */\n      revert\n        /* \"#utility.yul\":2291:2343   */\n    tag_152:\n        /* \"#utility.yul\":2379:2388   */\n      dup3\n        /* \"#utility.yul\":2366:2389   */\n      calldataload\n        /* \"#utility.yul\":2412:2430   */\n      0xffffffffffffffff\n        /* \"#utility.yul\":2404:2410   */\n      dup2\n        /* \"#utility.yul\":2401:2431   */\n      gt\n        /* \"#utility.yul\":2398:2448   */\n      iszero\n      tag_153\n      jumpi\n        /* \"#utility.yul\":2444:2445   */\n      0x00\n        /* \"#utility.yul\":2441:2442   */\n      dup1\n        /* \"#utility.yul\":2434:2446   */\n      revert\n        /* \"#utility.yul\":2398:2448   */\n    tag_153:\n        /* \"#utility.yul\":2467:2517   */\n      tag_154\n        /* \"#utility.yul\":2509:2516   */\n      dup6\n        /* \"#utility.yul\":2500:2506   */\n      dup3\n        /* \"#utility.yul\":2489:2498   */\n      dup7\n        /* \"#utility.yul\":2485:2507   */\n      add\n        /* \"#utility.yul\":2467:2517   */\n      tag_125\n      jump\t// in\n    tag_154:\n        /* \"#utility.yul\":2457:2517   */\n      swap3\n      pop\n      pop\n        /* \"#utility.yul\":2570:2572   */\n      0x20\n        /* \"#utility.yul\":2559:2568   */\n      dup4\n        /* \"#utility.yul\":2555:2573   */\n      add\n        /* \"#utility.yul\":2542:2574   */\n      calldataload\n        /* \"#utility.yul\":2599:2617   */\n      0xffffffffffffffff\n        /* \"#utility.yul\":2589:2597   */\n      dup2\n        /* \"#utility.yul\":2586:2618   */\n      gt\n        /* \"#utility.yul\":2583:2635   */\n      iszero\n      tag_155\n      jumpi\n        /* \"#utility.yul\":2631:2632   */\n      0x00\n        /* \"#utility.yul\":2628:2629   */\n      dup1\n        /* \"#utility.yul\":2621:2633   */\n      revert\n        /* \"#utility.yul\":2583:2635   */\n    tag_155:\n        /* \"#utility.yul\":2654:2706   */\n      tag_156\n        /* \"#utility.yul\":2698:2705   */\n      dup6\n        /* \"#utility.yul\":2687:2695   */\n      dup3\n        /* \"#utility.yul\":2676:2685   */\n      dup7\n        /* \"#utility.yul\":2672:2696   */\n      add\n        /* \"#utility.yul\":2654:2706   */\n      tag_125\n      jump\t// in\n    tag_156:\n        /* \"#utility.yul\":2644:2706   */\n      swap2\n      pop\n      pop\n        /* \"#utility.yul\":2174:2712   */\n      swap3\n      pop\n      swap3\n      swap1\n      pop\n      jump\t// out\n        /* \"#utility.yul\":3620:4000   */\n    tag_56:\n        /* \"#utility.yul\":3699:3700   */\n      0x01\n        /* \"#utility.yul\":3695:3707   */\n      dup2\n      dup2\n      shr\n      swap1\n        /* \"#utility.yul\":3742:3754   */\n      dup3\n      and\n      dup1\n        /* \"#utility.yul\":3763:3824   */\n      tag_161\n      jumpi\n        /* \"#utility.yul\":3817:3821   */\n      0x7f\n        /* \"#utility.yul\":3809:3815   */\n      dup3\n        /* \"#utility.yul\":3805:3822   */\n      and\n        /* \"#utility.yul\":3795:3822   */\n      swap2\n      pop\n        /* \"#utility.yul\":3763:3824   */\n    tag_161:\n        /* \"#utility.yul\":3870:3872   */\n      0x20\n        /* \"#utility.yul\":3862:3868   */\n      dup3\n        /* \"#utility.yul\":3859:3873   */\n      lt\n        /* \"#utility.yul\":3839:3857   */\n      dup2\n        /* \"#utility.yul\":3836:3874   */\n      sub\n        /* \"#utility.yul\":3833:3994   */\n      tag_162\n      jumpi\n        /* \"#utility.yul\":3916:3926   */\n      0x4e487b71\n        /* \"#utility.yul\":3911:3914   */\n      0xe0\n        /* \"#utility.yul\":3907:3927   */\n      shl\n        /* \"#utility.yul\":3904:3905   */\n      0x00\n        /* \"#utility.yul\":3897:3928   */\n      mstore\n        /* \"#utility.yul\":3951:3955   */\n      0x22\n        /* \"#utility.yul\":3948:3949   */\n      0x04\n        /* \"#utility.yul\":3941:3956   */\n      mstore\n        /* \"#utility.yul\":3979:3983   */\n      0x24\n        /* \"#utility.yul\":3976:3977   */\n      0x00\n        /* \"#utility.yul\":3969:3984   */\n      revert\n        /* \"#utility.yul\":3833:3994   */\n    tag_162:\n      pop\n        /* \"#utility.yul\":3620:4000   */\n      swap2\n      swap1\n      pop\n      jump\t// out\n        /* \"#utility.yul\":4834:5352   */\n    tag_128:\n        /* \"#utility.yul\":4936:4938   */\n      0x1f\n        /* \"#utility.yul\":4931:4934   */\n      dup3\n        /* \"#utility.yul\":4928:4939   */\n      gt\n        /* \"#utility.yul\":4925:5346   */\n      iszero\n      tag_167\n      jumpi\n        /* \"#utility.yul\":4972:4977   */\n      dup1\n        /* \"#utility.yul\":4969:4970   */\n      0x00\n        /* \"#utility.yul\":4962:4978   */\n      mstore\n        /* \"#utility.yul\":5016:5020   */\n      0x20\n        /* \"#utility.yul\":5013:5014   */\n      0x00\n        /* \"#utility.yul\":5003:5021   */\n      keccak256\n        /* \"#utility.yul\":5086:5088   */\n      0x1f\n        /* \"#utility.yul\":5074:5084   */\n      dup5\n        /* \"#utility.yul\":5070:5089   */\n      add\n        /* \"#utility.yul\":5067:5068   */\n      0x05\n        /* \"#utility.yul\":5063:5090   */\n      shr\n        /* \"#utility.yul\":5057:5061   */\n      dup2\n        /* \"#utility.yul\":5053:5091   */\n      add\n        /* \"#utility.yul\":5122:5126   */\n      0x20\n        /* \"#utility.yul\":5110:5120   */\n      dup6\n        /* \"#utility.yul\":5107:5127   */\n      lt\n        /* \"#utility.yul\":5104:5151   */\n      iszero\n      tag_168\n      jumpi\n      pop\n        /* \"#utility.yul\":5145:5149   */\n      dup1\n        /* \"#utility.yul\":5104:5151   */\n    tag_168:\n        /* \"#utility.yul\":5200:5202   */\n      0x1f\n        /* \"#utility.yul\":5195:5198   */\n      dup5\n        /* \"#utility.yul\":5191:5203   */\n      add\n        /* \"#utility.yul\":5188:5189   */\n      0x05\n        /* \"#utility.yul\":5184:5204   */\n      shr\n        /* \"#utility.yul\":5178:5182   */\n      dup3\n        /* \"#utility.yul\":5174:5205   */\n      add\n        /* \"#utility.yul\":5164:5205   */\n      swap2\n      pop\n        /* \"#utility.yul\":5255:5336   */\n    tag_169:\n        /* \"#utility.yul\":5273:5275   */\n      dup2\n        /* \"#utility.yul\":5266:5271   */\n      dup2\n        /* \"#utility.yul\":5263:5276   */\n      lt\n        /* \"#utility.yul\":5255:5336   */\n      iszero\n      tag_171\n      jumpi\n        /* \"#utility.yul\":5332:5333   */\n      0x00\n        /* \"#utility.yul\":5318:5334   */\n      dup2\n      sstore\n        /* \"#utility.yul\":5299:5300   */\n      0x01\n        /* \"#utility.yul\":5288:5301   */\n      add\n        /* \"#utility.yul\":5255:5336   */\n      jump(tag_169)\n    tag_171:\n        /* \"#utility.yul\":5259:5262   */\n      pop\n      pop\n        /* \"#utility.yul\":4925:5346   */\n    tag_167:\n        /* \"#utility.yul\":4834:5352   */\n      pop\n      pop\n      pop\n      jump\t// out\n        /* \"#utility.yul\":5528:6827   */\n    tag_74:\n        /* \"#utility.yul\":5654:5657   */\n      dup2\n        /* \"#utility.yul\":5648:5658   */\n      mload\n        /* \"#utility.yul\":5681:5699   */\n      0xffffffffffffffff\n        /* \"#utility.yul\":5673:5679   */\n      dup2\n        /* \"#utility.yul\":5670:5700   */\n      gt\n        /* \"#utility.yul\":5667:5723   */\n      iszero\n      tag_175\n      jumpi\n        /* \"#utility.yul\":5703:5721   */\n      tag_175\n      tag_124\n      jump\t// in\n    tag_175:\n        /* \"#utility.yul\":5732:5829   */\n      tag_176\n        /* \"#utility.yul\":5822:5828   */\n      dup2\n        /* \"#utility.yul\":5782:5820   */\n      tag_177\n        /* \"#utility.yul\":5814:5818   */\n      dup5\n        /* \"#utility.yul\":5808:5819   */\n      sload\n        /* \"#utility.yul\":5782:5820   */\n      tag_56\n      jump\t// in\n    tag_177:\n        /* \"#utility.yul\":5776:5780   */\n      dup5\n        /* \"#utility.yul\":5732:5829   */\n      tag_128\n      jump\t// in\n    tag_176:\n        /* \"#utility.yul\":5878:5882   */\n      0x20\n        /* \"#utility.yul\":5909:5911   */\n      0x1f\n        /* \"#utility.yul\":5898:5912   */\n      dup3\n      gt\n        /* \"#utility.yul\":5926:5927   */\n      0x01\n        /* \"#utility.yul\":5921:6570   */\n      dup2\n      eq\n      tag_179\n      jumpi\n        /* \"#utility.yul\":6614:6615   */\n      0x00\n        /* \"#utility.yul\":6631:6637   */\n      dup4\n        /* \"#utility.yul\":6628:6717   */\n      iszero\n      tag_180\n      jumpi\n      pop\n        /* \"#utility.yul\":6683:6702   */\n      dup5\n      dup3\n      add\n        /* \"#utility.yul\":6677:6703   */\n      mload\n        /* \"#utility.yul\":6628:6717   */\n    tag_180:\n      not(0x00)\n        /* \"#utility.yul\":5485:5486   */\n      0x03\n        /* \"#utility.yul\":5481:5492   */\n      dup6\n      swap1\n      shl\n        /* \"#utility.yul\":5477:5501   */\n      shr\n        /* \"#utility.yul\":5473:5502   */\n      not\n        /* \"#utility.yul\":5463:5503   */\n      and\n        /* \"#utility.yul\":5509:5510   */\n      0x01\n        /* \"#utility.yul\":5505:5516   */\n      dup5\n      swap1\n      shl\n        /* \"#utility.yul\":5460:5517   */\n      or\n        /* \"#utility.yul\":6730:6811   */\n      dup5\n      sstore\n        /* \"#utility.yul\":5891:6821   */\n      jump(tag_171)\n        /* \"#utility.yul\":5921:6570   */\n    tag_179:\n        /* \"#utility.yul\":4781:4782   */\n      0x00\n        /* \"#utility.yul\":4774:4788   */\n      dup5\n      dup2\n      mstore\n        /* \"#utility.yul\":4818:4822   */\n      0x20\n        /* \"#utility.yul\":4805:4823   */\n      dup2\n      keccak256\n      not(0x1f)\n        /* \"#utility.yul\":5957:5977   */\n      dup6\n      and\n      swap2\n        /* \"#utility.yul\":6075:6297   */\n    tag_183:\n        /* \"#utility.yul\":6089:6096   */\n      dup3\n        /* \"#utility.yul\":6086:6087   */\n      dup2\n        /* \"#utility.yul\":6083:6097   */\n      lt\n        /* \"#utility.yul\":6075:6297   */\n      iszero\n      tag_185\n      jumpi\n        /* \"#utility.yul\":6171:6190   */\n      dup8\n      dup6\n      add\n        /* \"#utility.yul\":6165:6191   */\n      mload\n        /* \"#utility.yul\":6150:6192   */\n      dup3\n      sstore\n        /* \"#utility.yul\":6278:6282   */\n      0x20\n        /* \"#utility.yul\":6263:6283   */\n      swap5\n      dup6\n      add\n      swap5\n        /* \"#utility.yul\":6231:6232   */\n      0x01\n        /* \"#utility.yul\":6219:6233   */\n      swap1\n      swap3\n      add\n      swap2\n        /* \"#utility.yul\":6105:6117   */\n      add\n        /* \"#utility.yul\":6075:6297   */\n      jump(tag_183)\n    tag_185:\n        /* \"#utility.yul\":6079:6082   */\n      pop\n        /* \"#utility.yul\":6325:6331   */\n      dup5\n        /* \"#utility.yul\":6316:6323   */\n      dup3\n        /* \"#utility.yul\":6313:6332   */\n      lt\n        /* \"#utility.yul\":6310:6511   */\n      iszero\n      tag_186\n      jumpi\n        /* \"#utility.yul\":6386:6405   */\n      dup7\n      dup5\n      add\n        /* \"#utility.yul\":6380:6406   */\n      mload\n      not(0x00)\n        /* \"#utility.yul\":6469:6470   */\n      0x03\n        /* \"#utility.yul\":6465:6479   */\n      dup8\n      swap1\n      shl\n        /* \"#utility.yul\":6481:6484   */\n      0xf8\n        /* \"#utility.yul\":6461:6485   */\n      and\n        /* \"#utility.yul\":6457:6494   */\n      shr\n        /* \"#utility.yul\":6453:6495   */\n      not\n        /* \"#utility.yul\":6438:6496   */\n      and\n        /* \"#utility.yul\":6423:6497   */\n      dup2\n      sstore\n        /* \"#utility.yul\":6310:6511   */\n    tag_186:\n      pop\n      pop\n      pop\n      pop\n        /* \"#utility.yul\":6557:6558   */\n      0x01\n        /* \"#utility.yul\":6541:6555   */\n      swap1\n      dup2\n      shl\n        /* \"#utility.yul\":6537:6559   */\n      add\n        /* \"#utility.yul\":6524:6560   */\n      swap1\n      sstore\n      pop\n        /* \"#utility.yul\":5528:6827   */\n      jump\t// out\n        /* \"#utility.yul\":6832:7215   */\n    tag_76:\n        /* \"#utility.yul\":7029:7031   */\n      0x40\n        /* \"#utility.yul\":7018:7027   */\n      dup2\n        /* \"#utility.yul\":7011:7032   */\n      mstore\n        /* \"#utility.yul\":6992:6996   */\n      0x00\n        /* \"#utility.yul\":7055:7100   */\n      tag_188\n        /* \"#utility.yul\":7096:7098   */\n      0x40\n        /* \"#utility.yul\":7085:7094   */\n      dup4\n        /* \"#utility.yul\":7081:7099   */\n      add\n        /* \"#utility.yul\":7073:7079   */\n      dup6\n        /* \"#utility.yul\":7055:7100   */\n      tag_126\n      jump\t// in\n    tag_188:\n        /* \"#utility.yul\":7148:7157   */\n      dup3\n        /* \"#utility.yul\":7140:7146   */\n      dup2\n        /* \"#utility.yul\":7136:7158   */\n      sub\n        /* \"#utility.yul\":7131:7133   */\n      0x20\n        /* \"#utility.yul\":7120:7129   */\n      dup5\n        /* \"#utility.yul\":7116:7134   */\n      add\n        /* \"#utility.yul\":7109:7159   */\n      mstore\n        /* \"#utility.yul\":7176:7209   */\n      tag_189\n        /* \"#utility.yul\":7202:7208   */\n      dup2\n        /* \"#utility.yul\":7194:7200   */\n      dup6\n        /* \"#utility.yul\":7176:7209   */\n      tag_126\n      jump\t// in\n    tag_189:\n        /* \"#utility.yul\":7168:7209   */\n      swap6\n        /* \"#utility.yul\":6832:7215   */\n      swap5\n      pop\n      pop\n      pop\n      pop\n      pop\n      jump\t// out\n\n    auxdata: 0xa26469706673582212205f0960967c6d4c08620213a802534f3a20848684f1245cfe924e0daa4700478364736f6c634300081a0033\n}\n",
				"bytecode": {
					"linkReferences": {},
					"object": "6080604052348015600f57600080fd5b50610dcc8061001f6000396000f3fe608060405234801561001057600080fd5b50600436106100935760003560e01c8063a60c97eb11610066578063a60c97eb146100f6578063bc9c2d5514610109578063bed34bba1461011e578063f2bcac3d14610152578063fde081741461015d57600080fd5b806314c95832146100985780632517c5c7146100ad5780633457d3e2146100c0578063392f5f64146100d3575b600080fd5b6100ab6100a6366004610af2565b610165565b005b6100ab6100bb366004610af2565b610488565b6100ab6100ce366004610af2565b61061b565b6001546100e09060ff1681565b6040516100ed9190610b2f565b60405180910390f35b6100ab610104366004610af2565b6107b6565b6101116108bd565b6040516100ed9190610b9d565b61014261012c366004610bb7565b8051602091820120825192909101919091201490565b60405190151581526020016100ed565b60015460ff166100e0565b6101116109c5565b600061016f6108bd565b336000908152602081905260409020600101549091506001600160a01b03166101df5760405162461bcd60e51b815260206004820152601d60248201527f4e6f2044494420666f756e6420666f722074686973206164647265737300000060448201526064015b60405180910390fd5b60008251116102305760405162461bcd60e51b815260206004820152601860248201527f4e6577204449442063616e6e6f7420626520656d7074792e000000000000000060448201526064016101d6565b33600090815260208190526040902080546102e4919061024f90610c20565b80601f016020809104026020016040519081016040528092919081815260200182805461027b90610c20565b80156102c85780601f1061029d576101008083540402835291602001916102c8565b820191906000526020600020905b8154815290600101906020018083116102ab57829003601f168201915b5050505050828051602091820120825192909101919091201490565b6103305760405162461bcd60e51b815260206004820152601360248201527f44494420646f6573206e6f74206d617463682e0000000000000000000000000060448201526064016101d6565b33600090815260208190526040902080546103e4919061034f90610c20565b80601f016020809104026020016040519081016040528092919081815260200182805461037b90610c20565b80156103c85780601f1061039d576101008083540402835291602001916103c8565b820191906000526020600020905b8154815290600101906020018083116103ab57829003601f168201915b5050505050838051602091820120825192909101919091201490565b156104315760405162461bcd60e51b815260206004820152601a60248201527f4e657720444944206973207374696c6c207468652073616d652e00000000000060448201526064016101d6565b33600090815260208190526040902061044a8382610ca9565b507fef928790e3ba239e686d4c1e6e85a60d67ddf17a606292c714ca966a2720f268818360405161047c929190610d68565b60405180910390a15050565b60006104926109c5565b336000908152602081905260409020600101549091506001600160a01b03166104fd5760405162461bcd60e51b815260206004820152601d60248201527f4e6f2044494420666f756e6420666f722074686973206164647265737300000060448201526064016101d6565b60008251116105465760405162461bcd60e51b81526020600482015260156024820152742937b6329031b0b73737ba1031329032b6b83a3c9760591b60448201526064016101d6565b8151602080840191909120825191830191909120036105cd5760405162461bcd60e51b815260206004820152602f60248201527f4e657720526f6c652073686f756c6420626520646966666572656e742066726f60448201527f6d20746865206f6c6420526f6c652e000000000000000000000000000000000060648201526084016101d6565b3360009081526020819052604090206002016105e98382610ca9565b507f84059cf82b2860dd667235a5c404a8c26329eaf354398d42f60f6ce335129ffa818360405161047c929190610d68565b60008151116106785760405162461bcd60e51b8152602060048201526024808201527f44494420616c72656164792065786973747320666f722074686973206164647260448201526332b9b99760e11b60648201526084016101d6565b336000908152602081905260409020600101546001600160a01b0316156106ed5760405162461bcd60e51b8152602060048201526024808201527f44494420616c72656164792065786973747320666f722074686973206164647260448201526332b9b99760e11b60648201526084016101d6565b6040805160608101825282815233602080830182905283518082018552600080825284860191909152918252819052919091208151819061072e9082610ca9565b50602082015160018201805473ffffffffffffffffffffffffffffffffffffffff19166001600160a01b03909216919091179055604082015160028201906107769082610ca9565b50506040513391507fbfab59a7af78dfc896c3096604749fcee2db2e850297de42de5e6369f54bd3fb906107ab908490610b9d565b60405180910390a250565b336000908152602081905260409020600101546001600160a01b031661081e5760405162461bcd60e51b815260206004820152601d60248201527f4e6f2044494420666f756e6420666f722074686973206164647265737300000060448201526064016101d6565b60008151116108675760405162461bcd60e51b81526020600482015260156024820152742937b6329031b0b73737ba1031329032b6b83a3c9760591b60448201526064016101d6565b3360009081526020819052604090206002016108838282610ca9565b50336001600160a01b03167f3565795c2fb8842c21347d277937778bbcfe788b5b4f790fc5e408786cbe9c90826040516107ab9190610b9d565b336000908152602081905260409020600101546060906001600160a01b03166109285760405162461bcd60e51b815260206004820152601d60248201527f4e6f2044494420666f756e6420666f722074686973206164647265737300000060448201526064016101d6565b336000908152602081905260409020805461094290610c20565b80601f016020809104026020016040519081016040528092919081815260200182805461096e90610c20565b80156109bb5780601f10610990576101008083540402835291602001916109bb565b820191906000526020600020905b81548152906001019060200180831161099e57829003601f168201915b5050505050905090565b336000908152602081905260409020600101546060906001600160a01b0316610a305760405162461bcd60e51b815260206004820152601d60248201527f4e6f2044494420666f756e6420666f722074686973206164647265737300000060448201526064016101d6565b336000908152602081905260409020600201805461094290610c20565b634e487b7160e01b600052604160045260246000fd5b600082601f830112610a7457600080fd5b813567ffffffffffffffff811115610a8e57610a8e610a4d565b604051601f8201601f19908116603f0116810167ffffffffffffffff81118282101715610abd57610abd610a4d565b604052818152838201602001851015610ad557600080fd5b816020850160208301376000918101602001919091529392505050565b600060208284031215610b0457600080fd5b813567ffffffffffffffff811115610b1b57600080fd5b610b2784828501610a63565b949350505050565b6020810160038310610b5157634e487b7160e01b600052602160045260246000fd5b91905290565b6000815180845260005b81811015610b7d57602081850181015186830182015201610b61565b506000602082860101526020601f19601f83011685010191505092915050565b602081526000610bb06020830184610b57565b9392505050565b60008060408385031215610bca57600080fd5b823567ffffffffffffffff811115610be157600080fd5b610bed85828601610a63565b925050602083013567ffffffffffffffff811115610c0a57600080fd5b610c1685828601610a63565b9150509250929050565b600181811c90821680610c3457607f821691505b602082108103610c5457634e487b7160e01b600052602260045260246000fd5b50919050565b601f821115610ca457806000526020600020601f840160051c81016020851015610c815750805b601f840160051c820191505b81811015610ca15760008155600101610c8d565b50505b505050565b815167ffffffffffffffff811115610cc357610cc3610a4d565b610cd781610cd18454610c20565b84610c5a565b6020601f821160018114610d0b5760008315610cf35750848201515b600019600385901b1c1916600184901b178455610ca1565b600084815260208120601f198516915b82811015610d3b5787850151825560209485019460019092019101610d1b565b5084821015610d595786840151600019600387901b60f8161c191681555b50505050600190811b01905550565b604081526000610d7b6040830185610b57565b8281036020840152610d8d8185610b57565b9594505050505056fea26469706673582212205f0960967c6d4c08620213a802534f3a20848684f1245cfe924e0daa4700478364736f6c634300081a0033",
					"opcodes": "PUSH1 0x80 PUSH1 0x40 MSTORE CALLVALUE DUP1 ISZERO PUSH1 0xF JUMPI PUSH1 0x0 DUP1 REVERT JUMPDEST POP PUSH2 0xDCC DUP1 PUSH2 0x1F PUSH1 0x0 CODECOPY PUSH1 0x0 RETURN INVALID PUSH1 0x80 PUSH1 0x40 MSTORE CALLVALUE DUP1 ISZERO PUSH2 0x10 JUMPI PUSH1 0x0 DUP1 REVERT JUMPDEST POP PUSH1 0x4 CALLDATASIZE LT PUSH2 0x93 JUMPI PUSH1 0x0 CALLDATALOAD PUSH1 0xE0 SHR DUP1 PUSH4 0xA60C97EB GT PUSH2 0x66 JUMPI DUP1 PUSH4 0xA60C97EB EQ PUSH2 0xF6 JUMPI DUP1 PUSH4 0xBC9C2D55 EQ PUSH2 0x109 JUMPI DUP1 PUSH4 0xBED34BBA EQ PUSH2 0x11E JUMPI DUP1 PUSH4 0xF2BCAC3D EQ PUSH2 0x152 JUMPI DUP1 PUSH4 0xFDE08174 EQ PUSH2 0x15D JUMPI PUSH1 0x0 DUP1 REVERT JUMPDEST DUP1 PUSH4 0x14C95832 EQ PUSH2 0x98 JUMPI DUP1 PUSH4 0x2517C5C7 EQ PUSH2 0xAD JUMPI DUP1 PUSH4 0x3457D3E2 EQ PUSH2 0xC0 JUMPI DUP1 PUSH4 0x392F5F64 EQ PUSH2 0xD3 JUMPI JUMPDEST PUSH1 0x0 DUP1 REVERT JUMPDEST PUSH2 0xAB PUSH2 0xA6 CALLDATASIZE PUSH1 0x4 PUSH2 0xAF2 JUMP JUMPDEST PUSH2 0x165 JUMP JUMPDEST STOP JUMPDEST PUSH2 0xAB PUSH2 0xBB CALLDATASIZE PUSH1 0x4 PUSH2 0xAF2 JUMP JUMPDEST PUSH2 0x488 JUMP JUMPDEST PUSH2 0xAB PUSH2 0xCE CALLDATASIZE PUSH1 0x4 PUSH2 0xAF2 JUMP JUMPDEST PUSH2 0x61B JUMP JUMPDEST PUSH1 0x1 SLOAD PUSH2 0xE0 SWAP1 PUSH1 0xFF AND DUP2 JUMP JUMPDEST PUSH1 0x40 MLOAD PUSH2 0xED SWAP2 SWAP1 PUSH2 0xB2F JUMP JUMPDEST PUSH1 0x40 MLOAD DUP1 SWAP2 SUB SWAP1 RETURN JUMPDEST PUSH2 0xAB PUSH2 0x104 CALLDATASIZE PUSH1 0x4 PUSH2 0xAF2 JUMP JUMPDEST PUSH2 0x7B6 JUMP JUMPDEST PUSH2 0x111 PUSH2 0x8BD JUMP JUMPDEST PUSH1 0x40 MLOAD PUSH2 0xED SWAP2 SWAP1 PUSH2 0xB9D JUMP JUMPDEST PUSH2 0x142 PUSH2 0x12C CALLDATASIZE PUSH1 0x4 PUSH2 0xBB7 JUMP JUMPDEST DUP1 MLOAD PUSH1 0x20 SWAP2 DUP3 ADD KECCAK256 DUP3 MLOAD SWAP3 SWAP1 SWAP2 ADD SWAP2 SWAP1 SWAP2 KECCAK256 EQ SWAP1 JUMP JUMPDEST PUSH1 0x40 MLOAD SWAP1 ISZERO ISZERO DUP2 MSTORE PUSH1 0x20 ADD PUSH2 0xED JUMP JUMPDEST PUSH1 0x1 SLOAD PUSH1 0xFF AND PUSH2 0xE0 JUMP JUMPDEST PUSH2 0x111 PUSH2 0x9C5 JUMP JUMPDEST PUSH1 0x0 PUSH2 0x16F PUSH2 0x8BD JUMP JUMPDEST CALLER PUSH1 0x0 SWAP1 DUP2 MSTORE PUSH1 0x20 DUP2 SWAP1 MSTORE PUSH1 0x40 SWAP1 KECCAK256 PUSH1 0x1 ADD SLOAD SWAP1 SWAP2 POP PUSH1 0x1 PUSH1 0x1 PUSH1 0xA0 SHL SUB AND PUSH2 0x1DF JUMPI PUSH1 0x40 MLOAD PUSH3 0x461BCD PUSH1 0xE5 SHL DUP2 MSTORE PUSH1 0x20 PUSH1 0x4 DUP3 ADD MSTORE PUSH1 0x1D PUSH1 0x24 DUP3 ADD MSTORE PUSH32 0x4E6F2044494420666F756E6420666F7220746869732061646472657373000000 PUSH1 0x44 DUP3 ADD MSTORE PUSH1 0x64 ADD JUMPDEST PUSH1 0x40 MLOAD DUP1 SWAP2 SUB SWAP1 REVERT JUMPDEST PUSH1 0x0 DUP3 MLOAD GT PUSH2 0x230 JUMPI PUSH1 0x40 MLOAD PUSH3 0x461BCD PUSH1 0xE5 SHL DUP2 MSTORE PUSH1 0x20 PUSH1 0x4 DUP3 ADD MSTORE PUSH1 0x18 PUSH1 0x24 DUP3 ADD MSTORE PUSH32 0x4E6577204449442063616E6E6F7420626520656D7074792E0000000000000000 PUSH1 0x44 DUP3 ADD MSTORE PUSH1 0x64 ADD PUSH2 0x1D6 JUMP JUMPDEST CALLER PUSH1 0x0 SWAP1 DUP2 MSTORE PUSH1 0x20 DUP2 SWAP1 MSTORE PUSH1 0x40 SWAP1 KECCAK256 DUP1 SLOAD PUSH2 0x2E4 SWAP2 SWAP1 PUSH2 0x24F SWAP1 PUSH2 0xC20 JUMP JUMPDEST DUP1 PUSH1 0x1F ADD PUSH1 0x20 DUP1 SWAP2 DIV MUL PUSH1 0x20 ADD PUSH1 0x40 MLOAD SWAP1 DUP2 ADD PUSH1 0x40 MSTORE DUP1 SWAP3 SWAP2 SWAP1 DUP2 DUP2 MSTORE PUSH1 0x20 ADD DUP3 DUP1 SLOAD PUSH2 0x27B SWAP1 PUSH2 0xC20 JUMP JUMPDEST DUP1 ISZERO PUSH2 0x2C8 JUMPI DUP1 PUSH1 0x1F LT PUSH2 0x29D JUMPI PUSH2 0x100 DUP1 DUP4 SLOAD DIV MUL DUP4 MSTORE SWAP2 PUSH1 0x20 ADD SWAP2 PUSH2 0x2C8 JUMP JUMPDEST DUP3 ADD SWAP2 SWAP1 PUSH1 0x0 MSTORE PUSH1 0x20 PUSH1 0x0 KECCAK256 SWAP1 JUMPDEST DUP2 SLOAD DUP2 MSTORE SWAP1 PUSH1 0x1 ADD SWAP1 PUSH1 0x20 ADD DUP1 DUP4 GT PUSH2 0x2AB JUMPI DUP3 SWAP1 SUB PUSH1 0x1F AND DUP3 ADD SWAP2 JUMPDEST POP POP POP POP POP DUP3 DUP1 MLOAD PUSH1 0x20 SWAP2 DUP3 ADD KECCAK256 DUP3 MLOAD SWAP3 SWAP1 SWAP2 ADD SWAP2 SWAP1 SWAP2 KECCAK256 EQ SWAP1 JUMP JUMPDEST PUSH2 0x330 JUMPI PUSH1 0x40 MLOAD PUSH3 0x461BCD PUSH1 0xE5 SHL DUP2 MSTORE PUSH1 0x20 PUSH1 0x4 DUP3 ADD MSTORE PUSH1 0x13 PUSH1 0x24 DUP3 ADD MSTORE PUSH32 0x44494420646F6573206E6F74206D617463682E00000000000000000000000000 PUSH1 0x44 DUP3 ADD MSTORE PUSH1 0x64 ADD PUSH2 0x1D6 JUMP JUMPDEST CALLER PUSH1 0x0 SWAP1 DUP2 MSTORE PUSH1 0x20 DUP2 SWAP1 MSTORE PUSH1 0x40 SWAP1 KECCAK256 DUP1 SLOAD PUSH2 0x3E4 SWAP2 SWAP1 PUSH2 0x34F SWAP1 PUSH2 0xC20 JUMP JUMPDEST DUP1 PUSH1 0x1F ADD PUSH1 0x20 DUP1 SWAP2 DIV MUL PUSH1 0x20 ADD PUSH1 0x40 MLOAD SWAP1 DUP2 ADD PUSH1 0x40 MSTORE DUP1 SWAP3 SWAP2 SWAP1 DUP2 DUP2 MSTORE PUSH1 0x20 ADD DUP3 DUP1 SLOAD PUSH2 0x37B SWAP1 PUSH2 0xC20 JUMP JUMPDEST DUP1 ISZERO PUSH2 0x3C8 JUMPI DUP1 PUSH1 0x1F LT PUSH2 0x39D JUMPI PUSH2 0x100 DUP1 DUP4 SLOAD DIV MUL DUP4 MSTORE SWAP2 PUSH1 0x20 ADD SWAP2 PUSH2 0x3C8 JUMP JUMPDEST DUP3 ADD SWAP2 SWAP1 PUSH1 0x0 MSTORE PUSH1 0x20 PUSH1 0x0 KECCAK256 SWAP1 JUMPDEST DUP2 SLOAD DUP2 MSTORE SWAP1 PUSH1 0x1 ADD SWAP1 PUSH1 0x20 ADD DUP1 DUP4 GT PUSH2 0x3AB JUMPI DUP3 SWAP1 SUB PUSH1 0x1F AND DUP3 ADD SWAP2 JUMPDEST POP POP POP POP POP DUP4 DUP1 MLOAD PUSH1 0x20 SWAP2 DUP3 ADD KECCAK256 DUP3 MLOAD SWAP3 SWAP1 SWAP2 ADD SWAP2 SWAP1 SWAP2 KECCAK256 EQ SWAP1 JUMP JUMPDEST ISZERO PUSH2 0x431 JUMPI PUSH1 0x40 MLOAD PUSH3 0x461BCD PUSH1 0xE5 SHL DUP2 MSTORE PUSH1 0x20 PUSH1 0x4 DUP3 ADD MSTORE PUSH1 0x1A PUSH1 0x24 DUP3 ADD MSTORE PUSH32 0x4E657720444944206973207374696C6C207468652073616D652E000000000000 PUSH1 0x44 DUP3 ADD MSTORE PUSH1 0x64 ADD PUSH2 0x1D6 JUMP JUMPDEST CALLER PUSH1 0x0 SWAP1 DUP2 MSTORE PUSH1 0x20 DUP2 SWAP1 MSTORE PUSH1 0x40 SWAP1 KECCAK256 PUSH2 0x44A DUP4 DUP3 PUSH2 0xCA9 JUMP JUMPDEST POP PUSH32 0xEF928790E3BA239E686D4C1E6E85A60D67DDF17A606292C714CA966A2720F268 DUP2 DUP4 PUSH1 0x40 MLOAD PUSH2 0x47C SWAP3 SWAP2 SWAP1 PUSH2 0xD68 JUMP JUMPDEST PUSH1 0x40 MLOAD DUP1 SWAP2 SUB SWAP1 LOG1 POP POP JUMP JUMPDEST PUSH1 0x0 PUSH2 0x492 PUSH2 0x9C5 JUMP JUMPDEST CALLER PUSH1 0x0 SWAP1 DUP2 MSTORE PUSH1 0x20 DUP2 SWAP1 MSTORE PUSH1 0x40 SWAP1 KECCAK256 PUSH1 0x1 ADD SLOAD SWAP1 SWAP2 POP PUSH1 0x1 PUSH1 0x1 PUSH1 0xA0 SHL SUB AND PUSH2 0x4FD JUMPI PUSH1 0x40 MLOAD PUSH3 0x461BCD PUSH1 0xE5 SHL DUP2 MSTORE PUSH1 0x20 PUSH1 0x4 DUP3 ADD MSTORE PUSH1 0x1D PUSH1 0x24 DUP3 ADD MSTORE PUSH32 0x4E6F2044494420666F756E6420666F7220746869732061646472657373000000 PUSH1 0x44 DUP3 ADD MSTORE PUSH1 0x64 ADD PUSH2 0x1D6 JUMP JUMPDEST PUSH1 0x0 DUP3 MLOAD GT PUSH2 0x546 JUMPI PUSH1 0x40 MLOAD PUSH3 0x461BCD PUSH1 0xE5 SHL DUP2 MSTORE PUSH1 0x20 PUSH1 0x4 DUP3 ADD MSTORE PUSH1 0x15 PUSH1 0x24 DUP3 ADD MSTORE PUSH21 0x2937B6329031B0B73737BA1031329032B6B83A3C97 PUSH1 0x59 SHL PUSH1 0x44 DUP3 ADD MSTORE PUSH1 0x64 ADD PUSH2 0x1D6 JUMP JUMPDEST DUP2 MLOAD PUSH1 0x20 DUP1 DUP5 ADD SWAP2 SWAP1 SWAP2 KECCAK256 DUP3 MLOAD SWAP2 DUP4 ADD SWAP2 SWAP1 SWAP2 KECCAK256 SUB PUSH2 0x5CD JUMPI PUSH1 0x40 MLOAD PUSH3 0x461BCD PUSH1 0xE5 SHL DUP2 MSTORE PUSH1 0x20 PUSH1 0x4 DUP3 ADD MSTORE PUSH1 0x2F PUSH1 0x24 DUP3 ADD MSTORE PUSH32 0x4E657720526F6C652073686F756C6420626520646966666572656E742066726F PUSH1 0x44 DUP3 ADD MSTORE PUSH32 0x6D20746865206F6C6420526F6C652E0000000000000000000000000000000000 PUSH1 0x64 DUP3 ADD MSTORE PUSH1 0x84 ADD PUSH2 0x1D6 JUMP JUMPDEST CALLER PUSH1 0x0 SWAP1 DUP2 MSTORE PUSH1 0x20 DUP2 SWAP1 MSTORE PUSH1 0x40 SWAP1 KECCAK256 PUSH1 0x2 ADD PUSH2 0x5E9 DUP4 DUP3 PUSH2 0xCA9 JUMP JUMPDEST POP PUSH32 0x84059CF82B2860DD667235A5C404A8C26329EAF354398D42F60F6CE335129FFA DUP2 DUP4 PUSH1 0x40 MLOAD PUSH2 0x47C SWAP3 SWAP2 SWAP1 PUSH2 0xD68 JUMP JUMPDEST PUSH1 0x0 DUP2 MLOAD GT PUSH2 0x678 JUMPI PUSH1 0x40 MLOAD PUSH3 0x461BCD PUSH1 0xE5 SHL DUP2 MSTORE PUSH1 0x20 PUSH1 0x4 DUP3 ADD MSTORE PUSH1 0x24 DUP1 DUP3 ADD MSTORE PUSH32 0x44494420616C72656164792065786973747320666F7220746869732061646472 PUSH1 0x44 DUP3 ADD MSTORE PUSH4 0x32B9B997 PUSH1 0xE1 SHL PUSH1 0x64 DUP3 ADD MSTORE PUSH1 0x84 ADD PUSH2 0x1D6 JUMP JUMPDEST CALLER PUSH1 0x0 SWAP1 DUP2 MSTORE PUSH1 0x20 DUP2 SWAP1 MSTORE PUSH1 0x40 SWAP1 KECCAK256 PUSH1 0x1 ADD SLOAD PUSH1 0x1 PUSH1 0x1 PUSH1 0xA0 SHL SUB AND ISZERO PUSH2 0x6ED JUMPI PUSH1 0x40 MLOAD PUSH3 0x461BCD PUSH1 0xE5 SHL DUP2 MSTORE PUSH1 0x20 PUSH1 0x4 DUP3 ADD MSTORE PUSH1 0x24 DUP1 DUP3 ADD MSTORE PUSH32 0x44494420616C72656164792065786973747320666F7220746869732061646472 PUSH1 0x44 DUP3 ADD MSTORE PUSH4 0x32B9B997 PUSH1 0xE1 SHL PUSH1 0x64 DUP3 ADD MSTORE PUSH1 0x84 ADD PUSH2 0x1D6 JUMP JUMPDEST PUSH1 0x40 DUP1 MLOAD PUSH1 0x60 DUP2 ADD DUP3 MSTORE DUP3 DUP2 MSTORE CALLER PUSH1 0x20 DUP1 DUP4 ADD DUP3 SWAP1 MSTORE DUP4 MLOAD DUP1 DUP3 ADD DUP6 MSTORE PUSH1 0x0 DUP1 DUP3 MSTORE DUP5 DUP7 ADD SWAP2 SWAP1 SWAP2 MSTORE SWAP2 DUP3 MSTORE DUP2 SWAP1 MSTORE SWAP2 SWAP1 SWAP2 KECCAK256 DUP2 MLOAD DUP2 SWAP1 PUSH2 0x72E SWAP1 DUP3 PUSH2 0xCA9 JUMP JUMPDEST POP PUSH1 0x20 DUP3 ADD MLOAD PUSH1 0x1 DUP3 ADD DUP1 SLOAD PUSH20 0xFFFFFFFFFFFFFFFFFFFFFFFFFFFFFFFFFFFFFFFF NOT AND PUSH1 0x1 PUSH1 0x1 PUSH1 0xA0 SHL SUB SWAP1 SWAP3 AND SWAP2 SWAP1 SWAP2 OR SWAP1 SSTORE PUSH1 0x40 DUP3 ADD MLOAD PUSH1 0x2 DUP3 ADD SWAP1 PUSH2 0x776 SWAP1 DUP3 PUSH2 0xCA9 JUMP JUMPDEST POP POP PUSH1 0x40 MLOAD CALLER SWAP2 POP PUSH32 0xBFAB59A7AF78DFC896C3096604749FCEE2DB2E850297DE42DE5E6369F54BD3FB SWAP1 PUSH2 0x7AB SWAP1 DUP5 SWAP1 PUSH2 0xB9D JUMP JUMPDEST PUSH1 0x40 MLOAD DUP1 SWAP2 SUB SWAP1 LOG2 POP JUMP JUMPDEST CALLER PUSH1 0x0 SWAP1 DUP2 MSTORE PUSH1 0x20 DUP2 SWAP1 MSTORE PUSH1 0x40 SWAP1 KECCAK256 PUSH1 0x1 ADD SLOAD PUSH1 0x1 PUSH1 0x1 PUSH1 0xA0 SHL SUB AND PUSH2 0x81E JUMPI PUSH1 0x40 MLOAD PUSH3 0x461BCD PUSH1 0xE5 SHL DUP2 MSTORE PUSH1 0x20 PUSH1 0x4 DUP3 ADD MSTORE PUSH1 0x1D PUSH1 0x24 DUP3 ADD MSTORE PUSH32 0x4E6F2044494420666F756E6420666F7220746869732061646472657373000000 PUSH1 0x44 DUP3 ADD MSTORE PUSH1 0x64 ADD PUSH2 0x1D6 JUMP JUMPDEST PUSH1 0x0 DUP2 MLOAD GT PUSH2 0x867 JUMPI PUSH1 0x40 MLOAD PUSH3 0x461BCD PUSH1 0xE5 SHL DUP2 MSTORE PUSH1 0x20 PUSH1 0x4 DUP3 ADD MSTORE PUSH1 0x15 PUSH1 0x24 DUP3 ADD MSTORE PUSH21 0x2937B6329031B0B73737BA1031329032B6B83A3C97 PUSH1 0x59 SHL PUSH1 0x44 DUP3 ADD MSTORE PUSH1 0x64 ADD PUSH2 0x1D6 JUMP JUMPDEST CALLER PUSH1 0x0 SWAP1 DUP2 MSTORE PUSH1 0x20 DUP2 SWAP1 MSTORE PUSH1 0x40 SWAP1 KECCAK256 PUSH1 0x2 ADD PUSH2 0x883 DUP3 DUP3 PUSH2 0xCA9 JUMP JUMPDEST POP CALLER PUSH1 0x1 PUSH1 0x1 PUSH1 0xA0 SHL SUB AND PUSH32 0x3565795C2FB8842C21347D277937778BBCFE788B5B4F790FC5E408786CBE9C90 DUP3 PUSH1 0x40 MLOAD PUSH2 0x7AB SWAP2 SWAP1 PUSH2 0xB9D JUMP JUMPDEST CALLER PUSH1 0x0 SWAP1 DUP2 MSTORE PUSH1 0x20 DUP2 SWAP1 MSTORE PUSH1 0x40 SWAP1 KECCAK256 PUSH1 0x1 ADD SLOAD PUSH1 0x60 SWAP1 PUSH1 0x1 PUSH1 0x1 PUSH1 0xA0 SHL SUB AND PUSH2 0x928 JUMPI PUSH1 0x40 MLOAD PUSH3 0x461BCD PUSH1 0xE5 SHL DUP2 MSTORE PUSH1 0x20 PUSH1 0x4 DUP3 ADD MSTORE PUSH1 0x1D PUSH1 0x24 DUP3 ADD MSTORE PUSH32 0x4E6F2044494420666F756E6420666F7220746869732061646472657373000000 PUSH1 0x44 DUP3 ADD MSTORE PUSH1 0x64 ADD PUSH2 0x1D6 JUMP JUMPDEST CALLER PUSH1 0x0 SWAP1 DUP2 MSTORE PUSH1 0x20 DUP2 SWAP1 MSTORE PUSH1 0x40 SWAP1 KECCAK256 DUP1 SLOAD PUSH2 0x942 SWAP1 PUSH2 0xC20 JUMP JUMPDEST DUP1 PUSH1 0x1F ADD PUSH1 0x20 DUP1 SWAP2 DIV MUL PUSH1 0x20 ADD PUSH1 0x40 MLOAD SWAP1 DUP2 ADD PUSH1 0x40 MSTORE DUP1 SWAP3 SWAP2 SWAP1 DUP2 DUP2 MSTORE PUSH1 0x20 ADD DUP3 DUP1 SLOAD PUSH2 0x96E SWAP1 PUSH2 0xC20 JUMP JUMPDEST DUP1 ISZERO PUSH2 0x9BB JUMPI DUP1 PUSH1 0x1F LT PUSH2 0x990 JUMPI PUSH2 0x100 DUP1 DUP4 SLOAD DIV MUL DUP4 MSTORE SWAP2 PUSH1 0x20 ADD SWAP2 PUSH2 0x9BB JUMP JUMPDEST DUP3 ADD SWAP2 SWAP1 PUSH1 0x0 MSTORE PUSH1 0x20 PUSH1 0x0 KECCAK256 SWAP1 JUMPDEST DUP2 SLOAD DUP2 MSTORE SWAP1 PUSH1 0x1 ADD SWAP1 PUSH1 0x20 ADD DUP1 DUP4 GT PUSH2 0x99E JUMPI DUP3 SWAP1 SUB PUSH1 0x1F AND DUP3 ADD SWAP2 JUMPDEST POP POP POP POP POP SWAP1 POP SWAP1 JUMP JUMPDEST CALLER PUSH1 0x0 SWAP1 DUP2 MSTORE PUSH1 0x20 DUP2 SWAP1 MSTORE PUSH1 0x40 SWAP1 KECCAK256 PUSH1 0x1 ADD SLOAD PUSH1 0x60 SWAP1 PUSH1 0x1 PUSH1 0x1 PUSH1 0xA0 SHL SUB AND PUSH2 0xA30 JUMPI PUSH1 0x40 MLOAD PUSH3 0x461BCD PUSH1 0xE5 SHL DUP2 MSTORE PUSH1 0x20 PUSH1 0x4 DUP3 ADD MSTORE PUSH1 0x1D PUSH1 0x24 DUP3 ADD MSTORE PUSH32 0x4E6F2044494420666F756E6420666F7220746869732061646472657373000000 PUSH1 0x44 DUP3 ADD MSTORE PUSH1 0x64 ADD PUSH2 0x1D6 JUMP JUMPDEST CALLER PUSH1 0x0 SWAP1 DUP2 MSTORE PUSH1 0x20 DUP2 SWAP1 MSTORE PUSH1 0x40 SWAP1 KECCAK256 PUSH1 0x2 ADD DUP1 SLOAD PUSH2 0x942 SWAP1 PUSH2 0xC20 JUMP JUMPDEST PUSH4 0x4E487B71 PUSH1 0xE0 SHL PUSH1 0x0 MSTORE PUSH1 0x41 PUSH1 0x4 MSTORE PUSH1 0x24 PUSH1 0x0 REVERT JUMPDEST PUSH1 0x0 DUP3 PUSH1 0x1F DUP4 ADD SLT PUSH2 0xA74 JUMPI PUSH1 0x0 DUP1 REVERT JUMPDEST DUP2 CALLDATALOAD PUSH8 0xFFFFFFFFFFFFFFFF DUP2 GT ISZERO PUSH2 0xA8E JUMPI PUSH2 0xA8E PUSH2 0xA4D JUMP JUMPDEST PUSH1 0x40 MLOAD PUSH1 0x1F DUP3 ADD PUSH1 0x1F NOT SWAP1 DUP2 AND PUSH1 0x3F ADD AND DUP2 ADD PUSH8 0xFFFFFFFFFFFFFFFF DUP2 GT DUP3 DUP3 LT OR ISZERO PUSH2 0xABD JUMPI PUSH2 0xABD PUSH2 0xA4D JUMP JUMPDEST PUSH1 0x40 MSTORE DUP2 DUP2 MSTORE DUP4 DUP3 ADD PUSH1 0x20 ADD DUP6 LT ISZERO PUSH2 0xAD5 JUMPI PUSH1 0x0 DUP1 REVERT JUMPDEST DUP2 PUSH1 0x20 DUP6 ADD PUSH1 0x20 DUP4 ADD CALLDATACOPY PUSH1 0x0 SWAP2 DUP2 ADD PUSH1 0x20 ADD SWAP2 SWAP1 SWAP2 MSTORE SWAP4 SWAP3 POP POP POP JUMP JUMPDEST PUSH1 0x0 PUSH1 0x20 DUP3 DUP5 SUB SLT ISZERO PUSH2 0xB04 JUMPI PUSH1 0x0 DUP1 REVERT JUMPDEST DUP2 CALLDATALOAD PUSH8 0xFFFFFFFFFFFFFFFF DUP2 GT ISZERO PUSH2 0xB1B JUMPI PUSH1 0x0 DUP1 REVERT JUMPDEST PUSH2 0xB27 DUP5 DUP3 DUP6 ADD PUSH2 0xA63 JUMP JUMPDEST SWAP5 SWAP4 POP POP POP POP JUMP JUMPDEST PUSH1 0x20 DUP2 ADD PUSH1 0x3 DUP4 LT PUSH2 0xB51 JUMPI PUSH4 0x4E487B71 PUSH1 0xE0 SHL PUSH1 0x0 MSTORE PUSH1 0x21 PUSH1 0x4 MSTORE PUSH1 0x24 PUSH1 0x0 REVERT JUMPDEST SWAP2 SWAP1 MSTORE SWAP1 JUMP JUMPDEST PUSH1 0x0 DUP2 MLOAD DUP1 DUP5 MSTORE PUSH1 0x0 JUMPDEST DUP2 DUP2 LT ISZERO PUSH2 0xB7D JUMPI PUSH1 0x20 DUP2 DUP6 ADD DUP2 ADD MLOAD DUP7 DUP4 ADD DUP3 ADD MSTORE ADD PUSH2 0xB61 JUMP JUMPDEST POP PUSH1 0x0 PUSH1 0x20 DUP3 DUP7 ADD ADD MSTORE PUSH1 0x20 PUSH1 0x1F NOT PUSH1 0x1F DUP4 ADD AND DUP6 ADD ADD SWAP2 POP POP SWAP3 SWAP2 POP POP JUMP JUMPDEST PUSH1 0x20 DUP2 MSTORE PUSH1 0x0 PUSH2 0xBB0 PUSH1 0x20 DUP4 ADD DUP5 PUSH2 0xB57 JUMP JUMPDEST SWAP4 SWAP3 POP POP POP JUMP JUMPDEST PUSH1 0x0 DUP1 PUSH1 0x40 DUP4 DUP6 SUB SLT ISZERO PUSH2 0xBCA JUMPI PUSH1 0x0 DUP1 REVERT JUMPDEST DUP3 CALLDATALOAD PUSH8 0xFFFFFFFFFFFFFFFF DUP2 GT ISZERO PUSH2 0xBE1 JUMPI PUSH1 0x0 DUP1 REVERT JUMPDEST PUSH2 0xBED DUP6 DUP3 DUP7 ADD PUSH2 0xA63 JUMP JUMPDEST SWAP3 POP POP PUSH1 0x20 DUP4 ADD CALLDATALOAD PUSH8 0xFFFFFFFFFFFFFFFF DUP2 GT ISZERO PUSH2 0xC0A JUMPI PUSH1 0x0 DUP1 REVERT JUMPDEST PUSH2 0xC16 DUP6 DUP3 DUP7 ADD PUSH2 0xA63 JUMP JUMPDEST SWAP2 POP POP SWAP3 POP SWAP3 SWAP1 POP JUMP JUMPDEST PUSH1 0x1 DUP2 DUP2 SHR SWAP1 DUP3 AND DUP1 PUSH2 0xC34 JUMPI PUSH1 0x7F DUP3 AND SWAP2 POP JUMPDEST PUSH1 0x20 DUP3 LT DUP2 SUB PUSH2 0xC54 JUMPI PUSH4 0x4E487B71 PUSH1 0xE0 SHL PUSH1 0x0 MSTORE PUSH1 0x22 PUSH1 0x4 MSTORE PUSH1 0x24 PUSH1 0x0 REVERT JUMPDEST POP SWAP2 SWAP1 POP JUMP JUMPDEST PUSH1 0x1F DUP3 GT ISZERO PUSH2 0xCA4 JUMPI DUP1 PUSH1 0x0 MSTORE PUSH1 0x20 PUSH1 0x0 KECCAK256 PUSH1 0x1F DUP5 ADD PUSH1 0x5 SHR DUP2 ADD PUSH1 0x20 DUP6 LT ISZERO PUSH2 0xC81 JUMPI POP DUP1 JUMPDEST PUSH1 0x1F DUP5 ADD PUSH1 0x5 SHR DUP3 ADD SWAP2 POP JUMPDEST DUP2 DUP2 LT ISZERO PUSH2 0xCA1 JUMPI PUSH1 0x0 DUP2 SSTORE PUSH1 0x1 ADD PUSH2 0xC8D JUMP JUMPDEST POP POP JUMPDEST POP POP POP JUMP JUMPDEST DUP2 MLOAD PUSH8 0xFFFFFFFFFFFFFFFF DUP2 GT ISZERO PUSH2 0xCC3 JUMPI PUSH2 0xCC3 PUSH2 0xA4D JUMP JUMPDEST PUSH2 0xCD7 DUP2 PUSH2 0xCD1 DUP5 SLOAD PUSH2 0xC20 JUMP JUMPDEST DUP5 PUSH2 0xC5A JUMP JUMPDEST PUSH1 0x20 PUSH1 0x1F DUP3 GT PUSH1 0x1 DUP2 EQ PUSH2 0xD0B JUMPI PUSH1 0x0 DUP4 ISZERO PUSH2 0xCF3 JUMPI POP DUP5 DUP3 ADD MLOAD JUMPDEST PUSH1 0x0 NOT PUSH1 0x3 DUP6 SWAP1 SHL SHR NOT AND PUSH1 0x1 DUP5 SWAP1 SHL OR DUP5 SSTORE PUSH2 0xCA1 JUMP JUMPDEST PUSH1 0x0 DUP5 DUP2 MSTORE PUSH1 0x20 DUP2 KECCAK256 PUSH1 0x1F NOT DUP6 AND SWAP2 JUMPDEST DUP3 DUP2 LT ISZERO PUSH2 0xD3B JUMPI DUP8 DUP6 ADD MLOAD DUP3 SSTORE PUSH1 0x20 SWAP5 DUP6 ADD SWAP5 PUSH1 0x1 SWAP1 SWAP3 ADD SWAP2 ADD PUSH2 0xD1B JUMP JUMPDEST POP DUP5 DUP3 LT ISZERO PUSH2 0xD59 JUMPI DUP7 DUP5 ADD MLOAD PUSH1 0x0 NOT PUSH1 0x3 DUP8 SWAP1 SHL PUSH1 0xF8 AND SHR NOT AND DUP2 SSTORE JUMPDEST POP POP POP POP PUSH1 0x1 SWAP1 DUP2 SHL ADD SWAP1 SSTORE POP JUMP JUMPDEST PUSH1 0x40 DUP2 MSTORE PUSH1 0x0 PUSH2 0xD7B PUSH1 0x40 DUP4 ADD DUP6 PUSH2 0xB57 JUMP JUMPDEST DUP3 DUP2 SUB PUSH1 0x20 DUP5 ADD MSTORE PUSH2 0xD8D DUP2 DUP6 PUSH2 0xB57 JUMP JUMPDEST SWAP6 SWAP5 POP POP POP POP POP JUMP INVALID LOG2 PUSH5 0x6970667358 0x22 SLT KECCAK256 PUSH0 MULMOD PUSH1 0x96 PUSH29 0x6D4C08620213A802534F3A20848684F1245CFE924E0DAA470047836473 PUSH16 0x6C634300081A00330000000000000000 "
				},
				"gasEstimates": {
					"creation": {
						"codeDepositCost": "706400",
						"executionCost": "741",
						"totalCost": "707141"
					},
					"external": {
						"assignRole(string)": "infinite",
						"compareStrings(string,string)": "infinite",
						"createDID(string)": "infinite",
						"getAllRoles()": "2411",
						"getDID()": "infinite",
						"getRole()": "infinite",
						"roles()": "2418",
						"updateDID(string)": "infinite",
						"updateRole(string)": "infinite"
					}
				},
				"methodIdentifiers": {
					"assignRole(string)": "a60c97eb",
					"compareStrings(string,string)": "bed34bba",
					"createDID(string)": "3457d3e2",
					"getAllRoles()": "f2bcac3d",
					"getDID()": "bc9c2d55",
					"getRole()": "fde08174",
					"roles()": "392f5f64",
					"updateDID(string)": "14c95832",
					"updateRole(string)": "2517c5c7"
				}
			},
			"storageLayout": {
				"storage": [
					{
						"astId": 17,
						"contract": "contracts/ssi_and_did_lab/DIDRegistry.sol:DIDRegistry",
						"label": "dids",
						"offset": 0,
						"slot": "0",
						"type": "t_mapping(t_address,t_struct(DID)12_storage)"
					},
					{
						"astId": 217,
						"contract": "contracts/ssi_and_did_lab/DIDRegistry.sol:DIDRegistry",
						"label": "roles",
						"offset": 0,
						"slot": "1",
						"type": "t_enum(Roles)5"
					}
				],
				"types": {
					"t_address": {
						"encoding": "inplace",
						"label": "address",
						"numberOfBytes": "20"
					},
					"t_enum(Roles)5": {
						"encoding": "inplace",
						"label": "enum DIDRegistry.Roles",
						"numberOfBytes": "1"
					},
					"t_mapping(t_address,t_struct(DID)12_storage)": {
						"encoding": "mapping",
						"key": "t_address",
						"label": "mapping(address => struct DIDRegistry.DID)",
						"numberOfBytes": "32",
						"value": "t_struct(DID)12_storage"
					},
					"t_string_storage": {
						"encoding": "bytes",
						"label": "string",
						"numberOfBytes": "32"
					},
					"t_struct(DID)12_storage": {
						"encoding": "inplace",
						"label": "struct DIDRegistry.DID",
						"members": [
							{
								"astId": 7,
								"contract": "contracts/ssi_and_did_lab/DIDRegistry.sol:DIDRegistry",
								"label": "identifier",
								"offset": 0,
								"slot": "0",
								"type": "t_string_storage"
							},
							{
								"astId": 9,
								"contract": "contracts/ssi_and_did_lab/DIDRegistry.sol:DIDRegistry",
								"label": "owner",
								"offset": 0,
								"slot": "1",
								"type": "t_address"
							},
							{
								"astId": 11,
								"contract": "contracts/ssi_and_did_lab/DIDRegistry.sol:DIDRegistry",
								"label": "role",
								"offset": 0,
								"slot": "2",
								"type": "t_string_storage"
							}
						],
						"numberOfBytes": "96"
					}
				}
			},
			"userdoc": {
				"kind": "user",
				"methods": {},
				"version": 1
			}
		}
	}
}