{
	"data": {
		"bytecode": {
			"linkReferences": {},
			"object": "6080604052348015600f57600080fd5b506113eb8061001f6000396000f3fe608060405234801561001057600080fd5b506004361061009e5760003560e01c806385e685311161006657806385e685311461011c578063a0076e841461012f578063d81aa8c414610151578063ec0b7b4114610164578063fde081741461017757600080fd5b80630ae5e739146100a357806313720fef146100b8578063169db77d146100d65780633457d3e2146100f657806361765a2614610109575b600080fd5b6100b66100b1366004610f56565b61018c565b005b6100c06102bb565b6040516100cd9190610fcc565b60405180910390f35b6100e96100e4366004610f56565b61042b565b6040516100cd9190611024565b6100b661010436600461104d565b6104a1565b6100b6610117366004611106565b610632565b6100b661012a366004610f56565b61079b565b61014261013d366004610f56565b6109d7565b6040516100cd93929190611127565b6100b661015f36600461104d565b610cb8565b6100b6610172366004611106565b610e12565b61017f610edd565b6040516100cd91906111f2565b336000908152602081905260409020600101546001600160a01b03166101e95760405162461bcd60e51b815260206004820152600d60248201526c2737902224a2103337bab7321760991b60448201526064015b60405180910390fd5b6001600160a01b03818116600090815260208190526040902060010154166102535760405162461bcd60e51b815260206004820152601760248201527f446f63746f72206d75737420686176652061204449442e00000000000000000060448201526064016101e0565b33600081815260016020818152604080842080549384018155845290832090910180546001600160a01b0319166001600160a01b03861690811790915590519092917f9f520b3bfc56d06f7065d10b4683b3f57ac8895d5026cd176dee95ce1454cb8d91a350565b336000908152602081905260409020600101546060906001600160a01b03166103165760405162461bcd60e51b815260206004820152600d60248201526c2737902224a2103337bab7321760991b60448201526064016101e0565b600033600090815260208190526040902060010154600160a01b900460ff166002811115610346576103466111dc565b0361036b575060408051808201909152600581526420b236b4b760d91b602082015290565b600133600090815260208190526040902060010154600160a01b900460ff16600281111561039b5761039b6111dc565b036103c157506040805180820190915260068152652237b1ba37b960d11b602082015290565b600233600090815260208190526040902060010154600160a01b900460ff1660028111156103f1576103f16111dc565b03610418575060408051808201909152600781526614185d1a595b9d60ca1b602082015290565b5060408051602081019091526000815290565b6001600160a01b03811660009081526001602090815260409182902080548351818402810184019094528084526060939283018282801561049557602002820191906000526020600020905b81546001600160a01b03168152600190910190602001808311610477575b50505050509050919050565b60008151116104f25760405162461bcd60e51b815260206004820152601b60248201527f4964656e7469666965722063616e6e6f7420626520656d7074792e000000000060448201526064016101e0565b336000908152602081905260409020600101546001600160a01b03161561055b5760405162461bcd60e51b815260206004820152601360248201527f44494420616c7265616479206578697374732e0000000000000000000000000060448201526064016101e0565b60408051606081018252828152336020820152908101600290523360009081526020819052604090208151819061059290826112a3565b5060208201516001820180546001600160a01b039092166001600160a01b031983168117825560408501519274ffffffffffffffffffffffffffffffffffffffffff191617600160a01b8360028111156105ee576105ee6111dc565b0217905550506040513391507fbfab59a7af78dfc896c3096604749fcee2db2e850297de42de5e6369f54bd3fb90610627908490610fcc565b60405180910390a250565b3360009081526020819052604090206001015460ff600160a01b820416906001600160a01b03166106955760405162461bcd60e51b815260206004820152600d60248201526c2737902224a2103337bab7321760991b60448201526064016101e0565b8060028111156106a7576106a76111dc565b8260028111156106b9576106b96111dc565b0361071c5760405162461bcd60e51b815260206004820152602d60248201527f4e657720526f6c65206d75737420626520646966666572656e742066726f6d2060448201526c3a34329037b632102937b6329760991b60648201526084016101e0565b336000908152602081905260409020600101805483919060ff60a01b1916600160a01b836002811115610751576107516111dc565b0217905550336001600160a01b03167f4ac36fa53f167ceb85964be512e01de2a3b8bdb9862f917da079deeeff689b388360405161078f91906111f2565b60405180910390a25050565b336000908152602081905260409020600101546001600160a01b03166107f35760405162461bcd60e51b815260206004820152600d60248201526c2737902224a2103337bab7321760991b60448201526064016101e0565b6001600160a01b038181166000908152602081905260409020600101541661085d5760405162461bcd60e51b815260206004820152601760248201527f446f63746f72206d75737420686176652061204449442e00000000000000000060448201526064016101e0565b60005b336000908152600160205260409020548110156109d35733600090815260016020526040902080546001600160a01b0384169190839081106108a4576108a4611362565b6000918252602090912001546001600160a01b0316036109cb57336000908152600160208190526040909120805490916108dd91611378565b815481106108ed576108ed611362565b60009182526020808320909101543383526001909152604090912080546001600160a01b03909216918390811061092657610926611362565b600091825260208083209190910180546001600160a01b0319166001600160a01b03949094169390931790925533815260019091526040902080548061096e5761096e61139f565b600082815260208120820160001990810180546001600160a01b03191690559091019091556040516001600160a01b0384169133917f825c8be24eb0df19500f63e86c29e7d0d951e73056b889b891d85e40938d9b6e9190a35050565b600101610860565b5050565b6001600160a01b038181166000908152602081905260409020600101546060918291829116610a385760405162461bcd60e51b815260206004820152600d60248201526c2737902224a2103337bab7321760991b60448201526064016101e0565b6001600160a01b0384166000908152600260205260409020548067ffffffffffffffff811115610a6a57610a6a611037565b604051908082528060200260200182016040528015610a9d57816020015b6060815260200190600190039081610a885790505b5093508067ffffffffffffffff811115610ab957610ab9611037565b604051908082528060200260200182016040528015610ae2578160200160208202803683370190505b5092508067ffffffffffffffff811115610afe57610afe611037565b604051908082528060200260200182016040528015610b27578160200160208202803683370190505b50915060005b81811015610caf576001600160a01b0386166000908152600260205260408120805483908110610b5f57610b5f611362565b9060005260206000209060030201604051806060016040529081600082018054610b889061121a565b80601f0160208091040260200160405190810160405280929190818152602001828054610bb49061121a565b8015610c015780601f10610bd657610100808354040283529160200191610c01565b820191906000526020600020905b815481529060010190602001808311610be457829003601f168201915b505050918352505060018201546001600160a01b031660208201526002909101546040909101528051875191925090879084908110610c4257610c42611362565b60200260200101819052508060200151858381518110610c6457610c64611362565b60200260200101906001600160a01b031690816001600160a01b0316815250508060400151848381518110610c9b57610c9b611362565b602090810291909101015250600101610b2d565b50509193909250565b6000815111610d095760405162461bcd60e51b815260206004820152601a60248201527f4950465320686173682063616e6e6f7420626520656d7074792e00000000000060448201526064016101e0565b336000908152602081905260409020600101546001600160a01b0316610d615760405162461bcd60e51b815260206004820152600d60248201526c2737902224a2103337bab7321760991b60448201526064016101e0565b3360008181526002602090815260408083208151606081018352868152808401959095524291850191909152805460018101825590835291208251600390920201908190610daf90826112a3565b5060208201516001820180546001600160a01b0319166001600160a01b039092169190911790556040918201516002909101555133907f44626cfec8a165f72396cc5e247c6b96279f8c205a8d07c390df7aa5806205fa90610627908490610fcc565b336000908152602081905260409020600101546001600160a01b0316610e6a5760405162461bcd60e51b815260206004820152600d60248201526c2737902224a2103337bab7321760991b60448201526064016101e0565b336000908152602081905260409020600101805482919060ff60a01b1916600160a01b836002811115610e9f57610e9f6111dc565b0217905550336001600160a01b03167f4ac36fa53f167ceb85964be512e01de2a3b8bdb9862f917da079deeeff689b388260405161062791906111f2565b336000908152602081905260408120600101546001600160a01b0316610f355760405162461bcd60e51b815260206004820152600d60248201526c2737902224a2103337bab7321760991b60448201526064016101e0565b5033600090815260208190526040902060010154600160a01b900460ff1690565b600060208284031215610f6857600080fd5b81356001600160a01b0381168114610f7f57600080fd5b9392505050565b6000815180845260005b81811015610fac57602081850181015186830182015201610f90565b506000602082860101526020601f19601f83011685010191505092915050565b602081526000610f7f6020830184610f86565b600081518084526020840193506020830160005b8281101561101a5781516001600160a01b0316865260209586019590910190600101610ff3565b5093949350505050565b602081526000610f7f6020830184610fdf565b634e487b7160e01b600052604160045260246000fd5b60006020828403121561105f57600080fd5b813567ffffffffffffffff81111561107657600080fd5b8201601f8101841361108757600080fd5b803567ffffffffffffffff8111156110a1576110a1611037565b604051601f8201601f19908116603f0116810167ffffffffffffffff811182821017156110d0576110d0611037565b6040528181528282016020018610156110e857600080fd5b81602084016020830137600091810160200191909152949350505050565b60006020828403121561111857600080fd5b813560038110610f7f57600080fd5b6000606082016060835280865180835260808501915060808160051b86010192506020880160005b8281101561118057607f1987860301845261116b858351610f86565b9450602093840193919091019060010161114f565b5050505082810360208401526111968186610fdf565b83810360408501528451808252602080870193509091019060005b818110156111cf5783518352602093840193909201916001016111b1565b5090979650505050505050565b634e487b7160e01b600052602160045260246000fd5b602081016003831061121457634e487b7160e01b600052602160045260246000fd5b91905290565b600181811c9082168061122e57607f821691505b60208210810361124e57634e487b7160e01b600052602260045260246000fd5b50919050565b601f82111561129e57806000526020600020601f840160051c8101602085101561127b5750805b601f840160051c820191505b8181101561129b5760008155600101611287565b50505b505050565b815167ffffffffffffffff8111156112bd576112bd611037565b6112d1816112cb845461121a565b84611254565b6020601f82116001811461130557600083156112ed5750848201515b600019600385901b1c1916600184901b17845561129b565b600084815260208120601f198516915b828110156113355787850151825560209485019460019092019101611315565b50848210156113535786840151600019600387901b60f8161c191681555b50505050600190811b01905550565b634e487b7160e01b600052603260045260246000fd5b8181038181111561139957634e487b7160e01b600052601160045260246000fd5b92915050565b634e487b7160e01b600052603160045260246000fdfea26469706673582212204337a93180e833fb6ba2f9297f13e7246f0e6372b7dfb8ef392d66c8e7d328a364736f6c634300081a0033",
			"opcodes": "PUSH1 0x80 PUSH1 0x40 MSTORE CALLVALUE DUP1 ISZERO PUSH1 0xF JUMPI PUSH1 0x0 DUP1 REVERT JUMPDEST POP PUSH2 0x13EB DUP1 PUSH2 0x1F PUSH1 0x0 CODECOPY PUSH1 0x0 RETURN INVALID PUSH1 0x80 PUSH1 0x40 MSTORE CALLVALUE DUP1 ISZERO PUSH2 0x10 JUMPI PUSH1 0x0 DUP1 REVERT JUMPDEST POP PUSH1 0x4 CALLDATASIZE LT PUSH2 0x9E JUMPI PUSH1 0x0 CALLDATALOAD PUSH1 0xE0 SHR DUP1 PUSH4 0x85E68531 GT PUSH2 0x66 JUMPI DUP1 PUSH4 0x85E68531 EQ PUSH2 0x11C JUMPI DUP1 PUSH4 0xA0076E84 EQ PUSH2 0x12F JUMPI DUP1 PUSH4 0xD81AA8C4 EQ PUSH2 0x151 JUMPI DUP1 PUSH4 0xEC0B7B41 EQ PUSH2 0x164 JUMPI DUP1 PUSH4 0xFDE08174 EQ PUSH2 0x177 JUMPI PUSH1 0x0 DUP1 REVERT JUMPDEST DUP1 PUSH4 0xAE5E739 EQ PUSH2 0xA3 JUMPI DUP1 PUSH4 0x13720FEF EQ PUSH2 0xB8 JUMPI DUP1 PUSH4 0x169DB77D EQ PUSH2 0xD6 JUMPI DUP1 PUSH4 0x3457D3E2 EQ PUSH2 0xF6 JUMPI DUP1 PUSH4 0x61765A26 EQ PUSH2 0x109 JUMPI JUMPDEST PUSH1 0x0 DUP1 REVERT JUMPDEST PUSH2 0xB6 PUSH2 0xB1 CALLDATASIZE PUSH1 0x4 PUSH2 0xF56 JUMP JUMPDEST PUSH2 0x18C JUMP JUMPDEST STOP JUMPDEST PUSH2 0xC0 PUSH2 0x2BB JUMP JUMPDEST PUSH1 0x40 MLOAD PUSH2 0xCD SWAP2 SWAP1 PUSH2 0xFCC JUMP JUMPDEST PUSH1 0x40 MLOAD DUP1 SWAP2 SUB SWAP1 RETURN JUMPDEST PUSH2 0xE9 PUSH2 0xE4 CALLDATASIZE PUSH1 0x4 PUSH2 0xF56 JUMP JUMPDEST PUSH2 0x42B JUMP JUMPDEST PUSH1 0x40 MLOAD PUSH2 0xCD SWAP2 SWAP1 PUSH2 0x1024 JUMP JUMPDEST PUSH2 0xB6 PUSH2 0x104 CALLDATASIZE PUSH1 0x4 PUSH2 0x104D JUMP JUMPDEST PUSH2 0x4A1 JUMP JUMPDEST PUSH2 0xB6 PUSH2 0x117 CALLDATASIZE PUSH1 0x4 PUSH2 0x1106 JUMP JUMPDEST PUSH2 0x632 JUMP JUMPDEST PUSH2 0xB6 PUSH2 0x12A CALLDATASIZE PUSH1 0x4 PUSH2 0xF56 JUMP JUMPDEST PUSH2 0x79B JUMP JUMPDEST PUSH2 0x142 PUSH2 0x13D CALLDATASIZE PUSH1 0x4 PUSH2 0xF56 JUMP JUMPDEST PUSH2 0x9D7 JUMP JUMPDEST PUSH1 0x40 MLOAD PUSH2 0xCD SWAP4 SWAP3 SWAP2 SWAP1 PUSH2 0x1127 JUMP JUMPDEST PUSH2 0xB6 PUSH2 0x15F CALLDATASIZE PUSH1 0x4 PUSH2 0x104D JUMP JUMPDEST PUSH2 0xCB8 JUMP JUMPDEST PUSH2 0xB6 PUSH2 0x172 CALLDATASIZE PUSH1 0x4 PUSH2 0x1106 JUMP JUMPDEST PUSH2 0xE12 JUMP JUMPDEST PUSH2 0x17F PUSH2 0xEDD JUMP JUMPDEST PUSH1 0x40 MLOAD PUSH2 0xCD SWAP2 SWAP1 PUSH2 0x11F2 JUMP JUMPDEST CALLER PUSH1 0x0 SWAP1 DUP2 MSTORE PUSH1 0x20 DUP2 SWAP1 MSTORE PUSH1 0x40 SWAP1 KECCAK256 PUSH1 0x1 ADD SLOAD PUSH1 0x1 PUSH1 0x1 PUSH1 0xA0 SHL SUB AND PUSH2 0x1E9 JUMPI PUSH1 0x40 MLOAD PUSH3 0x461BCD PUSH1 0xE5 SHL DUP2 MSTORE PUSH1 0x20 PUSH1 0x4 DUP3 ADD MSTORE PUSH1 0xD PUSH1 0x24 DUP3 ADD MSTORE PUSH13 0x2737902224A2103337BAB73217 PUSH1 0x99 SHL PUSH1 0x44 DUP3 ADD MSTORE PUSH1 0x64 ADD JUMPDEST PUSH1 0x40 MLOAD DUP1 SWAP2 SUB SWAP1 REVERT JUMPDEST PUSH1 0x1 PUSH1 0x1 PUSH1 0xA0 SHL SUB DUP2 DUP2 AND PUSH1 0x0 SWAP1 DUP2 MSTORE PUSH1 0x20 DUP2 SWAP1 MSTORE PUSH1 0x40 SWAP1 KECCAK256 PUSH1 0x1 ADD SLOAD AND PUSH2 0x253 JUMPI PUSH1 0x40 MLOAD PUSH3 0x461BCD PUSH1 0xE5 SHL DUP2 MSTORE PUSH1 0x20 PUSH1 0x4 DUP3 ADD MSTORE PUSH1 0x17 PUSH1 0x24 DUP3 ADD MSTORE PUSH32 0x446F63746F72206D75737420686176652061204449442E000000000000000000 PUSH1 0x44 DUP3 ADD MSTORE PUSH1 0x64 ADD PUSH2 0x1E0 JUMP JUMPDEST CALLER PUSH1 0x0 DUP2 DUP2 MSTORE PUSH1 0x1 PUSH1 0x20 DUP2 DUP2 MSTORE PUSH1 0x40 DUP1 DUP5 KECCAK256 DUP1 SLOAD SWAP4 DUP5 ADD DUP2 SSTORE DUP5 MSTORE SWAP1 DUP4 KECCAK256 SWAP1 SWAP2 ADD DUP1 SLOAD PUSH1 0x1 PUSH1 0x1 PUSH1 0xA0 SHL SUB NOT AND PUSH1 0x1 PUSH1 0x1 PUSH1 0xA0 SHL SUB DUP7 AND SWAP1 DUP2 OR SWAP1 SWAP2 SSTORE SWAP1 MLOAD SWAP1 SWAP3 SWAP2 PUSH32 0x9F520B3BFC56D06F7065D10B4683B3F57AC8895D5026CD176DEE95CE1454CB8D SWAP2 LOG3 POP JUMP JUMPDEST CALLER PUSH1 0x0 SWAP1 DUP2 MSTORE PUSH1 0x20 DUP2 SWAP1 MSTORE PUSH1 0x40 SWAP1 KECCAK256 PUSH1 0x1 ADD SLOAD PUSH1 0x60 SWAP1 PUSH1 0x1 PUSH1 0x1 PUSH1 0xA0 SHL SUB AND PUSH2 0x316 JUMPI PUSH1 0x40 MLOAD PUSH3 0x461BCD PUSH1 0xE5 SHL DUP2 MSTORE PUSH1 0x20 PUSH1 0x4 DUP3 ADD MSTORE PUSH1 0xD PUSH1 0x24 DUP3 ADD MSTORE PUSH13 0x2737902224A2103337BAB73217 PUSH1 0x99 SHL PUSH1 0x44 DUP3 ADD MSTORE PUSH1 0x64 ADD PUSH2 0x1E0 JUMP JUMPDEST PUSH1 0x0 CALLER PUSH1 0x0 SWAP1 DUP2 MSTORE PUSH1 0x20 DUP2 SWAP1 MSTORE PUSH1 0x40 SWAP1 KECCAK256 PUSH1 0x1 ADD SLOAD PUSH1 0x1 PUSH1 0xA0 SHL SWAP1 DIV PUSH1 0xFF AND PUSH1 0x2 DUP2 GT ISZERO PUSH2 0x346 JUMPI PUSH2 0x346 PUSH2 0x11DC JUMP JUMPDEST SUB PUSH2 0x36B JUMPI POP PUSH1 0x40 DUP1 MLOAD DUP1 DUP3 ADD SWAP1 SWAP2 MSTORE PUSH1 0x5 DUP2 MSTORE PUSH5 0x20B236B4B7 PUSH1 0xD9 SHL PUSH1 0x20 DUP3 ADD MSTORE SWAP1 JUMP JUMPDEST PUSH1 0x1 CALLER PUSH1 0x0 SWAP1 DUP2 MSTORE PUSH1 0x20 DUP2 SWAP1 MSTORE PUSH1 0x40 SWAP1 KECCAK256 PUSH1 0x1 ADD SLOAD PUSH1 0x1 PUSH1 0xA0 SHL SWAP1 DIV PUSH1 0xFF AND PUSH1 0x2 DUP2 GT ISZERO PUSH2 0x39B JUMPI PUSH2 0x39B PUSH2 0x11DC JUMP JUMPDEST SUB PUSH2 0x3C1 JUMPI POP PUSH1 0x40 DUP1 MLOAD DUP1 DUP3 ADD SWAP1 SWAP2 MSTORE PUSH1 0x6 DUP2 MSTORE PUSH6 0x2237B1BA37B9 PUSH1 0xD1 SHL PUSH1 0x20 DUP3 ADD MSTORE SWAP1 JUMP JUMPDEST PUSH1 0x2 CALLER PUSH1 0x0 SWAP1 DUP2 MSTORE PUSH1 0x20 DUP2 SWAP1 MSTORE PUSH1 0x40 SWAP1 KECCAK256 PUSH1 0x1 ADD SLOAD PUSH1 0x1 PUSH1 0xA0 SHL SWAP1 DIV PUSH1 0xFF AND PUSH1 0x2 DUP2 GT ISZERO PUSH2 0x3F1 JUMPI PUSH2 0x3F1 PUSH2 0x11DC JUMP JUMPDEST SUB PUSH2 0x418 JUMPI POP PUSH1 0x40 DUP1 MLOAD DUP1 DUP3 ADD SWAP1 SWAP2 MSTORE PUSH1 0x7 DUP2 MSTORE PUSH7 0x14185D1A595B9D PUSH1 0xCA SHL PUSH1 0x20 DUP3 ADD MSTORE SWAP1 JUMP JUMPDEST POP PUSH1 0x40 DUP1 MLOAD PUSH1 0x20 DUP2 ADD SWAP1 SWAP2 MSTORE PUSH1 0x0 DUP2 MSTORE SWAP1 JUMP JUMPDEST PUSH1 0x1 PUSH1 0x1 PUSH1 0xA0 SHL SUB DUP2 AND PUSH1 0x0 SWAP1 DUP2 MSTORE PUSH1 0x1 PUSH1 0x20 SWAP1 DUP2 MSTORE PUSH1 0x40 SWAP2 DUP3 SWAP1 KECCAK256 DUP1 SLOAD DUP4 MLOAD DUP2 DUP5 MUL DUP2 ADD DUP5 ADD SWAP1 SWAP5 MSTORE DUP1 DUP5 MSTORE PUSH1 0x60 SWAP4 SWAP3 DUP4 ADD DUP3 DUP3 DUP1 ISZERO PUSH2 0x495 JUMPI PUSH1 0x20 MUL DUP3 ADD SWAP2 SWAP1 PUSH1 0x0 MSTORE PUSH1 0x20 PUSH1 0x0 KECCAK256 SWAP1 JUMPDEST DUP2 SLOAD PUSH1 0x1 PUSH1 0x1 PUSH1 0xA0 SHL SUB AND DUP2 MSTORE PUSH1 0x1 SWAP1 SWAP2 ADD SWAP1 PUSH1 0x20 ADD DUP1 DUP4 GT PUSH2 0x477 JUMPI JUMPDEST POP POP POP POP POP SWAP1 POP SWAP2 SWAP1 POP JUMP JUMPDEST PUSH1 0x0 DUP2 MLOAD GT PUSH2 0x4F2 JUMPI PUSH1 0x40 MLOAD PUSH3 0x461BCD PUSH1 0xE5 SHL DUP2 MSTORE PUSH1 0x20 PUSH1 0x4 DUP3 ADD MSTORE PUSH1 0x1B PUSH1 0x24 DUP3 ADD MSTORE PUSH32 0x4964656E7469666965722063616E6E6F7420626520656D7074792E0000000000 PUSH1 0x44 DUP3 ADD MSTORE PUSH1 0x64 ADD PUSH2 0x1E0 JUMP JUMPDEST CALLER PUSH1 0x0 SWAP1 DUP2 MSTORE PUSH1 0x20 DUP2 SWAP1 MSTORE PUSH1 0x40 SWAP1 KECCAK256 PUSH1 0x1 ADD SLOAD PUSH1 0x1 PUSH1 0x1 PUSH1 0xA0 SHL SUB AND ISZERO PUSH2 0x55B JUMPI PUSH1 0x40 MLOAD PUSH3 0x461BCD PUSH1 0xE5 SHL DUP2 MSTORE PUSH1 0x20 PUSH1 0x4 DUP3 ADD MSTORE PUSH1 0x13 PUSH1 0x24 DUP3 ADD MSTORE PUSH32 0x44494420616C7265616479206578697374732E00000000000000000000000000 PUSH1 0x44 DUP3 ADD MSTORE PUSH1 0x64 ADD PUSH2 0x1E0 JUMP JUMPDEST PUSH1 0x40 DUP1 MLOAD PUSH1 0x60 DUP2 ADD DUP3 MSTORE DUP3 DUP2 MSTORE CALLER PUSH1 0x20 DUP3 ADD MSTORE SWAP1 DUP2 ADD PUSH1 0x2 SWAP1 MSTORE CALLER PUSH1 0x0 SWAP1 DUP2 MSTORE PUSH1 0x20 DUP2 SWAP1 MSTORE PUSH1 0x40 SWAP1 KECCAK256 DUP2 MLOAD DUP2 SWAP1 PUSH2 0x592 SWAP1 DUP3 PUSH2 0x12A3 JUMP JUMPDEST POP PUSH1 0x20 DUP3 ADD MLOAD PUSH1 0x1 DUP3 ADD DUP1 SLOAD PUSH1 0x1 PUSH1 0x1 PUSH1 0xA0 SHL SUB SWAP1 SWAP3 AND PUSH1 0x1 PUSH1 0x1 PUSH1 0xA0 SHL SUB NOT DUP4 AND DUP2 OR DUP3 SSTORE PUSH1 0x40 DUP6 ADD MLOAD SWAP3 PUSH21 0xFFFFFFFFFFFFFFFFFFFFFFFFFFFFFFFFFFFFFFFFFF NOT AND OR PUSH1 0x1 PUSH1 0xA0 SHL DUP4 PUSH1 0x2 DUP2 GT ISZERO PUSH2 0x5EE JUMPI PUSH2 0x5EE PUSH2 0x11DC JUMP JUMPDEST MUL OR SWAP1 SSTORE POP POP PUSH1 0x40 MLOAD CALLER SWAP2 POP PUSH32 0xBFAB59A7AF78DFC896C3096604749FCEE2DB2E850297DE42DE5E6369F54BD3FB SWAP1 PUSH2 0x627 SWAP1 DUP5 SWAP1 PUSH2 0xFCC JUMP JUMPDEST PUSH1 0x40 MLOAD DUP1 SWAP2 SUB SWAP1 LOG2 POP JUMP JUMPDEST CALLER PUSH1 0x0 SWAP1 DUP2 MSTORE PUSH1 0x20 DUP2 SWAP1 MSTORE PUSH1 0x40 SWAP1 KECCAK256 PUSH1 0x1 ADD SLOAD PUSH1 0xFF PUSH1 0x1 PUSH1 0xA0 SHL DUP3 DIV AND SWAP1 PUSH1 0x1 PUSH1 0x1 PUSH1 0xA0 SHL SUB AND PUSH2 0x695 JUMPI PUSH1 0x40 MLOAD PUSH3 0x461BCD PUSH1 0xE5 SHL DUP2 MSTORE PUSH1 0x20 PUSH1 0x4 DUP3 ADD MSTORE PUSH1 0xD PUSH1 0x24 DUP3 ADD MSTORE PUSH13 0x2737902224A2103337BAB73217 PUSH1 0x99 SHL PUSH1 0x44 DUP3 ADD MSTORE PUSH1 0x64 ADD PUSH2 0x1E0 JUMP JUMPDEST DUP1 PUSH1 0x2 DUP2 GT ISZERO PUSH2 0x6A7 JUMPI PUSH2 0x6A7 PUSH2 0x11DC JUMP JUMPDEST DUP3 PUSH1 0x2 DUP2 GT ISZERO PUSH2 0x6B9 JUMPI PUSH2 0x6B9 PUSH2 0x11DC JUMP JUMPDEST SUB PUSH2 0x71C JUMPI PUSH1 0x40 MLOAD PUSH3 0x461BCD PUSH1 0xE5 SHL DUP2 MSTORE PUSH1 0x20 PUSH1 0x4 DUP3 ADD MSTORE PUSH1 0x2D PUSH1 0x24 DUP3 ADD MSTORE PUSH32 0x4E657720526F6C65206D75737420626520646966666572656E742066726F6D20 PUSH1 0x44 DUP3 ADD MSTORE PUSH13 0x3A34329037B632102937B63297 PUSH1 0x99 SHL PUSH1 0x64 DUP3 ADD MSTORE PUSH1 0x84 ADD PUSH2 0x1E0 JUMP JUMPDEST CALLER PUSH1 0x0 SWAP1 DUP2 MSTORE PUSH1 0x20 DUP2 SWAP1 MSTORE PUSH1 0x40 SWAP1 KECCAK256 PUSH1 0x1 ADD DUP1 SLOAD DUP4 SWAP2 SWAP1 PUSH1 0xFF PUSH1 0xA0 SHL NOT AND PUSH1 0x1 PUSH1 0xA0 SHL DUP4 PUSH1 0x2 DUP2 GT ISZERO PUSH2 0x751 JUMPI PUSH2 0x751 PUSH2 0x11DC JUMP JUMPDEST MUL OR SWAP1 SSTORE POP CALLER PUSH1 0x1 PUSH1 0x1 PUSH1 0xA0 SHL SUB AND PUSH32 0x4AC36FA53F167CEB85964BE512E01DE2A3B8BDB9862F917DA079DEEEFF689B38 DUP4 PUSH1 0x40 MLOAD PUSH2 0x78F SWAP2 SWAP1 PUSH2 0x11F2 JUMP JUMPDEST PUSH1 0x40 MLOAD DUP1 SWAP2 SUB SWAP1 LOG2 POP POP JUMP JUMPDEST CALLER PUSH1 0x0 SWAP1 DUP2 MSTORE PUSH1 0x20 DUP2 SWAP1 MSTORE PUSH1 0x40 SWAP1 KECCAK256 PUSH1 0x1 ADD SLOAD PUSH1 0x1 PUSH1 0x1 PUSH1 0xA0 SHL SUB AND PUSH2 0x7F3 JUMPI PUSH1 0x40 MLOAD PUSH3 0x461BCD PUSH1 0xE5 SHL DUP2 MSTORE PUSH1 0x20 PUSH1 0x4 DUP3 ADD MSTORE PUSH1 0xD PUSH1 0x24 DUP3 ADD MSTORE PUSH13 0x2737902224A2103337BAB73217 PUSH1 0x99 SHL PUSH1 0x44 DUP3 ADD MSTORE PUSH1 0x64 ADD PUSH2 0x1E0 JUMP JUMPDEST PUSH1 0x1 PUSH1 0x1 PUSH1 0xA0 SHL SUB DUP2 DUP2 AND PUSH1 0x0 SWAP1 DUP2 MSTORE PUSH1 0x20 DUP2 SWAP1 MSTORE PUSH1 0x40 SWAP1 KECCAK256 PUSH1 0x1 ADD SLOAD AND PUSH2 0x85D JUMPI PUSH1 0x40 MLOAD PUSH3 0x461BCD PUSH1 0xE5 SHL DUP2 MSTORE PUSH1 0x20 PUSH1 0x4 DUP3 ADD MSTORE PUSH1 0x17 PUSH1 0x24 DUP3 ADD MSTORE PUSH32 0x446F63746F72206D75737420686176652061204449442E000000000000000000 PUSH1 0x44 DUP3 ADD MSTORE PUSH1 0x64 ADD PUSH2 0x1E0 JUMP JUMPDEST PUSH1 0x0 JUMPDEST CALLER PUSH1 0x0 SWAP1 DUP2 MSTORE PUSH1 0x1 PUSH1 0x20 MSTORE PUSH1 0x40 SWAP1 KECCAK256 SLOAD DUP2 LT ISZERO PUSH2 0x9D3 JUMPI CALLER PUSH1 0x0 SWAP1 DUP2 MSTORE PUSH1 0x1 PUSH1 0x20 MSTORE PUSH1 0x40 SWAP1 KECCAK256 DUP1 SLOAD PUSH1 0x1 PUSH1 0x1 PUSH1 0xA0 SHL SUB DUP5 AND SWAP2 SWAP1 DUP4 SWAP1 DUP2 LT PUSH2 0x8A4 JUMPI PUSH2 0x8A4 PUSH2 0x1362 JUMP JUMPDEST PUSH1 0x0 SWAP2 DUP3 MSTORE PUSH1 0x20 SWAP1 SWAP2 KECCAK256 ADD SLOAD PUSH1 0x1 PUSH1 0x1 PUSH1 0xA0 SHL SUB AND SUB PUSH2 0x9CB JUMPI CALLER PUSH1 0x0 SWAP1 DUP2 MSTORE PUSH1 0x1 PUSH1 0x20 DUP2 SWAP1 MSTORE PUSH1 0x40 SWAP1 SWAP2 KECCAK256 DUP1 SLOAD SWAP1 SWAP2 PUSH2 0x8DD SWAP2 PUSH2 0x1378 JUMP JUMPDEST DUP2 SLOAD DUP2 LT PUSH2 0x8ED JUMPI PUSH2 0x8ED PUSH2 0x1362 JUMP JUMPDEST PUSH1 0x0 SWAP2 DUP3 MSTORE PUSH1 0x20 DUP1 DUP4 KECCAK256 SWAP1 SWAP2 ADD SLOAD CALLER DUP4 MSTORE PUSH1 0x1 SWAP1 SWAP2 MSTORE PUSH1 0x40 SWAP1 SWAP2 KECCAK256 DUP1 SLOAD PUSH1 0x1 PUSH1 0x1 PUSH1 0xA0 SHL SUB SWAP1 SWAP3 AND SWAP2 DUP4 SWAP1 DUP2 LT PUSH2 0x926 JUMPI PUSH2 0x926 PUSH2 0x1362 JUMP JUMPDEST PUSH1 0x0 SWAP2 DUP3 MSTORE PUSH1 0x20 DUP1 DUP4 KECCAK256 SWAP2 SWAP1 SWAP2 ADD DUP1 SLOAD PUSH1 0x1 PUSH1 0x1 PUSH1 0xA0 SHL SUB NOT AND PUSH1 0x1 PUSH1 0x1 PUSH1 0xA0 SHL SUB SWAP5 SWAP1 SWAP5 AND SWAP4 SWAP1 SWAP4 OR SWAP1 SWAP3 SSTORE CALLER DUP2 MSTORE PUSH1 0x1 SWAP1 SWAP2 MSTORE PUSH1 0x40 SWAP1 KECCAK256 DUP1 SLOAD DUP1 PUSH2 0x96E JUMPI PUSH2 0x96E PUSH2 0x139F JUMP JUMPDEST PUSH1 0x0 DUP3 DUP2 MSTORE PUSH1 0x20 DUP2 KECCAK256 DUP3 ADD PUSH1 0x0 NOT SWAP1 DUP2 ADD DUP1 SLOAD PUSH1 0x1 PUSH1 0x1 PUSH1 0xA0 SHL SUB NOT AND SWAP1 SSTORE SWAP1 SWAP2 ADD SWAP1 SWAP2 SSTORE PUSH1 0x40 MLOAD PUSH1 0x1 PUSH1 0x1 PUSH1 0xA0 SHL SUB DUP5 AND SWAP2 CALLER SWAP2 PUSH32 0x825C8BE24EB0DF19500F63E86C29E7D0D951E73056B889B891D85E40938D9B6E SWAP2 SWAP1 LOG3 POP POP JUMP JUMPDEST PUSH1 0x1 ADD PUSH2 0x860 JUMP JUMPDEST POP POP JUMP JUMPDEST PUSH1 0x1 PUSH1 0x1 PUSH1 0xA0 SHL SUB DUP2 DUP2 AND PUSH1 0x0 SWAP1 DUP2 MSTORE PUSH1 0x20 DUP2 SWAP1 MSTORE PUSH1 0x40 SWAP1 KECCAK256 PUSH1 0x1 ADD SLOAD PUSH1 0x60 SWAP2 DUP3 SWAP2 DUP3 SWAP2 AND PUSH2 0xA38 JUMPI PUSH1 0x40 MLOAD PUSH3 0x461BCD PUSH1 0xE5 SHL DUP2 MSTORE PUSH1 0x20 PUSH1 0x4 DUP3 ADD MSTORE PUSH1 0xD PUSH1 0x24 DUP3 ADD MSTORE PUSH13 0x2737902224A2103337BAB73217 PUSH1 0x99 SHL PUSH1 0x44 DUP3 ADD MSTORE PUSH1 0x64 ADD PUSH2 0x1E0 JUMP JUMPDEST PUSH1 0x1 PUSH1 0x1 PUSH1 0xA0 SHL SUB DUP5 AND PUSH1 0x0 SWAP1 DUP2 MSTORE PUSH1 0x2 PUSH1 0x20 MSTORE PUSH1 0x40 SWAP1 KECCAK256 SLOAD DUP1 PUSH8 0xFFFFFFFFFFFFFFFF DUP2 GT ISZERO PUSH2 0xA6A JUMPI PUSH2 0xA6A PUSH2 0x1037 JUMP JUMPDEST PUSH1 0x40 MLOAD SWAP1 DUP1 DUP3 MSTORE DUP1 PUSH1 0x20 MUL PUSH1 0x20 ADD DUP3 ADD PUSH1 0x40 MSTORE DUP1 ISZERO PUSH2 0xA9D JUMPI DUP2 PUSH1 0x20 ADD JUMPDEST PUSH1 0x60 DUP2 MSTORE PUSH1 0x20 ADD SWAP1 PUSH1 0x1 SWAP1 SUB SWAP1 DUP2 PUSH2 0xA88 JUMPI SWAP1 POP JUMPDEST POP SWAP4 POP DUP1 PUSH8 0xFFFFFFFFFFFFFFFF DUP2 GT ISZERO PUSH2 0xAB9 JUMPI PUSH2 0xAB9 PUSH2 0x1037 JUMP JUMPDEST PUSH1 0x40 MLOAD SWAP1 DUP1 DUP3 MSTORE DUP1 PUSH1 0x20 MUL PUSH1 0x20 ADD DUP3 ADD PUSH1 0x40 MSTORE DUP1 ISZERO PUSH2 0xAE2 JUMPI DUP2 PUSH1 0x20 ADD PUSH1 0x20 DUP3 MUL DUP1 CALLDATASIZE DUP4 CALLDATACOPY ADD SWAP1 POP JUMPDEST POP SWAP3 POP DUP1 PUSH8 0xFFFFFFFFFFFFFFFF DUP2 GT ISZERO PUSH2 0xAFE JUMPI PUSH2 0xAFE PUSH2 0x1037 JUMP JUMPDEST PUSH1 0x40 MLOAD SWAP1 DUP1 DUP3 MSTORE DUP1 PUSH1 0x20 MUL PUSH1 0x20 ADD DUP3 ADD PUSH1 0x40 MSTORE DUP1 ISZERO PUSH2 0xB27 JUMPI DUP2 PUSH1 0x20 ADD PUSH1 0x20 DUP3 MUL DUP1 CALLDATASIZE DUP4 CALLDATACOPY ADD SWAP1 POP JUMPDEST POP SWAP2 POP PUSH1 0x0 JUMPDEST DUP2 DUP2 LT ISZERO PUSH2 0xCAF JUMPI PUSH1 0x1 PUSH1 0x1 PUSH1 0xA0 SHL SUB DUP7 AND PUSH1 0x0 SWAP1 DUP2 MSTORE PUSH1 0x2 PUSH1 0x20 MSTORE PUSH1 0x40 DUP2 KECCAK256 DUP1 SLOAD DUP4 SWAP1 DUP2 LT PUSH2 0xB5F JUMPI PUSH2 0xB5F PUSH2 0x1362 JUMP JUMPDEST SWAP1 PUSH1 0x0 MSTORE PUSH1 0x20 PUSH1 0x0 KECCAK256 SWAP1 PUSH1 0x3 MUL ADD PUSH1 0x40 MLOAD DUP1 PUSH1 0x60 ADD PUSH1 0x40 MSTORE SWAP1 DUP2 PUSH1 0x0 DUP3 ADD DUP1 SLOAD PUSH2 0xB88 SWAP1 PUSH2 0x121A JUMP JUMPDEST DUP1 PUSH1 0x1F ADD PUSH1 0x20 DUP1 SWAP2 DIV MUL PUSH1 0x20 ADD PUSH1 0x40 MLOAD SWAP1 DUP2 ADD PUSH1 0x40 MSTORE DUP1 SWAP3 SWAP2 SWAP1 DUP2 DUP2 MSTORE PUSH1 0x20 ADD DUP3 DUP1 SLOAD PUSH2 0xBB4 SWAP1 PUSH2 0x121A JUMP JUMPDEST DUP1 ISZERO PUSH2 0xC01 JUMPI DUP1 PUSH1 0x1F LT PUSH2 0xBD6 JUMPI PUSH2 0x100 DUP1 DUP4 SLOAD DIV MUL DUP4 MSTORE SWAP2 PUSH1 0x20 ADD SWAP2 PUSH2 0xC01 JUMP JUMPDEST DUP3 ADD SWAP2 SWAP1 PUSH1 0x0 MSTORE PUSH1 0x20 PUSH1 0x0 KECCAK256 SWAP1 JUMPDEST DUP2 SLOAD DUP2 MSTORE SWAP1 PUSH1 0x1 ADD SWAP1 PUSH1 0x20 ADD DUP1 DUP4 GT PUSH2 0xBE4 JUMPI DUP3 SWAP1 SUB PUSH1 0x1F AND DUP3 ADD SWAP2 JUMPDEST POP POP POP SWAP2 DUP4 MSTORE POP POP PUSH1 0x1 DUP3 ADD SLOAD PUSH1 0x1 PUSH1 0x1 PUSH1 0xA0 SHL SUB AND PUSH1 0x20 DUP3 ADD MSTORE PUSH1 0x2 SWAP1 SWAP2 ADD SLOAD PUSH1 0x40 SWAP1 SWAP2 ADD MSTORE DUP1 MLOAD DUP8 MLOAD SWAP2 SWAP3 POP SWAP1 DUP8 SWAP1 DUP5 SWAP1 DUP2 LT PUSH2 0xC42 JUMPI PUSH2 0xC42 PUSH2 0x1362 JUMP JUMPDEST PUSH1 0x20 MUL PUSH1 0x20 ADD ADD DUP2 SWAP1 MSTORE POP DUP1 PUSH1 0x20 ADD MLOAD DUP6 DUP4 DUP2 MLOAD DUP2 LT PUSH2 0xC64 JUMPI PUSH2 0xC64 PUSH2 0x1362 JUMP JUMPDEST PUSH1 0x20 MUL PUSH1 0x20 ADD ADD SWAP1 PUSH1 0x1 PUSH1 0x1 PUSH1 0xA0 SHL SUB AND SWAP1 DUP2 PUSH1 0x1 PUSH1 0x1 PUSH1 0xA0 SHL SUB AND DUP2 MSTORE POP POP DUP1 PUSH1 0x40 ADD MLOAD DUP5 DUP4 DUP2 MLOAD DUP2 LT PUSH2 0xC9B JUMPI PUSH2 0xC9B PUSH2 0x1362 JUMP JUMPDEST PUSH1 0x20 SWAP1 DUP2 MUL SWAP2 SWAP1 SWAP2 ADD ADD MSTORE POP PUSH1 0x1 ADD PUSH2 0xB2D JUMP JUMPDEST POP POP SWAP2 SWAP4 SWAP1 SWAP3 POP JUMP JUMPDEST PUSH1 0x0 DUP2 MLOAD GT PUSH2 0xD09 JUMPI PUSH1 0x40 MLOAD PUSH3 0x461BCD PUSH1 0xE5 SHL DUP2 MSTORE PUSH1 0x20 PUSH1 0x4 DUP3 ADD MSTORE PUSH1 0x1A PUSH1 0x24 DUP3 ADD MSTORE PUSH32 0x4950465320686173682063616E6E6F7420626520656D7074792E000000000000 PUSH1 0x44 DUP3 ADD MSTORE PUSH1 0x64 ADD PUSH2 0x1E0 JUMP JUMPDEST CALLER PUSH1 0x0 SWAP1 DUP2 MSTORE PUSH1 0x20 DUP2 SWAP1 MSTORE PUSH1 0x40 SWAP1 KECCAK256 PUSH1 0x1 ADD SLOAD PUSH1 0x1 PUSH1 0x1 PUSH1 0xA0 SHL SUB AND PUSH2 0xD61 JUMPI PUSH1 0x40 MLOAD PUSH3 0x461BCD PUSH1 0xE5 SHL DUP2 MSTORE PUSH1 0x20 PUSH1 0x4 DUP3 ADD MSTORE PUSH1 0xD PUSH1 0x24 DUP3 ADD MSTORE PUSH13 0x2737902224A2103337BAB73217 PUSH1 0x99 SHL PUSH1 0x44 DUP3 ADD MSTORE PUSH1 0x64 ADD PUSH2 0x1E0 JUMP JUMPDEST CALLER PUSH1 0x0 DUP2 DUP2 MSTORE PUSH1 0x2 PUSH1 0x20 SWAP1 DUP2 MSTORE PUSH1 0x40 DUP1 DUP4 KECCAK256 DUP2 MLOAD PUSH1 0x60 DUP2 ADD DUP4 MSTORE DUP7 DUP2 MSTORE DUP1 DUP5 ADD SWAP6 SWAP1 SWAP6 MSTORE TIMESTAMP SWAP2 DUP6 ADD SWAP2 SWAP1 SWAP2 MSTORE DUP1 SLOAD PUSH1 0x1 DUP2 ADD DUP3 SSTORE SWAP1 DUP4 MSTORE SWAP2 KECCAK256 DUP3 MLOAD PUSH1 0x3 SWAP1 SWAP3 MUL ADD SWAP1 DUP2 SWAP1 PUSH2 0xDAF SWAP1 DUP3 PUSH2 0x12A3 JUMP JUMPDEST POP PUSH1 0x20 DUP3 ADD MLOAD PUSH1 0x1 DUP3 ADD DUP1 SLOAD PUSH1 0x1 PUSH1 0x1 PUSH1 0xA0 SHL SUB NOT AND PUSH1 0x1 PUSH1 0x1 PUSH1 0xA0 SHL SUB SWAP1 SWAP3 AND SWAP2 SWAP1 SWAP2 OR SWAP1 SSTORE PUSH1 0x40 SWAP2 DUP3 ADD MLOAD PUSH1 0x2 SWAP1 SWAP2 ADD SSTORE MLOAD CALLER SWAP1 PUSH32 0x44626CFEC8A165F72396CC5E247C6B96279F8C205A8D07C390DF7AA5806205FA SWAP1 PUSH2 0x627 SWAP1 DUP5 SWAP1 PUSH2 0xFCC JUMP JUMPDEST CALLER PUSH1 0x0 SWAP1 DUP2 MSTORE PUSH1 0x20 DUP2 SWAP1 MSTORE PUSH1 0x40 SWAP1 KECCAK256 PUSH1 0x1 ADD SLOAD PUSH1 0x1 PUSH1 0x1 PUSH1 0xA0 SHL SUB AND PUSH2 0xE6A JUMPI PUSH1 0x40 MLOAD PUSH3 0x461BCD PUSH1 0xE5 SHL DUP2 MSTORE PUSH1 0x20 PUSH1 0x4 DUP3 ADD MSTORE PUSH1 0xD PUSH1 0x24 DUP3 ADD MSTORE PUSH13 0x2737902224A2103337BAB73217 PUSH1 0x99 SHL PUSH1 0x44 DUP3 ADD MSTORE PUSH1 0x64 ADD PUSH2 0x1E0 JUMP JUMPDEST CALLER PUSH1 0x0 SWAP1 DUP2 MSTORE PUSH1 0x20 DUP2 SWAP1 MSTORE PUSH1 0x40 SWAP1 KECCAK256 PUSH1 0x1 ADD DUP1 SLOAD DUP3 SWAP2 SWAP1 PUSH1 0xFF PUSH1 0xA0 SHL NOT AND PUSH1 0x1 PUSH1 0xA0 SHL DUP4 PUSH1 0x2 DUP2 GT ISZERO PUSH2 0xE9F JUMPI PUSH2 0xE9F PUSH2 0x11DC JUMP JUMPDEST MUL OR SWAP1 SSTORE POP CALLER PUSH1 0x1 PUSH1 0x1 PUSH1 0xA0 SHL SUB AND PUSH32 0x4AC36FA53F167CEB85964BE512E01DE2A3B8BDB9862F917DA079DEEEFF689B38 DUP3 PUSH1 0x40 MLOAD PUSH2 0x627 SWAP2 SWAP1 PUSH2 0x11F2 JUMP JUMPDEST CALLER PUSH1 0x0 SWAP1 DUP2 MSTORE PUSH1 0x20 DUP2 SWAP1 MSTORE PUSH1 0x40 DUP2 KECCAK256 PUSH1 0x1 ADD SLOAD PUSH1 0x1 PUSH1 0x1 PUSH1 0xA0 SHL SUB AND PUSH2 0xF35 JUMPI PUSH1 0x40 MLOAD PUSH3 0x461BCD PUSH1 0xE5 SHL DUP2 MSTORE PUSH1 0x20 PUSH1 0x4 DUP3 ADD MSTORE PUSH1 0xD PUSH1 0x24 DUP3 ADD MSTORE PUSH13 0x2737902224A2103337BAB73217 PUSH1 0x99 SHL PUSH1 0x44 DUP3 ADD MSTORE PUSH1 0x64 ADD PUSH2 0x1E0 JUMP JUMPDEST POP CALLER PUSH1 0x0 SWAP1 DUP2 MSTORE PUSH1 0x20 DUP2 SWAP1 MSTORE PUSH1 0x40 SWAP1 KECCAK256 PUSH1 0x1 ADD SLOAD PUSH1 0x1 PUSH1 0xA0 SHL SWAP1 DIV PUSH1 0xFF AND SWAP1 JUMP JUMPDEST PUSH1 0x0 PUSH1 0x20 DUP3 DUP5 SUB SLT ISZERO PUSH2 0xF68 JUMPI PUSH1 0x0 DUP1 REVERT JUMPDEST DUP2 CALLDATALOAD PUSH1 0x1 PUSH1 0x1 PUSH1 0xA0 SHL SUB DUP2 AND DUP2 EQ PUSH2 0xF7F JUMPI PUSH1 0x0 DUP1 REVERT JUMPDEST SWAP4 SWAP3 POP POP POP JUMP JUMPDEST PUSH1 0x0 DUP2 MLOAD DUP1 DUP5 MSTORE PUSH1 0x0 JUMPDEST DUP2 DUP2 LT ISZERO PUSH2 0xFAC JUMPI PUSH1 0x20 DUP2 DUP6 ADD DUP2 ADD MLOAD DUP7 DUP4 ADD DUP3 ADD MSTORE ADD PUSH2 0xF90 JUMP JUMPDEST POP PUSH1 0x0 PUSH1 0x20 DUP3 DUP7 ADD ADD MSTORE PUSH1 0x20 PUSH1 0x1F NOT PUSH1 0x1F DUP4 ADD AND DUP6 ADD ADD SWAP2 POP POP SWAP3 SWAP2 POP POP JUMP JUMPDEST PUSH1 0x20 DUP2 MSTORE PUSH1 0x0 PUSH2 0xF7F PUSH1 0x20 DUP4 ADD DUP5 PUSH2 0xF86 JUMP JUMPDEST PUSH1 0x0 DUP2 MLOAD DUP1 DUP5 MSTORE PUSH1 0x20 DUP5 ADD SWAP4 POP PUSH1 0x20 DUP4 ADD PUSH1 0x0 JUMPDEST DUP3 DUP2 LT ISZERO PUSH2 0x101A JUMPI DUP2 MLOAD PUSH1 0x1 PUSH1 0x1 PUSH1 0xA0 SHL SUB AND DUP7 MSTORE PUSH1 0x20 SWAP6 DUP7 ADD SWAP6 SWAP1 SWAP2 ADD SWAP1 PUSH1 0x1 ADD PUSH2 0xFF3 JUMP JUMPDEST POP SWAP4 SWAP5 SWAP4 POP POP POP POP JUMP JUMPDEST PUSH1 0x20 DUP2 MSTORE PUSH1 0x0 PUSH2 0xF7F PUSH1 0x20 DUP4 ADD DUP5 PUSH2 0xFDF JUMP JUMPDEST PUSH4 0x4E487B71 PUSH1 0xE0 SHL PUSH1 0x0 MSTORE PUSH1 0x41 PUSH1 0x4 MSTORE PUSH1 0x24 PUSH1 0x0 REVERT JUMPDEST PUSH1 0x0 PUSH1 0x20 DUP3 DUP5 SUB SLT ISZERO PUSH2 0x105F JUMPI PUSH1 0x0 DUP1 REVERT JUMPDEST DUP2 CALLDATALOAD PUSH8 0xFFFFFFFFFFFFFFFF DUP2 GT ISZERO PUSH2 0x1076 JUMPI PUSH1 0x0 DUP1 REVERT JUMPDEST DUP3 ADD PUSH1 0x1F DUP2 ADD DUP5 SGT PUSH2 0x1087 JUMPI PUSH1 0x0 DUP1 REVERT JUMPDEST DUP1 CALLDATALOAD PUSH8 0xFFFFFFFFFFFFFFFF DUP2 GT ISZERO PUSH2 0x10A1 JUMPI PUSH2 0x10A1 PUSH2 0x1037 JUMP JUMPDEST PUSH1 0x40 MLOAD PUSH1 0x1F DUP3 ADD PUSH1 0x1F NOT SWAP1 DUP2 AND PUSH1 0x3F ADD AND DUP2 ADD PUSH8 0xFFFFFFFFFFFFFFFF DUP2 GT DUP3 DUP3 LT OR ISZERO PUSH2 0x10D0 JUMPI PUSH2 0x10D0 PUSH2 0x1037 JUMP JUMPDEST PUSH1 0x40 MSTORE DUP2 DUP2 MSTORE DUP3 DUP3 ADD PUSH1 0x20 ADD DUP7 LT ISZERO PUSH2 0x10E8 JUMPI PUSH1 0x0 DUP1 REVERT JUMPDEST DUP2 PUSH1 0x20 DUP5 ADD PUSH1 0x20 DUP4 ADD CALLDATACOPY PUSH1 0x0 SWAP2 DUP2 ADD PUSH1 0x20 ADD SWAP2 SWAP1 SWAP2 MSTORE SWAP5 SWAP4 POP POP POP POP JUMP JUMPDEST PUSH1 0x0 PUSH1 0x20 DUP3 DUP5 SUB SLT ISZERO PUSH2 0x1118 JUMPI PUSH1 0x0 DUP1 REVERT JUMPDEST DUP2 CALLDATALOAD PUSH1 0x3 DUP2 LT PUSH2 0xF7F JUMPI PUSH1 0x0 DUP1 REVERT JUMPDEST PUSH1 0x0 PUSH1 0x60 DUP3 ADD PUSH1 0x60 DUP4 MSTORE DUP1 DUP7 MLOAD DUP1 DUP4 MSTORE PUSH1 0x80 DUP6 ADD SWAP2 POP PUSH1 0x80 DUP2 PUSH1 0x5 SHL DUP7 ADD ADD SWAP3 POP PUSH1 0x20 DUP9 ADD PUSH1 0x0 JUMPDEST DUP3 DUP2 LT ISZERO PUSH2 0x1180 JUMPI PUSH1 0x7F NOT DUP8 DUP7 SUB ADD DUP5 MSTORE PUSH2 0x116B DUP6 DUP4 MLOAD PUSH2 0xF86 JUMP JUMPDEST SWAP5 POP PUSH1 0x20 SWAP4 DUP5 ADD SWAP4 SWAP2 SWAP1 SWAP2 ADD SWAP1 PUSH1 0x1 ADD PUSH2 0x114F JUMP JUMPDEST POP POP POP POP DUP3 DUP2 SUB PUSH1 0x20 DUP5 ADD MSTORE PUSH2 0x1196 DUP2 DUP7 PUSH2 0xFDF JUMP JUMPDEST DUP4 DUP2 SUB PUSH1 0x40 DUP6 ADD MSTORE DUP5 MLOAD DUP1 DUP3 MSTORE PUSH1 0x20 DUP1 DUP8 ADD SWAP4 POP SWAP1 SWAP2 ADD SWAP1 PUSH1 0x0 JUMPDEST DUP2 DUP2 LT ISZERO PUSH2 0x11CF JUMPI DUP4 MLOAD DUP4 MSTORE PUSH1 0x20 SWAP4 DUP5 ADD SWAP4 SWAP1 SWAP3 ADD SWAP2 PUSH1 0x1 ADD PUSH2 0x11B1 JUMP JUMPDEST POP SWAP1 SWAP8 SWAP7 POP POP POP POP POP POP POP JUMP JUMPDEST PUSH4 0x4E487B71 PUSH1 0xE0 SHL PUSH1 0x0 MSTORE PUSH1 0x21 PUSH1 0x4 MSTORE PUSH1 0x24 PUSH1 0x0 REVERT JUMPDEST PUSH1 0x20 DUP2 ADD PUSH1 0x3 DUP4 LT PUSH2 0x1214 JUMPI PUSH4 0x4E487B71 PUSH1 0xE0 SHL PUSH1 0x0 MSTORE PUSH1 0x21 PUSH1 0x4 MSTORE PUSH1 0x24 PUSH1 0x0 REVERT JUMPDEST SWAP2 SWAP1 MSTORE SWAP1 JUMP JUMPDEST PUSH1 0x1 DUP2 DUP2 SHR SWAP1 DUP3 AND DUP1 PUSH2 0x122E JUMPI PUSH1 0x7F DUP3 AND SWAP2 POP JUMPDEST PUSH1 0x20 DUP3 LT DUP2 SUB PUSH2 0x124E JUMPI PUSH4 0x4E487B71 PUSH1 0xE0 SHL PUSH1 0x0 MSTORE PUSH1 0x22 PUSH1 0x4 MSTORE PUSH1 0x24 PUSH1 0x0 REVERT JUMPDEST POP SWAP2 SWAP1 POP JUMP JUMPDEST PUSH1 0x1F DUP3 GT ISZERO PUSH2 0x129E JUMPI DUP1 PUSH1 0x0 MSTORE PUSH1 0x20 PUSH1 0x0 KECCAK256 PUSH1 0x1F DUP5 ADD PUSH1 0x5 SHR DUP2 ADD PUSH1 0x20 DUP6 LT ISZERO PUSH2 0x127B JUMPI POP DUP1 JUMPDEST PUSH1 0x1F DUP5 ADD PUSH1 0x5 SHR DUP3 ADD SWAP2 POP JUMPDEST DUP2 DUP2 LT ISZERO PUSH2 0x129B JUMPI PUSH1 0x0 DUP2 SSTORE PUSH1 0x1 ADD PUSH2 0x1287 JUMP JUMPDEST POP POP JUMPDEST POP POP POP JUMP JUMPDEST DUP2 MLOAD PUSH8 0xFFFFFFFFFFFFFFFF DUP2 GT ISZERO PUSH2 0x12BD JUMPI PUSH2 0x12BD PUSH2 0x1037 JUMP JUMPDEST PUSH2 0x12D1 DUP2 PUSH2 0x12CB DUP5 SLOAD PUSH2 0x121A JUMP JUMPDEST DUP5 PUSH2 0x1254 JUMP JUMPDEST PUSH1 0x20 PUSH1 0x1F DUP3 GT PUSH1 0x1 DUP2 EQ PUSH2 0x1305 JUMPI PUSH1 0x0 DUP4 ISZERO PUSH2 0x12ED JUMPI POP DUP5 DUP3 ADD MLOAD JUMPDEST PUSH1 0x0 NOT PUSH1 0x3 DUP6 SWAP1 SHL SHR NOT AND PUSH1 0x1 DUP5 SWAP1 SHL OR DUP5 SSTORE PUSH2 0x129B JUMP JUMPDEST PUSH1 0x0 DUP5 DUP2 MSTORE PUSH1 0x20 DUP2 KECCAK256 PUSH1 0x1F NOT DUP6 AND SWAP2 JUMPDEST DUP3 DUP2 LT ISZERO PUSH2 0x1335 JUMPI DUP8 DUP6 ADD MLOAD DUP3 SSTORE PUSH1 0x20 SWAP5 DUP6 ADD SWAP5 PUSH1 0x1 SWAP1 SWAP3 ADD SWAP2 ADD PUSH2 0x1315 JUMP JUMPDEST POP DUP5 DUP3 LT ISZERO PUSH2 0x1353 JUMPI DUP7 DUP5 ADD MLOAD PUSH1 0x0 NOT PUSH1 0x3 DUP8 SWAP1 SHL PUSH1 0xF8 AND SHR NOT AND DUP2 SSTORE JUMPDEST POP POP POP POP PUSH1 0x1 SWAP1 DUP2 SHL ADD SWAP1 SSTORE POP JUMP JUMPDEST PUSH4 0x4E487B71 PUSH1 0xE0 SHL PUSH1 0x0 MSTORE PUSH1 0x32 PUSH1 0x4 MSTORE PUSH1 0x24 PUSH1 0x0 REVERT JUMPDEST DUP2 DUP2 SUB DUP2 DUP2 GT ISZERO PUSH2 0x1399 JUMPI PUSH4 0x4E487B71 PUSH1 0xE0 SHL PUSH1 0x0 MSTORE PUSH1 0x11 PUSH1 0x4 MSTORE PUSH1 0x24 PUSH1 0x0 REVERT JUMPDEST SWAP3 SWAP2 POP POP JUMP JUMPDEST PUSH4 0x4E487B71 PUSH1 0xE0 SHL PUSH1 0x0 MSTORE PUSH1 0x31 PUSH1 0x4 MSTORE PUSH1 0x24 PUSH1 0x0 REVERT INVALID LOG2 PUSH5 0x6970667358 0x22 SLT KECCAK256 NUMBER CALLDATACOPY 0xA9 BALANCE DUP1 0xE8 CALLER 0xFB PUSH12 0xA2F9297F13E7246F0E6372B7 0xDF 0xB8 0xEF CODECOPY 0x2D PUSH7 0xC8E7D328A36473 PUSH16 0x6C634300081A00330000000000000000 "
		},
		"gasEstimates": {
			"creation": {
				"codeDepositCost": "1019800",
				"executionCost": "1061",
				"totalCost": "1020861"
			},
			"external": {
				"addRecord(string)": "infinite",
				"assignRole(uint8)": "28398",
				"createDID(string)": "infinite",
				"getDelegates(address)": "infinite",
				"getRecords(address)": "infinite",
				"getRole()": "4756",
				"getRoleString()": "infinite",
				"grantAccess(address)": "54834",
				"revokeAccess(address)": "infinite",
				"updateRole(uint8)": "28524"
			}
		},
		"methodIdentifiers": {
			"addRecord(string)": "d81aa8c4",
			"assignRole(uint8)": "ec0b7b41",
			"createDID(string)": "3457d3e2",
			"getDelegates(address)": "169db77d",
			"getRecords(address)": "a0076e84",
			"getRole()": "fde08174",
			"getRoleString()": "13720fef",
			"grantAccess(address)": "0ae5e739",
			"revokeAccess(address)": "85e68531",
			"updateRole(uint8)": "61765a26"
		}
	},
	"abi": [
		{
			"anonymous": false,
			"inputs": [
				{
					"indexed": true,
					"internalType": "address",
					"name": "patient",
					"type": "address"
				},
				{
					"indexed": true,
					"internalType": "address",
					"name": "doctor",
					"type": "address"
				}
			],
			"name": "AccessGranted",
			"type": "event"
		},
		{
			"anonymous": false,
			"inputs": [
				{
					"indexed": true,
					"internalType": "address",
					"name": "patient",
					"type": "address"
				},
				{
					"indexed": true,
					"internalType": "address",
					"name": "doctor",
					"type": "address"
				}
			],
			"name": "AccessRevoked",
			"type": "event"
		},
		{
			"anonymous": false,
			"inputs": [
				{
					"indexed": true,
					"internalType": "address",
					"name": "owner",
					"type": "address"
				},
				{
					"indexed": false,
					"internalType": "string",
					"name": "identifier",
					"type": "string"
				}
			],
			"name": "DIDRegistered",
			"type": "event"
		},
		{
			"anonymous": false,
			"inputs": [
				{
					"indexed": true,
					"internalType": "address",
					"name": "patient",
					"type": "address"
				},
				{
					"indexed": false,
					"internalType": "string",
					"name": "ipfsHash",
					"type": "string"
				}
			],
			"name": "RecordAdded",
			"type": "event"
		},
		{
			"anonymous": false,
			"inputs": [
				{
					"indexed": true,
					"internalType": "address",
					"name": "owner",
					"type": "address"
				},
				{
					"indexed": false,
					"internalType": "enum DIDRegistry.Roles",
					"name": "role",
					"type": "uint8"
				}
			],
			"name": "RoleAssigned",
			"type": "event"
		},
		{
			"inputs": [
				{
					"internalType": "string",
					"name": "_ipfsHash",
					"type": "string"
				}
			],
			"name": "addRecord",
			"outputs": [],
			"stateMutability": "nonpayable",
			"type": "function"
		},
		{
			"inputs": [
				{
					"internalType": "enum DIDRegistry.Roles",
					"name": "_role",
					"type": "uint8"
				}
			],
			"name": "assignRole",
			"outputs": [],
			"stateMutability": "nonpayable",
			"type": "function"
		},
		{
			"inputs": [
				{
					"internalType": "string",
					"name": "_identifier",
					"type": "string"
				}
			],
			"name": "createDID",
			"outputs": [],
			"stateMutability": "nonpayable",
			"type": "function"
		},
		{
			"inputs": [
				{
					"internalType": "address",
					"name": "_owner",
					"type": "address"
				}
			],
			"name": "getDelegates",
			"outputs": [
				{
					"internalType": "address[]",
					"name": "",
					"type": "address[]"
				}
			],
			"stateMutability": "view",
			"type": "function"
		},
		{
			"inputs": [
				{
					"internalType": "address",
					"name": "_owner",
					"type": "address"
				}
			],
			"name": "getRecords",
			"outputs": [
				{
					"internalType": "string[]",
					"name": "ipfsHashes",
					"type": "string[]"
				},
				{
					"internalType": "address[]",
					"name": "uploadedBy",
					"type": "address[]"
				},
				{
					"internalType": "uint256[]",
					"name": "timestamps",
					"type": "uint256[]"
				}
			],
			"stateMutability": "view",
			"type": "function"
		},
		{
			"inputs": [],
			"name": "getRole",
			"outputs": [
				{
					"internalType": "enum DIDRegistry.Roles",
					"name": "",
					"type": "uint8"
				}
			],
			"stateMutability": "view",
			"type": "function"
		},
		{
			"inputs": [],
			"name": "getRoleString",
			"outputs": [
				{
					"internalType": "string",
					"name": "",
					"type": "string"
				}
			],
			"stateMutability": "view",
			"type": "function"
		},
		{
			"inputs": [
				{
					"internalType": "address",
					"name": "_doctor",
					"type": "address"
				}
			],
			"name": "grantAccess",
			"outputs": [],
			"stateMutability": "nonpayable",
			"type": "function"
		},
		{
			"inputs": [
				{
					"internalType": "address",
					"name": "_doctor",
					"type": "address"
				}
			],
			"name": "revokeAccess",
			"outputs": [],
			"stateMutability": "nonpayable",
			"type": "function"
		},
		{
			"inputs": [
				{
					"internalType": "enum DIDRegistry.Roles",
					"name": "_newRole",
					"type": "uint8"
				}
			],
			"name": "updateRole",
			"outputs": [],
			"stateMutability": "nonpayable",
			"type": "function"
		}
	]
}